:020000040800F2
:1000000070EE00209D010008A1390008B927000802
:100010009D390008D5030008E13D000800000000FC
:100020000000000000000000000000008D3A000801
:10003000E503000800000000A5390008913A000817
:10004000B7010008B7010008B7010008B7010008B0
:10005000B7010008B7010008B7010008B7010008A0
:10006000B7010008B7010008B7010008B701000890
:10007000B7010008B7010008B7010008D90300085C
:10008000B7010008B7010008B7010008B701000870
:10009000B7010008B7010008B7010008B701000860
:1000A000B7010008B7010008B7010008B701000850
:1000B000593B0008B7010008B7010008B701000864
:1000C000B7010008B7010008B7010008B701000830
:1000D000B7010008B7010008B7010008B701000820
:1000E000B7010008B7010008B7010008B701000810
:1000F000B7010008B7010008B7010008B701000800
:10010000B7010008B7010008B7010008B7010008EF
:10011000B7010008B7010008B7010008B7010008DF
:10012000B7010008B7010008B7010008B7010008CF
:10013000B70100080000000000000000B70100083F
:10014000B7010008B7010008B7010008B7010008AF
:10015000B7010008B7010008B7010008B70100089F
:10016000B7010008B7010008B7010008B70100088F
:10017000B7010008B70100080000000000000000FF
:10018000B7010008B7010008DFF80CD000F0BEF896
:10019000004800475914050870EE002006488047C3
:1001A00006480047FEE7FEE7FEE7FEE7FEE7FEE75C
:1001B000FEE7FEE7FEE7FEE7453B00088901000891
:1001C0002DE9F05F0546002092469B46884606468C
:1001D000814640241BE0284641464746224600F01F
:1001E00084F853465A46C01A914110D31146184616
:1001F000224600F06BF82D1A67EB01084F462246A5
:100200000120002100F062F817EB00094E41201E8A
:10021000A4F10104DFDC484631462A464346BDE8E6
:10022000F09F2DE9F0410024061B254671F10006E0
:1002300005DA01240027D0EB070067EB0101161E49
:1002400073F1000605DA0027D2EB0702012567EB00
:100250000303FFF7B5FF86460E4617469C46AC42A1
:1002600004D00025D0EB050E65EB010624B100207B
:10027000D2EB000760EB030C704631463A4663460A
:10028000BDE8F08140EA01039B0703D009E008C9FB
:10029000121F08C0042AFAD203E011F8013B00F84B
:1002A000013B521EF9D27047D2B201E000F8012B97
:1002B000491EFBD270470022F6E710B513460A46E6
:1002C00004461946FFF7F0FF204610BD202A04DB44
:1002D000203A00FA02F1002070479140C2F1200359
:1002E00020FA03F3194390407047202A04DB203A98
:1002F00021FA02F00021704721FA02F3D040C2F146
:10030000200291400843194670470000064C074DF3
:1003100006E0E06840F0010394E8070098471034D5
:10032000AC42F6D3FFF734FF645B0908845B09082D
:1003300070B58C1810F8015B15F0070301D110F8A7
:10034000013B2A1106D110F8012B03E010F8016BD4
:1003500001F8016B5B1EF9D12B0705D40023521E57
:100360000DD401F8013BFAE710F8013BCB1A921CBF
:1003700003E013F8015B01F8015B521EF9D5A142BD
:10038000D8D3002070BD000010B540F25834C2F23E
:100390000004206818B10020206003F00DFD6068A3
:1003A000022824BF00206060A0681E2838BF10BD4E
:1003B0000020A060BDE8104003F0E0BC40F25830DF
:1003C000C2F2000090E80E000132013101330EC08C
:1003D00070470000FEE7000040F29440C2F20000C7
:1003E00000F036BC70470000EFF3108072B600BF1B
:1003F000FEE700002DE9F04F89B040F6000A40F218
:1004000040410290C4F2020AC2F200010F2040F201
:10041000F44708704FF00009AAF500604FF0100B88
:100420004FF03008C2F200070DF1230606AD04AC10
:10043000039002E0012000F09DFD9020079043F220
:100440001240C7F6560006900398102100228DF83E
:100450001490CDF8109000F087FE50461021002235
:1004600000F082FE3846314601224FF0FF338DF80E
:10047000238001F0DFFB3846294605224FF0FF3389
:1004800001F0D8FB50461021012200F06DFE012042
:1004900000F070FD50461021002200F065FE384645
:1004A000314601224FF0FF338DF823B001F0C2FB3B
:1004B0003846214605224FF0FF3301F0BFFA50467F
:1004C0001021012200F050FE9DF810001228B1D139
:1004D0009DF811003428ADD19DF812005628A9D1FD
:1004E0009DF813007828A5D19DF814009028A1D17B
:1004F00003981021002200F037FE20208DF818000C
:1005000050461021002200F02FFE40F2F447312027
:10051000C2F200078DF823000DF1230138460122B5
:100520004FF0FF3301244FF0FF3501F083FB06A9A4
:1005300004AA38460123009501F0A8FC504610217A
:10054000012200F011FE40F2C826C2F20006307807
:1005500010218DF818005046002200F005FEE12021
:100560008DF823000DF12301384601224FF0FF33AF
:1005700001F060FB06A904AA38460123009501F0AA
:1005800085FC50461021012200F0EEFD307810214C
:100590008DF818005046002200F0E6FDE2208DF8AC
:1005A00023000DF12301384601224FF0FF3301F003
:1005B00041FB06A904AA38460123009501F066FC18
:1005C00050461021012200F0CFFD5046102100229C
:1005D00000F0CAFD30208DF8180006A93846012227
:1005E0004FF0FF3301F026FB4FF6D101C0F60501B5
:1005F000384605224FF0FF3301F01CFB5046102116
:10060000012200F0B1FD50461021002200F0ACFDA7
:100610002A208DF8180006A9384601224FF0FF3332
:1006200001F008FB4FF6CC01C0F605013846052263
:100630004FF0FF3301F0FEFA50461021012200F086
:1006400093FD02981021012812BF8DF818403F2019
:100650008DF818005046002200F086FD40F2F44468
:100660002120C2F200048DF823000DF12301204661
:1006700001224FF0FF3301F0DDFA06A904AA20465B
:100680000123009501F002FC50461021012200F0E8
:100690006BFD01208DF81800504610210022002526
:1006A00000F062FD40F2F4462220C2F200068DF80E
:1006B00023000DF12301304601224FF0FF334FF0AC
:1006C000FF3401F0B7FA06A904AA304601230094CA
:1006D00001F0DCFB50461021012200F045FD1A20FC
:1006E0008DF8180050461021002200F03DFD242016
:1006F0008DF823000DF12301304601224FF0FF3326
:1007000001F098FA06A904AA30460123009401F0EA
:10071000BDFB50461021012200F026FD504610215D
:1007200000228DF8185000F01FFD25208DF82300C1
:100730000DF12301304601224FF0FF3301F07AFA28
:1007400006A904AA30460123009401F09FFB5046FD
:100750001021012200F008FD0F208DF818005046EE
:100760001021002200F000FD26208DF823000DF15D
:100770002301304601224FF0FF3301F05BFA06A956
:1007800004AA30460123009401F080FB504610215A
:10079000012200F0E9FC40F24040C2F20000007883
:1007A00010218DF818005046002200F0DDFC2020BA
:1007B0008DF823000DF12301304601224FF0FF3365
:1007C00001F038FA06A904AA30460123009401F08A
:1007D0005DFB50461021012200F0C6FC0398102159
:1007E000012200F0C1FC09B0BDE8F08F70B581B006
:1007F0000022009290F83C20012A03D102210846F1
:1008000001B070BDD1F800E00122BEF10A0F80F8FE
:100810003C200BD31FFA8EF25200066812FA8EF2B9
:10082000A2F11E0306F10C0205E000BF06680EEB04
:100830004E0306F110024FF0070C15680CFA03F492
:10084000A54315608D68146805FA03F3234313600C
:100850004968062906D801EB8101053906F1340201
:100860000AE000BF0C2901EB810187BF413906F185
:100870002C02233906F130021F2314688B4024EA2E
:10088000030342F2043C1360C4F2010C1FFA8EF31E
:10089000146803FA01F1ACF5417321439E421160E3
:1008A0003ED1BEF1120F07D1DCF8001041F48001F7
:1008B000CCF8001034E000BF2EF0010110292FD138
:1008C000DCF80010BEF1100F41F40001CCF800106C
:1008D00026D140F2CC21C2F2000109684DF68362B4
:1008E000C4F21B32A1FB0212910C01EB8101490001
:1008F00000910099A1B1009901390091009979B155
:10090000009901390091009951B100990139009184
:10091000009929B100990139009100990029EAD183
:10092000002180F83C10084601B070BD0068C06C22
:1009300070470000002804BF0120704710B504462E
:10094000006C00283ED0206CC00645D4206C41F2DB
:1009500002118843023042F204312064C4F20101E2
:10096000086820F4403008600A6894E809101A43C7
:10097000D4F810E00A604168012321F480714160DD
:100980004168C0F6007341EA0E214160416821F0E0
:1009900040714160416841EA0C014160816821F485
:1009A00000618160E168826811438160A16A8268A8
:1009B000994222F070628260826813D122F0405125
:1009C00019E000BF204600F065F80020606484F85C
:1009D0003C00206CC006B9D50120002184F83C10F1
:1009E00010BD00BF11438160816821F040518160DA
:1009F000E16A826811438160816821F002018160AF
:100A00008168227E94F8203041EA42018160416889
:100A100083B141F40061416041684EF2000221F46B
:100A200060414160616ACFF6FF72436802EB413179
:100A3000194301E021F400614160C16A40F2000CF9
:100A400021F47001C162E2696169CFF6F07CC36A8A
:100A50000CEB02521A43C262826822F40072826076
:100A600094F83020836843EA42228260826822F44C
:100A700080628260826842EA812181600020606435
:100A8000216C012262F301012164002184F83C10F1
:100A900010BD000080B586B042F200010068C4F2CB
:100AA0000101002288420592049201D006B080BD67
:100AB00043F630000092C4F20200436943F48073AD
:100AC0004361436903F480730093009B00920368C1
:100AD00043F001030360006800F0010000900098FB
:100AE0000320CDE9010001F5604001A9039200F067
:100AF00055FA06B080BD000010B581B0002100910C
:100B000090F83C10012903D1022001B010BD00BFB4
:100B10000468012180F83C10214651F8083FDB07AA
:100B200029D10B684DF6836243F001030B6040F25C
:100B3000CC23C2F200031B68C4F21B32A3FB0223C6
:100B40009A0C02EB42020092009AA2B1009A013A7A
:100B50000092009A7AB1009A013A0092009A52B13A
:100B6000009A013A0092009A2AB1009A013A009242
:100B7000009A002AEAD10A68036CD2070AD143F02E
:100B80001001016400F1440101200A68104308606B
:100B900056E000BF40F2017223EA020202F58072C1
:100BA00002646268520504D5026C012363F30D32BE
:100BB0000264026C4FF0000E0023D20444BF426C6A
:100BC00022F0060342F2043C436480F83CE06FF0FC
:100BD0002200C4F2010C2060DCF80000C0060DD039
:100BE000ACF5417084422BD14FF60450CFF6FF7024
:100BF0005CF8000010F0405F22D125E042F20000D6
:100C0000C4F20100844217D042F20020C4F2010075
:100C100084420DD042F20010C4F2010084420FD190
:100C2000DCF80000C00607D0ACF58270844207D122
:100C3000DCF80000C00603D4086810F0405F03D061
:100C4000002001B010BD00BF4FF080409DE70000C4
:100C5000F0B581B004460020009040F2CC20C2F2F2
:100C600000000268D4E9166048F2B513376808211D
:100C7000C1F64E3381403942A2FB03250CD02268D5
:100C800013685B0708D5136823F004031360B16091
:100C9000616D41F00101616501218140394208D057
:100CA00022685269120604D5B160616D41F00201FB
:100CB000616504218140394208D022681268920798
:100CC00004D5B160616D41F004016165102181407E
:100CD000394217D020680268120713D5B160026844
:100CE0000168520308D4C90508D4016821F008013D
:100CF0000160216C21B905E008033FD4216C09B1E2
:100D000020468847E16D202000FA01F23A4241D0A6
:100D100020680368DB063DD5B26094F83530026880
:100D2000052B1BD122F016020260426922F08002DC
:100D30004261226C0AB9A26C1AB1026822F0080260
:100D400002603F208840B060012084F83500216DAA
:100D50000020002984F8340052D157E00168520382
:100D600010D4C90512D4016821F0100101600120DE
:100D700084F83500002084F8340007E0A16C0029D5
:100D8000BED1BFE7080301D4616C00E0E16B09B19B
:100D900020468847606DC8B3606DC0072ED005201F
:100DA00084F835002068A90A026822F00102026076
:100DB000009A01328A4200921AD80268D20717D0EC
:100DC000009A01328A42009212D80268D2070FD0EC
:100DD000009A01328A4200920AD80268D20707D0EC
:100DE000009A01328A42009202D80268D207DFD10B
:100DF000012084F83500002084F83400E16C29B12A
:100E0000204601B0BDE8F040084700BF01B0F0BD8A
:100E10002DE9F041044600F0ADF9002C4ED0054616
:100E2000022084F835000020216884F83400086826
:100E300020F0010008600868C00708D000F09AF9A7
:100E4000401B05286CD821680868C007F6D10868DF
:100E500048F23F02CFF21002D4E90135024004F11A
:100E60000C0E9EE8C1511A432A43104330433843C5
:100E700040EA0800626A40EA0C00042A40EA0E03D5
:100E800020D1D4E90A5E206B4EEA030210430860C9
:100E90004869BEF1000F20F0030040EA050040F071
:100EA000040C15D0B8F5005F42D0B8F1000F51D155
:100EB000022D52D0012D47D055B94EE00120BDE89A
:100EC000F08100BF0B60486920F0070040EA020C87
:100ED0006FF00F004AF6AB2250FA81F0CAF6AA2250
:100EE000A0FB02231A094FF6D013C0F605039A5C43
:100EF00040F2FF335F284FF03F00C1F814C021EAF1
:100F0000030100FA02F088BF0431C4E916128860B8
:100F1000002301220020636584F83520BDE8F081BC
:100F2000032220230320636584F83520BDE8F08187
:100F3000032DCDD8012240230120DFE805F0030E68
:100F4000030500BFE7E700BFAEF1C070B0FA80F064
:100F5000400904E0032D04D3BAD1CEF30060002889
:100F6000B6D0012240230120636584F83520BDE816
:100F7000F0810000B0B5044600F0FCF8054640F2F0
:100F80000000C2F200000078611C18BF044400BFDA
:100F900000F0F0F8401BA042FAD3B0BD2DE9F04FAD
:100FA00082B000F13E4241F6004502F1FF77C4F203
:100FB000020508224FEAB726A84208BF0722072EDB
:100FC00038BF4FEAB7224FF0010E002400274FF040
:100FD0000008009208E000BF023708F10108202F46
:100FE00004F1040400F0B4800E680EFA08F916EA61
:100FF000090FF1D0D1F804A00AF0030BABF1010600
:10100000012E19D80322866802FA07FECA6826EA6A
:101010000E06BA40324382604268CAF3001522EAE3
:10102000090205FA08F54FEA480C6FEA0E064FF080
:10103000010E2A4342600BE00322BA40D643BBF1C3
:10104000030FBC4604D1BC464FF0030B24E000BFA5
:10105000C2688D68324005FA0CF52A43BBF1020FD5
:10106000C26019D16FF0030202EA5802024404F090
:101070001C030F25D2F820E005FA03FA0D692EEAC9
:101080000A0E05FA03F343EA0E031362D1F804A033
:101090004FF0010E0AF0030B02680BFA0CF332401A
:1010A0001A431AF4403F026096D0002243F64403EC
:1010B0000192C4F202031A6843F6004C42F48042E3
:1010C0001A601A68C4F2010C02F480420192019A7B
:1010D00028F003024FF6084A6244CFF6FF7A52F82E
:1010E0000A3004F00C060F25B540AB43009D05FA0D
:1010F00006F6334342F80A30DCF800204B6842EA37
:101100000906DD0358BF22EA0906CCF80060DCF8C6
:1011100004209D0342EA090658BF22EA0906CCF8DA
:101120000460DCF80820DD0242EA090643F60C45BB
:1011300058BF22EA0906CCF80860C4F201052A6803
:101140009B0242EA090658BF22EA09062E6043E7DD
:1011500002B0BDE8F08F0000426902EA010391434A
:1011600041EA034181617047002A08BF0904816197
:10117000704700004DF66860C2F2000000687047DA
:1011800040F200004DF66861C2F20000C2F20001B8
:1011900000780A68104408607047000080B543F684
:1011A0000040C4F20200016841F40071016001686E
:1011B00041F480610160016841F4807101600320A5
:1011C00000F084F8002000F005F800F027F8002077
:1011D00080BD000070B540F20006C2F2000640F289
:1011E000CC213278C2F200014FF47A730968B3FB64
:1011F000F2F20446B1FBF2F1084600F0D3FF0F2CE7
:101200004FF0010508D838B94FF0FF3021460022D1
:10121000002500F02FF87460284670BD82B00020D1
:1012200043F640010190C4F202014A6842F4804250
:101230004A604A6802F480420192019A009008686C
:1012400040F080500860086800F0805000900098DE
:1012500002B07047002848BF704700F01F0101220C
:1012600002FA01F14EF200124009CEF2000242F8F9
:101270002010704710B54EF60C5CCEF2000CDCF876
:101280000030C3F3022E8EF00704042C28BF042480
:10129000BEF103034FF0FF3E0EFA04F438BF002303
:1012A000A14399400EFA03F39A43114300F00F0251
:1012B000043A624409010C3200F16043B0F1FF3F8F
:1012C000C8BF03F56442117010BD00004EF60C510A
:1012D000CEF200010A684FF6FF031A4060F30A22BB
:1012E00042F0806040F0FD70086070472DE9F041E9
:1012F000002800F08B8043F60808C4F20208044678
:10130000D8F8F8030D4600F00700884207D288F8A5
:10131000F853D8F8F80300F00700A84276D1206807
:10132000810717D5410705D5D8F8001041F4E051E1
:10133000C8F80010010705D5D8F8001041F4604145
:10134000C8F80010D8F80010A26821F0F00111438D
:10135000C8F80010C0073FD1D8F8F80300F0070024
:10136000A84207D988F8F853D8F8F80300F0070026
:10137000A8424BD12068410707D5D8F80010E26891
:1013800021F4E0511143C8F80010000708D5D8F83F
:101390000000216920F4604040EAC100C8F8000064
:1013A00000F054F8D8F800104FF6BC02C1F3031156
:1013B000C0F60502515C40F2CC2220FA01F140F265
:1013C0000400C2F200000068C2F200021160FFF7E0
:1013D00001FF0020BDE8F0816068811E022907D26C
:1013E00058F8081C89015CBF0120BDE8F08111E0BC
:1013F000012807D158F8081C89035CBF0120BDE80B
:10140000F08107E058F8081C890703D40120BDE8E3
:10141000F08100BFD8F8001021F003010843C8F89C
:101420000000FFF7A7FE064641F28837D8F8000013
:10143000616800F00C00B0EB810F8DD0FFF79AFED1
:10144000801BB842F2D90320BDE8F08110B543F605
:101450000404C4F20204606800F00C0142F200408F
:101460000829C0F2F40007D0042918BF10BD41F2CA
:101470000020C0F27A0010BD216801F03F0221680F
:1014800023684902C3F3881106D4A1FB000100239D
:10149000FEF796FE07E000BF41F20020C0F27A009E
:1014A0004843B0FBF2F021680222C1F3014102EB94
:1014B0004101B0FBF1F010BD2DE9F04182B00028F0
:1014C0006AD00446007843F60006C007C4F202065C
:1014D0000BD0B06800F00C00042840F0A180306808
:1014E000800302D56068002856D0207880071AD57E
:1014F000B06810F00C0F09D0B06800F00C0008289C
:1015000040F0A8807068400200F1A4803068800735
:1015100002D5E06801283FD13068216920F0F80049
:1015200040EAC10030602078000739D420784007B5
:101530004ED4A5695DB3B06800F00C00082840F0F7
:10154000BD80012D28D07068E16900F480028A42D4
:1015500022D1216A00F03F028A421DD147F6C071B4
:10156000626A0140B1EB821F16D1A26A0023CFF656
:10157000FF7303EBC23200F440316FF30F0291426C
:101580000AD1E16A00F07060B0EB016F04D1002075
:1015900002B0BDE8F08100BF012002B0BDE8F081DB
:1015A0006069002840F20000C4F2472076D0012193
:1015B000C0F8801EFFF7DEFD054600BF706F800794
:1015C000B4D4FFF7D7FD401B0228F7D9DDE000BFF8
:1015D000306C10F080580AD100200190306C40F03F
:1015E00080503064306C00F080500190019847F2D8
:1015F0000007C4F200073868C00541D4386840F4D9
:1016000080703860FFF7B6FD054600BF3868C0053A
:1016100036D4FFF7AFFD401B0228F7D9B5E000BF75
:10162000B06800F00C00082803D1706840023FF554
:1016300056AF6068B0F5803F07D0B0F5A02F40F0FE
:101640008D80306840F480203060306840F4803015
:1016500030608DE0E068002852D00020C4F24720BE
:1016600001210160FFF786FD054600BF3068800755
:101670003FF552AFFFF77EFD401B0228F6D984E00C
:10168000A068012805D005284ED1306F40F0040035
:101690003067306F40F0010030674FE00021C0F844
:1016A000801EFFF767FD0546706F80077FF53EAF30
:1016B000FFF760FD401B0228F6D966E00027C4F260
:1016C000472700203866FFF755FD022D05460BD150
:1016D000306880015ED5FFF74DFD401B02284FF0BA
:1016E0000300F5D954E700BF306880017FF54FAFA4
:1016F000FFF740FD401B02284FF00300F4D947E7F5
:101700000020C4F2472000210160FFF733FD0546A9
:10171000306880077FF507AFFFF72CFD401B0228DC
:101720004FF00300F4D933E7316F002821F00101B5
:101730003167316F21F0040131674DD0FFF71AFD99
:10174000054641F2883700BF306F800756D4FFF757
:1017500011FD401BB842F7D917E000BF31680028DF
:1017600021F480313160316821F4802131604FD023
:10177000FFF700FD054600BF306880033FF5B5AEBA
:10178000FFF7F8FC401B6428F6D9032002B0BDE83F
:10179000F08100BF04F11C052FCD08430021CFF6D6
:1017A000FF7140EA821001EBC3316FF30F0140EA91
:1017B00005600843706001203866FFF7DBFC0446D3
:1017C000306880013FF5E3AEFFF7D4FC001B022830
:1017D0004FF00300F4D9DBE6FFF7CCFC054641F2FD
:1017E000883700BF306F800708D5FFF7C3FC401B68
:1017F000B8424FF00300F5D9CAE600BFB8F1000FB8
:101800007FF497AE306C20F08050306491E600BFDA
:10181000FFF7B0FC054600BF306880037FF565AE7A
:10182000FFF7A8FC401B64284FF00300F4D9AFE693
:1018300070B538B10446406A30B10020206104F12F
:10184000140007E0012070BD6068B0F5827F03D00E
:1018500004F11C00002101600026A66294F85100EA
:1018600020B9204684F8506000F03CF8022084F84B
:10187000510094E80F0001F48271056802F40442FB
:1018800025F040050560114403F40062236911440A
:1018900003F002026369114403F00102A369E569E0
:1018A000114403F40072114405F03802256A114412
:1018B00005F08002A56A114305F40052114301604E
:1018C000626A042101EA134102F0100211444160EE
:1018D000C16921F40061C1610120666584F851008D
:1018E000304670BD2DE9F04F87B00446006843F6DE
:1018F0000001C4F2000100268842CDE90566CDE969
:101900000366029632D043F20001C4F2010188421C
:1019100040F09080002043F630010190C4F20201B3
:101920004A6942F480524A614A6902F48052019243
:10193000019A01900A6842F001020A60096801F008
:10194000010101910199E02102910221CDE90310E9
:1019500003200590052006900020C4F2020002A991
:10196000FFF71CFB07B0BDE8F08F00BF43F6300760
:101970000196C4F20207386940F2000B40F480403F
:1019800038613869C4F2020B00F48040019001987C
:101990000196386802AD40F00400386038684FF0B6
:1019A000020800F0040001900198019638684FF099
:1019B000030940F00200386038684FF0050A00F073
:1019C0000200019001980C2002900BF5006029465E
:1019D000CDE90386CDF81490CDF818A0FFF7DEFA14
:1019E0004FF48060CDE9020804A880E840060BF5BA
:1019F00080602946FFF7D2FA40F2944507F521505E
:101A0000C2F20005C5E900064FF48060C5E904068E
:101A10004FF480304021C5E908062846C5E9021682
:101A2000C5E90666FFF7F4F9002818BFFEF7DCFCED
:101A3000A564AC6307B0BDE8F08F00002DE9F0436A
:101A400081B0044640681D461746B0F5827F0E46B9
:101A500002D1A068002867D094F85000012803D173
:101A6000022001B0BDE8F0834FF0010984F85090E6
:101A7000FFF780FB94F85110012953D18046002EC6
:101A80004FF0010018BF002F00F0C7800420002194
:101A900084F851006165A663A787E7872163A18663
:101AA000E186A2682068B2F5004F2164616449D0E4
:101AB0000168490651D5E168002955D0E18F002918
:101AC00000F08480691C1AD08168C90706D1FFF72D
:101AD00051FBA0EB0800A84208D3A7E0C068A16BA7
:101AE00021F8020BA163E08F0138E087E08F002826
:101AF0006CD020688168C907E9D0EFE72068816869
:101B0000C90703D1FFF736FB08E000BFC068A16B2F
:101B100021F8020BA163E08F0138E087E08F0028F5
:101B2000ECD153E0022078E0042084F851002046F4
:101B3000314632463B46009500F0A8F901B0BDE8B9
:101B4000F08300BF016821F040010160016821F4C9
:101B50008041016001684906ADD4016841F040014F
:101B60000160E1680029A9D1E18F79B3691C1AD01D
:101B70008168C90706D1FFF7FDFAA0EB0800A8426B
:101B800009D355E0007BA16B0870A06B0130A06306
:101B9000E08F0138E087E08FC0B120688168C90715
:101BA000E9D0EFE720688168C90703D1FFF7E2FABF
:101BB00009E000BF007BA16B0870A06B0130A0633F
:101BC000E08F0138E087E08F0028EBD16068B0F546
:101BD000827F0ED1A068B0F5004F02D0B0F5806FC3
:101BE0000AD12168B0F5806F0A6822F040020A60CD
:101BF00002D12046012101E0204680212A464346A9
:101C000001F0D2FE28B1606D40F020006065202018
:101C10006065606D002818BF0120002184F8519094
:101C200084F8501001B0BDE8F08300BF0320F4E752
:101C30000320F2E72DE9F04383B0044690F850000A
:101C4000012803D1022003B0BDE8F0834FF0010961
:101C50001D4616460F4684F85090FFF78BFA94F80D
:101C60005110012972D18046002F4FF0010018BF9A
:101C7000002E00F0D6800320002184F85100616519
:101C80002763A686E686A163A187E187A068216411
:101C9000B0F5004F2068616407D1016821F0400170
:101CA0000160016841F4804101600168490603D484
:101CB000016841F0400101606168731EE268B1FA99
:101CC00081F1B3FA83F349095B09B2F5006F41EA88
:101CD00003013DD131B137F8021BC1602763E18EAA
:101CE0000139E186E18E00296CD0691C1BD000BF50
:101CF0008168890706D4FFF73DFAA0EB0800A842E7
:101D000008D3C1E0216B31F8022BC2602163E08E61
:101D10000138E086E08E002854D020688168890769
:101D2000E9D5EFE720688168890703D4FFF722FA35
:101D300008E000BF216B31F8022BC2602163E08E06
:101D40000138E086E08E0028ECD13BE0022068E01C
:101D500039B139780173206B01302063E08E01388E
:101D6000E086E08E70B3681C0BD11BE0216B097814
:101D70000173206B01302063E08E0138E086E08E35
:101D800000B3206881688907F0D4FFF7F3F9A0EB6E
:101D90000800A842F3D3032043E000BFFFF7EAF9AD
:101DA000E08E78B1206881688907F7D5216B0978C2
:101DB0000173206B01302063E08E0138E086E08EF5
:101DC0000028EFD140F2CC20C2F20000006849F6B2
:101DD0008171C1F25E61A0FB0101480D4FF47A717F
:101DE000484302906068B0F5827F23D1204680216D
:101DF0002A46434601F0D8FD28B1606D40F020002E
:101E0000606520206065A06838B9002001902068D6
:101E1000C1680191806801900198606D002818BF29
:101E20000120002184F8519084F8501003B0BDE8DF
:101E3000F08300BF02980028E5D002980138029094
:101E4000206880680006DED502980028DBD0029862
:101E500001380290206880680006D4D502980028D6
:101E6000D1D0029801380290206880680006CAD557
:101E700002980028C7D00298013802902068806834
:101E80000006D7D4BFE700BF0320CAE72DE9F0431F
:101E900083B0044690F85000012803D1022003B01B
:101EA000BDE8F08301201E4615460F4684F8500019
:101EB000FFF760F994F851108146012940F09880AD
:101EC000002F4FF0010018BF002D00F09E80002E63
:101ED00000F09B8094F85100002104281CBF0520CD
:101EE00084F851006165A563E687A6872763E686C7
:101EF0002068A686216461640168490603D40168EC
:101F000041F0400101606168731EE268B1FA81F13D
:101F1000B3FA83F3DDF8288049095B09B2F5006F55
:101F200041EA03017AD131B137F8021BC16027635E
:101F3000E08E0138E086012518F1010031D101E081
:101F4000FFF718F9E08E18B9E08F002800F0D08074
:101F50002068816889070CD5E18E51B1012D08D127
:101F6000216B002531F8022BC2602163E18E01391B
:101F7000E1868168C907E3D0E18F0029E0D0C0681D
:101F8000A16B012521F8020BA163E08F0138E087E6
:101F9000D6E700BFFFF7EEF8A0EB0900404580F060
:101FA000FD80E08E18B9E08F002800F0A180206845
:101FB000816889070CD5E18E51B1012D08D1216BC3
:101FC000002531F8022BC2602163E18E0139E186E0
:101FD0008168C907DED0E18F0029DBD0C068A16B22
:101FE000012521F8020BA163E08F0138E087D1E7DA
:101FF0006068B0F5827F07D1A06800284FF002002A
:1020000008BF042901D15BE70220012184F85110A7
:10201000002184F8501003B0BDE8F08339B139785D
:102020000173206B01302063E08E0138E0860125CA
:1020300018F1010033D101E0FFF79CF8E08E10B9F0
:10204000E08F002854D02068816889070ED5E18E82
:1020500061B1012D0AD1216B002509780173216B33
:10206000206801312163E18E0139E1868168C90769
:10207000E2D0E18F0029DFD0C068A16B0125087094
:10208000A06B0130A063E08F0138E087D4E700BF88
:10209000FFF770F8A0EB0900404580F08180E08EEA
:1020A00008B9E08F20B32068816889070ED5E18EDA
:1020B00061B1012D0AD1216B002509780173216BD3
:1020C000206801312163E18E0139E1868168C90709
:1020D000DED0E18F0029DBD0C068A16B012508703C
:1020E000A06B0130A063E08F0138E087D0E700BF2C
:1020F00040F2CC20C2F20000006849F68171C1F2C2
:102100005E61A0FB0101480D4FF47A7148430290D3
:102110006068B0F5827F0FD12046802142464B4651
:1021200001F042FC60B3606D40F02000606520204B
:102130006065012069E700BF029808B30298013882
:1021400002902068806800061AD50298C0B10298F3
:102150000138029020688068000611D5029878B195
:1021600002980138029020688068000608D502981D
:1021700030B1029801380290206880680006DBD4F4
:10218000A06800284FF000007FF43FAF0190216865
:10219000CA68019289680191019936E7032034E702
:1021A000032032E7411E0020B0EB116F1CBF01205D
:1021B00070474EF21002CEF2000251604EF62351EB
:1021C000CEF20001F0230B70072190601160704780
:1021D000704700007047000010B590F83C20012ABD
:1021E0004FF0020251D080F83D200268D2F804E09E
:1021F000D2F808C00C682EF07003234341F2FF743C
:10220000C4F20004A24253600EDC40F2FF73C4F239
:1022100000039A4216DCB2F1804F2BD040F200430B
:10222000C4F2000324E000BF40F2FF33C4F2010314
:102230009A4213DC41F60003C4F200039A4219D01B
:10224000002313E040F60003C4F200039A4211D0C9
:1022500040F60043C4F200030AE000BF44F200036A
:10226000C4F201039A4205D040F20043C4F20103D4
:102270009A4204D149682CF08003194391600121EE
:10228000002280F83D1080F83C20104610BD000070
:10229000002804BF0120704710B5044690F83D00A7
:1022A00028B9002084F83C00204600F01FF80220E6
:1022B00084F83D002068211D01F054FC012084F8C1
:1022C000460084F83E0084F83F0084F8400084F81B
:1022D000410084F8420084F8430084F8440084F804
:1022E000450084F83D00002010BD000080B584B09A
:1022F0000068B0F1804F1BD040F20041C4F20001F1
:1023000088422FD00021C4F20101884239D1002037
:10231000039043F64000C4F20200416841F001011D
:102320004160406800F001000390039804B080BD54
:102330000020029043F64000C4F20200016800222F
:1023400041F0010101600068072100F001000290E6
:1023500002981C20FEF78EFF1C2004B0BDE88040D0
:10236000FEF778BF0020019043F64000C4F202005F
:10237000016841F002010160006800F00200019074
:10238000019804B080BD000090F83D1001291CBFE9
:1023900001207047022180F83D10006841F2FF7271
:1023A000C168C4F20002904241F00101C1600DDC3D
:1023B00040F2FF71C4F20001884215DCB0F1804F99
:1023C0002AD040F20041C4F2000123E040F2FF3184
:1023D000C4F20101884213DC41F60001C4F200019D
:1023E000884219D0002113E040F60001C4F2000138
:1023F000884211D040F60041C4F200010AE000BF5B
:1024000044F20001C4F20101884205D040F20041CB
:10241000C4F20101884206D1816801F00701062952
:1024200004BF00207047016841F0010101600020F5
:102430007047000080B590F83C20012A4FF002025E
:1024400000F0C28080F83D20D0F800C04FF67772CF
:10245000DCF8083023EA0202CCF808200B684F2B86
:1024600028DC1F2B44DD202B45D0302B43D0402BC4
:1024700040F0AC80D1F804E0C968DCF82030DCF82A
:10248000202022F00102CCF82020DCF8182022F0D5
:10249000F00242EA011123F00A0242EA0E02CCF8ED
:1024A0001810CCF82020DCF8081041F0470121F08A
:1024B000300180E06F2B27DDB3F5005F48D0B3F526
:1024C000805F7AD0702B40F08180D1E901E3C96848
:1024D000DCF8082043EA0E0322F47F4243EA01219C
:1024E0001143CCF80810DCF8081041F0770162E0E5
:1024F0000BB1102B6AD1DCF8081021F070011943E0
:1025000041F0070157E000BF502B35D0602B5DD163
:10251000D1F804E0C968DCF8203023F01003CCF8CF
:102520002030DCF81830DCF8202023F4704322F04F
:10253000A00243EA013142EA0E12CCF81810CCF89E
:102540002020DCF8081041F0670121F0100132E092
:10255000D1E901E3C968DCF8082043EA0E0322F45C
:102560007F4243EA01211143CCF80810DCF808103F
:1025700041F480411FE000BFD1F804E0C968DCF8F5
:102580002030DCF8202022F00102CCF82020DCF8FA
:10259000182022F0F00242EA011123F00A0242EA76
:1025A0000E02CCF81810CCF82020DCF8081041F00E
:1025B000570121F02001CCF808100022012180F8F9
:1025C0003D10002180F83C10104680BD0122F5E747
:1025D0007047000010B5016804460869800744BFD1
:1025E000C8685FEA807039D40869400744BFC8688A
:1025F0005FEA40703ED40869000744BFC8685FEADC
:10260000007045D40869C00644BFC8685FEAC0606E
:102610004AD40869C0071CBFC8685FEAC07051D1BE
:102620000869000644BFC8685FEA006052D40869C0
:10263000400644BFC8685FEA406053D4086980061A
:1026400046BFC8685FEA806010BD6FF02002204678
:102650000A61BDE81040FFF7BDBD00BF6FF002008A
:102660000861012020778869800743D02046FFF762
:10267000AFFF45E06FF00400086102202077886911
:1026800010F4407F40D02046FFF7A2FF42E000BF99
:102690006FF00800086104202077C86980073DD0EA
:1026A0002046FFF795FF3FE06FF01000086108201B
:1026B0002077C86910F4407F3AD02046FFF788FFA2
:1026C0003CE000BF6FF001000861204600F03EF8DA
:1026D0002168A5E76FF0800008612046FFF778FDCC
:1026E0002168A4E76FF040000861204600F062F81E
:1026F0002168A3E7204600F025F8204600F024F8E2
:102700002168002020776FE7204600F01BF8204664
:1027100000F01AF82168002020776CE7204600F0CE
:1027200011F8204600F010F821680020207769E7B2
:10273000204600F007F8204600F006F82168002047
:10274000207766E770470000704700000068B0F12E
:10275000804F08BFFDF732BE70470000B0B5044699
:1027600090F83C0001284FF0020008BFB0BD0125E1
:1027700084F83C5084F83D00206801F091FA00286C
:102780004FF0010006D0002184F83D5084F83C1041
:10279000B0BD00BF2068C16821F04001C160C168C0
:1027A00021F48041C1600020002184F83D5084F86C
:1027B0003C10B0BD70470000FEE700002DE9F04777
:1027C00084B00025C4F2020505F5806417468946E9
:1027D00006462046012100229846FEF7C5FC2A2025
:1027E0008DF80500284608210022FEF7BDFC40F2C6
:1027F0004C5AC2F2000A0DF10501504601224FF079
:10280000FF33FFF717FA284608210122FEF7ACFC38
:10281000204601210122FEF7A7FC300A8DF80600B0
:10282000284608210022FEF79FFC0DF106015046C4
:1028300001224FF0FF33FFF7FDF92846082101225E
:10284000FEF792FC2846082100228DF80760FEF76B
:102850008BFC0DF10701504601224FF0FF33FFF7CB
:10286000E9F9284608210122FEF77EFC380A8DF896
:102870000800284608210022FEF776FC02A95046EF
:1028800001224FF0FF33FFF7D5F928460821012236
:10289000FEF76AFC2846082100228DF80970FEF731
:1028A00063FC0DF10901504601224FF0FF33FFF7A1
:1028B000C1F9284608210122FEF756FC20460121D5
:1028C0000022FEF751FC2B208DF80A002846082133
:1028D0000022FEF749FC0DF10A01504601224FF09B
:1028E000FF33FFF7A7F9284608210122FEF73CFC39
:1028F000204601210122FEF737FC09F11406300AB7
:102900008DF80B00284608210022FEF72DFC0DF162
:102910000B01504601224FF0FF33FFF78BF9284699
:1029200008210122FEF720FC2846082100228DF80C
:102930000C60FEF719FC03A9504601224FF0FF334B
:10294000FFF778F9284608210122FEF70DFC08F16F
:102950001406300A8DF80D00284608210022FEF7E3
:1029600003FC0DF10D01504601224FF0FF33FFF73C
:1029700061F9284608210122FEF7F6FB28460821C6
:1029800000228DF80E60FEF7EFFB0DF10E015046B0
:1029900001224FF0FF33FFF74DF9284608210122AD
:1029A000FEF7E2FB204601210022FEF7DDFB2C2092
:1029B0008DF80F00284608210022FEF7D5FB0DF107
:1029C0000F01504601224FF0FF33FFF733F928463D
:1029D00008210122FEF7C8FB204601210122FEF753
:1029E000C3FB04B0BDE8F08710B5144602460B46A1
:1029F000FFF7E4FE2046BDE8104000F0B9BD00003E
:102A00002DE9F04381B00E468146501E591E98466E
:102A1000154682B28BB248463146FFF7CFFE464597
:102A200038BFA9450DD2089C4F4600BF204600F094
:102A30009FFD0137B8B2A842F8D30136B0B2404585
:102A4000F2D301B0BDE8F0832DE9F04F81B000244E
:102A5000C4F2020404F500663046102101224FF052
:102A60000108FEF781FB04F580652846012101225B
:102A7000FEF77AFB204608210122FEF775FB20466F
:102A800010210122FEF770FB3046102100224FF08A
:102A9000000AFEF769FB6420FEF76CFA304610214D
:102AA0000122FEF761FB6420FEF764FA2046102144
:102AB0000122FEF759FB6420FEF75CFA284601214B
:102AC0000022FEF751FB11208DF80300204608215B
:102AD0000022FEF749FB40F24C56C2F200060DF10F
:102AE0000301304601224FF0FF33FFF7A3F82046E1
:102AF00008210122FEF738FB284601210122FEF7BA
:102B000033FB7820FEF736FA284601210022FEF733
:102B10002BFB36208DF80300204608210022FEF70B
:102B200023FB0DF10301304601224FF0FF33FFF785
:102B300081F8204608210122FEF716FB28460121D4
:102B40000122FEF711FB2046082100228DF803A088
:102B5000FEF70AFB0DF10301304601224FF0FF336F
:102B6000FFF768F8204608210122FEF7FDFA284603
:102B700001210022FEF7F8FA3A208DF803002046E2
:102B800008210022FEF7F0FA0DF103013046012280
:102B90004FF0FF33FFF74EF8204608210122FEF7E1
:102BA000E3FA284601210122FEF7DEFA4FF005097B
:102BB0002046082100228DF80390FEF7D5FA0DF18A
:102BC0000301304601224FF0FF33FFF733F8204670
:102BD00008210122FEF7C8FA284601210022FEF74B
:102BE000C3FAB2208DF80300204608210022FEF728
:102BF000BBFA0DF10301304601224FF0FF33FFF71E
:102C000019F8204608210122FEF7AEFA28460121D4
:102C10000122FEF7A9FA0C272046082100228DF890
:102C20000370FEF7A1FA0DF10301304601224FF0C7
:102C3000FF33FEF7FFFF204608210122FEF794FA3A
:102C40002046082100228DF80370FEF78DFA0DF161
:102C50000301304601224FF0FF33FEF7EBFF204621
:102C600008210122FEF780FA2046082100228DF873
:102C700003A0FEF779FA0DF10301304601224FF06F
:102C8000FF33FEF7D7FF204608210122FEF76CFA3A
:102C900033208DF803002046082100223327FEF759
:102CA00063FA0DF10301304601224FF0FF33FEF7C6
:102CB000C1FF204608210122FEF756FA20460821CE
:102CC00000228DF803704FF0330BFEF74DFA0DF133
:102CD0000301304601224FF0FF33FEF7ABFF2046E1
:102CE00008210122FEF740FA284601210022FEF7C2
:102CF0003BFAB7208DF80300204608210022FEF79A
:102D000033FA0DF10301304601224FF0FF33FEF795
:102D100091FF204608210122FEF726FA28460121CC
:102D20000122FEF721FA35208DF803002046082104
:102D30000022FEF719FA0DF10301304601224FF08F
:102D4000FF33FEF777FF204608210122FEF70CFA39
:102D5000284601210022FEF707FABB208DF8030068
:102D6000204608210022FEF7FFF90DF1030130464D
:102D700001224FF0FF33FEF75DFF204608210122BC
:102D8000FEF7F2F9284601210122FEF7EDF9322083
:102D90008DF80300204608210022FEF7E5F90DF129
:102DA0000301304601224FF0FF33FEF743FF204678
:102DB00008210122FEF7D8F9284601210022FEF75A
:102DC000D3F9C2208DF80300204608210022FEF727
:102DD000CBF90DF10301304601224FF0FF33FEF72E
:102DE00029FF204608210122FEF7BEF928460121CD
:102DF0000122FEF7B9F92046082100228DF8038050
:102E0000FEF7B2F90DF10301304601224FF0FF3316
:102E1000FEF710FF204608210122FEF7A5F92846FB
:102E200001210022FEF7A0F9C3208DF803002046FF
:102E300008210022FEF798F90DF103013046012226
:102E40004FF0FF33FEF7F6FE204608210122FEF781
:102E50008BF9284601210122FEF786F915208DF80D
:102E60000300204608210022FEF77EF90DF1030140
:102E7000304601224FF0FF33FEF7DCFE20460821EA
:102E80000122FEF771F9284601210022FEF76CF9B4
:102E9000C4208DF80300204608210022FEF764F9C3
:102EA0000DF10301304601224FF0FF33FEF7C2FE61
:102EB000204608210122FEF757F928460121012268
:102EC000FEF752F920208DF8030020460821002249
:102ED000FEF74AF90DF10301304601224FF0FF33AE
:102EE000FEF7A8FE204608210122FEF73DF92846FC
:102EF00001210022FEF738F9C6208DF80300204694
:102F000008210022FEF730F90DF1030130460122BD
:102F10004FF0FF33FEF78EFE204608210122FEF718
:102F200023F9284601210122FEF71EF90F208DF812
:102F30000300204608210022FEF716F90DF10301D7
:102F4000304601224FF0FF33FEF774FE2046082181
:102F50000122FEF709F9284601210022FEF704F9B3
:102F60004FF0D0082046082100228DF80380FEF79C
:102F7000FBF80DF10301304601224FF0FF33FEF75D
:102F800059FE204608210122FEF7EEF828460121CD
:102F90000122FEF7E9F8A4208DF80300204608215D
:102FA0000022FEF7E1F80DF10301304601224FF057
:102FB000FF33FEF73FFE204608210122FEF7D4F83A
:102FC000A1208DF80300204608210022FEF7CCF84E
:102FD0000DF10301304601224FF0FF33FEF72AFEC8
:102FE000204608210122FEF7BFF8284601210022D1
:102FF000FEF7BAF8E0208DF80300204608210022F1
:10300000FEF7B2F80DF10301304601224FF0FF3315
:10301000FEF710FE204608210122FEF7A5F82846FB
:1030200001210122FEF7A0F82046082100228DF898
:103030000380FEF799F80DF10301304601224FF0AD
:10304000FF33FEF7F7FD204608210122FEF78CF83A
:1030500008208DF80300204608210022FEF784F89E
:103060000DF10301304601224FF0FF33FEF7E2FD80
:10307000204608210122FEF777F80E272046082176
:1030800000228DF80370FEF76FF80DF10301304652
:1030900001224FF0FF33FEF7CDFD2046082101222B
:1030A000FEF762F84FF0090A2046082100228DF849
:1030B00003A0FEF759F80DF10301304601224FF04D
:1030C000FF33FEF7B7FD204608210122FEF74CF83A
:1030D0002046082100228DF803A0FEF745F80DF1E7
:1030E0000301304601224FF0FF33FEF7A3FD2046D7
:1030F00008210122FEF738F82046082100228DF829
:103100000390FEF731F80DF10301304601224FF034
:10311000FF33FEF78FFD204608210122FEF724F839
:103120004FF031092046082100228DF80390FEF768
:103130001BF80DF10301304601224FF0FF33FEF77B
:1031400079FD204608210122FEF70EF820460821CD
:1031500000228DF803B0FEF707F80DF103013046A9
:1031600001224FF0FF33FEF765FD204608210122C2
:10317000FDF7FAFF48208DF80300204608210022C1
:10318000FDF7F2FF0DF10301304601224FF0FF334E
:10319000FEF750FD204608210122FDF7E5FF17202C
:1031A0008DF80300204608210022FDF7DDFF0DF118
:1031B0000301304601224FF0FF33FEF73BFD20466E
:1031C00008210122FDF7D0FF14208DF803002046CE
:1031D00008210022FDF7C8FF0DF10301304601224E
:1031E0004FF0FF33FEF726FD204608210122FDF7B0
:1031F000BBFF4FF0150B2046082100228DF803B0CD
:10320000FDF7B2FF0DF10301304601224FF0FF330D
:10321000FEF710FD204608210122FDF7A5FF2046FC
:10322000082100228DF80390FDF79EFF0DF10301A8
:10323000304601224FF0FF33FEF7FCFC2046082108
:103240000122FDF791FF34208DF80300204608216C
:103250000022FDF789FF0DF10301304601224FF0F6
:10326000FF33FEF7E7FC204608210122FDF77CFF33
:10327000284601210022FDF777FFE1208DF80300A9
:10328000204608210022FDF76FFF0DF103013046B3
:1032900001224FF0FF33FEF7CDFC2046082101222A
:1032A000FDF762FF284601210122FDF75DFF204660
:1032B000082100228DF80380FDF756FF0DF1030170
:1032C000304601224FF0FF33FEF7B4FC20460821C0
:1032D0000122FDF749FF08208DF803002046082150
:1032E0000022FDF741FF0DF10301304601224FF0AE
:1032F000FF33FEF79FFC204608210122FDF734FF33
:103300002046082100228DF80370FDF72DFF0DF1F6
:103310000301304601224FF0FF33FEF78BFC2046BD
:1033200008210122FDF720FF2046082100228DF808
:1033300003A0FDF719FF0DF10301304601224FF004
:10334000FF33FEF777FC204608210122FDF70CFF32
:103350002046082100228DF803A0FDF705FF0DF19E
:103360000301304601224FF0FF33FEF763FC204695
:1033700008210122FDF7F8FE2046082100228DF8E1
:1033800003B01527FDF7F0FE0DF1030130460122D1
:103390004FF0FF33FEF74EFC204608210122FDF7D7
:1033A000E3FE2046082100228DF80390FDF7DCFEA5
:1033B0000DF10301304601224FF0FF33FEF73AFCD6
:1033C000204608210122FDF7CFFE33208DF80300AF
:1033D000204608210022FDF7C7FE0DF1030130460B
:1033E00001224FF0FF33FEF725FC20460821012281
:1033F000FDF7BAFE48208DF8030020460821002280
:10340000FDF7B2FE0DF10301304601224FF0FF330C
:10341000FEF710FC204608210122FDF7A5FE17202B
:103420008DF80300204608210022FDF79DFE0DF1D6
:103430000301304601224FF0FF33FEF7FBFB20462D
:1034400008210122FDF790FE14208DF8030020468C
:1034500008210022FDF788FE0DF10301304601220C
:103460004FF0FF33FEF7E6FB204608210122FDF76F
:103470007BFE2046082100228DF80370FDF774FEC4
:103480000DF10301304601224FF0FF33FEF7D2FB6E
:10349000204608210122FDF767FE20460821002270
:1034A0008DF80390FDF760FE0DF103013046012217
:1034B0004FF0FF33FEF7BEFB204608210122FDF747
:1034C00053FE34208DF80300204608210022FDF72A
:1034D0004BFE0DF10301304601224FF0FF33FEF7A2
:1034E000A9FB204608210122FDF73EFE28460121C6
:1034F0000022FDF739FE21208DF803002046082127
:103500000022FDF731FE0DF10301304601224FF09C
:10351000FF33FEF78FFB204608210122FDF724FE32
:10352000284601210122FDF71FFE28460121002225
:10353000FDF71AFE29208DF80300204608210022FD
:10354000FDF712FE0DF10301304601224FF0FF336B
:10355000FEF770FB204608210122FDF705FE2846F4
:1035600001210122FDF700FE01B0BDE8F08F00004F
:1035700070B582B000240546000AC4F202048DF83A
:103580000600204608210022FDF7EEFD40F24C56D1
:10359000C2F200060DF10601304601224FF0FF3362
:1035A000FEF748FB204608210122FDF7DDFD2046FD
:1035B000082100228DF80750FDF7D6FD0DF1070117
:1035C000304601224FF0FF33FEF734FB204608213E
:1035D0000122FDF7C9FD02B070BD0000B0B584B096
:1035E00040F24C40C2F2000042F2000C4FF0405357
:1035F0004FF0C0610024C4F2010C4FF48032012569
:10360000C0E90A1302210394057680F82040C161C5
:1036100080F83040C0E900C2C0E90244C0E9045566
:10362000FDF788F9002818BFFCF7DEFE40F24C4099
:10363000C2F200006946CDE900450294FDF7D6F8D4
:10364000002818BFFCF7D0FE012000900220019056
:1036500040F24C40C2F200006946FDF7C7F800286E
:1036600018BFFCF7C1FE04B0B0BD000080B582B049
:103670000020019043F63000C4F2020001680022ED
:1036800041F4001101600068002100F40010019075
:1036900001980F20FDF7EEFD0F2002B0BDE880403D
:1036A000FDF7D8BD2DE9F04F87B0002443F6300078
:1036B00006940194C4F20200016840F2000941F04E
:1036C000040101600168C4F2020901F004010191E2
:1036D000019901940168002241F0800101600168B4
:1036E00001F08001019101990194016841F001010B
:1036F0000160016801F001010191019901940168E3
:1037000041F00201016000684FF48C7100F002008A
:10371000019001984846FDF727FD09F50065284608
:10372000102100224FF0100AFDF71EFD09F58068F8
:103730004046012100220126FDF716FD082002AFB8
:10374000CDE9020648463946CDE90444FDF726FC9A
:103750004FF48870CDE902064FF0030B4846394616
:103760000496CDF814B0FDF719FC28463946CDE98A
:1037700002A6CDE9044BFDF711FC2020CDE902049F
:10378000284639460494FDF709FC40463946CDE900
:103790000266CDE9044BFDF701FC07B0BDE8F08FF0
:1037A00080B540F2F44043F20001C2F20000C4F2DE
:1037B00001014FF48272002380E80E0000F1140131
:1037C0004FF4007C4FF0180E81E808500A21C0E940
:1037D0000333C0E90833C0E90A31FEF729F80028AD
:1037E00008BF80BDBDE88040FCF7FEBD10B540F2CB
:1037F0004C5043F60001C2F20000C4F200014FF445
:10380000827200234FF0020C4FF4007E182480E8EF
:103810000E000A21C0E9033CC0E9053EC461C0E9CD
:103820000833C0E90A31FEF703F8002808BF10BDCD
:10383000BDE81040FCF7D8BD10B588B040F2A450E8
:1038400000210024C2F20000C4F2010140F2E7337B
:103850004FF0800C0794CDE90544CDE90044A8223F
:1038600080E81600C0E90334C0E9054CFEF710FDFE
:10387000002818BFFCF7B8FD40F2A450C2F20000C7
:1038800003A9CDE90344FEF769FF002818BFFCF740
:10389000ABFD202000900020019040F2A450C2F225
:1038A00000006946FEF798FC002818BFFCF79CFD55
:1038B00008B010BD80B586B02020009040F2EC50DA
:1038C0000021C2F2000040F2E73C0591CDE903116E
:1038D00001914FF080425323C0E9021C0161802115
:1038E000C0E900238161FEF7D3FC002818BFFCF774
:1038F0007BFD4FF48050029040F2EC50C2F2000089
:1039000002A9FEF797FD002818BFFCF76DFD40F2F5
:10391000EC50C2F200006946FEF75EFC002818BFBA
:10392000FCF762FD06B080BD10B588B02020009085
:1039300040F2346040F200410024C2F20000C4F2C0
:10394000000140F2E7330794CDE9054401941E22BB
:1039500080E81600C0E903348461FEF799FC002872
:1039600018BFFCF741FD40F23460C2F2000003A929
:10397000CDE90344FEF7F2FE002818BFFCF734FD42
:1039800040F23460C2F200006946FEF725FC0028D0
:1039900018BFFCF729FD08B010BD0000FEE70000CD
:1039A000FEE70000704700002DE9F04182B01E469E
:1039B00090460D460446FDF7DDFB301A00EB080784
:1039C000FDF7D8FB40F2CC21C2F200010968C1F337
:1039D000CB317943019121688A682A40AA4227D1D4
:1039E000064618F101001FD0FDF7C4FB801BB8424A
:1039F00022D2019801990028A1F1010101912168C9
:103A0000896808BF074601EA0500A842ECD00FE02C
:103A100088682840A8420BD188682840A84207D16E
:103A200088682840A84203D188682840A842EFD07F
:103A3000002002B0BDE8F081D4E900014268B1F590
:103A4000827F22F0E00242600AD1A168B1F5004F06
:103A500002D0B1F5806F03D1016821F0400101600F
:103A6000A16AB1F5005F07D1016821F4005101603E
:103A7000016841F400510160012084F851000020E8
:103A800084F85000032002B0BDE8F08170470000C8
:103A9000FDF776BBB0B592B0002443F640000B941E
:103AA000CDE90944CDE907440594CDE90344CDE9C6
:103AB00001440094C4F202000168022541F08051E3
:103AC0000160006800F080500090009847F200000C
:103AD0000094C4F20000016841F480410160006874
:103AE00000F48040009000980120099010200A9076
:103AF00008200E90A820CDE90F050420119006A8FB
:103B00000695CDE90C54FDF7D7FC28B1EFF31080F2
:103B100072B600BFFEE700BF0F20CDE901054FF4EC
:103B2000A05004904FF48050059001A80521039403
:103B3000FDF7DCFB20B1EFF3108072B6FEE700BFAB
:103B400012B0B0BD4EF68850CEF20000016841F4CC
:103B5000700101607047000040F2EC50C2F20000BA
:103B6000FEF738BD10B540F6FF3E0368C4F2000E04
:103B700040F2004C7045C4F2010C27DCB0F1804FDC
:103B800031D040F20042C4F2000290422BD040F605
:103B90000002C4F20002904225D041F6FF72C4F246
:103BA0000002904229DC70453CDCB0F1804F5FD0D0
:103BB00040F20042C4F20002904259D040F60002A6
:103BC000C4F20002904253D056E000BF40F60042DB
:103BD000C4F20002904206D0604504D00022C4F234
:103BE00001029042D9D14A6823F07003134341F691
:103BF000FF72C4F200029042D5DD43F6FF72C4F2B8
:103C00000102904222DC42F20002C4F20002904221
:103C10002ED00022C4F20102904229D0604527D064
:103C20002AE000BF40F60042C4F2000290421FD0DA
:103C300041F60002C4F20002904219D041F600425F
:103C4000C4F20002904213D016E000BF44F200021A
:103C5000C4F2010290420BD044F60002C4F2010209
:103C6000904205D044F20042C4F20102904203D1D6
:103C7000CA6823F44073134323F080024B69D1F8E0
:103C800000E08C681A430260C46240F48062C0F8AD
:103C900028E0624504BF096901630121416110BD4B
:103CA00080B58268D1E900E322F0770C23F00702A7
:103CB00042EA0C0242EA0E0C4FEA3312072AC0F81D
:103CC00008C009D84FF0000CDFE802F00404040437
:103CD0000A1E344A604680BD4FF0010C604680BD2C
:103CE000BEF1050F04BF012080BD026A036A23F004
:103CF000010303628369096923F0F00343EA0111B8
:103D000081610262002080BDD1F808C00969036AA0
:103D1000026A22F001020262826922F0F00242EAA3
:103D2000011123F00A0242EA0C02816102620020C2
:103D300080BD00BFD1F808C00969036A23F01003F1
:103D400003628369026A23F4704322F0A00243EA0B
:103D5000013142EA0C1281610262002080BD00BF85
:103D6000D1E902C30969826843EA0C0322F47F4265
:103D700043EA012111438160002080BD10B540F26B
:103D80005834C2F200042069013020614CF0A8F9D7
:103D90002069652808D340F60040C4F202000421DF
:103DA000FDF7DAF90020206140F24C40C2F2000039
:103DB000FCF7BCFDE06010BD80B50020C4F202003D
:103DC0004FF48071FDF7C8F940F24C40C2F2000098
:103DD000FCF792FE0120BDE880404CF0D5B8000011
:103DE000FEE700002DE9F04F83B0129F0DF1300C7B
:103DF0001E46DDE910489CE808188A46814617F0FF
:103E0000020015460190029248D1B8F1000F0BD084
:103E1000F8070BD017F00C0018BF012040EA0C0087
:103E2000A8EB000802E000BF4FF00008A34518D23D
:103E3000BBF11F0F15D86FEA0B012144CBF11F0511
:103E400003EB0B00A94238BF0D46691C3022FCF77A
:103E50002BFADDF838C00C9B05EB0B00029D00F13E
:103E6000010BF8071AD0C34518D2BBF11F0F15D8A4
:103E70006FEA0B014144CBF11F0503EB0B00A94294
:103E800038BF0D46691C3022FCF70EFADDF838C049
:103E90000C9B0BEB0500029D00F1010BF80636D5DB
:103EA0000F98790510D4BBF1000F0DD0A34518BFB2
:103EB000C34509D1BBF101010A4618BFABF10202AB
:103EC000102818BF0A469346102807D117F0200083
:103ED0000CD1BBF1200F09D278200CE002280ED1C2
:103EE000BBF11F0F0BD8622005E000BF38B1BBF15A
:103EF000200F04D2582003F80B000BF1010BBBF18B
:103F00001F0F18D8302003F80B000BF1010BBBF189
:103F10001F0F10D8BCF1000F02D02D2007E000BF0A
:103F2000780703D4380706D5202000E02B2003F8BB
:103F30000B000BF1010BB8072C460DD1C3452C46E5
:103F40000AD2A8EB0B072A46202051463346541CC0
:103F5000C847013F2246F7D1BBF1000FCDF80080E2
:103F600012D00C98A0F1010818F80B005146224617
:103F70003346ABF10105671CC847002D3C46AB46F4
:103F8000F2D1019818B917E027460198A0B102991B
:103F9000DDF80080781A40450ED24D42202051466F
:103FA0003A4633467C1CC847281940452746F5D376
:103FB000204603B0BDE8F08F3C46204603B0BDE884
:103FC000F08F00009A4238BF885470477047000055
:103FD0002DE9F04383B0002840D00D4600293FD0A2
:103FE00000F1240904464846294647F04FF80646A2
:103FF000029018B33769616838460DF051F962686C
:104000008046384629463FF01DF804F130003EF066
:1040100091FE019060B302A904223FF013F80298C8
:10402000E16A006904220844043801A93FF00AF853
:104030006268404621460DF041F9029E96B1306912
:1040400061680DF02DF9E16B064628468847E16866
:104050000844E060304603B0BDE8F083FEE700BFEF
:10406000FEE700BF0026304603B0BDE8F08300BF86
:104070004846314646F0C6FF0026304603B0BDE84C
:10408000F083000010B540203EF05AFF30B100210F
:10409000402204463FF072FB204610BDFEE70000C0
:1040A0002DE9F04F81B040F27C65C2F2000595F831
:1040B000A90005F1B00B80F0010085F8A900584671
:1040C0003EF0FEFD002800F0118106464FF0000989
:1040D0004FF0010A08E000BF584631463EF014FE9A
:1040E0000646002800F00281306D4BF0F5FE96F890
:1040F0005C10C90704D1716B084470631CE000BFF9
:10410000706D4BF0E9FEB16D4A1C15D0884213D397
:1041100096F85C20736B401A02F0FE0186F85C1082
:104120001844706395F8A90002F0FA0141EA800092
:1041300080F0040086F85C004BF0FCFE85F8A89047
:1041400096F85C103065CA07C6D195F8A900C1F38E
:104150008002824268D001F0FB0242EA80000A0736
:1041600086F85C001ED4706B00281BD4C80609D4E6
:10417000B16939B130468847716AF26A0144104426
:104180007162F062304650F063FAF16809B130466E
:10419000884796F85C0040F0080086F85C003046DE
:1041A00050F05CF9746B002C3ED4306BA046844216
:1041B000C4BF70638046316A30468847B16A88421E
:1041C00040D195F8A800A0BB716B414504BF746352
:1041D0002146306B814227DB96F85C70746C17F0D7
:1041E000020204D1631C022B24BF013C7464F36BF4
:1041F0000CB9CBB3C2BB07F0F707091A346C86F8C9
:104200005C70D8BF4946091B71636BB112B9B16BC1
:104210004942716387F0020186F85C10F16A726AA4
:104220007162C6E90B23F06395F8A80000283FF4FB
:1042300053AF58463EF044FD064600287FF454AF85
:1042400054E000BF72680746B06212B13068394668
:10425000904795F8A8000028EBD1B268002AB0D0AA
:10426000304639469047ACE7584631463EF036FE78
:10427000584685F8A8A03EF023FD0146D5F8AC00CD
:1042800021B138B14CF01EF81FE000BF80B14CF0F6
:1042900005F81AE095F8AA00B8B944F2F521002013
:1042A000C0F60001002212F037F985F8AAA00CE050
:1042B00095F8AA0048B144F2F5210020C0F60001AB
:1042C000002212F011FA85F8AA90316909B130463E
:1042D0008847716909B13046884730463AF080FE18
:1042E00095F8A8000028A4D1F6E600BF01B0BDE80B
:1042F000F08F00000020FFF7D3BE0000B0B50446E9
:1043000040680D4610B12946FFF7F8FF2268002AE1
:1043100008BFB0BD20462946BDE8B04010470000A8
:1043200070B50E680C463168054641B196F822001A
:10433000C00604D5216028462146FFF7F1FF284634
:1043400021462660BDE87040FFF7D8BF0AF0E4BA06
:104350000AF078BBB0B598B00546406C50B36C46D7
:10436000204609F0C7FC2046294609F093FD42F299
:104370004901C0F60501204609F076FD696C20462A
:1043800009F066FD20460021012209F07DFD4DF671
:10439000DD51C0F60001204609F068FD42F24D01F2
:1043A000C0F60501204609F04BFD204609F0A8FDA6
:1043B00018B0B0BD284618B0BDE8B0404DF0EABD19
:1043C00070B504463AF0C4F8054620463AF00AF9BA
:1043D000132D39D104463CF0E5F93CF03DFA0128B3
:1043E00032D140F24446C2F200063068002818BFBD
:1043F00070BD3EF049F802213FF09EFC3EF044F8CB
:104400000DF0F2F830603EF03FF87F21002245F0D9
:104410009BFA3EF039F80546122046F073F820F07A
:104420007F412846002245F083FA40F26C30C2F208
:1044300000000078012809D070B93068B421C82282
:1044400045F020FA0FE000BF70BD00BF3068C82102
:10445000DC2245F017FA06E030684FF496714FF40D
:10446000A57245F00FFA306840F2C67101220DF0D6
:10447000FBF83068092100221E233FF0D7FD306889
:1044800045F24911C0F60001002223463FF03EFCF0
:104490003068BDE870400CF05FBF0000B0B5002987
:1044A00042D080290B460BD3B1FA81F2C2F11A0235
:1044B0004FF0FF3303FA02F2D24353187F2B35D863
:1044C0009A08002300EB8305D5F814C04FF0FF35A0
:1044D00005FA02F212EA0C0212D092FAA2F2B2FA31
:1044E00082FE00EBC31202EB8E0454F83C2FDAB1CB
:1044F000556825F003058D4228D200BFFEE700BFB6
:104500000269013305FA03F31A400DD092FAA2F2C0
:10451000B2FA82F300EB8302D2F814C0BCF1000FB0
:104520006246DAD1FEE700BF0020B0BD0022B2EB48
:10453000134F25D1B3FA83F5C5F11A0223FA02F21B
:1045400082F02002C5F11903BCE700BFD568CDB1E8
:104550009168C9B1CD60A9602568954210D18142AA
:1045600021600DD1012101FA0EF52CEA050500EBC1
:104570008304656125B90569994025EA0101016156
:104580001046B0BDFEE700BFFEE70000F0B54A6888
:10459000032A0BD9043A22F0030301F108029B1805
:1045A00006D05D68EC0705D10846F0BDFEE700BF08
:1045B000FEE700BF25F003047F2C3BD84FEA950EA1
:1045C0004FF0000CDD68002D42D09C6864B3E560BC
:1045D000AC6000EBCC1505EB8E0555F83C6F9E42A8
:1045E00011D184422C600ED100EB8C0501276E693D
:1045F00007FA0EF4A6436E612EB9066907FA0CF7A6
:1046000026EA07070761486803280FD95B68043367
:1046100023F0030318440328486009D9043820F024
:10462000030081500846F0BDFEE700BFFEE700BF73
:10463000FEE700BFB4FA84FCCCF11A0524FA05F5B4
:1046400085F0200ECCF1190CDD68002DBDD100BF26
:10465000FEE7000070B539B122B14B68DD0705D126
:10466000FEE700BFFEE700BF002070BD23F003049B
:1046700002F11005AC4211D2032B40F28380181FC7
:1046800020F0030201F108000244536823F0020302
:1046900053604A6822F001024A6070BD01F1080EC1
:1046A00002EB0E03DD1D1E1D25F00305AE4201D0F9
:1046B000FEE700BFA3F1040CA31ADCF80440043B9E
:1046C00004F003041C430B2BCCF804402CD94B689A
:1046D00003F003031A434A60DCF80420032A25D9B7
:1046E000043A22F00304A219536844F806C043F0C8
:1046F00002035360DCF8042042F00103CCF80430DC
:104700004B68032B14D9043B23F0030343F80E102A
:1047100022F0030342F003067F2BCCF8046009D893
:104720004FEA920E00230EE0FEE700BFFEE700BF57
:10473000FEE700BFB3FA83F2C2F11A06F34083F03A
:10474000200EC2F1190300EBC31202EB8E0252F8E5
:104750003C4FCCB1CCE90240C4F80CC0012405693F
:1047600004FA03F63543056100EB8300436904FA5C
:104770000EF6334343614B68C2F800C0032B3FF68B
:104780007EAF00BFFEE700BFFEE70000B0B582B01D
:1047900004463CF007F805463CF04CF840B1606C2C
:1047A0002064204642F078FF012002B0B0BD00BF77
:1047B00054B1E06A012142F087FB38B1204639F05C
:1047C000ADFC012002B0B0BDFEE700BF20460121D4
:1047D00044F0B2FA4FF6FF71E06AA16401213FF0A4
:1047E000ABFA20462721002244F0C0FDD4E9100195
:1047F00081420BD06064019001AA2046232144F03D
:10480000B5FD0128D1D1204642F046FF28463CF0B4
:1048100023F80428D5D1204641F0C8F900213AF008
:10482000B7FF012002B0B0BDC11C002818BF21F0A5
:10483000030070472DE9F04F81B09146054640785E
:10484000527890422AD11C460F4649B338460AF0A6
:10485000AFFB002C804643D1687801260738C2B2EE
:10486000032A26D9E6B3B9F80400804558D10028B8
:1048700058D0B9F80600002854D099F80110D9F89A
:104880001000CA1FD2B2032A80F0D8804FF6A401CC
:10489000C0F6050151F82210D5E000BFFEE700BFC9
:1048A000B5F80480B4FA84F14E090738C2B2032A7D
:1048B000D8D82869D9F81010022A0BD84FF6A403CB
:1048C000C0F6050353F822203EF0BCFB002ECAD1EF
:1048D00006E000BF4FF480623EF0B4FB002EC2D170
:1048E00020460AF065FB80451AD1D4F800A0B9F83B
:1048F0000400824516D26168B9F80600814211D2DF
:1049000099F80100D9F81020C31FDBB2032B3DD268
:104910004FF6A406C0F6050656F823303CE000BF6B
:10492000FEE700BF0026CDF80080DFB1D7F800B069
:10493000A888D7F804A0834510D2E88882450DD214
:1049400068782969C21FD2B2032A39D24FF6A4036C
:10495000C0F6050353F8222038E000BFD7F80C80DA
:1049600000244FE0A988E88871B128B36A782969E2
:10497000D31FDBB2032B3BD24FF6A402C0F60502D5
:1049800052F8232039E000BF002437E0A0F10A03E9
:10499000B3FA83F35B099B02B9F808601A4401FB80
:1049A0000626BAF1000FBED00EF02CF90AFB00F07B
:1049B00006EBD006B7E700BF002000241EE000BFD2
:1049C000A0F10A02B2FA82F2520992022B89114432
:1049D0000AFB0314BBF1000F07D00EF013F90BFB19
:1049E00000F0D7F804A004EBD004D7F80C8009E05D
:1049F0000A3AB2FA82F2520992028C18A0F1010826
:104A00004FF0000A6878B5F808B0B9F808900EF0D1
:104A1000F9F8C2450FDC009948430730C510A8EBF0
:104A20000A00471C204631462A463EF00BFB5C44F8
:104A3000013F4E44F6D101B0BDE8F08F0A39B1FA1A
:104A400081F14909890246186DE700003AF0C8BAB9
:104A500003303EF075BA000070B539F083FD0546AD
:104A600041F072F941F070F9002808BF70BD44F2BE
:104A700028610446C66AC0F60901284641F0B8F824
:104A8000054620462946002249F056F9AE4201D19A
:104A900070BD00BF204623210022BDE8704044F0D5
:104AA00065BC000010B5044640680CF005FC44F6F7
:104AB000C5230146C0F6000320460422BDE810408D
:104AC0003CF000B8C1B170B50E4609681446054601
:104AD00000F1300091B13EF017F9306098B10168F3
:104AE00068680D690CF0E8FB0246204629463EF056
:104AF000A9FA012070BD00BFFEE700BF3EF0E0F85C
:104B000000283060EBD1002070BD00002DE9F04F8F
:104B10008BB015466FF040429142044608D1296897
:104B2000B1F1FF3F50DD08460BB0BDE8F08F00BF8C
:104B300001F0C040B0F1005FF5D121F0C0466FF048
:104B400060408642EFD0204641F0FEF80546408D99
:104B5000400500F1DD8028460021022242F024F8C1
:104B60006FF04041884240F0D3802046002110225F
:104B700042F01AF8804620460021302242F014F814
:104B8000814620460021342242F00EF80746204696
:104B90000021112242F008F805462046002130226B
:104BA00042F002F8064620460021342241F0FCFF84
:104BB00005EB0801BA0748BF4944C00718BF314494
:104BC00008460BB0BDE8F08F204641F0CBFAA16853
:104BD000814600291CBF0020486240F2010A20469D
:104BE00000211022CEF2000A41F0DEFF07462046E7
:104BF0000021302241F0D8FF064620460021342211
:104C000041F0D2FF800720464FF000014FF0110223
:104C100048BF3744079741F0C7FF8346204600212D
:104C2000302241F0C1FF804620460021342241F06D
:104C3000BBFF03900020CDE908A008AA204634213C
:104C400044F094FB099F204640F0E4FD00280695BF
:104C5000CDE9048BCDE9019700F07E8040F2010898
:104C600006464FF0000BC0F20408554604E000BFB2
:104C70000BF1010B5E4570D0A0684146006850F80A
:104C80002B90484642F02AF90028F1D108F500316E
:104C9000484642F023F948B9484641F055F828B152
:104CA0000021162241F080FF00041BD1484600215C
:104CB0000A2241F079FF10F0FC0F13D04846002182
:104CC000092241F071FF2F4688B909F114000AF05A
:104CD0005FF90799182247184846002141F064FF00
:104CE000074404E0D9F82000A169401A471C48464F
:104CF0000021192241F058FF38448245B8DC48466B
:104D00000021192241F050FF00EB070AB0E700BF75
:104D1000284640F065FE6FF07041B6F1805FA8BF95
:104D20008E1B48F21F517043C5F2EB1150FB01F08E
:104D3000411101EBD07620460021182241F034FFCA
:104D4000054620460021192241F02EFF2844311A41
:104D500008460BB0BDE8F08F5546A1680798029A47
:104D6000104411B1019A52424A620399C907DDE920
:104D7000041218BF0A4451465045C8BF0146AA450F
:104D800008BF014606981144016008460BB0BDE813
:104D9000F08F00002DE9F04F89B017466FF04042C8
:104DA0009142044608D13968B1F1FF3F50DD084611
:104DB00009B0BDE8F08F00BF01F0C040B0F1005F66
:104DC000F5D121F0C0466FF060408642EFD020461A
:104DD00040F0BAFF0546408D000500F1FB802846F3
:104DE0000021012241F0E0FE6FF04041884240F096
:104DF000F18020460021122241F0D6FE8046204656
:104E00000021302241F0D0FE81462046002134228C
:104E100041F0CAFE074620460021132241F0C4FE9D
:104E2000054620460021302241F0BEFE06462046BF
:104E30000021342241F0B8FE05EB08017A0748BF93
:104E40004944000748BF3144084609B0BDE8F08F27
:104E5000204641F07FF9A168804600291CBF002050
:104E6000086240F20109204600211322CEF2000917
:104E70004FF0000A41F098FE0646204600213022FD
:104E800041F092FE054620460021342241F08CFE7E
:104E9000000720464FF000014FF0120248BF2E4499
:104EA00041F082FE054620460021302241F07CFE82
:104EB000834620460021342241F076FE400706AAB0
:104EC00020464FF0340148BF5D44CDE906A944F0C7
:104ED0004DFA0698CDE9035605902046354440F03A
:104EE00099FC824620460021272241F05DFEC0B297
:104EF000012840F09380BAF1000F00F00C810126E8
:104F0000C0F20406CDE9005802974F464FF0000961
:104F100006F5003505E000BF09F10109CA4500F0BA
:104F2000E380A0683146006850F82980404641F08F
:104F3000D5FF0028F0D14046294641F0CFFF48B9BF
:104F4000404640F001FF28B10021162241F02CFE1E
:104F500000040ED1404600210A2241F025FEC0B2D5
:104F600008281DD8012101FA00F040F24911084239
:104F700016D0E069D8F81410401A00F1010B404631
:104F800000211A2241F010FE58448742C4DC4046FA
:104F900000211A2241F008FE00EB0B07BCE700BF1E
:104FA00040460021082241F0FFFD40F2010B00289D
:104FB000CEF2000BE3D108F1140009F0F9FF0499D7
:104FC0001A2200EB010B4046002141F0EDFD834425
:104FD000D5E700BF284640F03DFD6FF07041B6F1C7
:104FE000805FA8BF8E1B48F21F517043C5F2EB11C2
:104FF00050FB01F0411101EBD076204600211A222E
:1050000041F0D2FD0546204600211B2241F0CCFD97
:105010002844311A084609B0BDE8F08FBAF1000FF4
:1050200079D0CDE9005840F20108C0F2040800250B
:10503000CB4608F50039029703E000BF0135AA45C9
:1050400060D0A0684146006850F82560304641F0C5
:1050500045FF0028F2D13046494641F03FFF48B9AC
:10506000304640F071FE28B10021162241F09CFD2F
:1050700000040DD1304600210A2241F095FDC0B256
:10508000072819D8012101FA00F010F0930F13D06E
:10509000F0696169401A471C304600211B2241F02B
:1050A00083FD38448345C9DC304600211B2241F092
:1050B0007BFD00EB070BC1E730460021082241F0E1
:1050C00073FD01270028CEF20007E5D106F1140098
:1050D00009F06EFF03991B2247183046002141F06A
:1050E00063FD0744D8E700BF40F20109CEF2000992
:1050F0004F450EBF484603983844029F059ADDE9A4
:1051000000580EE040F20109CEF20009029FDDE9ED
:105110000058CB4502D1484602E000BF04985844ED
:10512000059AA1682A4400291CBFC8F100030B623C
:1051300011469042C8BF0146484508BF1146396034
:10514000084609B0BDE8F08F70B58CB0054639F05F
:10515000FFF90646284639F047FA0446284639F052
:1051600001FA232E28D10BA90CF04CFA9DF82E0041
:105170009DF82F30BDF82C6003AD00900FA228469B
:105180002021019647F06CF8204629464AF0E4FCBD
:1051900040F24444C2F2000420683FF0C9FD002000
:1051A00020603DF071F9022143F02AFD3DF06CF9D9
:1051B0000021002244F0C8FB0CB070BD25303264E1
:1051C0002E253032642E2564000000002DE9F04FBA
:1051D000D7B0044639F0BCF90646204639F002FA49
:1051E000012E054604D0222E08D00B2E40F06282FC
:1051F000284657B0BDE8F04F42F04EBA204639F08D
:10520000E3F9824638F03CFB8346504638F046FBD3
:10521000DBF80410B1F5A02F40F0BA800746002853
:1052200000F0B68007A800F13D0100F138092EA872
:10523000039100F13D0800F1380453A9284640F0DD
:1052400043FC284600210DF003F9DBF80810064660
:10525000012904A880E8100504D1284631460DF044
:10526000F7F8064607A838F061FB57F81C0F796875
:10527000BA460F915AF8081FFA680E90CDE910123D
:105280007968FA6850469142B8BF38460068129073
:10529000C8BF0A469DF85F00139200F0F00001308D
:1052A0008DF85F00284640F08BFCFA687968134659
:1052B000549C9142B8BF0B461B1B9142C8BF0A4683
:1052C000111BC3EB0323C1EB012193FBF0F891FB0E
:1052D000F0F4284631460DF0AFF8A9F80000000CB4
:1052E00089F802006FEA08008DF857004FF00009B6
:1052F000284631468DF858900DF09EF80399E44306
:105300000880000C8870FF208DF85C408DF85D00EF
:10531000DBF8100007A938F0C9FA0DF1B8084046CB
:1053200014F058FD9DF8FB00314600F0F00001300C
:105330008DF8FB0028460DF07FF804998DF8F49065
:105340000880000C8870284631468DF8F3400DF037
:1053500073F805990880000C88704FF47F40ADF811
:10536000F800D7E90001FA68DAF800302A902C93A7
:105370009142C8BF0A465699DBF810002B922D9136
:105380002AAA414614F048FADBF80410DDF818A008
:10539000B1F5003F32D128460DF04CF8DBF80C1087
:1053A000884271D128460DF069F801284FF00007B6
:1053B00025D12EAE304614F00DFD8DF8E6700DF0BF
:1053C000F3FDADF82D01000C8DF82F0102204C905B
:1053D00047F6FF7007AF35905046394638F040FA2F
:1053E000DBF8100031463A4614F016FA0127DBF8D4
:1053F0000400B0F5A02F07D04CE000BF0027DBF879
:105400000400B0F5A02F45D128460DF013F8DBF8C5
:105410000C1088423ED1284600210DF019F8DBF827
:1054200008100646012904D1284631460DF010F82F
:10543000064628460DF022F802282BD1504638F0B7
:105440001FFA0DF1B8080746404614F0C3FCF8698E
:105450003146359000208DF8E60028460CF0ECFF30
:10546000ADF83801000C8DF83A010F2007AE4F90CF
:105470005046314638F0F4F9DBF810004146324628
:1054800014F0CAF909E000BF0027DBF80400B0F50A
:10549000A02FB9D0002F00F00D8128460021002652
:1054A0000CF0D6FFDBF808108046012904D128460D
:1054B00041460CF0CDFF8046284641460CF0D4FF13
:1054C000DBF80C1045F2F21250F8213028AFC0F68C
:1054D00009023846082146F0C3FE40F27430C2F299
:1054E000000002686FF06040CDE9006026A83946F0
:1054F0000023029649F03EF82AA9504638F0B0F948
:105500002B9E002010F0D8FBC0EB00103C46F0288A
:105510000EDB002010F0D0FBC0EB001050304FF03D
:10552000993150FB01F0811101EBD07002E000BF16
:105530004FF0FF30064427982A9FA6EB00092AA8BF
:105540005696CDF8509109F033FD2699401A00EB9C
:10555000D07007EB600A0AEB01070020CDF84CA1E0
:10556000559710F0A9FB1E280EDB002010F0A4FBBD
:10557000502101EBC0004FF0993150FB01F0811137
:1055800001EBD07002E000BF4FF0FF30504422909A
:10559000002010F091FB1E2810DB002010F08CFB87
:1055A000502101EBC00046F26761C6F2666150FB14
:1055B00001F0811101EBD07001E000BF01203844FF
:1055C0002490002010F078FB1E280DDB002010F046
:1055D00073FB502101EBC0004FF0993150FB01F0FB
:1055E000811101EBD07001E04FF0FF30484423906F
:1055F000002010F061FB1E2810DB002010F05CFB87
:10560000502101EBC00046F26761C6F2666150FBB3
:1056100001F0811101EBD07001E000BF01203044A6
:1056200040F2743725902EA8C2F2000714F0D2FB86
:10563000284641460CF000FFADF8EA00000C8DF85A
:10564000EC00002010F038FB00EB8000F0280FDBAE
:10565000002010F031FB00EB800046F26761503013
:10566000C6F2666150FB01F0811101EBD07000E0E1
:1056700001203590DBF810002EA922AA14F0CCF8F6
:1056800007AD284612F070FC0DF08EFCADF8480016
:10569000000C8DF84A009DF87900396840F001004F
:1056A00011910E948DF87900DBF8100053AA294669
:1056B00012F02AFC57B0BDE8F08F00002DE9F04F42
:1056C00091B0CDE909230B900C91C8784FF2D52108
:1056D0004FF2E122C0F60001C0F6000210F0010016
:1056E00008BF0A464EF6B17102924EF69172C0F6AC
:1056F0000001C0F600020B4608BF134608930028BD
:1057000008BF0A4646F66D21C0F60401069246F629
:105710007D220B46C0F6040208BF1346002846F659
:1057200075201E9CC0F60400079346F6652308BF4B
:105730000A460146C0F60403059208BF1946D4F88C
:1057400014E0039108BF0346049304E01E9C5FEA43
:10575000CC7000F0BB80BEF1000F00F0B780D4E940
:105760000102D4F81090AEF10103032BA0EB02026A
:1057700002D20024002341E02EF0030609F13C0789
:105780000024002307E000BFF86903440434A64264
:1057900007F1600732D017F8280CC00714D157F86A
:1057A0002C0C034417F8100CC00714D057F8180C31
:1057B000121A387AC00714D03868121A97F82000E5
:1057C000C007E1D013E000BF57F8300C121A17F8E9
:1057D000100CC007EAD157F8140C0344387AC007FC
:1057E000EAD17868034497F82000C007CCD0B869A4
:1057F000121A0434A64207F16007CCD11EF0030749
:1058000030D004EB440009EBC000067DF60705D15B
:1058100000690344012F05D124E000BFC068121ABB
:10582000012F1FD0601C00EB400009EBC000067D7B
:10583000F60705D100690344022F05D112E000BF2D
:10584000C068121A022F0DD0A01C00EB400009EB1B
:10585000C000077DFF0703D10069034402E000BFD9
:10586000C068121A002600274FF0000C0CE000BFA1
:1058700009EB06000169521B5B1AC56001377745C9
:1058800006F11806BFF462AF09EB0604207DC507D8
:10589000F4D1CBB192FBF3FBD4F81080D4E901A58D
:1058A00008FB0BF1A942B8BF0D46AA45C8BF554633
:1058B0008D42DDD040F0010020751E984FF0010CA4
:1058C000D0E9049ED4E700BFFEE700BF0B9800219B
:1058D0002722002641F068F90C9982460A78E1688F
:1058E000D31E022B134638BF02230229A8BF13463A
:1058F0005A1E042A0ED86068DDE90958DFE802F074
:10590000040E161E260000BF1C994FF000090E1A47
:1059100029E000BFDDE9095823E000BF1C994FF0E2
:105920000009081A00EBD07046101CE01C9A0131E7
:10593000101A90FBF1F6B14615E000BF1C9A101A40
:1059400090FBF1F909EBD97046100CE0022907DB56
:105950001C9A0139101A90FBF1F9002603E000BFF0
:1059600000264FF000090C982946C7780B983FF0A5
:10597000B9FE002818BF454502D111B0BDE8F08F2F
:1059800004461D9809EB000B5FFA8AF0B146012826
:105990001C9808BFA0EB0909F80708BFB14601260B
:1059A000C0F206062046314641F098FA60B10C98E4
:1059B000C078400700F192810B9801358068018E14
:1059C0008D42C0F29181D8E7608D00210A90204677
:1059D0007E2241F0E9F8000624D01E984169F1B119
:1059E00000694A4200F13003032153F8307CA7429A
:1059F0001ED05718022F12D053F8186CA64219D097
:105A0000012F0CD01E68A64216D047B19F69A7424D
:105A100013D004315718032F03F16003E5D100269A
:105A200010E000BF608D20F4406060853BE000BF67
:105A3000033902E0023900E0013901EB410100EBDA
:105A4000C100C6680C99608DC97820F44060C90710
:105A50004FF4006108BF4FF48061084404F114075B
:105A6000089960853846884786421CD0204641F018
:105A700013FE04F114030FCB0DF1340C8CE80F006E
:105A8000029A384631469047204631210DAA43F00C
:105A90006DFC204640F058F92A21224643F066FC6E
:105AA000204641F0F9FD608D0A99484010F4406F9E
:105AB00002D0204641F08EFE0C98407801281DD07F
:105AC000022829D11E9806990068013020F00106AD
:105AD00004F114008847301A059A00EBD07620466E
