:020000040800F2
:10000000002000109D010008592E0008152A000844
:10001000552E00082D040008994500080000000036
:100020000000000000000000000000001142000875
:100030004904000800000000913000081542000843
:10004000B7010008B7010008B7010008B7010008B0
:10005000B7010008B7010008B7010008B7010008A0
:10006000B7010008B7010008B7010008B701000890
:10007000B7010008B7010008B70100083104000803
:10008000B7010008B7010008B7010008B701000870
:10009000B7010008B7010008B7010008B701000860
:1000A000B7010008B7010008B7010008B701000850
:1000B000DD420008B7010008B7010008B7010008D9
:1000C000B7010008B7010008B7010008B701000830
:1000D000B7010008B7010008B7010008B701000820
:1000E000B7010008B7010008B7010008B701000810
:1000F000B7010008B7010008B7010008B701000800
:10010000B7010008B7010008B7010008B7010008EF
:10011000B7010008B7010008B7010008B7010008DF
:100120003D040008B7010008B7010008B701000846
:10013000B70100080000000000000000B70100083F
:10014000B7010008B7010008B7010008B7010008AF
:10015000B7010008B7010008B7010008B70100089F
:10016000B7010008B7010008B7010008B70100088F
:10017000B7010008B70100080000000000000000FF
:10018000B7010008B7010008DFF80CD000F0BEF896
:100190000048004725DD040800200010064880477D
:1001A00006480047FEE7FEE7FEE7FEE7FEE7FEE75C
:1001B000FEE7FEE7FEE7FEE7C94200088901000806
:1001C0002DE9F05F0546002092469B46884606468C
:1001D000814640241BE0284641464746224600F01F
:1001E00084F853465A46C01A914110D31146184616
:1001F000224600F06BF82D1A67EB01084F462246A5
:100200000120002100F062F817EB00094E41201E8A
:10021000A4F10104DFDC484631462A464346BDE8E6
:10022000F09F2DE9F0410024061B254671F10006E0
:1002300005DA01240027D0EB070067EB0101161E49
:1002400073F1000605DA0027D2EB0702012567EB00
:100250000303FFF7B5FF86460E4617469C46AC42A1
:1002600004D00025D0EB050E65EB010624B100207B
:10027000D2EB000760EB030C704631463A4663460A
:10028000BDE8F08140EA01039B0703D009E008C9FB
:10029000121F08C0042AFAD203E011F8013B00F84B
:1002A000013B521EF9D27047D2B201E000F8012B97
:1002B000491EFBD270470022F6E710B513460A46E6
:1002C00004461946FFF7F0FF204610BD202A04DB44
:1002D000203A00FA02F1002070479140C2F1200359
:1002E00020FA03F3194390407047202A04DB203A98
:1002F00021FA02F00021704721FA02F3D040C2F146
:10030000200291400843194670470000064C074DF3
:1003100006E0E06840F0010394E8070098471034D5
:10032000AC42F6D3FFF734FF245B0608545B0608A3
:100330000146806B036C026C13F0500F08D0D2069C
:1003400048BF00F06DBB806BC26C0846104700BF11
:1003500042F40071016401688A6812F0405F01D0C4
:1003600000F016BB027E002AFAD1CA6A12F4700F9E
:1003700002D08A685205F3D44A6822F020024A600B
:10038000016C21F480710164016CC90448BF00F064
:10039000FFBA016C41F00101016400F0F9BA0000FC
:1003A000806B40210164416C41F00401416400F024
:1003B00037BB0000806B00F031BB000070470000CD
:1003C00010B540F26004C2F20004606818B1002069
:1003D000606004F0C3F8A068022803D30020A06086
:1003E00004F0C4F8E0680A2803D30020E06004F0B9
:1003F00087F82069322838BF10BD00202061BDE891
:10040000104004F0B7B8000040F26000C2F20000F3
:1004100000F1040C9CE80E1004300131013201336C
:100420000CF1010C80E80E1070470000FEE70000A0
:1004300040F2D810C2F2000000F0E2BC40F27810A6
:10044000C2F2000000F0DCBC70470000EFF3108047
:1004500072B600BFFEE700002DE9F04F89B040F60C
:10046000000A40F2A4010290C4F2020AC2F20001A2
:100470000F2040F2382708704FF00009AAF50060FD
:100480004FF0100B4FF03008C2F200070DF12306B9
:1004900006AD04AC039002E0012000F093FE902032
:1004A000079043F21240C7F65600069003981021B9
:1004B00000228DF81490CDF8109000F083FF504684
:1004C0001021002200F07EFF3846314601224FF015
:1004D000FF338DF8238001F0DBFC384629460522E6
:1004E0004FF0FF3301F0D4FC50461021012200F000
:1004F00069FF012000F066FE50461021002200F046
:1005000061FF3846314601224FF0FF338DF823B0AA
:1005100001F0BEFC3846214605224FF0FF3301F0C2
:10052000BBFB50461021012200F04CFF9DF810004B
:100530001228B1D19DF811003428ADD19DF81200D8
:100540005628A9D19DF813007828A5D19DF814004C
:100550009028A1D103981021002200F033FF202021
:100560008DF8180050461021002200F02BFF40F2B9
:1005700038273120C2F200078DF823000DF1230146
:10058000384601224FF0FF3301244FF0FF3501F0D0
:100590007FFC06A904AA38460123009501F0A4FDBA
:1005A00050461021012200F00DFF40F25806C2F221
:1005B0000006307810218DF818005046002200F017
:1005C00001FFE1208DF823000DF1230138460122BF
:1005D0004FF0FF3301F05CFC06A904AA3846012362
:1005E000009501F081FD50461021012200F0EAFE45
:1005F000307810218DF818005046002200F0E2FEFD
:10060000E2208DF823000DF12301384601224FF03E
:10061000FF3301F03DFC06A904AA384601230095EA
:1006200001F062FD50461021012200F0CBFE504641
:100630001021002200F0C6FE30208DF8180006A917
:10064000384601224FF0FF3301F022FC4BF6A9316E
:10065000C0F60501384605224FF0FF3301F018FCC3
:1006600050461021012200F0ADFE5046102100221C
:1006700000F0A8FE2A208DF8180006A938460122AD
:100680004FF0FF3301F004FC4BF6A431C0F6050136
:10069000384605224FF0FF3301F0FAFB5046102197
:1006A000012200F08FFE02981021012812BF8DF860
:1006B00018403F208DF818005046002200F082FEBE
:1006C00040F238242120C2F200048DF823000DF1FD
:1006D0002301204601224FF0FF3301F0D9FB06A988
:1006E00004AA20460123009501F0FEFC504610218B
:1006F000012200F067FE01208DF8180050461021FD
:100700000022002500F05EFE40F238262220C2F2D0
:1007100000068DF823000DF12301304601224FF031
:10072000FF334FF0FF3401F0B3FB06A904AA3046B3
:100730000123009401F0D8FC50461021012200F062
:1007400041FE1A208DF8180050461021002200F0BA
:1007500039FE24208DF823000DF1230130460122BB
:100760004FF0FF3301F094FB06A904AA30460123A1
:10077000009401F0B9FC50461021012200F022FE45
:100780005046102100228DF8185000F01BFE252045
:100790008DF823000DF12301304601224FF0FF3385
:1007A00001F076FB06A904AA30460123009401F06B
:1007B0009BFC50461021012200F004FE0F208DF812
:1007C000180050461021002200F0FCFD26208DF874
:1007D00023000DF12301304601224FF0FF3301F0D9
:1007E00057FB06A904AA30460123009401F07CFCC3
:1007F00050461021012200F0E5FD40F2A400C2F2B3
:100800000000007810218DF818005046002200F0FA
:10081000D9FD20208DF823000DF12301304601225F
:100820004FF0FF3301F034FB06A904AA3046012340
:10083000009401F059FC50461021012200F0C2FD45
:1008400003981021012200F0BDFD09B0BDE8F08F32
:1008500070B581B00022009290F83C20012A03D1AB
:100860000221084601B070BDD1F800E00122BEF1BE
:100870000A0F80F83C200BD31FFA8EF25200066854
:1008800012FA8EF2A2F11E0306F10C0205E000BF7F
:1008900006680EEB4E0306F110024FF0070C1568C8
:1008A0000CFA03F4A54315608D68146805FA03F388
:1008B000234313604968062906D801EB81010539F5
:1008C00006F134020AE000BF0C2901EB810187BF69
:1008D000413906F12C02233906F130021F23146836
:1008E0008B4024EA030342F2043C1360C4F2010C7F
:1008F0001FFA8EF3146803FA01F1ACF5417321433A
:100900009E4211603ED1BEF1120F07D1DCF80010FB
:1009100041F48001CCF8001034E000BF2EF001015A
:1009200010292FD1DCF80010BEF1100F41F40001A6
:10093000CCF8001026D140F25C01C2F20001096837
:100940004DF68362C4F21B32A1FB0212910C01EB43
:100950008101490000910099A1B1009901390091EC
:10096000009979B1009901390091009951B100992C
:1009700001390091009929B100990139009100993C
:100980000029EAD1002180F83C10084601B070BD72
:10099000F0B584B040F2AE0C0020C2F2000C00238F
:1009A0004FF0000E00210024CDE90200CDE9000047
:1009B0003CF800500CEB00022C44558896884F19E7
:1009C000D58811892B4421445589948976442F4434
:1009D0002644D589148A2B442144558A948A2F446D
:1009E0002644D58A148B2B440C44518B958BD28B87
:1009F0002030394406EB050E80281344D8D140F24C
:100A0000A6022009C2F200021080080950804FEAB5
:100A10001E1090801809D08004B0F0BD704700000F
:100A200070470000002804BF0120704710B504463D
:100A3000006C00283ED0206CC00645D4206C41F2EA
:100A400002118843023042F204312064C4F20101F1
:100A5000086820F4403008600A6894E809101A43D6
:100A6000D4F810E00A604168012321F480714160EC
:100A70004168C0F6007341EA0E214160416821F0EF
:100A800040714160416841EA0C014160816821F494
:100A900000618160E168826811438160A16A8268B7
:100AA000994222F070628260826813D122F0405134
:100AB00019E000BF204600F065F80020606484F86B
:100AC0003C00206CC006B9D50120002184F83C1000
:100AD00010BD00BF11438160816821F040518160E9
:100AE000E16A826811438160816821F002018160BE
:100AF0008168227E94F8203041EA42018160416899
:100B000083B141F40061416041684EF2000221F47A
:100B100060414160616ACFF6FF72436802EB413188
:100B2000194301E021F400614160C16A40F2000C08
:100B300021F47001C162E2696169CFF6F07CC36A99
:100B40000CEB02521A43C262826822F40072826085
:100B500094F83020836843EA42228260826822F45B
:100B600080628260826842EA812181600020606444
:100B7000216C012262F301012164002184F83C1000
:100B800010BD00002DE9F04186B0044642F2000796
:100B90000068C4F201070026B8420596049603D007
:100BA00006B0BDE8F08100BF43F630000096C4F205
:100BB000020041690DF1040841F48071416141690D
:100BC000032501F48071009100990096016841F0BD
:100BD00004010160016801F0040100910099009690
:100BE000016841F0010101600068414600F0010028
:100BF000009000980620019007F56840CDE9025664
:100C000000F0F4FA07F560404146CDE9015503963E
:100C100000F0ECFA40F2781546F21040C2F20005FE
:100C2000C4F202004FF48061C5E9000605F110002E
:100C30004FF400624FF400534FF480778EC0284683
:100C4000C5E90266C5E9086600F0BAF9002818BFD0
:100C5000FFF7FCFBA563AC6306B0BDE8F0810000C4
:100C6000B0B582B004460020019094F83C00012801
:100C700002D1022002B0B0BD94460A46012021688C
:100C800084F83C008868C00729D188684DF68365E0
:100C900040F00100886040F25C00C2F20000006891
:100CA000C4F21B35A0FB0505A80C00EB4000019029
:100CB0000198A0B1019801380190019878B101988C
:100CC00001380190019850B10198013801900198C4
:100CD00028B101980138019001980028EAD188686C
:100CE000C00503D5886820F4807088608D68206C0A
:100CF000ED0709D140F010002064606C40F0010065
:100D00006064002002B0B0BD40F20175A84300F558
:100D1000807020644868400504D5206C012565F387
:100D20000D302064256C0020ED044FF0000544BF19
:100D3000656C25F00605656484F83C00A06B40F204
:100D4000313540F2B533C0F60005C0F60003C0E906
:100D50000F5340F2A133C0F60003C3646FF02203C7
:100D60000B604B6842F2080543F080634B608B6870
:100D7000C4F2010543F480738B604C31634600F08C
:100D8000D1F9D5F8FC122068C9060FD0A5F10801E9
:100D90008842B6D1286810F0405FB2D1286840F090
:100DA00080402860002002B0B0BD00BF42F20001C8
:100DB000C4F20101884217D042F20021C4F20101BD
:100DC00088420DD042F20011C4F20101884298D14C
:100DD000D5F8FC12C90607D005F5FC71884290D100
:100DE000D5F8FC12C9068CD4816811F0405F7FF4FD
:100DF00088AF816841F080418160002002B0B0BDC1
:100E0000F0B581B004460020009040F25C00C2F2D0
:100E100000000268D4E9166048F2B513376808216B
:100E2000C1F64E3381403942A2FB03250CD0226823
:100E300013685B0708D5136823F004031360B160DF
:100E4000616D41F00101616501218140394208D0A5
:100E500022685269120604D5B160616D41F0020149
:100E6000616504218140394208D0226812689207E6
:100E700004D5B160616D41F00401616510218140CC
:100E8000394217D020680268120713D5B160026892
:100E90000168520308D4C90508D4016821F008018B
:100EA0000160216C21B905E008033FD4216C09B130
:100EB00020468847E16D202000FA01F23A4241D0F5
:100EC00020680368DB063DD5B26094F835300268CF
:100ED000052B1BD122F016020260426922F080022B
:100EE0004261226C0AB9A26C1AB1026822F00802AF
:100EF00002603F208840B060012084F83500216DF9
:100F00000020002984F8340052D157E001685203D0
:100F100010D4C90512D4016821F01001016001202C
:100F200084F83500002084F8340007E0A16C002923
:100F3000BED1BFE7080301D4616C00E0E16B09B1E9
:100F400020468847606DC8B3606DC0072ED005206D
:100F500084F835002068A90A026822F001020260C4
:100F6000009A01328A4200921AD80268D20717D03A
:100F7000009A01328A42009212D80268D2070FD03A
:100F8000009A01328A4200920AD80268D20707D03A
:100F9000009A01328A42009202D80268D207DFD159
:100FA000012084F83500002084F83400E16C29B178
:100FB000204601B0BDE8F040084700BF01B0F0BDD9
:100FC0002DE9F041044600F003FA002C4ED005460E
:100FD000022084F835000020216884F83400086875
:100FE00020F0010008600868C00708D000F0F0F9A0
:100FF000401B05286CD821680868C007F6D108682E
:1010000048F23F02CFF21002D4E90135024004F168
:101010000C0E9EE8C1511A432A4310433043384313
:1010200040EA0800626A40EA0C00042A40EA0E0323
:1010300020D1D4E90A5E206B4EEA03021043086017
:101040004869BEF1000F20F0030040EA050040F0BF
:10105000040C15D0B8F5005F42D0B8F1000F51D1A3
:10106000022D52D0012D47D055B94EE00120BDE8E8
:10107000F08100BF0B60486920F0070040EA020CD5
:101080006FF00F004AF6AB2250FA81F0CAF6AA229E
:10109000A0FB02231A094BF61443C0F605039A5C21
:1010A00040F2FF335F284FF03F00C1F814C021EA3F
:1010B000030100FA02F088BF0431C4E91612886007
:1010C000002301220020636584F83520BDE8F0810B
:1010D000032220230320636584F83520BDE8F081D6
:1010E000032DCDD8012240230120DFE805F0030EB7
:1010F000030500BFE7E700BFAEF1C070B0FA80F0B3
:10110000400904E0032D04D3BAD1CEF300600028D7
:10111000B6D0012240230120636584F83520BDE864
:10112000F081000070B590F834C0BCF1010F46D0DA
:101130004FF0010C80F834C0D0F858E090F835C07A
:10114000BCF1010F38D14FF0020C80F835C04FF0E0
:10115000000CC0F854C0D0F800C08468056CC06DA5
:10116000DCF80060402C26F48026CCF80060CCF837
:1011700004300B4604BF13460A463F2101FA00F033
:10118000CCF80830CCF80C20CEF80800DCF80000D1
:1011900040F01600CCF800002DB1DCF8000040F063
:1011A0000800CCF80000DCF8000040F00100CCF8AA
:1011B0000000002070BD00BF002180F83410022024
:1011C00070BD0000B0B5044600F002F9054640F2DB
:1011D0000000C2F200000078611C18BF044400BF88
:1011E00000F0F6F8401BA042FAD3B0BD2DE9F04F55
:1011F00082B000F13E4241F6004502F1FF77C4F2B1
:10120000020508224FEAB726A84208BF0722072E88
:1012100038BF4FEAB7224FF0010E002400274FF0ED
:101220000008009208E000BF023708F10108202FF3
:1012300004F1040400F0B4800E680EFA08F916EA0E
:10124000090FF1D0D1F804A00AF0030BABF10106AD
:10125000012E19D80322866802FA07FECA6826EA18
:101260000E06BA40324382604268CAF3001522EA91
:10127000090205FA08F54FEA480C6FEA0E064FF02E
:10128000010E2A4342600BE00322BA40D643BBF171
:10129000030FBC4604D1BC464FF0030B24E000BF53
:1012A000C2688D68324005FA0CF52A43BBF1020F83
:1012B000C26019D16FF0030202EA5802024404F03E
:1012C0001C030F25D2F820E005FA03FA0D692EEA77
:1012D0000A0E05FA03F343EA0E031362D1F804A0E1
:1012E0004FF0010E0AF0030B02680BFA0CF33240C8
:1012F0001A431AF4403F026096D0002243F644039A
:101300000192C4F202031A6843F6004C42F4804290
:101310001A601A68C4F2010C02F480420192019A28
:1013200028F003024FF6084A6244CFF6FF7A52F8DB
:101330000A3004F00C060F25B540AB43009D05FABA
:1013400006F6334342F80A30DCF800204B6842EAE4
:101350000906DD0358BF22EA0906CCF80060DCF874
:1013600004209D0342EA090658BF22EA0906CCF888
:101370000460DCF80820DD0242EA090643F60C4569
:1013800058BF22EA0906CCF80860C4F201052A68B1
:101390009B0242EA090658BF22EA09062E6043E78B
:1013A00002B0BDE8F08F00000069084018BF0120BE
:1013B00070470000426902EA0103914341EA034198
:1013C00081617047002A08BF0904816170470000ED
:1013D00040F27470C2F201000068704740F20000F1
:1013E00040F27471C2F20000C2F2010100780A6892
:1013F000104408607047000080B543F60040C4F216
:101400000200016841F400710160016841F48061EB
:101410000160016841F480710160032000F084F8EC
:10142000002000F005F800F027F8002080BD000043
:1014300070B540F20006C2F2000640F25C0132785C
:10144000C2F200014FF47A730968B3FBF2F204466A
:10145000B1FBF2F1084600F0D3FF0F2C4FF001056D
:1014600008D838B94FF0FF3021460022002500F09F
:101470002FF87460284670BD82B0002043F640010A
:101480000190C4F202014A6842F480424A604A680C
:1014900002F480420192019A0090086840F0805066
:1014A0000860086800F080500090009802B0704713
:1014B000002848BF704700F01F01012202FA01F125
:1014C0004EF200124009CEF2000242F8201070479E
:1014D00010B54EF60C5CCEF2000CDCF80030C3F315
:1014E000022E8EF00704042C28BF0424BEF103034F
:1014F0004FF0FF3E0EFA04F438BF0023A143994099
:101500000EFA03F39A43114300F00F02043A6244C7
:1015100009010C3200F16043B0F1FF3FC8BF03F591
:101520006442117010BD00004EF60C51CEF2000165
:101530000A684FF6FF031A4060F30A2242F0806007
:1015400040F0FD70086070472DE9F041002800F080
:101550008B8043F60808C4F202080446D8F8F80362
:101560000D4600F00700884207D288F8F853D8F8F3
:10157000F80300F00700A84276D12068810717D54C
:10158000410705D5D8F8001041F4E051C8F8001023
:10159000010705D5D8F8001041F46041C8F80010E3
:1015A000D8F80010A26821F0F0011143C8F800102B
:1015B000C0073FD1D8F8F80300F00700A84207D9C8
:1015C00088F8F853D8F8F80300F00700A8424BD188
:1015D0002068410707D5D8F80010E26821F4E051EF
:1015E0001143C8F80010000708D5D8F80000216999
:1015F00020F4604040EAC100C8F8000000F054F850
:10160000D8F800104BF69432C1F30311C0F605026E
:10161000515C40F25C0220FA01F140F20400C2F297
:1016200000000068C2F200021160FFF701FF002015
:10163000BDE8F0816068811E022907D258F8081CB5
:1016400089015CBF0120BDE8F08111E0012807D1CC
:1016500058F8081C89035CBF0120BDE8F08107E051
:1016600058F8081C890703D40120BDE8F08100BFA9
:10167000D8F8001021F003010843C8F80000FFF774
:10168000A7FE064641F28837D8F80000616800F0EE
:101690000C00B0EB810F8DD0FFF79AFE801BB84293
:1016A000F2D90320BDE8F08110B543F60404C4F27A
:1016B0000204606800F00C0142F200400829C0F208
:1016C000F40007D0042918BF10BD41F20020C0F279
:1016D0007A0010BD216801F03F02216823684902A9
:1016E000C3F3881106D4A1FB00010023FEF768FDB7
:1016F00007E000BF41F20020C0F27A004843B0FB8F
:10170000F2F021680222C1F3014102EB4101B0FB7A
:10171000F1F010BD2DE9F04182B000286AD00446F6
:10172000007843F60006C007C4F202060BD0B0688A
:1017300000F00C00042840F0A1803068800302D53E
:101740006068002856D0207880071AD5B06810F05D
:101750000C0F09D0B06800F00C00082840F0A880F9
:101760007068400200F1A4803068800702D5E0680C
:1017700001283FD13068216920F0F80040EAC1001B
:1017800030602078000739D4207840074ED4A5690E
:101790005DB3B06800F00C00082840F0BD80012D5A
:1017A00028D07068E16900F480028A4222D1216A5F
:1017B00000F03F028A421DD147F6C071626A0140C3
:1017C000B1EB821F16D1A26A0023CFF6FF7303EBA1
:1017D000C23200F440316FF30F0291420AD1E16A44
:1017E00000F07060B0EB016F04D1002002B0BDE8E2
:1017F000F08100BF012002B0BDE8F08160690028DF
:1018000040F20000C4F2472076D00121C0F8801ECB
:10181000FFF7DEFD054600BF706F8007B4D4FFF709
:10182000D7FD401B0228F7D9DDE000BF306C10F077
:1018300080580AD100200190306C40F08050306414
:10184000306C00F080500190019847F20007C4F21C
:1018500000073868C00541D4386840F480703860AB
:10186000FFF7B6FD054600BF3868C00536D4FFF760
:10187000AFFD401B0228F7D9B5E000BFB06800F00B
:101880000C00082803D1706840023FF556AF60682D
:10189000B0F5803F07D0B0F5A02F40F08D803068C4
:1018A00040F480203060306840F4803030608DE05B
:1018B000E068002852D00020C4F2472001210160D6
:1018C000FFF786FD054600BF306880073FF552AF41
:1018D000FFF77EFD401B0228F6D984E0A0680128AE
:1018E00005D005284ED1306F40F004003067306FCE
:1018F00040F0010030674FE00021C0F8801EFFF784
:1019000067FD0546706F80077FF53EAFFFF760FD0E
:10191000401B0228F6D966E00027C4F247270020C2
:101920003866FFF755FD022D05460BD13068800162
:101930005ED5FFF74DFD401B02284FF00300F5D99F
:1019400054E700BF306880017FF54FAFFFF740FDDF
:10195000401B02284FF00300F4D947E70020C4F2EF
:10196000472000210160FFF733FD054630688007FE
:101970007FF507AFFFF72CFD401B02284FF0030057
:10198000F4D933E7316F002821F001013167316F5D
:1019900021F0040131674DD0FFF71AFD054641F2F1
:1019A000883700BF306F800756D4FFF711FD401B0A
:1019B000B842F7D917E000BF3168002821F4803120
:1019C0003160316821F4802131604FD0FFF700FD94
:1019D000054600BF306880033FF5B5AEFFF7F8FC61
:1019E000401B6428F6D9032002B0BDE8F08100BF97
:1019F00004F11C052FCD08430021CFF6FF7140EA0A
:101A0000821001EBC3316FF30F0140EA0560084318
:101A1000706001203866FFF7DBFC04463068800107
:101A20003FF5E3AEFFF7D4FC001B02284FF00300A4
:101A3000F4D9DBE6FFF7CCFC054641F2883700BF5E
:101A4000306F800708D5FFF7C3FC401BB8424FF04A
:101A50000300F5D9CAE600BFB8F1000F7FF497AED6
:101A6000306C20F08050306491E600BFFFF7B0FC8E
:101A7000054600BF306880037FF565AEFFF7A8FC20
:101A8000401B64284FF00300F4D9AFE670B538B1BD
:101A90000446406A30B10020206104F1140007E0E0
:101AA000012070BD6068B0F5827F03D004F11C0096
:101AB000002101600026A66294F8510020B920465A
:101AC00084F8506000F03CF8022084F8510094E85B
:101AD0000F0001F48271056802F4044225F040050C
:101AE0000560114403F400622369114403F002020B
:101AF0006369114403F00102A369E569114403F429
:101B00000072114405F03802256A114405F0800284
:101B1000A56A114305F4005211430160626A042171
:101B200001EA134102F0100211444160C16921F43D
:101B30000061C1610120666584F85100304670BDC6
:101B40002DE9F04F87B00446006843F60001C4F267
:101B5000000100268842CDE90566CDE903660296BC
:101B600032D043F20001C4F20101884240F090807B
:101B7000002043F630010190C4F202014A6942F4A8
:101B800080524A614A6902F480520192019A01909E
:101B90000A6842F001020A60096801F0010101913E
:101BA0000199E02102910221CDE903100320059063
:101BB000052006900020C4F2020002A9FFF716FBE0
:101BC00007B0BDE8F08F00BF43F630070196C4F2BE
:101BD0000207386940F2000B40F4804038613869F0
:101BE000C4F2020B00F4804001900198019638681D
:101BF00002AD40F00400386038684FF0020800F091
:101C0000040001900198019638684FF0030940F0F4
:101C10000200386038684FF0050A00F002000190B9
:101C20000198082002900BF500602946CDE9038653
:101C3000CDF81490CDF818A0FFF7D8FA4FF48840EB
:101C4000CDE9020804A880E840060BF5806029462B
:101C5000FFF7CCFA40F2D81507F52150C2F2000583
:101C6000C5E900064FF4803040214FF48062C5E999
:101C700008062846C5E90216C5E90426C5E9066630
:101C8000FFF79EF9002818BFFEF7E0FBA564AC63E0
:101C900007B0BDE8F08F00002DE9F04381B00446A5
:101CA00040681D461746B0F5827F0E4602D1A068F7
:101CB000002867D094F85000012803D1022001B019
:101CC000BDE8F0834FF0010984F85090FFF780FBE6
:101CD00094F85110012953D18046002E4FF0010095
:101CE00018BF002F00F0C7800420002184F85100A5
:101CF0006165A663A787E7872163A186E186A2685D
:101D00002068B2F5004F2164616449D0016849063A
:101D100051D5E168002955D0E18F002900F0848079
:101D2000691C1AD08168C90706D1FFF751FBA0EBE7
:101D30000800A84208D3A7E0C068A16B21F8020BF5
:101D4000A163E08F0138E087E08F00286CD0206825
:101D50008168C907E9D0EFE720688168C90703D126
:101D6000FFF736FB08E000BFC068A16B21F8020B4B
:101D7000A163E08F0138E087E08F0028ECD153E0C9
:101D8000022078E0042084F8510020463146324693
:101D90003B46009500F0A8F901B0BDE8F08300BF14
:101DA000016821F040010160016821F48041016077
:101DB00001684906ADD4016841F040010160E16865
:101DC0000029A9D1E18F79B3691C1AD08168C907AC
:101DD00006D1FFF7FDFAA0EB0800A84209D355E0B1
:101DE000007BA16B0870A06B0130A063E08F01380D
:101DF000E087E08FC0B120688168C907E9D0EFE7CC
:101E000020688168C90703D1FFF7E2FA09E000BF43
:101E1000007BA16B0870A06B0130A063E08F0138DC
:101E2000E087E08F0028EBD16068B0F5827F0ED1AB
:101E3000A068B0F5004F02D0B0F5806F0AD12168DC
:101E4000B0F5806F0A6822F040020A6002D1204695
:101E5000012101E0204680212A46434601F01AF97B
:101E600028B1606D40F02000606520206065606DE5
:101E7000002818BF0120002184F8519084F85010E8
:101E800001B0BDE8F08300BF0320F4E70320F2E7D0
:101E90002DE9F04383B0044690F85000012803D1A7
:101EA000022003B0BDE8F0834FF001091D4616463D
:101EB0000F4684F85090FFF78BFA94F851100129DF
:101EC00072D18046002F4FF0010018BF002E00F0A5
:101ED000D6800320002184F8510061652763A6861F
:101EE000E686A163A187E187A0682164B0F5004F71
:101EF0002068616407D1016821F040010160016838
:101F000041F4804101600168490603D4016841F051
:101F1000400101606168731EE268B1FA81F1B3FAB1
:101F200083F349095B09B2F5006F41EA03013DD132
:101F300031B137F8021BC1602763E18E0139E186B8
:101F4000E18E00296CD0691C1BD000BF8168890715
:101F500006D4FFF73DFAA0EB0800A84208D3C1E081
:101F6000216B31F8022BC2602163E08E0138E086DC
:101F7000E08E002854D0206881688907E9D5EFE712
:101F800020688168890703D4FFF722FA08E000BFC0
:101F9000216B31F8022BC2602163E08E0138E086AC
:101FA000E08E0028ECD13BE0022068E039B13978BE
:101FB0000173206B01302063E08E0138E086E08EF3
:101FC00070B3681C0BD11BE0216B09780173206B87
:101FD00001302063E08E0138E086E08E00B3206897
:101FE00081688907F0D4FFF7F3F9A0EB0800A84255
:101FF000F3D3032043E000BFFFF7EAF9E08E78B1A6
:10200000206881688907F7D5216B09780173206BF7
:1020100001302063E08E0138E086E08E0028EFD1A9
:1020200040F25C00C2F20000006849F68171C1F222
:102030005E61A0FB0101480D4FF47A7148430290A4
:102040006068B0F5827F23D1204680212A4643462E
:1020500001F020F828B1606D40F02000606520207C
:102060006065A06838B9002001902068C1680191BE
:10207000806801900198606D002818BF0120002140
:1020800084F8519084F8501003B0BDE8F08300BF8D
:1020900002980028E5D002980138029020688068F4
:1020A0000006DED502980028DBD0029801380290A5
:1020B000206880680006D4D502980028D1D0029804
:1020C00001380290206880680006CAD5029800286E
:1020D000C7D0029801380290206880680006D7D4E3
:1020E000BFE700BF0320CAE72DE9F04383B00446F1
:1020F00090F85000012803D1022003B0BDE8F0831E
:1021000001201E4615460F4684F85000FFF760F97F
:1021100094F851108146012940F09880002F4FF02B
:10212000010018BF002D00F09E80002E00F09B8063
:1021300094F85100002104281CBF052084F85100A8
:102140006165A563E687A6872763E6862068A6867D
:10215000216461640168490603D4016841F04001CB
:1021600001606168731EE268B1FA81F1B3FA83F32A
:10217000DDF8288049095B09B2F5006F41EA0301E7
:102180007AD131B137F8021BC1602763E08E013884
:10219000E086012518F1010031D101E0FFF718F9BF
:1021A000E08E18B9E08F002800F0D08020688168A8
:1021B00089070CD5E18E51B1012D08D1216B002585
:1021C00031F8022BC2602163E18E0139E18681681A
:1021D000C907E3D0E18F0029E0D0C068A16B0125D9
:1021E00021F8020BA163E08F0138E087D6E700BF3A
:1021F000FFF7EEF8A0EB0900404580F0FD80E08E8F
:1022000018B9E08F002800F0A18020688168890754
:102210000CD5E18E51B1012D08D1216B002531F88B
:10222000022BC2602163E18E0139E1868168C90712
:10223000DED0E18F0029DBD0C068A16B012521F839
:10224000020BA163E08F0138E087D1E76068B0F549
:10225000827F07D1A06800284FF0020008BF042940
:1022600001D15BE70220012184F85110002184F89C
:10227000501003B0BDE8F08339B139780173206B99
:1022800001302063E08E0138E086012518F101005D
:1022900033D101E0FFF79CF8E08E10B9E08F002801
:1022A00054D02068816889070ED5E18E61B1012D77
:1022B0000AD1216B002509780173216B2068013157
:1022C0002163E18E0139E1868168C907E2D0E18F9F
:1022D0000029DFD0C068A16B01250870A06B013018
:1022E000A063E08F0138E087D4E700BFFFF770F804
:1022F000A0EB0900404580F08180E08E08B9E08FB6
:1023000020B32068816889070ED5E18E61B1012D67
:102310000AD1216B002509780173216B20680131F6
:102320002163E18E0139E1868168C907DED0E18F42
:102330000029DBD0C068A16B01250870A06B0130BB
:10234000A063E08F0138E087D0E700BF40F25C0077
:10235000C2F20000006849F68171C1F25E61A0FB23
:102360000101480D4FF47A71484302906068B0F55E
:10237000827F0FD12046802142464B4600F08AFEE4
:1023800060B3606D40F02000606520206065012032
:1023900069E700BF029808B30298013802902068EC
:1023A000806800061AD50298C0B1029801380290E0
:1023B00020688068000611D5029878B1029801382B
:1023C000029020688068000608D5029830B1029813
:1023D00001380290206880680006DBD4A0680028DD
:1023E0004FF000007FF43FAF01902168CA6801926E
:1023F00089680191019936E7032034E7032032E729
:10240000411E0020B0EB116F1CBF012070474EF23F
:102410001002CEF2000251604EF62351CEF20001BE
:10242000F0230B7007219060116070477047000027
:102430007047000010B590F83C20012A4FF00202CE
:1024400051D080F83D200268D2F804E0D2F808C0EC
:102450000C682EF07003234341F2FF74C4F20004B1
:10246000A24253600EDC40F2FF73C4F200039A42B2
:1024700016DCB2F1804F2BD040F20043C4F20003CF
:1024800024E000BF40F2FF33C4F201039A4213DCA0
:1024900041F60003C4F200039A4219D0002313E06E
:1024A00040F60003C4F200039A4211D040F6004304
:1024B000C4F200030AE000BF44F20003C4F20103C7
:1024C0009A4205D040F20043C4F201039A4204D17B
:1024D00049682CF08003194391600121002280F8A3
:1024E0003D1080F83C20104610BD0000002804BFBD
:1024F0000120704710B5044690F83D0028B900202F
:1025000084F83C00204600F01FF8022084F83D00CB
:102510002068211D01F0E8FE012084F8460084F8BF
:102520003E0084F83F0084F8400084F8410084F8BD
:10253000420084F8430084F8440084F8450084F89D
:102540003D00002010BD000080B584B00068B0F1EF
:10255000804F1BD040F20041C4F2000188422FD0CE
:102560000021C4F20101884239D10020039043F6D2
:102570004000C4F20200416841F00101416040683E
:1025800000F001000390039804B080BD0020029089
:1025900043F64000C4F202000168002241F001014C
:1025A00001600068072100F00100029002981C20E1
:1025B000FEF78EFF1C2004B0BDE88040FEF778BF18
:1025C0000020019043F64000C4F20200016841F08F
:1025D00002010160006800F002000190019804B05F
:1025E00080BD000090F83D1001291CBF01207047FC
:1025F000022180F83D10006841F2FF72C168C4F208
:102600000002904241F00101C1600DDC40F2FF7117
:10261000C4F20001884215DCB0F1804F2AD040F2AC
:102620000041C4F2000123E040F2FF31C4F2010195
:10263000884213DC41F60001C4F20001884219D03F
:10264000002113E040F60001C4F20001884211D0DD
:1026500040F60041C4F200010AE000BF44F200016C
:10266000C4F20101884205D040F20041C4F20101E8
:10267000884206D1816801F00701062904BF0020C5
:102680007047016841F001010160002070470000BF
:1026900080B590F83C20012A4FF0020200F0C28081
:1026A00080F83D20D0F800C04FF67772DCF8083093
:1026B00023EA0202CCF808200B684F2B28DC1F2BE2
:1026C00044DD202B45D0302B43D0402B40F0AC8054
:1026D000D1F804E0C968DCF82030DCF8202022F0D2
:1026E0000102CCF82020DCF8182022F0F00242EAA7
:1026F000011123F00A0242EA0E02CCF81810CCF8BD
:102700002020DCF8081041F0470121F0300180E082
:102710006F2B27DDB3F5005F48D0B3F5805F7AD02B
:10272000702B40F08180D1E901E3C968DCF8082012
:1027300043EA0E0322F47F4243EA01211143CCF81D
:102740000810DCF8081041F0770162E00BB1102BA3
:102750006AD1DCF8081021F07001194341F007013B
:1027600057E000BF502B35D0602B5DD1D1F804E08D
:10277000C968DCF8203023F01003CCF82030DCF8F6
:102780001830DCF8202023F4704322F0A00243EA42
:10279000013142EA0E12CCF81810CCF82020DCF8F7
:1027A000081041F0670121F0100132E0D1E901E3A6
:1027B000C968DCF8082043EA0E0322F47F4243EAAA
:1027C00001211143CCF80810DCF8081041F48041D5
:1027D0001FE000BFD1F804E0C968DCF82030DCF865
:1027E000202022F00102CCF82020DCF8182022F072
:1027F000F00242EA011123F00A0242EA0E02CCF88A
:102800001810CCF82020DCF8081041F0570121F016
:102810002001CCF808100022012180F83D10002191
:1028200080F83C10104680BD0122F5E7704700009B
:1028300010B5016804460869800744BFC8685FEAAC
:10284000807039D40869400744BFC8685FEA4070A7
:102850003ED40869000744BFC8685FEA007045D4E9
:102860000869C00644BFC8685FEAC0604AD4086906
:10287000C0071CBFC8685FEAC07051D10869000674
:1028800044BFC8685FEA006052D40869400644BF8C
:10289000C8685FEA406053D40869800646BFC868CC
:1028A0005FEA806010BD6FF0200220460A61BDE83B
:1028B0001040FFF7BDBD00BF6FF0020008610120AE
:1028C00020778869800743D02046FFF7AFFF45E0B7
:1028D0006FF00400086102202077886910F4407FBF
:1028E00040D02046FFF7A2FF42E000BF6FF0080093
:1028F000086104202077C86980073DD02046FFF793
:1029000095FF3FE06FF01000086108202077C8694C
:1029100010F4407F3AD02046FFF788FF3CE000BF2C
:102920006FF001000861204600F03EF82168A5E73D
:102930006FF0800008612046FFF778FD2168A4E76A
:102940006FF040000861204600F062F82168A3E7BC
:10295000204600F025F8204600F024F821680020E9
:1029600020776FE7204600F01BF8204600F01AF8A9
:102970002168002020776CE7204600F011F82046FF
:1029800000F010F821680020207769E7204600F069
:1029900007F8204600F006F821680020207766E757
:1029A00070470000704700000068B0F1804F08BF1A
:1029B000FDF72ABD70470000B0B5044690F83C0012
:1029C00001284FF0020008BFB0BD012584F83C503B
:1029D00084F83D00206801F025FD00284FF001003B
:1029E00006D0002184F83D5084F83C10B0BD00BFF3
:1029F0002068C16821F04001C160C16821F48041B4
:102A0000C1600020002184F83D5084F83C10B0BD26
:102A10007047000084B04EF62850CEF200000168E6
:102A2000039141680291C16801910069009000BF63
:102A3000FEE70000B0B584B040F23010C2F20000F2
:102A400042F2000C4FF040534FF0C0610024C4F23A
:102A5000010C4FF480320125C0E90A1304210394CC
:102A6000057680F82040C16180F83050C0E900C28E
:102A7000C0E90244C0E90455FDF7D4FF002818BF9F
:102A8000FDF7E4FC40F23010C2F200006946CDE9E7
:102A900000450294FDF7DCFE002818BFFDF7D6FCC8
:102AA000012000900220019040F23010C2F200009C
:102AB0006946FDF7CDFE002818BFFDF7C7FC0B20C7
:102AC00000900320019040F23010C2F200006946ED
:102AD000FDF7BEFE002818BFFDF7B8FC0C200090E3
:102AE0000420019040F23010C2F200006946FDF768
:102AF000AFFE002818BFFDF7A9FC04B0B0BD000070
:102B000080B582B0002043F630010190C4F202018A
:102B10000A6842F400120A600A6802F40012019284
:102B2000019A00900868002240F48000086008685C
:102B3000002100F48000009000980F20FEF7C8FCF0
:102B40000F20FEF7B5FC382000210022FEF7C0FC64
:102B5000382002B0BDE88040FEF7AABC2DE9F04F56
:102B600087B0002443F6300006940194C4F20200BA
:102B7000016840F2000941F0040101600168C4F2FB
:102B8000020901F0040101910199019401680022F8
:102B900041F080010160016801F08001019101991B
:102BA0000194016841F001010160016801F0010137
:102BB000019101990194016841F0020101600068EE
:102BC0004FF48C7100F00200019001984846FEF726
:102BD000F9FB09F500652846102100224FF0100A84
:102BE000FEF7F0FB09F5806840460121002201262E
:102BF000FEF7E8FB082002AFCDE902064846394659
:102C0000CDE90444FEF7F2FA4FF48870CDE90206EC
:102C10004FF0030B484639460496CDF814B0FEF742
:102C2000E5FA28463946CDE902A6CDE90444FEF787
:102C3000DDFA2020CDE90204284639460494FEF747
:102C4000D5FA40463946CDE90266CDE9044BFEF798
:102C5000CDFA07B0BDE8F08F80B540F2382043F2DE
:102C60000001C2F20000C4F201014FF4827200239D
:102C700080E80E0000F114014FF4007C4FF0180EB4
:102C800081E808500A21C0E90333C0E90833C0E9EC
:102C90000A31FEF7FBFE002808BF80BDBDE880407A
:102CA000FDF7D4BB10B540F2902043F60001C2F20C
:102CB0000000C4F200014FF4827200234FF0020CB6
:102CC0004FF4007E182480E80E000A21C0E9033C7E
:102CD000C0E9053EC461C0E90833C0E90A31FEF726
:102CE000D5FE002808BF10BDBDE81040FDF7AEBB03
:102CF00010B588B040F2E82000210024C2F20000A4
:102D0000C4F2010140F2E7334FF0800C0794CDE9A3
:102D10000544CDE90044A82280E81600C0E9033448
:102D2000C0E9054CFFF7E2FB002818BFFDF78EFB5A
:102D300040F2E820C2F2000003A9CDE90344FFF706
:102D40003BFE002818BFFDF781FB202000900020EB
:102D5000019040F2E820C2F200006946FFF76AFBEA
:102D6000002818BFFDF772FB08B010BD80B586B013
:102D70002020009040F230300021C2F2000040F2EA
:102D8000E73C0591CDE9031101914FF080425323B7
:102D9000C0E9021C01618021C0E900238161FFF7C5
:102DA000A5FB002818BFFDF751FB4FF4805002909F
:102DB00040F23030C2F2000002A9FFF769FC00289F
:102DC00018BFFDF743FB40F23030C2F20000694605
:102DD000FFF730FB002818BFFDF738FB06B080BDB9
:102DE00010B588B02020009040F2783040F20041C9
:102DF0000024C2F20000C4F2000140F2E73307945D
:102E0000CDE9054401941E2280E81600C0E9033490
:102E10008461FFF76BFB002818BFFDF717FB40F23A
:102E20007830C2F2000003A9CDE90344FFF7C4FDE6
:102E3000002818BFFDF70AFB40F27830C2F200000C
:102E40006946FFF7F7FA002818BFFDF7FFFA08B048
:102E500010BD0000FEE70000FEE700002DE9F04392
:102E600083B040F60005C4F20205A5F50064804673
:102E7000204610210022FEF7A5FA0E208DF80B0047
:102E8000284610210022FEF79DFA40F23827202024
:102E9000C2F200078DF809000DF109013846012240
:102EA0004FF0FF334FF0FF36FEF7F2FF0DF10B014D
:102EB0000DF10A02384601230096FFF715F928465E
:102EC00010210122FEF77EFA204610210122FEF792
:102ED00079FA0120FEF776F9204610210022FEF74C
:102EE00071FA284610210022FEF76CFAA0208DF816
:102EF0000B000DF10B01384601224FF0FF33FEF7B6
:102F0000C7FF3846414620224FF0FF33FEF7C0FF8F
:102F1000284610210122FEF755FA204610210122F1
:102F2000FEF750FA28462021FEF73EFA0128F9D094
:102F300007208DF80B0000208DF80A00284610218C
:102F40000022FEF73FFA40F23827C2F200074FF0A6
:102F5000FF380DF10B010DF1090238460123CDF8C0
:102F60000080FFF7C1F840F25809C2F200090DF1E4
:102F70000A02384649460123CDF80080FFF7B4F82D
:102F8000284610210122FEF71DFA9DF80A60284606
:102F9000102100228DF80B60FEF714FA27208DF81F
:102FA00009000DF10901384601224FF0FF33FEF709
:102FB0006FFF0DF10B010DF10A0238460123CDF828
:102FC0000080FFF791F8284610210122FEF7FAF958
:102FD000F00626D599F8000010218DF80B00284640
:102FE0000022FEF7EFF940F23826E120C2F2000697
:102FF0008DF809000DF10901304601224FF0FF3331
:10300000FEF746FF0DF10B010DF10A0230460123D8
:10301000CDF80080FFF768F8284610210122FEF75E
:10302000D1F9204610210022FEF7CCF940F2A4008D
:10303000C2F20000007810218DF80B002846002213
:10304000FEF7C0F940F238262020C2F200068DF8C3
:1030500009000DF10901304601224FF0FF33FEF760
:1030600017FF0DF10B010DF10A0230460123CDF8D7
:103070000080FFF739F8284610210122FEF7A2F957
:10308000204610210122FEF79DF903B0BDE8F08330
:10309000704700002DE9F04182B01E4690460D4673
:1030A0000446FEF795F9301A00EB0807FEF790F991
:1030B00040F25C01C2F200010968C1F3CB317943EF
:1030C000019121688A682A40AA4227D1064618F150
:1030D00001001FD0FEF77CF9801BB84222D2019874
:1030E00001990028A1F1010101912168896808BFB7
:1030F000074601EA0500A842ECD00FE088682840A6
:10310000A8420BD188682840A84207D18868284087
:10311000A84203D188682840A842EFD0002002B01E
:10312000BDE8F081D4E900014268B1F5827F22F068
:10313000E00242600AD1A168B1F5004F02D0B1F5BA
:10314000806F03D1016821F040010160A16AB1F5EF
:10315000005F07D1016821F400510160016841F46A
:1031600000510160012084F85100002084F85000D3
:10317000032002B0BDE8F0812DE9F04F81B032208C
:10318000FEF720F80024C4F2020404F58065284606
:10319000012101224FF0010AFEF714F93220FEF757
:1031A00011F804F500663046102100220027FEF7D2
:1031B00009F91920FEF706F8304610210122FEF722
:1031C00001F91920FDF7FEFF36208DF80300204697
:1031D00008210022FEF7F6F8284601210022FEF71A
:1031E000F1F840F29026C2F200060DF103013046DC
:1031F00001224FF0FF33FEF74BFE2046082101224B
:10320000FEF7E0F82046082100228DF80370FEF753
:10321000D9F8284601210122FEF7D4F80DF1030167
:10322000304601224FF0FF33FEF732FE20460821E0
:103230000122FEF7C7F83A208DF803002046082146
:103240000022FEF7BFF8284601210022FEF7BAF857
:103250000DF10301304601224FF0FF33FEF718FE57
:10326000204608210122FEF7ADF805208DF8030065
:10327000204608210022FEF7A5F828460121012258
:10328000FEF7A0F80DF10301304601224FF0FF33A5
:10329000FEF7FEFD204608210122FEF793F82120CB
:1032A0008DF80300204608210022FEF78BF82846FF
:1032B00001210022FEF786F80DF1030130460122BC
:1032C0004FF0FF33FEF7E4FD204608210122FEF710
:1032D00079F82A208DF80300204608210022FEF705
:1032E00071F8284601210022FEF76CF80DF1030168
:1032F000304601224FF0FF33FEF7CAFD2046082179
:103300000122FEF75FF82046082100228DF80370A5
:10331000FEF758F8284601210122FEF753F80DF177
:103320000301304601224FF0FF33FEF7B1FD204686
:1033300008210122FEF746F82046082100228DF8D8
:103340000370FEF73FF8284601210122FEF73AF804
:103350000DF10301304601224FF0FF33FEF798FDD7
:10336000204608210122FEF72DF8204608210022E0
:103370008DF803A0FEF726F8284601210122FEF76A
:1033800021F80DF10301304601224FF0FF33FEF723
:103390007FFD204608210122FEF714F83F208DF81A
:1033A0000300204608210022FEF70CF828460121E0
:1033B0000122FEF707F80DF10301304601224FF01C
:1033C000FF33FEF765FD204608210122FDF7FAFFD5
:1033D0002B208DF80300204608210022FDF7F2FF84
:1033E000284601210022FDF7EDFF0DF103013046D3
:1033F00001224FF0FF33FEF74BFD2046082101224A
:10340000FDF7E0FF2046082100228DF80370FDF74C
:10341000D9FF284601210122FDF7D4FF0DF1030158
:10342000304601224FF0FF33FEF732FD20460821DF
:103430000122FDF7C7FF2046082100228DF8037006
:10344000FDF7C0FF284601210122FDF7BBFF0DF16A
:103450000301304601224FF0FF33FEF719FD2046ED
:1034600008210122FDF7AEFF2046082100228DF839
:103470000370FDF7A7FF284601210122FDF7A2FFF7
:103480000DF10301304601224FF0FF33FEF700FD3E
:10349000204608210122FDF795FFEF208DF803005B
:1034A000204608210022FDF78DFF28460121012238
:1034B000FDF788FF0DF10301304601224FF0FF3385
:1034C000FEF7E6FC204608210122FDF77BFFB22033
:1034D0008DF80300204608210022FDF773FF2846DF
:1034E00001210022FDF76EFF0DF10301304601229C
:1034F0004FF0FF33FEF7CCFC204608210122FDF7F8
:1035000061FF4FF00C082046082100228DF803804F
:10351000FDF758FF284601210122FDF753FF0DF169
:103520000301304601224FF0FF33FEF7B1FC204685
:1035300008210122FDF746FF2046082100228DF8D0
:103540000380FDF73FFF284601210122FDF73AFFE6
:103550000DF10301304601224FF0FF33FEF798FCD6
:10356000204608210122FDF72DFF204608210022D8
:103570008DF80370FDF726FF284601210122FDF793
:1035800021FF0DF10301304601224FF0FF33FEF71A
:103590007FFC204608210122FDF714FF4FF033097C
:1035A0002046082100228DF80390FDF70BFF2846E6
:1035B00001210122FDF706FF0DF103013046012232
:1035C0004FF0FF33FEF764FC204608210122FDF78F
:1035D000F9FE2046082100228DF80390FDF7F2FE47
:1035E000284601210122FDF7EDFE0DF103013046D1
:1035F00001224FF0FF33FEF74BFC20460821012249
:10360000FDF7E0FEB7272046082100228DF8037061
:10361000FDF7D8FE284601210022FDF7D3FE0DF16B
:103620000301304601224FF0FF33FEF731FC204604
:1036300008210122FDF7C6FE35208DF80300204643
:1036400008210022FDF7BEFE284601210122FDF7D8
:10365000B9FE0DF10301304601224FF0FF33FEF7B2
:1036600017FC204608210122FDF7ACFE2046082168
:1036700000228DF80370FDF7A5FE284601210022E7
:10368000FDF7A0FE0DF10301304601224FF0FF339C
:10369000FEF7FEFB204608210122FDF793FE1F20C6
:1036A0008DF80300204608210022FDF78BFE2846F6
:1036B00001210122FDF786FE0DF1030130460122B2
:1036C0004FF0FF33FEF7E4FB204608210122FDF70F
:1036D00079FEC0208DF80300204608210022FDF766
:1036E00071FE284601210022FDF76CFE0DF1030159
:1036F000304601224FF0FF33FEF7CAFB2046082177
:103700000122FDF75FFE2C208DF8030020460821E2
:103710000022FDF757FE284601210122FDF752FE47
:103720000DF10301304601224FF0FF33FEF7B0FBED
:10373000204608210122FDF745FEC2208DF8030036
:10374000204608210022FDF73DFE284601210022E7
:10375000FDF738FE0DF10301304601224FF0FF3333
:10376000FEF796FB204608210122FDF72BFE20469E
:10377000082100228DF803A0FDF724FE2846012130
:103780000122FDF71FFE0DF10301304601224FF02B
:10379000FF33FEF77DFB204608210122FDF712FED4
:1037A000C3208DF80300204608210022FDF70AFE01
:1037B000284601210022FDF705FE0DF103013046E8
:1037C00001224FF0FF33FEF763FB20460821012260
:1037D000FDF7F8FD12208DF8030020460821002295
:1037E000FDF7F0FD284601210122FDF7EBFD0DF16B
:1037F0000301304601224FF0FF33FEF749FB20461C
:1038000008210122FDF7DEFDC4208DF803002046CB
:1038100008210022FDF7D6FD284601210022FDF7F0
:10382000D1FD0DF10301304601224FF0FF33FEF7C9
:103830002FFB204608210122FDF7C4FD20208DF832
:103840000300204608210022FDF7BCFD2846012187
:103850000122FDF7B7FD0DF10301304601224FF0C3
:10386000FF33FEF715FB204608210122FDF7AAFDD4
:10387000C6208DF80300204608210022FDF7A2FD96
:10388000284601210022FDF79DFD0DF10301304680
:1038900001224FF0FF33FEF7FBFA204608210122F8
:1038A000FDF790FD0F208DF803002046082100222F
:1038B000FDF788FD284601210122FDF783FD0DF16A
:1038C0000301304601224FF0FF33FEF7E1FA2046B4
:1038D00008210122FDF776FD4FF0D00B204608218C
:1038E00000228DF803B0FDF76DFD2846012100226E
:1038F000FDF768FD0DF10301304601224FF0FF3363
:10390000FEF7C6FA204608210122FDF75BFDA42040
:103910008DF80300204608210022FDF753FD2846BC
:1039200001210122FDF74EFD0DF103013046012278
:103930004FF0FF33FEF7ACFA204608210122FDF7D5
:1039400041FDA1208DF80300204608210022FDF74B
:1039500039FD284601210122FDF734FD0DF1030157
:10396000304601224FF0FF33FEF792FA204608213D
:103970000122FDF727FDE0208DF8030020460821F5
:103980000022FDF71FFD284601210022FDF71AFD48
:103990000DF10301304601224FF0FF33FEF778FAB4
:1039A000204608210122FDF70DFD204608210022B6
:1039B0008DF803B0FDF706FD284601210122FDF731
:1039C00001FD0DF10301304601224FF0FF33FEF7F8
:1039D0005FFA204608210122FDF7F4FC0827204663
:1039E000082100228DF80370FDF7ECFC2846012128
:1039F0000122FDF7E7FC0DF10301304601224FF0F3
:103A0000FF33FEF745FA204608210122FDF7DAFCD4
:103A100011208DF80300204608210022FDF7D2FC7A
:103A2000284601210122FDF7CDFC0DF103013046AE
:103A300001224FF0FF33FEF72BFA20460821012226
:103A4000FDF7C0FC2046082100228DF803700827EE
:103A5000FDF7B8FC284601210122FDF7B3FC0DF16A
:103A60000301304601224FF0FF33FEF711FA2046E2
:103A700008210122FDF7A6FC2046082100228DF82E
:103A80000380FDF79FFC284601210122FDF79AFCE7
:103A90000DF10301304601224FF0FF33FEF7F8F934
:103AA000204608210122FDF78DFC15208DF803002A
:103AB000204608210022FDF785FC2846012101222D
:103AC000FDF780FC0DF10301304601224FF0FF337A
:103AD000FEF7DEF9204608210122FDF773FC4FF0C6
:103AE000390A2046082100228DF803A0FDF76AFC60
:103AF000284601210122FDF765FC0DF10301304646
:103B000001224FF0FF33FEF7C3F9204608210122BE
:103B1000FDF758FC2046082100228DF80390FDF7A0
:103B200051FC284601210122FDF74CFC0DF1030157
:103B3000304601224FF0FF33FEF7AAF92046082154
:103B40000122FDF73FFC50208DF80300204608219C
:103B50000022FDF737FC284601210122FDF732FC47
:103B60000DF10301304601224FF0FF33FEF790F9CB
:103B7000204608210122FDF725FC36208DF80300A0
:103B8000204608210022FDF71DFC284601210122C4
:103B9000FDF718FC0DF10301304601224FF0FF3311
:103BA000FEF776F9204608210122FDF70BFC1320D1
:103BB0008DF80300204608210022FDF703FC28466B
:103BC00001210122FDF7FEFB0DF103013046012228
:103BD0004FF0FF33FEF75CF9204608210122FDF784
:103BE000F1FB4FF014082046082100228DF80380D5
:103BF000FDF7E8FB284601210122FDF7E3FB0DF16B
:103C00000301304601224FF0FF33FEF741F9204611
:103C100008210122FDF7D6FB4FF029092046082193
:103C200000228DF80390FDF7CDFB284601210122EB
:103C3000FDF7C8FB0DF10301304601224FF0FF33C1
:103C4000FEF726F9204608210122FDF7BBFB2D20B7
:103C50008DF80300204608210022FDF7B3FB28461B
:103C600001210122FDF7AEFB0DF1030130460122D7
:103C70004FF0FF33FEF70CF9204608210122FDF733
:103C8000A1FBE1208DF80300204608210022FDF76A
:103C900099FB284601210022FDF794FB0DF1030159
:103CA000304601224FF0FF33FEF7F2F8204608219C
:103CB0000122FDF787FB2046082100228DF803B082
:103CC000FDF780FB284601210122FDF77BFB0DF16A
:103CD0000301304601224FF0FF33FEF7D9F82046AA
:103CE00008210122FDF76EFB2046082100228DF8F5
:103CF0000370FDF767FB284601210122FDF762FBF7
:103D00000DF10301304601224FF0FF33FEF7C0F8FA
:103D1000204608210122FDF755FB10208DF80300F5
:103D2000204608210022FDF74DFB284601210122F3
:103D3000FDF748FB0DF10301304601224FF0FF3340
:103D4000FEF7A6F8204608210122FDF73BFB20469E
:103D5000082100228DF80370FDF734FB284601216D
:103D60000122FDF72FFB0DF10301304601224FF038
:103D7000FF33FEF78DF8204608210122FDF722FBD4
:103D800006272046082100228DF80370FDF71AFB54
:103D9000284601210122FDF715FB0DF103013046F4
:103DA00001224FF0FF33FEF773F82046082101226D
:103DB000FDF708FB2046082100228DF80370FDF76F
:103DC00001FB284601210122FDF7FCFA0DF1030158
:103DD000304601224FF0FF33FEF75AF82046082103
:103DE0000122FDF7EFFA2046082100228DF803A0FA
:103DF000FDF7E8FA284601210122FDF7E3FA0DF16B
:103E00000301304601224FF0FF33FEF741F8204610
:103E100008210122FDF7D6FA44208DF80300204640
:103E200008210022FDF7CEFA284601210122FDF7E4
:103E3000C9FA0DF10301304601224FF0FF33FEF7BE
:103E400027F8204608210122FDF7BCFA51208DF801
:103E50000300204608210022FDF7B4FA284601217C
:103E60000122FDF7AFFA0DF10301304601224FF0B8
:103E7000FF33FEF70DF8204608210122FDF7A2FAD4
:103E80000B208DF80300204608210022FDF79AFA46
:103E9000284601210122FDF795FA0DF10301304674
:103EA00001224FF0FF33FDF7F3FF204608210122E6
:103EB000FDF788FA16208DF803002046082100221D
:103EC000FDF780FA284601210122FDF77BFA0DF16A
:103ED0000301304601224FF0FF33FDF7D9FF2046A2
:103EE00008210122FDF76EFA2046082100228DF8F4
:103EF0000380FDF767FA284601210122FDF762FAE7
:103F00000DF10301304601224FF0FF33FDF7C0FFF2
:103F1000204608210122FDF755FA2F208DF80300D5
:103F2000204608210022FDF74DFA284601210122F2
:103F3000FDF748FA0DF10301304601224FF0FF333F
:103F4000FDF7A6FF204608210122FDF73BFA3120AC
:103F50008DF80300204608210022FDF733FA284699
:103F600001210122FDF72EFA0DF103013046012255
:103F70004FF0FF33FDF78CFF204608210122FDF7AB
:103F800021FA21208DF80300204608210022FDF7A8
:103F900019FA284601210022FDF714FA0DF1030158
:103FA000304601224FF0FF33FDF772FF2046082113
:103FB0000122FDF707FA11208DF8030020460821A1
:103FC0000022FDF7FFF9284601210022FDF7FAF94A
:103FD0000DF10301304601224FF0FF33FDF758FF8A
:103FE000204608210122FDF7EDF913208DF803008A
:103FF000204608210022FDF7E5F92846012100228C
:10400000FDF7E0F90DF10301304601224FF0FF33D7
:10401000FDF73EFF204608210122FDF7D3F9204697
:10402000082100228DF80390FDF7CCF928460121E4
:104030000022FDF7C7F90DF10301304601224FF0D0
:10404000FF33FDF725FF204608210122FDF7BAF9CD
:104050003220FDF7B7F836208DF8030020460821FE
:104060000022FDF7AFF9284601210022FDF7AAF949
:104070000DF10301304601224FF0FF33FDF708FF39
:10408000204608210122FDF79DF960208DF80300EC
:10409000204608210022FDF795F92846012101223A
:1040A000FDF790F90DF10301304601224FF0FF3387
:1040B000FDF7EEFE204608210122FDF783F901B04D
:1040C000BDE8F08F2DE9F04784B0002400F114061C
:1040D0002A20C4F202048A4602F114078DF80D006A
:1040E0002046082100229946FDF76CF904F5806509
:1040F000284601210022FDF765F940F29028C2F21E
:1041000000080DF10D01404601224FF0FF33FDF78D
:10411000BFFE204608210122FDF754F9300A8DF830
:104120000900380A8DF80B002046082100228DF87E
:104130000A608DF80C70FDF745F92846012101222F
:10414000FDF740F90DF10901404604220A23FDF76D
:104150009FFE204608210122FDF734F92B208DF81F
:104160000E00204608210022FDF72CF928460121E7
:104170000022FDF727F90DF10E01404601224FF014
:10418000FF33FDF785FE204608210122FDF71AF9CD
:104190004FEA1A208DF805004FEA19208DF8070024
:1041A0002046082100228DF806A08DF80890FDF722
:1041B00009F9284601210122FDF704F90DF1050155
:1041C000404604220A23FDF763FE2046082101220F
:1041D000FDF7F8F82C208DF80F002046082100226A
:1041E000FDF7F0F8284601210022FDF7EBF80DF16C
:1041F0000F01404601224FF0FF33FDF749FE2046F4
:1042000008210122FDF7DEF804B0BDE8F0870000C8
:1042100070470000FDF7E2B8B0B592B0002443F655
:1042200040000B94CDE90944CDE907440594CDE95C
:104230000344CDE901440094C4F202000168022560
:1042400041F080510160006800F0805000900098BB
:1042500047F200000094C4F20000016841F480417C
:104260000160006800F480400090009801200990EF
:1042700010200A9008200E90A820CDE90F050420F8
:10428000119006A80695CDE90C54FDF743FA28B124
:10429000EFF3108072B600BFFEE700BF0F20CDE93C
:1042A00001054FF4A05004904FF48050059001A8F0
:1042B00005210394FDF748F920B1EFF3108072B6A1
:1042C000FEE700BF12B0B0BD4EF68850CEF200003F
:1042D000016841F4700101607047000040F2303025
:1042E000C2F20000FEF7A4BA10B540F6FF3E036824
:1042F000C4F2000E40F2004C7045C4F2010C27DC01
:10430000B0F1804F31D040F20042C4F2000290423E
:104310002BD040F60002C4F20002904225D041F6B4
:10432000FF72C4F20002904229DC70453CDCB0F11F
:10433000804F5FD040F20042C4F20002904259D058
:1043400040F60002C4F20002904253D056E000BF93
:1043500040F60042C4F20002904206D0604504D00C
:104360000022C4F201029042D9D14A6823F07003BE
:10437000134341F6FF72C4F200029042D5DD43F6CA
:10438000FF72C4F20102904222DC42F20002C4F247
:10439000000290422ED00022C4F20102904229D0A5
:1043A000604527D02AE000BF40F60042C4F2000278
:1043B00090421FD041F60002C4F20002904219D090
:1043C00041F60042C4F20002904213D016E000BF52
:1043D00044F20002C4F2010290420BD044F6000203
:1043E000C4F20102904205D044F20042C4F201023C
:1043F000904203D1CA6823F44073134323F0800230
:104400004B69D1F800E08C681A430260C46240F442
:104410008062C0F828E0624504BF09690163012198
:10442000416110BD80B58268D1E900E322F0770CCC
:1044300023F0070242EA0C0242EA0E0C4FEA331262
:10444000072AC0F808C009D84FF0000CDFE802F0D6
:10445000040404040A1E344A604680BD4FF0010C77
:10446000604680BDBEF1050F04BF012080BD026A19
:10447000036A23F0010303628369096923F0F003EF
:1044800043EA011181610262002080BDD1F808C0B9
:104490000969036A026A22F001020262826922F05B
:1044A000F00242EA011123F00A0242EA0C028161A1
:1044B0000262002080BD00BFD1F808C00969036A0C
:1044C00023F0100303628369026A23F4704322F02D
:1044D000A00243EA013142EA0C128161026200202B
:1044E00080BD00BFD1E902C30969826843EA0C03B9
:1044F00022F47F4243EA012111438160002080BD04
:10450000B0B540F26005C2F200056869013068612B
:104510002978A9B9FCF75CFF04460120287048F00F
:10452000FFF900202870FCF753FF001B062806D374
:1045300040F60040C4F202000421FCF73BFF68692A
:10454000652838BFB0BD40F60040C4F20200042127
:10455000FCF730FF00206861B0BD00000020C4F20D
:1045600002004FF48071FCF725BF0000022048F0E4
:1045700023B9000080B540F2A001C2F20001B1F9F8
:104580000000B1F9021002460B4649F0CFFDBDE82C
:10459000804000F017B80000FEE7000040F2301045
:1045A00040F2AE01C2F20000C2F200014022FCF76C
:1045B00057BB000040F26870C2F201005A2101703E
:1045C00070470000F0B581B0002056F017FD40F6AE
:1045D000FF76B04228BF30464FF47A7540F201179B
:1045E0006843C0F21007A0FB0712801A02EB5000CC
:1045F00040F2687405EBD020C2F201046080012013
:1046000056F0FCFCB04228BF30466843A0FB0712BE
:10461000801A02EB500005EBD020A080022056F05B
:10462000EDFCB04228BF30466843A0FB0712801A59
:1046300002EB500005EBD020E080032056F0DEFCBA
:10464000B04238BF064606FB05F0A0FB0712801AF1
:1046500002EB500005EBD0212046218101B0BDE8DE
:10466000F040FEF7FBBB00002DE9F04F83B0129F36
:104670000DF1300C1E46DDE910489CE808188A460A
:10468000814617F0020015460190029248D1B8F118
:10469000000F0BD0F8070BD017F00C0018BF01204B
:1046A00040EA0C00A8EB000802E000BF4FF0000851
:1046B000A34518D2BBF11F0F15D86FEA0B01214497
:1046C000CBF11F0503EB0B00A94238BF0D46691C57
:1046D0003022FBF7E9FDDDF838C00C9B05EB0B0041
:1046E000029D00F1010BF8071AD0C34518D2BBF1A7
:1046F0001F0F15D86FEA0B014144CBF11F0503EBE7
:104700000B00A94238BF0D46691C3022FBF7CCFDD7
:10471000DDF838C00C9B0BEB0500029D00F1010B8E
:10472000F80636D50F98790510D4BBF1000F0DD0DF
:10473000A34518BFC34509D1BBF101010A4618BF03
:10474000ABF10202102818BF0A469346102807D181
:1047500017F020000CD1BBF1200F09D278200CE01B
:1047600002280ED1BBF11F0F0BD8622005E000BF5D
:1047700038B1BBF1200F04D2582003F80B000BF125
:10478000010BBBF11F0F18D8302003F80B000BF101
:10479000010BBBF11F0F10D8BCF1000F02D02D2070
:1047A00007E000BF780703D4380706D5202000E0D3
:1047B0002B2003F80B000BF1010BB8072C460DD191
:1047C000C3452C460AD2A8EB0B072A4620205146A7
:1047D0003346541CC847013F2246F7D1BBF1000FB6
:1047E000CDF8008012D00C98A0F1010818F80B0049
:1047F000514622463346ABF10105671CC847002DE0
:104800003C46AB46F2D1019818B917E0274601980B
:10481000A0B10299DDF80080781A40450ED24D42D1
:10482000202051463A4633467C1CC847281940454B
:104830002746F5D3204603B0BDE8F08F3C4620461E
:1048400003B0BDE8F08F00009A4238BF885470472B
:10485000704700002DE9F04383B04FF00006D8B355
:104860000D46C9B300F1240904464846294643F0E1
:1048700005F90646029018B33769616838460CF0AE
:10488000E7F962688046384629463BF0D1F804F1E2
:1048900030003AF047FF019040B302A904223BF0F8
:1048A000C7F80298E16A006904220844043801A9A3
:1048B0003BF0BEF86268404621460CF0CFF9029EFC
:1048C00076B1306961680CF0C3F9E16B06462846A1
:1048D0008847E1680844E060304603B0BDE8F083F3
:1048E0000026304603B0BDE8F08300BF484631469D
:1048F00043F078F80026304603B0BDE8F0830000AE
:1049000010B540203BF014F8044620B120460021A9
:1049100040223BF029FC204610BD00002DE9F04F5D
:1049200081B040F2C035C2F2000595F8A90005F14A
:10493000B00B80F0010085F8A90058463AF0B8FEA7
:10494000002800F0118106464FF000094FF0010ADF
:1049500008E000BF584631463AF0CEFE0646002831
:1049600000F00281306D47F0CFFE96F85C10C90769
:1049700004D1716B084470631CE000BF706D47F098
:10498000C3FEB16D4A1C15D0884213D396F85C2043
:10499000736B401A02F0FE0186F85C1018447063D5
:1049A00095F8A90002F0FA0141EA800080F00400C5
:1049B00086F85C0047F0D6FE85F8A89096F85C1063
:1049C0003065CA07C6D195F8A900C1F380028242BA
:1049D00068D001F0FB0242EA80000A0786F85C001A
:1049E0001ED4706B00281BD4C80609D4B16939B134
:1049F00030468847716AF26A014410447162F0627D
:104A000030464CF0E7F9F16809B13046884796F82E
:104A10005C0040F0080086F85C0030464CF0E0F89E
:104A2000746B002C3ED4306BA0468442C4BF7063CC
:104A30008046316A30468847B16A884240D195F84D
:104A4000A800A0BB716B414504BF74632146306B65
:104A5000814227DB96F85C70746C17F0020204D177
:104A6000631C022B24BF013C7464F36B0CB9CBB301
:104A7000C2BB07F0F707091A346C86F85C70D8BF20
:104A80004946091B71636BB112B9B16B494271633D
:104A900087F0020186F85C10F16A726A7162C6E9F9
:104AA0000B23F06395F8A80000283FF453AF584655
:104AB0003AF0FEFD064600287FF454AF54E000BFF4
:104AC00072680746B06212B130683946904795F86F
:104AD000A8000028EBD1B268002AB0D03046394691
:104AE0009047ACE7584631463AF0F0FE584685F814
:104AF000A8A03AF0DDFD0146D5F8AC0021B138B1EF
:104B000047F0FAFF1FE000BF80B147F0E7FF1AE06F
:104B100095F8AA00B8B944F671310020C0F600013A
:104B200000220EF0D5FB85F8AAA00CE095F8AA00AB
:104B300048B144F671310020C0F6000100220EF0A9
:104B4000E1FC85F8AA90316909B13046884771695E
:104B500009B130468847304636F0F6FF95F8A80090
:104B60000028A4D1F6E600BF01B0BDE8F08F000038
:104B70000020FFF7D3BE0000B0B5044640680D46E4
:104B800010B12946FFF7F8FF2268002A08BFB0BD20
:104B900020462946BDE8B0401047000070B50E68B9
:104BA0000C463168054641B196F82200C00604D58E
:104BB000216028462146FFF7F1FF2846214626605E
:104BC000BDE87040FFF7D8BF09F0F0BB09F07EBC2C
:104BD000B0B598B00546406C50B36C46204608F01E
:104BE00007FE2046294608F0D3FE4EF2DD71C0F6DE
:104BF0000401204608F0B6FE696C204608F0A6FEC7
:104C000020460021012208F0BDFE4DF6D901C0F674
:104C10000001204608F0A8FE4EF2E171C0F6040142
:104C2000204608F08BFE204608F0E8FE18B0B0BD24
:104C3000284618B0BDE8B04049F076BDB0B50029AF
:104C400048D080290B460BD3B1FA81F2C2F11A0287
:104C50004FF0FF3303FA02F2D24353187F2B3BD8B5
:104C60009A08002300EB8305D5F814C04FF0FF35F8
:104C700005FA02F212EA0C0214D092FAA2F2B2FA87
:104C800082FE00EBC31202EB8E0454F83C2F0AB3F1
:104C9000556825F003058D422ED2EFF3108072B6D1
:104CA000FEE700BF0269013305FA03F31A4011D091
:104CB00092FAA2F2B2FA82F300EB8302D2F814C0A5
:104CC000BCF1000F6246D8D1EFF3108072B600BF7E
:104CD000FEE700BF0020B0BD0022B2EB134F25D18C
:104CE000B3FA83F5C5F11A0223FA02F282F0200228
:104CF000C5F11903B6E700BFD568CDB19168E9B138
:104D0000CD60A9602568954210D1814221600DD106
:104D1000012101FA0EF52CEA050500EB830465611B
:104D200025B90569994025EA010101611046B0BD28
:104D3000EFF3108072B600BFFEE700BFEFF3108004
:104D400072B600BFFEE70000F0B54A68032A0BD92F
:104D5000043A22F0030301F108029B180AD05D68AF
:104D6000EC070DD10846F0BDEFF3108072B600BF1E
:104D7000FEE700BFEFF3108072B600BFFEE700BF92
:104D800025F003047F2C35D84FEA950E4FF0000C28
:104D9000DD68E5B39C68002C3ED0E560AC6000EBBC
:104DA000CC1505EB8E0555F83C6F9E4211D184421F
:104DB0002C600ED100EB8C0501276E6907FA0EF40A
:104DC000A6436E612EB9066907FA0CF726EA0707B3
:104DD00007614868032825D95B68043323F003037F
:104DE00018440328486023D9043820F00300815078
:104DF0000846F0BDB4FA84FCCCF11A0524FA05F596
:104E000085F0200ECCF1190CDD68002DC2D1EFF336
:104E1000108072B6FEE700BFEFF3108072B600BFDD
:104E2000FEE700BFEFF3108072B600BFFEE700BFE1
:104E3000EFF3108072B600BFFEE7000070B549B115
:104E400052B14B68DD070DD1EFF3108072B600BF91
:104E5000FEE700BF002070BDEFF3108072B600BF08
:104E6000FEE700BF23F0030402F11005AC4211D2AB
:104E7000032B40F29280181F20F0030201F108007A
:104E80000244536823F0020353604A6822F001028F
:104E90004A6070BD01F1080E02EB0E03DD1D1E1D00
:104EA00025F00305AE4205D0EFF3108072B600BFC7
:104EB000FEE700BFA3F1040CA31ADCF80440043B96
:104EC00004F003041C430B2BCCF804402CD94B6892
:104ED00003F003031A434A60DCF80420032A29D9AB
:104EE000043A22F00304A219536844F806C043F0C0
:104EF00002035360DCF8042042F00103CCF80430D4
:104F00004B68032B1CD9043B23F0030343F80E101A
:104F100022F0030342F003067F2BCCF8046015D87F
:104F20004FEA920E00231AE0EFF3108072B600BF32
:104F3000FEE700BFEFF3108072B600BFFEE700BFD0
:104F4000EFF3108072B600BFFEE700BFB3FA83F242
:104F5000C2F11A06F34083F0200EC2F1190300EBF0
:104F6000C31202EB8E0252F83C4FDCB1CCE9024096
:104F7000C4F80CC00124056904FA03F63543056141
:104F800000EB8300436904FA0EF6334343614B6838
:104F9000C2F800C0032B3FF66EAFEFF3108072B67D
:104FA000FEE700BFEFF3108072B600BFFEE700001F
:104FB000B0B582B0044638F067F9054638F0ACF970
:104FC00040B1606C206420463FF074F9012002B0CB
:104FD000B0BD00BFE06A01213EF090FD30B1204637
:104FE00035F0E0FE012002B0B0BD00BF2046012137
:104FF00040F084FC4FF6FF71E06AA16401213BF0B0
:1050000081FB20462721002240F090FFD4E91001C7
:1050100081420BD06064019001AA2046232140F018
:1050200085FF0128D3D120463FF044F9284638F0C7
:1050300085F90428D6D120463DF09CFC002137F0AC
:105040002BF9012002B0B0BDC11C002818BF21F00F
:10505000030070472DE9F04F81B091460546407836
:10506000527890422AD11C460F4669B3384609F05F
:10507000DDFC002C804647D1687801260738C2B293
:10508000032A2AD9002E3FD0B9F8040080455BD10D
:1050900000285FD0B9F8060000285BD099F801100D
:1050A000D9F81000CA1FD2B2032A80F0DF804BF675
:1050B0007C31C0F6050151F82210DCE0EFF31080DE
:1050C00072B600BFFEE700BFB5F80480B4FA84F101
:1050D0004E090738C2B2032AD4D82869D9F810106B
:1050E000022A0BD84BF67C33C0F6050353F8222076
:1050F0003AF09EFC002EC7D106E000BF4FF480625C
:105100003AF096FC002EBFD1204609F08FFC804576
:105110001AD1D4F800A0B9F8040082451AD2616807
:10512000B9F80600814215D299F80100D9F810208B
:10513000C31FDBB2032B41D24BF67C36C0F605060B
:1051400056F8233040E000BFEFF3108072B600BF86
:10515000FEE700BF0026CDF80080DFB1D7F800B031
:10516000A888D7F804A0834510D2E88882450DD2DC
:1051700068782969C21FD2B2032A39D24BF67C3330
:10518000C0F6050353F8222038E000BFD7F80C80A2
:1051900000244FE0A988E88871B128B36A782969AA
:1051A000D31FDBB2032B3BD24BF67C32C0F6050299
:1051B00052F8232039E000BF002437E0A0F10A03B1
:1051C000B3FA83F35B099B02B9F808601A4401FB48
:1051D0000626BAF1000FBED00CF0D2FF0AFB00F099
:1051E00006EBD006B7E700BF002000241EE000BF9A
:1051F000A0F10A02B2FA82F2520992022B891144FA
:105200000AFB0314BBF1000F07D00CF0B9FF0BFB36
:1052100000F0D7F804A004EBD004D7F80C8009E024
:105220000A3AB2FA82F2520992028C18A0F10108ED
:105230004FF0000A6878B5F808B0B9F808900CF09B
:105240009FFFC2450FDC009948430730C510A8EB0B
:105250000A00471C204631462A463AF0E9FB5C44E6
:10526000013F4E44F6D101B0BDE8F08F0A39B1FAE2
:1052700081F14909890246186DE7000036F064BCE7
:1052800003303AF055BB000010B5044640680BF0FF
:10529000E3FC45F2A9230146C0F6000320460422A0
:1052A000BDE8104038F084B970B50E460968144660
:1052B000054600F1300079B13AF01EFA306080B155
:1052C000016868680D690BF0C7FC02462046294654
:1052D0003AF0AEFB012070BD3AF0EAF900283060E8
:1052E000EED1002070BD00002DE9F04F8BB01546C7
:1052F0006FF040429142044608D12968B1F1FF3F66
:1053000050DD08460BB0BDE8F08F00BF01F0C04093
:10531000B0F1005FF5D121F0C0486FF060408045EA
:10532000EFD020463DF09EFB0546408D400500F144
:10533000DF802846002102223EF05CFA6FF04041F7
:10534000884240F0D5802046002110223EF052FADB
:1053500080462046002130223EF04CFA814620460D
:10536000002134223EF046FA074620460021112251
:105370003EF040FA05462046002130223EF03AFA3F
:1053800006462046002134223EF034FA05EB08019F
:10539000BA0748BF4944C00718BF314408460BB09C
:1053A000BDE8F08F20463DF061FDA16881460029EF
:1053B0001CBF0020486240F2010A20460021102252
:1053C000CEF2000A3EF016FA0746204600213022AF
:1053D0003EF010FA06462046002134223EF00AFA3A
:1053E000800720464FF000014FF0110248BF3744BC
:1053F00007973EF0FFF983462046002130223EF019
:10540000F9F980462046002134223EF0F3F903905A
:105410000020CDE908A008AA2046342140F086FDEE
:10542000099F20463DF0F4F800280695CDE9048B4D
:10543000CDE9019700F0B28040F2010806464FF036
:10544000000BC0F20408554605E000BF0BF1010B4C
:105450005E4500F0A480A0684146006850F82B909B
:1054600048463EF053FB0028F0D108F5003148468D
:105470003EF04CFB50B948463DF0F4FA30B1002103
:1054800016223EF0B7F900041CD100BF48460021A7
:105490000A223EF0AFF910F0FC0F13D0484600216D
:1054A00009223EF0A7F92F4688B909F1140009F046
:1054B000ADFA079918224718484600213EF09AF99C
:1054C000074404E0D9F82000A169401A471C484667
:1054D000002119223EF08EF938448245B6DC484658
:1054E000002119223EF086F900EB070AAEE700BF63
:1054F0002846002110223EF07DF907902846002121
:1055000030223EF077F981462846002134223EF0D1
:1055100071F982462846002111223EF06BF983463C
:105520002846002130223EF065F906462846002133
:1055300034223EF05FF9074605F1140009F066FADF
:1055400007995FEA8A72594448BF4944FA0718BF6D
:105550003144401A6FF07041B8F1805FA8BFA1EBF1
:10556000080848F21F5100FB08F0C5F2EB1150FB90
:1055700001F0411101EBD0762046002118223EF0C7
:1055800039F905462046002119223EF033F9284416
:10559000311A08460BB0BDE8F08F00BF5546A16830
:1055A0000798029A104411B1019A52424A62039933
:1055B000C907DDE9041218BF0A4451465045C8BF67
:1055C0000146AA4508BF01460698114401600846F5
:1055D0000BB0BDE8F08F00002DE9F04F89B0174601
:1055E0006FF040429142044608D13968B1F1FF3F63
:1055F00050DD084609B0BDE8F08F00BF01F0C040A3
:10560000B0F1005FF5D121F0C0486FF060408045F7
:10561000EFD020463DF026FA0546408D000500F10A
:10562000FB802846002101223EF0E4F86FF0404163
:10563000884240F0F1802046002112223EF0DAF844
:1056400080462046002130223EF0D4F88146204694
:10565000002134223EF0CEF80746204600211322D6
:105660003EF0C8F805462046002130223EF0C2F840
:1056700006462046002134223EF0BCF805EB080126
:105680007A0748BF4944000748BF3144084609B07B
:10569000BDE8F08F20463DF0E1FBA168804600297F
:1056A0001CBF0020086240F201092046002113229D
:1056B000CEF200094FF0000A3EF09CF80646204664
:1056C000002130223EF096F8054620460021342283
:1056D0003EF090F8000720464FF000014FF0120214
:1056E00048BF2E443EF086F8054620460021302271
:1056F0003EF080F883462046002134223EF07AF8BE
:10570000400706AA20464FF0340148BF5D44CDE96A
:1057100006A940F00BFC0698CDE9035605902046FB
:1057200035443CF075FF82462046002127223EF09A
:1057300061F8C0B2012840F0C580BAF1000F00F056
:105740003E810126C0F20406CDE9005802974F467B
:105750004FF0000906F5003505E000BF09F1010929
:10576000CA4500F01581A0683146006850F82980CC
:1057700040463EF0CBF90028F0D1404629463EF0A5
:10578000C5F948B940463DF06DF928B1002116220F
:105790003EF030F800040ED1404600210A223EF0CF
:1057A00029F8C0B208281DD8012101FA00F040F202
:1057B0004911084216D0E069D8F81410401A00F1D7
:1057C000010B404600211A223EF014F8584487424B
:1057D000C4DC404600211A223EF00CF800EB0B0717
:1057E000BCE700BF4046002108223EF003F840F22B
:1057F000010B0028CEF2000BE3D108F1140009F0F0
:1058000015F904991A2200EB010B404600213DF0E6
:10581000F1FF8344D5E700BF2846002112223DF066
:10582000E9FF05902846002130223DF0E3FF814644
:105830002846002134223DF0DDFF82462846002123
:1058400013223DF0D7FF83462846002130223DF049
:10585000D1FF06462846002134223DF0CBFF074603
:1058600005F1140009F0E2F805995FEA4A7259441B
:1058700048BF49443A0748BF3144401A6FF070416D
:10588000B8F1805FA8BFA1EB080848F21F5100FBE8
:1058900008F0C5F2EB1150FB01F0411101EBD0769D
:1058A000204600211A223DF0A5FF05462046002192
:1058B0001B223DF09FFF2844311A084609B0BDE87D
:1058C000F08F00BFBAF1000F79D0CDE9005840F257
:1058D0000108C0F204080025CB4608F500390297FC
:1058E00003E000BF0135AA4560D0A06841460068CA
:1058F00050F8256030463EF009F90028F2D13046D4
:1059000049463EF003F948B930463DF0ABF828B1BE
:10591000002116223DF06EFF00040DD1304600211B
:105920000A223DF067FFC0B2072819D8012101FA09
:1059300000F010F0930F13D0F0696169401A471C12
:10594000304600211B223DF055FF38448345C9DC19
:10595000304600211B223DF04DFF00EB070BC1E755
:105960003046002108223DF045FF01270028CEF2F5
:105970000007E5D106F1140009F058F803991B223D
:105980004718304600213DF035FF0744D8E700BFF7
:1059900040F20109CEF200094F450EBF4846039878
:1059A0003844029F059ADDE900580EE040F20109F3
:1059B000CEF20009029FDDE90058CB4502D14846EE
:1059C00002E000BF04985844059AA1682A440029BF
:1059D0001CBFC8F100030B6211469042C8BF0146CC
:1059E000484508BF11463960084609B0BDE8F08F48
:1059F0002DE9F04F91B0CDE909230B900C91C878B7
:105A00004EF651514EF65D52C0F60001C0F600024E
:105A100010F0010008BF0A464EF62D2102924EF604
:105A20000D22C0F60001C0F600020B4608BF134667
:105A30000893002808BF0A4643F2BD61C0F604017E
:105A4000069243F2CD620B46C0F6040208BF13462D
:105A5000002843F2C5601E9CC0F60400079343F281
:105A6000B56308BF0A460146C0F60403059208BFA5
:105A70001946D4F814E0039108BF0346049304E0E8
:105A80001E9C5FEACC7000F0BF80BEF1000F00F0FA
:105A9000BB80D4E90102D4F81090AEF10103032BCE
:105AA000A0EB020202D20024002341E02EF0030604
:105AB00009F13C070024002307E000BFF869034414
:105AC0000434A64207F1600732D017F8280CC0074B
:105AD00014D157F82C0C034417F8100CC00714D03D
