:020000040800F2
:1000000070060020A1010008833000081F230008AB
:1000100081300008F9060008E33500080000000000
:10002000000000000000000000000000193300087C
:10003000AD07000800000000853000081B330008F1
:10004000BB010008BB010008BB010008BB010008A0
:10005000BB010008BB010008BB010008BB01000890
:10006000BB010008BB010008BB010008BB01000880
:10007000BB010008BB010008BB010008FD06000829
:10008000BB010008BB010008BB010008BB01000860
:10009000BB010008BB010008BB010008BB01000850
:1000A000BB010008BB010008BB010008BB01000840
:1000B000C5330008BB010008BB010008BB010008F4
:1000C000BB010008BB010008BB010008BB01000820
:1000D000BB010008BB010008BB010008BB01000810
:1000E000BB010008BB010008BB010008BB01000800
:1000F000BB010008BB010008BB010008BB010008F0
:10010000BB010008BB010008BB010008BB010008DF
:10011000BB010008BB010008BB010008BB010008CF
:10012000BB010008BB010008BB010008BB010008BF
:10013000BB0100080000000000000000BB01000837
:10014000BB010008BB010008BB010008BB0100089F
:10015000BB010008BB010008BB010008BB0100088F
:10016000BB010008BB010008BB010008BB0100087F
:10017000BB010008BB0100080000000000000000F7
:10018000BB010008BB010008DFF810D000F0E6F961
:100190000048004775360008AFF300807006002065
:1001A0000648804706480047FEE7FEE7FEE7FEE711
:1001B000FEE7FEE7FEE7FEE7FEE7FEE7B5330008F1
:1001C000890100082DE9F05F0546002092469B4614
:1001D00088460646814640241BE02846414647465D
:1001E000224600F004F953465A46C01A914110D3F2
:1001F00011461846224600F0EBF82D1A67EB01086D
:100200004F4622460120002100F0E2F817EB0009DA
:100210004E41201EA4F10104DFDC484631462A4647
:100220004346BDE8F09FD2B201E000F8012B491E21
:10023000FBD270470022F6E710B513460A46044683
:100240001946FFF7F0FF204610BD2DE9FE4F80460E
:1002500081EA0300C00F0C46009021F0004123F01A
:100260000045B8EB0200A94105D240462146904620
:100270001C460B46024623F00040104347D0270D92
:10028000C7F30A00C3F30A510290401A01904028B4
:100290006BDAC3F3130040F4801B0098924620B140
:1002A0000023D2EB030A63EB0B0B01985946C0F114
:1002B0004002504600F08CF806460D46504659461E
:1002C000019A00F0A4F810EB08006141002487EACD
:1002D000115284EAE7731A4340D0009A62B3019A3C
:1002E000012A4FEA075215DC001B61EB02014FF0B7
:1002F000004202EA0752CDE90042001C41F580119C
:1003000032462B4600F0DBF803B0BDE8F08F4046E4
:100310002146F9E7001B61EB0201001C41F5801347
:1003200000185B412018A2F5001747EB030140EAD3
:10033000D570B6196D4111E06D084FEA360645EAF1
:10034000C0754FEA0752001B61EB0201001C41F52A
:10035000801149084FEA30000019514132462B46BE
:1003600003B0BDE8F04F00F09BB8009801224000B8
:100370000023D0EB020263EBE073009821464FEAC2
:10038000E074B8EB000061EB0401E9E783F000439F
:100390005BE781F0004158E701F0004330B421F001
:1003A000004150EA010206D00A0DA2F56072C1F3C5
:1003B0001301002A02DC30BC00207047440F44EADD
:1003C000C104C100E01830BC00EBC25000F031B8ED
:1003D000202A04DB203A00FA02F100207047914005
:1003E000C2F1200320FA03F3194390407047202AFA
:1003F00004DB203A21FA02F00021704721FA02F3CF
:10040000D040C2F120029140084319467047202A8B
:1004100006DBCB17203A41FA02F043EAE07306E02C
:1004200041FA02F3D040C2F120029140084319463C
:1004300070470029A8BF7047401C490008BF20F042
:100440000100704710B4B0FA80FC00FA0CF050EADA
:10045000010404BF10BC704749B1CCF1200421FA5B
:1004600004F411FA0CF118BF012121430843A3EB56
:100470000C01CB1D4FEA00614FEA102042BF002063
:1004800010BC704700EBC35010440029A4BF10BC3F
:100490007047401C490008BF20F0010010BC7047A5
:1004A00010B5141E73F1000408DA401C41F100017C
:1004B00092185B411A4301D120F0010010BD2DE9D3
:1004C000F04D92469B4611B1B1FA81F202E0B0FACA
:1004D00080F220329046FFF77BFF04460F4640EA49
:1004E0000A0041EA0B0153465A46084313D011460D
:1004F00053EA010019D0C8F140025046FFF777FFD8
:1005000005460E46504659464246FFF761FF0843EE
:1005100005D0012004E020463946BDE8F08D0020DA
:10052000054346EAE0762C4337430A986305E40A1C
:10053000A0EB08000022FD0A44EA47540A3002D525
:1005400000200146E9E7010510196941DDE9084588
:1005500000196941BDE8F04DA2E70000064C074DC7
:1005600006E0E06840F0010394E807009847103483
:10057000AC42F6D3FFF70CFEDC7D0008FC7D0008E2
:10058000464910B54A6822F440324A604A684368D6
:100590001A434A6001684A6822F480724A6001681E
:1005A0004A68036942EA03224A6001684A6822F005
:1005B00040724A6001684A6883681A434A60016869
:1005C0008A6822F400628A6001688A68C3681A43F4
:1005D0008A60816A6FF07062D14201688A6822F095
:1005E00070628A6001688A680CD0836A1A438A60E4
:1005F00001688A6822F040528A6001688A68C36A8A
:100600001A4301E022F040528A6001688A6822F0B1
:1006100002028A6001688A68037E42EA43028A60B5
:1006200090F82010002901684A680FD042F4006257
:100630004A6001684A6822F460424A6001684A6878
:10064000174C436A04EB43331A4301E022F400627F
:100650004A600168CA6A22F47002CA620168CA6A02
:10066000838B104C04EB03531A43CA6201688A68F7
:1006700022F400728A6001688A6890F8303042EA99
:1006800043228A6001688A6822F480628A60016875
:100690008A68406942EA8020886010BD00230140DA
:1006A00000E0FFFF0000F0FF70B50024094D264672
:1006B00004EB440005EB800155F820204B689A427A
:1006C00003D345F8206088688047641CE4B2032C9B
:1006D000EED370BD1C0000200649002000EB400254
:1006E000401C51F82230C0B25B1C41F82230032874
:1006F000F4D370471C000020FEE70000014800F022
:1007000061BA00003801002001681823CAB2103A0B
:10071000B2FBF3F2054B6FF30901032A9B5CC3653F
:1007200000D9091D81650846704700009C440008F7
:1007300010B5014600208B698A6A4FF0C07453B12E
:10074000B3F5005F15D072B1012A0CD0022A0AD08D
:10075000032A09D104E01AB1012A06D0022A03D1E2
:10076000C96AC90100D5012010BDC96AA142FAD0E9
:1007700010BD002AF7D0012AF2D0022AF3D0032AB2
:10078000F3D010BD30B50468256825F480252560B8
:10079000046863608368402B036803D09960006835
:1007A000C26030BD9A600068C16030BD704772B6EB
:1007B000FEE700002DE9FF4105463C4C0F203C4E72
:1007C000207000273BA10022D1E90001CDE9020100
:1007D000009701971021304600F078FC052202A90D
:1007E000102002F075FC012000F05EFB0522694636
:1007F000102002F049FC9DF8000012280FD19DF84E
:10080000010034280BD19DF80200562807D19DF82D
:100810000300782803D19DF80400902803D001201C
:1008200000F042FBCEE7002210213746304600F0B0
:100830004DFC2021112002F0D5FE1C4EE120761E39
:10084000317802F0CFFE3178E22002F0CBFE0522B3
:100850001A49102002F03CFC18490522491D0A20C3
:1008600002F036FC012D1FD00121012002F0BAFE5A
:100870000121022002F0B6FE1A21042002F0B2FE8D
:100880000021052002F0AEFE0F21062002F0AAFE94
:100890002178002002F0A6FE04B03846BDE8F04101
:1008A0000122102100F012BC3F21DEE711000020E0
:1008B000000002401234567890000000B444000852
:1008C00078B50024009490F83C20012A19D0012228
:1008D00080F83C200A6807230568092A13D9EE68C6
:1008E0000A3A02EB420293409E43EE600B788A681C
:1008F0000A3B03EB43039A400368DD682A43DA604E
:1009000010E0022078BD2E6902EB420293409E4324
:100910002E610B788A6803EB43039A4003681D69D4
:100920002A431A614A681F23072A13D205686E6B8F
:10093000521E02EB820293409E436E630B790A883B
:100940005B1E92B203EB83039A4003685D6B2A43FC
:100950005A6327E005680D2A12D22E6BD21F02EBD4
:10096000820293409E432E630B790A88DB1F92B26A
:1009700003EB83039A4003681D6B2A431A6311E05B
:10098000EE6A0D3A02EB820293409E43EE620B79CF
:100990000A880D3B92B203EB83039A400368DD6A39
:1009A0002A43DA62164B0568144A9D4206D10D6847
:1009B000122D03D1556845F48005556005689D42A8
:1009C00018D10B68102B01D0112B13D1536843F4AD
:1009D00000035360096810290CD10A490A4A0968C2
:1009E000B1FBF2F101EB8101490000E0491E0091E9
:1009F0000029FBD180F83C40002078BD0023014055
:100A0000002001400C00002040420F000068C06C34
:100A1000704770B504004FF0000503D0206C00262D
:100A200010B107E0012070BD204600F01DF866649B
:100A300084F83C60206CC00610D4206C20F48850F0
:100A400040F0020020642046FFF79AFD6664206CA7
:100A500020F0020040F00100206400E0012584F84D
:100A60003C60284670BD000010B586B004461421D5
:100A70006846FFF7DFFB1149206888421BD1104808
:100A80000021026842F480720260006800F4807005
:100A900005900B481438026842F0010202600068B9
:100AA00000F00100059003200090CDE901016946A6
:100AB000044800F00BFA06B010BD00000020014011
:100AC000443802400000024018B50021009190F81F
:100AD0003C20012A07D0012280F83C20026893685C
:100AE000DB0702D011E0022018BD936843F0010338
:100AF00093602E4A2E4B1268B2FBF3F202EB4202D5
:100B000000E0521E0092002AFBD102689368DB07C6
:100B100042D0036C40F20164A34343F48073036446
:100B200053685B0505D5036C23F4005343F48053ED
:100B30000364036CDB0404D5436C23F006034364B5
:100B400000E0416480F83C101A496FF02203136002
:100B500049680068CA06184906D0884224D18168CD
:100B600011F0405F13D01FE08842F8D0134A904242
:100B700003D1D1F80423D206F1D0114A904213D107
:100B8000D1F8041301F01F011029E8D30CE08168AB
:100B900041F08041816007E0016C41F01001016487
:100BA000416C41F001014164002018BD0C0000209F
:100BB00040420F000023014000200140002101407D
:100BC000002201402DE9F84304464FF00009CDF81A
:100BD000009063484FF41651A56D0068B0FBF1F723
:100BE0002E6894F85C10082000FA01F131420FD011
:100BF00021680A6852070BD50A6822F004020A60CD
:100C000094F85C108840A860606D40F00100606559
:100C100094F85C104FF0010808FA01F0304208D057
:100C200021684969090604D5A860606D40F002009A
:100C3000606594F85C1004208840304208D0216838
:100C40000968890704D5A860606D40F004006065FC
:100C500094F85C1010208840304218D02168096850
:100C6000090714D5A86020680168490304D5006805
:100C7000000308D5A16C07E00168C90503D4016829
:100C800021F008010160216C09B12046884794F8E1
:100C90005C1020208840304231D021680968C906A4
:100CA0002DD5A86094F8350005282068016806D085
:100CB000490347D5006800031DD4616C1CE021F096
:100CC000160101602068416921F080014161206CBA
:100CD00008B9A06C20B12068016821F0080101600A
:100CE00094F85C103F208840A86084F8358084F830
:100CF0003490216D1FE0E16B09B120468847606D9B
:100D000000282BD0606DC00714D0052084F8350072
:100D10002068016821F0010101600098401C0090EA
:100D2000B84203D820680068C007F6D184F835803F
:100D300084F83490E16C002910D001B02046BDE861
:100D4000F04308470168C905D5D4016821F01001B6
:100D5000016084F8358084F83490CCE7BDE8F883EE
:100D60000C0000202DE9F041044600F0B5F90646DC
:100D70005CB1022084F83500002584F834502068E6
:100D8000016821F0010101600DE00120BDE8F08162
:100D900000F0A2F9801B052805D9202060650320FA
:100DA00084F83500F2E720680068C007F0D12268B7
:100DB000116820480140D4E901031843D4E90336FF
:100DC0003343184363691843A3691843E36918431D
:100DD000236A18430843616A042903D1D4E90B1339
:100DE00019430843106020684069666A20F00701D3
:100DF00030460E43012704280CD1A06A0643E06A5E
:100E000040B12046FFF794FC20B14020606584F893
:100E10003570BAE7206846612046FFF775FC94F804
:100E20005C203F2191408160656584F83570002029
:100E3000ACE700003F8010F02DE9F0410446866DDC
:100E400090F83400002501280DD0012084F83400EA
:100E500094F835700020012F07D084F83400022563
:100E60002846BDE8F0810220FBE7022784F83570B0
:100E700060652046FFF786FC94F85C103F208840B0
:100E8000B0602068016841F016010160206C20B15B
:100E90002068016841F0080101602068016841F0A4
:100EA00001010160DCE7000070B5044600F014F9B0
:100EB0000546601C02D004480078044400F00CF998
:100EC000401BA042FAD370BD000000202DE9F84F6E
:100ED000DFF8BCA1002201250AF1040B03264FF024
:100EE0000F090BF1040E00BF0B6805FA02F4234052
:100EF000A34270D10F7907F00307012F01D0022F11
:100F000016D187684FEA420806FA08FC27EA0C0760
:100F1000D1F80CC00CFA08FC4CEA070CC0F808C069
:100F20004768A7430C79C4F3001494403C434460E1
:100F30000C79E443A4070AD0C4684FEA420C06FACD
:100F40000CF7BC438F6807FA0CF72743C7600C798E
:100F500004F00304022C12D1D40800EB840CDCF85A
:100F600020405707FF0E09FA07F824EA0804D1F8D1
:100F7000108008FA07F848EA0408CCF820800468D2
:100F80004FEA420C06FA0CF7BC430F7907F003074F
:100F900007FA0CF7274307604C6814F4403F70D001
:100FA0003C4C276847F480472760246822F00307F9
:100FB00004F480440094384C07EB040CDCF8084837
:100FC00097074FEA177809FA08F7BC43334FB8423E
:100FD00002D1002724E054E0314FB84201D101276B
:100FE0001EE0304FB84201D1022719E02E4FB8421F
:100FF00001D1032714E02D4FB84201D104270FE09F
:101000002B4FB84201D105270AE02A4FB84201D13F
:10101000062705E0284FB84201D1072700E008273E
:1010200007FA08F72743CCF80878DAF80040574663
:10103000D1F804C09C435FEACC3C00D51C433C6023
:10104000DBF800405F46D1F804C09C435FEA8C3C6B
:1010500000D51C433C60DEF800407746D1F804C060
:101060009C435FEACC2C00D51C433C60084F0C37F6
:101070003C68D1F804C09C435FEA8C2C00D51C432B
:101080003C60521C102AFFF42FAFBDE8F88F00001F
:10109000003C014044380240003001400000024062
:1010A0000004024000080240000C02400010024010
:1010B0000014024000180240001C0240426921EA6C
:1010C00002030A4043EA0241816170470AB181612B
:1010D00070470904FBE70000014880687047000082
:1010E0000000002002488168027811448160704746
:1010F000000000200B4810B5016841F40071016048
:10110000016841F480610160016841F4807101600F
:10111000032000F06FF8002000F006F800F024F83B
:10112000002010BD003C024070B50D4D04464FF448
:101130007A712878B1FBF0F00A490968B1FBF0F048
:1011400000F092FE48B9102C07D200222146501E12
:1011500000F030F800206C6070BD012070BD000010
:10116000000000200C0000200A4808B5016841F486
:1011700080410160006800F4804000900548001F35
:10118000016841F080510160006800F080500090DB
:1011900008BD000044380240002809DB00F01F02AF
:1011A000012191404009800000F1E020C0F80011C9
:1011B00070470000F0B40E4B1B680C46C3F30223CB
:1011C000C3F10705042D00D90425191D072901D2F3
:1011D000002300E0DB1E012606FA05F1491E21402E
:1011E00099409E40761E16403143F0BC02F022BA70
:1011F0000CED00E0064900F0070208684FF6FF0317
:10120000184040EA0220034A10430860704700007B
:101210000CED00E00000FA052DE9F0470E46050050
:1012200065D0DFF81481D8F80000F7B200F00700AD
:10123000B04207D288F80070D8F8000000F007002C
:10124000B04254D128683D4C810712D5400703D5E0
:10125000206840F4E05020602878000703D520681B
:1012600040F4604020602068A96820F0F000084346
:1012700020602878C0072DD03049686808390128D7
:1012800012D0022813D0032811D009688907002939
:101290002DDA216821F0030101432160FFF71CFFD3
:1012A000814641F2883A0EE009688903EFE7096850
:1012B0008901ECE7FFF710FFA0EB0901514502D9C6
:1012C0000320BDE8F0872068696800F00C00B0EBEF
:1012D000810FEFD1D8F80010404601F00701B1426C
:1012E00007D90770006800F00700B04201D0012064
:1012F000E7E72878400705D52068E96820F4E05042
:10130000084320602878000706D52068296920F462
:10131000604040EAC100206000F018F82168084AE7
:10132000C1F30311515CC8400649086006480068D3
:10133000FFF7FAFE0020C4E7003C024008380240F4
:10134000A44400080C00002004000020154810B53B
:10135000006810F00C02144813D04110042A0FD07A
:10136000082A0ED10F4C241F2268236802F03F0286
:101370005B0207D52068C0F38810A0FB010106E0DE
:10138000084610BD2168C1F38811A1FB00010023AC
:10139000FEF718FF2168C1F30141491C4900B0FB69
:1013A000F1F010BD083802400024F4002DE9F84F98
:1013B00004006ED02078DFF84C93C007A9F1040533
:1013C0004AD009F104000168C1F38101012908D064
:1013D0000068C0F3810002280AD1D9F80000400259
:1013E00006D52868800337D560680028E1D033E04F
:1013F0006068B0F5803F10D0B0F5A02F286810D0FD
:1014000020F480302860286820F4802028606068FC
:10141000A8B1FFF761FE06460DE0286840F4803071
:10142000F4E740F480202860F7E700BFFFF754FEA0
:10143000801B642873D828688003F7D50CE0FFF779
:101440004BFE064605E000BFFFF746FE801B642802
:10145000F0D828688003F7D42078DFF8AC828007C2
:101460004FF0000A3ED5A748001D016811F00C0F8F
:1014700008D00068C0F3810002280BD1D9F8000021
:10148000400207D42868800716D5E068012800D1FB
:1014900012E033E1E068B8B10120C8F80000FFF7BE
:1014A0001BFE064605E000BFFFF716FE801B022864
:1014B000C0D828688007F7D52868216920F0F8008F
:1014C00040EAC10028600DE0C8F800A0FFF704FE64
:1014D000064604E0FFF700FE801B02281FD828689C
:1014E0008007F7D42078000722D5864F87486169A6
:1014F000703771B101210160FFF7EEFD064604E08F
:10150000FFF7EAFD801B022809D838688007F7D565
:101510000EE0C0F800A0FFF7DFFD064605E082E020
:10152000FFF7DAFD801B02287DD838688007F7D4E2
:101530002078400768D5DFF8CCB100270BF13C0BD1
:10154000DBF80000C0000BD4DBF8001041F0805144
:10155000CBF80010DBF80000012700F0805000906D
:101560006B4E3068C00510D4306840F48070306035
:10157000FFF7B2FD009005E0FFF7AEFD0099401ABD
:10158000022850D83068C005F6D55E4EA0686C368B
:1015900001280FD00528306810D020F001003060FD
:1015A000306820F004003060A068B8B1FFF794FD07
:1015B00000900FE0306840F00100F4E740F00400D4
:1015C0003060F7E7FFF788FD0099411A41F2883053
:1015D000814266D830688007F4D50EE0FFF77CFDC5
:1015E000009007E0FFF778FD0099411A41F288303A
:1015F000814256D830688007F4D42FB1DBF8001050
:1016000021F08051CBF80010A069C8B33D49091DF5
:101610000968C1F3810102294AD00228504607D047
:10162000C8F8600000E03CE0FFF756FD04463BE0F0
:101630004746C8F86000FFF74FFD064605E000BFCB
:10164000FFF74AFD801B02282BD828688001F7D4B9
:10165000D4E907010843A16A2E4A490802EB014177
:10166000626A41EA8211084394F82C1040EA016151
:10167000C9F8001001203866FFF72EFD044606E089
:101680003EE000BFFFF728FD001B022809D82868AC
:101690008001F7D534E000BFFFF71EFD001B0228D4
:1016A00002D90320BDE8F88F28688001F4D427E030
:1016B0000128F7D0D9F80000E26900F480019142D6
:1016C0001CD1226A00F03F01914217D147F6C07148
:1016D000626A0140B1EB821F10D1A26A4FF0FF3362
:1016E00000F4403103EB5202B1EB024F06D194F803
:1016F0002C1000F07060B0EB016F01D00120D1E739
:101700000020CFE70438024000004742800E4742E5
:10171000007000400000FFFF704790F851007047D4
:1017200070B5040009D0606A002540B1256165618B
:10173000A56294F8510040B10CE0012070BD6068D2
:10174000B0F5827FF4D0E561F2E784F8505020468E
:1017500000F044F8022084F851002068016821F06C
:1017600040010160A088218900F4827001F40441E5
:101770000843A18901F400610843217C01F00201C2
:101780000843217D01F001010843218B01F4007120
:101790000843217F01F03801084394F8201001F03C
:1017A00080010843218D01F400510843216808603D
:1017B000A069042101EA104094F8241001F01001FE
:1017C0000843216848602068C16921F40061C16153
:1017D0006565012084F85100002070BD2DE9F043BB
:1017E00087B0064614216846FEF724FD364B316863
:1017F0000025364802240327052299421CD133498B
:1018000014310B6843F480530B60096801F4805174
:101810000591016841F0010101600068049200F047
:1018200001000590E0208DE8B10069462848FFF7E7
:101830004DFB07B0BDE8F083264B9942F9D123490F
:1018400010310B6843F480430B60096801F4804158
:101850000591016841F004010160016801F0040193
:101860000591016841F0020101600068904600F0B6
:10187000020005900C208DE8B10169461648FFF77B
:1018800025FB4FF4806901ABCDF8009083E8B001EF
:1018900069461248FFF71AFB124C1148E4E80205AA
:1018A0004020A4E821024FF4403044F81459A561C7
:1018B000C4E907500B486562FFF754FA08B1FEF718
:1018C00076FFB464A663B4E70030014030380240CC
:1018D00000000240003800400008024000040240BE
:1018E00070600240380100202DE9F84F044640683E
:1018F0000025984616460F464FF0040BB0F5827F40
:1019000001D1A06888B194F85000012818D00120B6
:1019100084F85000FFF7E0FB814694F851004FF047
:10192000000A01280ED0022582E084F851B0134647
:101930000A462046CDF8008000F036F9BDE8F88F61
:101940000220FBE7002F72D0002E70D084F851B037
:10195000C4F854A0A763A687E687C4F830A0A4F80B
:1019600034A0A4F836A0C4F840A0C4F844A0A068ED
:10197000B0F5004F09D12068016821F040010160F5
:101980002068016821F480410160206801684906EF
:1019900003D4016841F040010160E068D8B139E04A
:1019A00020688168C90709D0007BA16B0870A06B13
:1019B000401CA063E08F401EE0870CE0FFF78CFB2B
:1019C000A0EB0901414503D3B8F1FF3F03D036E056
:1019D000B8F1000F33D0E08F0028E1D11DE020687E
:1019E0008168C90709D0C068A16B0880A06B801C02
:1019F000A063E08F401EE0870CE0FFF76DFBA0EBDB
:101A00000901414503D3B8F1FF3F03D017E0B8F116
:101A1000000F14D0E08F0028E1D14A46414620460D
:101A200001F0C4FB08B120206065606D00B10125A4
:101A3000012084F8510084F850A028467EE7032551
:101A4000F6E72DE9F84F044690F8500000271D46B0
:101A50001646894601280DD04FF0010B84F850B08E
:101A6000FFF73AFB804694F85100BA46012804D0AB
:101A7000022793E00220BDE8F88FB9F1000F73D080
:101A8000002E71D0032084F85100C4F854A0C4F88B
:101A90003090A686E686C4F838A0A4F83CA0A4F846
:101AA0003EA0C4F844A0C4F840A0A068B0F5004F20
:101AB00009D12068016821F04001016020680168B7
:101AC00041F48041016020680168490603D401683F
:101AD00041F040010160E068B0F5006F606803D03C
:101AE00030B3012E24D041E008B1012E1CD1206B6F
:101AF00021680088C86006E020688168890709D5E8
:101B0000216B0988C160206B801C2063E08E401E21
:101B1000E08609E0FFF7E0FAA0EB0800A84202D354
:101B2000681C01D031E07DB3E08E0028E4D120E0D4
:101B3000206B21680078087306E0206881688907B7
:101B400009D5216B09780173206B401C2063E08E5E
:101B5000401EE0860AE0FFF7BFFAA0EB0800A842AB
:101B600003D3681C02D010E017E06DB1E08E0028AE
:101B7000E3D142462946204601F046FB08B1202029
:101B80006065A06818B106E0FFE7032706E020685B
:101B9000C16880680090606D00B1012784F851B081
:101BA00084F850A0384666E72DE9F84F044690F8CF
:101BB000500000270A9E1D4692468B464FF00109B1
:101BC00001280ED0012084F85000FFF785FA8046E6
:101BD00094F85100616801280CD0B1F5827F07D1DB
:101BE00002E00220BDE8F88FA16809B9042801D0FD
:101BF0000227C2E0BBF1000F27D0BAF1000F24D0BA
:101C00001DB394F85100042802D0052084F8510037
:101C100000206065C4F838A0E587A587C4F830B017
:101C2000E586A5862064606420680168490603D4BF
:101C3000016841F040010160E068B0F5006F606844
:101C400005D0E8B3012D46D07FE0012795E008B12B
:101C5000012D39D1206B21680088C860206B801C61
:101C60002063E08E401EE0862EE0206881688907B0
:101C70000FD5E18E69B1B9F1010F0AD1216B098845
:101C8000C160206B801C2063E08E401EE0864FF018
:101C9000000920688168C9070CD0E18F51B1C06884
:101CA000A16B0880A06B801CA063E08F401EE087C2
:101CB0004FF00109FFF710FAA0EB0800B04200E076
:101CC00009E001D3701C50D1E08E0028CDD1E08F07
:101CD0000028CAD13FE0206B216800780873206B90
:101CE000401C2063E08E401EE0862EE02068816864
:101CF00089070FD5E18E69B1B9F1010F0AD1216BC6
:101D000009780173206B401C2063E08E401EE08642
:101D10004FF0000920688168C9070CD0E18F51B1EC
:101D2000C068A16B0870A06B401CA063E08F401ED0
:101D3000E0874FF00109FFF7CFF9A0EB0800B042B0
:101D400002D3701C01D010E07EB1E08E0028CDD10E
:101D5000E08F0028CAD142463146204601F054FAAD
:101D600028B101272020606507E0032705E0A0686F
:101D700018B92068C16880680090012084F851007B
:101D8000002084F8500038462CE700002DE9F0418F
:101D9000044690F850000026012809D0012784F855
:101DA000507094F851000025012804D002264EE01E
:101DB0000220BDE8F08189B182B1032084F851008E
:101DC00065652163A286E286A56365642564A587AF
:101DD000E587A068B0F5004F02D00BE0012636E0A1
:101DE0002068016821F0400101602068016841F429
:101DF00080410160A16C18480864A16C1748C86351
:101E0000A16C1748C864A06C0565E38E2268216B3D
:101E10000C32A06CFFF710F838B1606D40F0100084
:101E20006065012684F8517011E020680168490658
:101E300003D4016841F0400101602068416841F02D
:101E4000200141602068416841F00201416084F84E
:101E500050503046ADE700003F31000849310008DE
:101E60001D3100087047704710B5401EB0F1807FEB
:101E700001D3012010BD4FF0E02460610F216017F5
:101E800001F0D8FB0020A06107202061002010BDD8
:101E90007047704770B590F83C20012A32D0012479
:101EA00080F83C40022280F83D2003685A689D6813
:101EB00022F070060A6832435A60134B02689A4255
:101EC00014D0B2F1804F11D0104B9A420ED0104B6B
:101ED0009A420BD00F4B9A4208D00F4B9A4205D032
:101EE0000E4B9A4202D00E4B9A4204D1496825F01B
:101EF00080031943916080F83D40002180F83C1038
:101F0000084670BD022070BD000001400004004082
:101F100000080040000C0040000401400040014067
:101F20000018004010B5040003D094F83D0010B133
:101F300007E0012010BD002084F83C00204600F09E
:101F40001FF8022084F83D00211D206801F040FAAE
:101F5000012084F8460084F83E0084F83F0084F8AD
:101F6000400084F8410084F8420084F8430084F87B
:101F7000440084F8450084F83D00002010BD0000B6
:101F800008B501681748814208D11748016841F037
:101F900001010160006800F001000EE01248001F1E
:101FA000B1F1804F0BD0114A914207D1016841F045
:101FB00002010160006800F00200009008BD0168A5
:101FC00041F0010101600068002200F00100009072
:101FD00007211C20FFF7EEF8BDE808401C20FFF7A2
:101FE000DBB800000000014044380240000400401B
:101FF00090F83D10012901D001207047022180F89E
:102000003D100168CA6842F00102CA6000681149C7
:10201000884214D0B0F1804F11D00F4988420ED0C1
:102020000E4988420BD00E49884208D00D4988429B
:1020300005D00D49884202D00C49884204D18168FC
:1020400001F00701062903D0016841F00101016098
:1020500000207047000001400004004000080040DC
:10206000000C004000040140004001400018004006
:1020700070B5044690F83C000025012817D00126D1
:1020800084F83C60022084F83D002068826822F0D9
:10209000770222F47F4282600868502838D00DDC35
:1020A00020284FD005DC90B3102811D14AE002203F
:1020B00070BD302846D040280AD13BE060282FD0A0
:1020C00070280DD0B0F5805F03D0B0F5005F12D05E
:1020D000012584F83D60002084F83C00284670BD4E
:1020E000CB68D1E90121206801F0D6F92068816828
:1020F00041F0770109E0CB68D1E90121206801F0C6
:10210000CBF92068816841F480418160E1E719E002
:10211000CA684968206801F017FA5021206806E073
:10212000CA684968206801F020FA6021206801F03F
:10213000BDF9CEE7CA684968206801F005FA402178
:102140002068F4E7226801461046F0E7704770B552
:102150000446006801694FF00005C943890715D49A
:10216000C168C943890711D4E91E016101202077A4
:10217000206880698007204602D0FFF7E7FF04E06F
:1021800000F098F8204600F096F82577206801695D
:10219000C943490717D4C168C943490713D46FF02D
:1021A00004010161022020772068806910F4407FDB
:1021B000204602D0FFF7CAFF04E000F07BF820467B
:1021C00000F079F8257720680169C943090716D41A
:1021D000C168C943090712D46FF0080101610420E6
:1021E00020772068C0698007204602D0FFF7AEFF45
:1021F00004E000F05FF8204600F05DF825772068E5
:102200000169C943C90617D4C168C943C90613D4B3
:102210006FF010010161082020772068C06910F478
:10222000407F204602D0FFF791FF04E000F042F823
:10223000204600F040F8257720680169C943C907A6
:1022400008D1C168C943C90704D1891E016120466C
:1022500000F032F820680169C943090609D4C16851
:10226000C943090605D46FF0800101612046FFF7DC
:102270000FFE20680169C943490609D4C168C943F2
:10228000490605D46FF040010161204600F046F890
:1022900020680169C94389060BD4C168C94389060E
:1022A00007D46FF0200101612046BDE87040FFF7C0
:1022B000F0BD70BD704770470068B0F1804F01D12C
:1022C000FEF70ABA704770B5044690F83C00012842
:1022D00012D0012584F83C50022084F83D002046AD
:1022E00001F0ECF801004FF0000007D084F83D50F9
:1022F00084F83C00012070BD022070BD2168CA68CE
:1023000022F04002CA602168CA6822F48042CA6092
:1023100084F83D5084F83C00002070BD7047FEE713
:102320002DE9F04106461C4617460D462A2000F0CE
:10233000C7FC304600F0B8FC384600F0B5FC2B2056
:1023400000F0BEFC1435A8B200F0AEFC1434A0B20C
:1023500000F0AAFCBDE8F0412C2000F0B1BC10B5A3
:1023600014460B460246FFF7DBFF2046BDE810404F
:1023700000F09ABC2DE9F04780461F46581E83B2F4
:102380001646501E82B20C464046DDF82090FFF7FC
:10239000C7FF0AE0454604E0484600F085FC6D1C96
:1023A000ADB2B542F8D3641CA4B2BC42F2D3BDE8CE
:1023B000F087000010B5012210210A48FEF786FEC2
:1023C000012211460848FEF781FE084C012208212F
:1023D0002046FEF77BFE20460122BDE8104010217A
:1023E000FEF774BE000802400004024000000240F4
:1023F00010B5FFF7DFFF664C002210212046FEF7E4
:1024000065FE6420FEF750FD012210212046FEF7F4
:102410005DFE6420FEF748FD012210215D48FEF7B5
:1024200055FE6420FEF740FD112000F049FC7820A5
:10243000FEF73AFD362000F043FC002000F054FC8B
:102440003A2000F03DFC052000F04EFCB22000F0E8
:1024500037FC0C2000F048FC0C2000F045FC00206C
:1024600000F042FC332000F03FFC332000F03CFC45
:10247000B72000F025FC352000F036FCBB2000F032
:102480001FFC322000F030FCC22000F019FC0120BB
:1024900000F02AFCC32000F013FC152000F024FCFF
:1024A000C42000F00DFC202000F01EFCC62000F02F
:1024B00007FC0F2000F018FCD02000F001FCA42045
:1024C00000F012FCA12000F00FFCE02000F0F8FB6F
:1024D000D02000F009FC082000F006FC0E2000F0DF
:1024E00003FC092000F000FC092000F0FDFB0520A2
:1024F00000F0FAFB312000F0F7FB332000F0F4FB92
:10250000482000F0F1FB172000F0EEFB142000F053
:10251000EBFB152000F0E8FB312000F0E5FB342058
:1025200000F0E2FBE12000F0CBFBD02000F0DCFB70
:10253000082000F0D9FB0E2000F0D6FB092000F0A7
:10254000D3FB092000F0D0FB152000F0CDFB31209B
:1025500000F0CAFB332000F0C7FB482000F0C4FBAA
:10256000172000F0C1FB142000F0BEFB152000F086
:10257000BBFB312000F0B8FB342000F0B5FB21207C
:1025800000F09EFBBDE81040292000F099BB000040
:1025900000080240000002402DE9FF4F81B00446D0
:1025A000DDF83C9000904FEA59074FF0000878079B
:1025B00000D0012000EBD70000FB09FB203AD0B28D
:1025C0000390029802994844401E83B2E019401ECD
:1025D00082B22046FFF7A4FE002553E0B9F10C0FAC
:1025E0002AD0B9F1100F2ED0B9F1180F2ED0B9F1B1
:1025F000200F49D12749039801EB8010002610F8DD
:1026000005A0109800284FF0010000FA06F000EA3B
:102610000A0022D020B12046049A0299FFF79FFEBB
:10262000641C0098A4B2201AB84225D10298009CDC
:10263000401C80B2029023E00398174900EB400051
:1026400001EB8000DAE71549039803E00398144989
:1026500000EB400001EB0010D0E708B1049800E067
:102660000E9800F021FB08F10100C0B2B0FBF7F1B9
:10267000804607FB118050B1761CF6B2082EC0D3FD
:102680006D1CADB25D45A9D305B0BDE8F08F4FF02C
:102690000008F5E7F2600008BE440008324900086F
:1026A000224F00082DE9FE4F9946DDE90D461546FB
:1026B0008A460746DDF8308014E00C2C17D0102C29
:1026C00020D0182C29D0202C0FD1CDF80080CDE9B6
:1026D00001464B462A465146384600F09BF93819C8
:1026E00087B2AD1C28780028E7D1BDE8FE8FCDF871
:1026F0000080CDE901464B462A465146384600F057
:1027000017F8ECE7CDF80080CDE901464B462A46A4
:102710005146384600F088F8E1E7CDF80080CDE971
:1027200001464B462A465146384600F0F7F8D6E7B0
:102730002DE9FF4F83B08046119D00904FF00009B6
:10274000680700D0012000EBD50000FB05FB052049
:102750000026029006EB860000EBC6013148059A80
:1027600010F811301278934251D100EB41000190E2
:10277000417805984078814249D1049804992844C9
:10278000401E83B208EB0500401E82B24046FFF7B0
:10279000C7FD002739E00198002400EB070A1298D2
:1027A0009AF8021000284FF0010000FA04F001EA44
:1027B000000115D021B14046069A0499FFF7CFFDDC
:1027C00008F101001FFA80F80098A8EB0000A84269
:1027D00015D10498DDF80080401C80B2049012E00E
:1027E00009B1069800E0109800F05EFA09F10100C6
:1027F000C0B2B0FBF5F1814605FB119078B1641CC5
:10280000E4B2082CCBD37F1CFFB25F45C3D3761C48
:102810000298B6B286429DD307B0BDE8F08F4FF064
:102820000009F0E7B27800082DE9FF4F83B0804639
:10283000119D00904FF00009680700D0012000EBC7
:10284000D50000FB05FB0520002602903248059AC2
:1028500006EB061110F811301278934250D100EBBC
:1028600041000190417805984078814248D1049810
:1028700004992844401E83B208EB0500401E82B232
:102880004046FFF74DFD002738E00198002400EB9B
:10289000070A12989AF8021000284FF0010000FA77
:1028A00004F001EA000114D021B14046069A0499CF
:1028B000FFF755FD08F1010000991FFA80F8A8EB19
:1028C0000100A84214D104988846401C80B20490AC
:1028D00012E009B1069800E0109800F0E5F909F15E
:1028E0000100C0B2B0FBF5F1814605FB119078B153
:1028F000641CE4B2082CCCD37F1CFFB25F45C4D368
:10290000761C0298B6B28642A0D307B0BDE8F08F1D
:102910004FF00009F0E70000347900082DE9FF4F7F
:1029200083B08046119D00904FF00009680700D0E9
:10293000012000EBD50000FB05FB052000260290DE
:1029400006EB860000EB46113148059A10F811306D
:102950001278934251D100EB4100019041780598E3
:102960004078814249D1049804992844401E83B29A
:1029700008EB0500401E82B24046FFF7D1FC00275D
:1029800039E00198002400EB070A12989AF8021027
:1029900000284FF0010000FA04F001EA000115D010
:1029A00021B14046069A0499FFF7D9FC08F10100CD
:1029B0001FFA80F80098A8EB0000A84215D10498EF
:1029C000DDF80080401C80B2049012E009B1069846
:1029D00000E0109800F068F909F10100C0B2B0FB06
:1029E000F5F1814605FB119078B1641CE4B2082C26
:1029F000CBD37F1CFFB25F45C3D3761C0298B6B21F
:102A000086429DD307B0BDE8F08F4FF00009F0E794
:102A1000DE7900082DE9FF4F83B08046119D0090BC
:102A20004FF00009680700D0012000EBD50000FB43
:102A300005FB0520002602903248059A06EB861118
:102A400010F811301278934250D100EB4100019000
:102A5000417805984078814248D1049804992844E7
:102A6000401E83B208EB0500401E82B24046FFF7CD
:102A700057FC002738E00198002400EB070A129861
:102A80009AF8021000284FF0010000FA04F001EA61
:102A9000000114D021B14046069A0499FFF75FFC6B
:102AA00008F1010000991FFA80F8A8EB0100A84284
:102AB00014D104988846401C80B2049012E009B1F9
:102AC000069800E0109800F0EFF809F10100C0B29C
:102AD000B0FBF5F1814605FB119078B1641CE4B2BE
:102AE000082CCCD37F1CFFB25F45C4D3761C029860
:102AF000B6B28642A0D307B0BDE8F08F4FF0000910
:102B0000F0E70000507B00082DE9FF4F83462DEDD4
:102B1000020B83B0DFED210A139F154620EE200A39
:102B20007E080024A246BCEEC00A10EE100A1FFA6E
:102B300080F92DE0281B401EC1B20A2000F066FE7D
:102B4000B9FBF0F00A21B0FBF1F201FB1208A81E5C
:102B500084420ED1129A00FB06B08DE8840480B244
:102B60002E22089B0699FFF717FD641C6D1CE4B22A
:102B7000EDB212988DE8810408F13000C2B204FB76
:102B800006B080B2089B0699FFF706FD641CE4B20C
:102B9000AC42CFD309B0BDE8F08F00000000C842BE
:102BA0002DE9FF4F83B00026DDE911B81D468246AE
:102BB0004FEA58073446B1462CE0281B401EC1B2EC
:102BC0000A2000F023FE0599B1FBF0F00A21B0FBCA
:102BD000F1F201FB120026B9691E8C4201DA58B1EC
:102BE00001263030C2B204FB07A0CDF800B0CDE919
:102BF000018980B2109B08E0CDF800B004FB07A06B
:102C0000CDE90189109B80B220220499FFF7C4FC12
:102C1000641CE4B2AC42D0D307B0BDE8F08F2DE91C
:102C2000F0471F469046CA19521E93B200EB0802A5
:102C3000521E002592B2DDF82090FFF771FB0026AE
:102C400011E000240BE019F8150000F037F809EB4B
:102C50004500407800F032F8641CA4B26D1CBC4200
:102C6000F1D3761CB6B24645EBD3BDE8F0872DE92B
:102C7000FE4F9946DDE90D6714468A460546DDF8A4
:102C800030800CE0CDF800804B4651462846CDE917
:102C90000167FFF781FC05EB560085B2641C2278C2
:102CA000002AEFD1BDE8FE8F10B50446000A00F0FF
:102CB0001BF8E0B2BDE8104000F016B800F014B800
:102CC00070B5084C0546002201212046FEF7FEF9AA
:102CD000284600F009F82046BDE870400122114660
:102CE000FEF7F4B90004024031B50B4C0022082174
:102CF0002046FEF7EBF9012269460848FFF746F83F
:102D000004E0012208212046FEF7E0F90348FEF71F
:102D100004FD0128F5D138BD00000240E00000208C
:102D20007FB500241B480094019402941849039431
:102D3000016001254FF480310561C0E90114057679
:102D400080F820404FF04051C1620226C661C91090
:102D5000C460816280F830404561FDF75AFE08B1D9
:102D6000FDF725FDCDE9004569460A480294FDF7C7
:102D7000A7FD08B1FDF71BFDCDE9005669460548E2
:102D8000FDF79EFD002801D0FDF711FD7FBD00007D
:102D90000020014040000020094808B5016841F4C6
:102DA000001101600068002200F40010009011463C
:102DB0000F20FEF7FFF9BDE808400F20FEF7ECB941
:102DC000303802402DE9F04387B014216846FDF702
:102DD00031FA34480024016841F0040101600168BF
:102DE00001F004010591016841F080010160016872
:102DF00001F080010591016841F001010160016865
:102E000001F001010591016841F0020101600068D3
:102E1000254F00F00200059000224FF48C713846D7
:102E2000FEF754F9DFF88480002210214046FEF7B7
:102E30004DF9DFF87C90002201214846FEF746F963
:102E4000082000900125CDE90154694638460394D5
:102E5000FEF73CF84FF48870CDE900050326CDE974
:102E6000025669463846FEF731F81020CDE90005D4
:102E7000CDE9024669464046FEF728F82020CDE914
:102E80000004694640460294FEF720F80396009538
:102E9000CDE9015469464846FEF718F807B0BDE889
:102EA000F083000030380240000002400008024079
:102EB00000040240104810B50E4901604FF48271C1
:102EC000416000218160C1604FF400720161C0E97E
:102ED00005121822C0E90721416281620A21C162FC
:102EE000FEF71EFC002803D0BDE81040FDF75FBCD4
:102EF00010BD00000030014088000020104810B5CF
:102F00000E4901604FF4827141600021022281600C
:102F1000C0E903121202C0E905121822C0E9072114
:102F2000416281620A21C162FEF7FAFB002803D0E8
:102F3000BDE81040FDF73BBC10BD0000003800406C
:102F4000E000002010B588B014216846FDF772F942
:102F5000002416480594144906940160A821C0E98C
:102F6000011440F2E731C0E903148021C0E90541B2
:102F7000FEF7D8FF08B1FDF71AFC009469460B482C
:102F80000194FFF7A0F908B1FDF711FC2020CDE96D
:102F9000050405A90548FEF77DFF002801D0FDF7CF
:102FA00006FC08B010BD00000000014098010020A0
:102FB00010B586B00024174800940194029403943D
:102FC00004944FF08041059401605321C0E901143D
:102FD00040F2E731C0E9031480218161FEF7A2FFCE
:102FE00008B1FDF7E4FB4FF48050009069460948B2
:102FF000FFF73EF808B1FDF7DAFB2020CDE9040425
:1030000004A90448FEF746FF002801D0FDF7CFFBD6
:1030100006B010BDE001002010B588B0142168464C
:10302000FDF708F90024154805941349069401603A
:103030001E21C0E9011440F2E731C0E903148461A4
:10304000FEF770FF08B1FDF7B2FB009469460B482C
:103050000194FFF738F908B1FDF7A9FB2020CDE96D
:10306000050405A90548FEF715FF002801D0FDF766
:103070009EFB08B010BD00000004004028020020A4
:10308000FEE7FEE770470000F8B50F4D16460F4605
:103090000446002210212846FEF718F88DF800405B
:1030A0004FF0FF342346012269460848FEF7C9FC69
:1030B0002346324639460548FEF716FC0122102108
:1030C0002846FEF703F8F8BD0008024088000020FB
:1030D000F8B5104D16460F4604460022102128462A
:1030E000FDF7F4FF44F020008DF800004FF0FF34AE
:1030F0002346012269460848FEF7A3FC23463246D0
:1031000039460548FEF79DFC012210212846FDF7AF
:10311000DDFFF8BD000802408800002010B5806B7C
:1031200001684A6822F003024A60416D41F01001D3
:103130004165012180F85110FEF7EEFA10BD10B57F
:10314000806BFEF790FE10BD38B50546846BFDF729
:10315000C3FF024628680068C00523D42068416880
:1031600021F0200141602068416821F002014160A6
:103170006421204600F048F818B1606D40F020004E
:103180006065A068002118B92068C2688068009056
:10319000E186012084F85100606D18B12046FEF7E9
:1031A000BBFA38BD2046FEF75DFE38BDF8B50446D3
:1031B00040684FF48273984221D1A0684FF4806533
:1031C000B0F5004F01D0A8420AD12068066826F069
:1031D000400606606068984211D1A068A8420ED0EF
:1031E00000920B4600228021204600F039F800288A
:1031F00004D0606D40F0200060650320F8BD0092AF
:103200000B4600220121EFE738B504461248134B64
:103210000068B0FBF3F04FF47A7358430090606895
:10322000B0F5827F0DD10B4600920022802120460E
:1032300000F016F870B1606D40F02000606503206A
:1032400038BD009830B1401E009020688068C043AF
:103250000006F6D5002038BD0C00002000366E01B7
:103260002DE9F8431E46914688460446089DFDF721
:1032700033FF401B351AFDF72FFF0746254800682E
:10328000C0F3CB30684338E0701C37D0FDF724FF23
:10329000C01BA84203D215B1009860B32CE020688F
:1032A000416821F0E00141606068B0F5827F0BD198
:1032B000A068B0F5004F02D0B0F5806F04D120684F
:1032C000016821F040010160A06AB0F5005F09D1FA
:1032D0002068016821F4005101602068016841F410
:1032E00000510160012084F85100002084F8500052
:1032F0000320BDE8F8830025401E00902068816807
:1033000038EA010004D000214945BDD10020F0E792
:103310000121F9E70C0000207047FDF7E3BE000033
:1033200030B593B030216846FCF784FF14210CA817
:10333000FCF780FF1D480025016841F080510160C5
:10334000006800F0805011901948016841F48041F4
:1033500001600068022400F4804011900120039075
:1033600010200490009406940820CDE90750A8206E
:10337000CDE9090404200B906846FEF717F808B160
:1033800072B6FEE70CA90F2081E831004FF4A0507F
:103390000F904FF48050109005210CA8FDF73CFFD2
:1033A000002801D072B6FEE713B030BD40380240AD
:1033B000007000400248016841F4700101607047EC
:1033C00088ED00E00148FEF7C2BE0000E0010020E9
:1033D000F0B50268254C264D264E274F274B4FF05F
:1033E000804CA04209D0604507D0A84205D0B04229
:1033F00003D0B84201D0984204D122F0700E4A683E
:1034000042EA0E02A0421BD0604519D0A84217D054
:10341000B04215D0B84213D0984211D0184DA842EE
:103420000ED0184DA8420BD0174DA84208D0174D0A
:10343000A84205D0164DA84202D0164DA84203D18D
:1034400022F44075CA682A434D6922F080022A435B
:1034500002608A68C2620A688262A04201D0984211
:1034600001D10969016301214161F0BD0000014002
:103470000004004000080040000C0040000401402F
:103480000040014000440140004801400018004055
:10349000001C00400020004010B5846842EA03226E
:1034A00024F47F440A432243826010BD826822F0E4
:1034B00070020A4342F007018160704770B50368EB
:1034C00000249A6822F070054A682A4322F0070512
:1034D0000A682A439A604A6812F00F0F31D112111C
:1034E000082A2ED2DFE802F02E2E2E2E0B212704E2
:1034F0000B69D1E902210068FFF7CEFF22E00A68DC
:10350000052A10D00268136A156A25F001051562B4
:1035100002689569096925F0F00545EA0111916194
:10352000006803620EE0012070BD0A6989680068C6
:1035300000F00AF806E00A698968006800F015F8EA
:1035400000E00124204670BD10B5036A046A24F02F
:1035500001040462846924F0F00444EA021423F0B4
:103560000A020A438461026210BD10B5036A23F0A7
:10357000100303628369046A23F4704343EA02324E
:1035800024F0A00343EA01118261016210BD000032
:1035900010B5084C6068401C6060642805D904219F
:1035A0000548FDF78BFD002060600448FDF72EFA0A
:1035B000206010BD14000020000C024040000020DC
:1035C00010B54FF480710448FDF778FDBDE8104058
:1035D0000248FDF779BA00000000024040000020D8
:1035E0007047FEE733B5114D044683B00022102129
:1035F0002846FDF76BFD44F020008DF804004FF0E5
:10360000FF342346012201A90948FEF71AFA0123D3
:1036100002AA04A906480094FEF7C6FA0122102166
:103620002846FDF753FD05B030BD000000080240FC
:10363000880000200907090E002804DB00F1E020C3
:1036400080F80014704700F00F0000F1E02080F8CF
:10365000141D704702E008C8121F08C1002AFAD1E1
:1036600070477047002001E001C1121F002AFBD102
:10367000704700002DED048B84B09FED528BFDF759
:1036800039FDFFF74DFEFFF79DFBFFF785FBFFF7C9
:1036900011FCFFF757FCFFF78BFCFFF741FBFFF72F
:1036A000BBFCFFF72BFC4948FEF7A2FC0120FDF70D
:1036B00081F8FEF79DFE4FF6FF7400214FF48C73E6
:1036C000F02208460094FEF755FE4FF0000AA1468E
:1036D0004FF0100B9FED3E9B4FF07808FCF7E4FF96
:1036E0002020CDE900904FF47847002156464C4603
:1036F0003B4639A2CDF808A00846FEF7D3FF5D4649
:103700008DE870003B4637A228210020FFF7AFFA72
:1037100000970323802228213020CDE90145FFF7BF
:103720003FFA8DE870003B4630A228215020FFF779
:103730009EFA00970323A02228218020CDE901458D
:10374000FFF72EFA8DE870003B4628A22821502072
:10375000FFF78DFA8DE870003B4626A24621002037
:10376000FFF785FA51EC180BFCF716FE00EE100A75
:103770003B46042246218020CDE90045FFF7C4F9ED
:1037800053EC192B51EC180BFCF75FFD41EC180BB7
:103790001D4F002505EB8501002408EBC10604EB55
:1037A000840028233146C0001A460097FFF737FAF5
:1037B000641CE4B2062CF2D36D1CEDB2032DE9D3E8
:1037C0008CE700000000000000000000E001002085
:1037D000295C8FC2F528BC3FD6D0BEB0D4B0B5E7C7
:1037E000D7D300004C43445F573A00004C43445F3A
:1037F000483A0000496E637265617365696E6720BF
:103800004E756E3A000000001C3800080246012088
:1038100000E05043491EC9B2FBD27047FFFFFFFFD3
:10382000FFFFFFFFFFFFFFFFFFFFFFFFFFFFFFFFA8
:10383000FFFFFFFFFFFFFFFFFFFFF7BEFFFFFFDE02
:10384000C6388C926B8E6B6E7C10AD96E73CFFFF9A
:10385000FFFFFFFFFFFFFFFFFFFFFFFFFFFFFFFF78
:10386000FFFFFFFFFFFFFFFFFFFFFFFFFFFFFFFF68
:10387000FFFFFFFFFFFFFFFFFFFFFFFFFFFFFFFF58
:10388000FFFFFFFFFFFFFFFFFFFFEF5D9D15634F92
:10389000426C320A298819461925214531E86B8E78
:1038A000C638FFFFFFFFFFFFFFFFFFFFFFFFFFFF28
:1038B000FFFFFFFFFFFFFFFFFFFFFFFFFFFFFFFF18
:1038C000FFFFFFFFFFFFFFFFFFFFFFFFFFFFFFFF08
:1038D000FFFFFFFFFFFFFFFFA53653104B105351B3
:1038E0004B0F3A6C31E92167192510E408A30062F7
:1038F000088352CBD69AFFFFFFFFFFFFFFFFFFFFBA
:10390000FFFFFFFFFFFFFFFFFFFFFFFFFFFFFFFFC7
:10391000FFFFFFFFFFFFFFFFFFFFFFFFFFFFFFFFB7
:10392000FFFFFFFFE73C637063B37CB863F54311AF
:10393000324D29EA218819261905190511041104A7
:1039400010E4008308A38C72FFFFFFFFFFFFFFFF5F
:10395000FFFFFFFFFFFFFFFFFFFFFFFFFFFFFFFF77
:10396000FFFFFFFFFFFFFFFFFFFFFFFFFFFFFFFF67
:10397000FFFFDEDB3A4B42F06C354B5432B12A2E5E
:1039800021EB21A91967190511041104110411046F
:103990001104190510E4004273AFFFFFFFFFFFFFA2
:1039A000FFFFFFFFFFFFFFFFFFFFFFFFFFFFFFFF27
:1039B000FFFFFFFFFFFFFFFFFFFFFFFFFFFFFFFF17
:1039C000EF5D3209324C4B10328F2A4F2A2E19CC20
:1039D00019892189194719051104110410C410C44B
:1039E00011041104110410E400428431FFFFFFFFB1
:1039F000FFFFFFFFFFFFFFFFFFFFFFFFFFFFFFFFD7
:103A0000FFFFFFFFFFFFFFFFFFFFFFFFFFFFFFFFC6
:103A100052EC1947324C2A0B21EC21EC220C5B9121
:103A20004AEE11061926190410E410E429A72166AC
:103A300008A319051104110410E40082BDF7FFFF6B
:103A4000FFFFFFFFFFFFFFFFFFFFFFFFFFFFFFFF86
:103A5000FFFFFFFFFFFFFFFFFFFFFFFFFFFFA5359A
:103A6000088321882188218921AA218A426B8C71AF
:103A7000FFFF8C720883110408C44229DEFBEF5D4E
:103A80005AEC0883110411041104088331E8FFDFA4
:103A9000FFFFFFFFFFFFFFFFFFFFFFFFFFFFFFFF36
:103AA000FFFFFFFFFFFFFFFFFFFFFFFFF7BE31C775
:103AB00010C4192519261947194729A8528A4A28D6
:103AC000AD55FFFF31E808A319056B4D6B4DFFFFA6
:103AD000EF7D214510C41104110411040062AD767C
:103AE000FFFFFFFFFFFFFFFFFFFFFFFFFFFFFFFFE6
:103AF000FFFFFFFFFFFFFFFFFFFFFFFFB596006225
:103B0000110419041105190508C44A8BB5B6EF5DF7
:103B1000BDF7FFFF6B8E006242295AAA4208FFFFE1
:103B2000FFFF52CC088311041104110408A352AD05
:103B3000FFFFFFFFFFFFFFFFFFFFFFFFFFFFFFFF95
:103B4000FFFFE71CFFFFFFFFFFFFFFFF634E006269
:103B500011041104110410E40062638EFFFFFFFFE3
:103B6000FFFFFFFF73CF00019CF3632CB596FFFFAF
:103B7000FFFF5B2D008311041104110410E4216781
:103B8000EF3DFFFFFFFFFFFFFFFFFFFFBDF8B5B7F2
:103B9000EF9E52CB94B3FFFFFFFFFFDF31E808A396
:103BA000110411041104110408A34249F7FFF7FF9F
:103BB000FFFFFFFF4A6A00018472FFFFFFFFF7FF6C
:103BC000EFDF3A0908A311041104110411041105CF
:103BD000BE18FFFFFFFFFFFFFFFFFFFF7BF000624C
:103BE00031E831C70041A535FFFFEF5D214610C424
:103BF000110411041104110410E408A39D76F7FFC9
:103C0000FFFFADB708A308A331C7E79EF7FFF7FF93
:103C1000A57608A310E4110411041104110511057F
:103C2000A535FFFFFFFFFFFFFFFFFFFFDEDB29A73B
:103C3000008310C410C410C4E71CEF9E110510E4EB
:103C40001104110411041104190408C410E56BD106
:103C50006BD108C5006408A50043322B9D7784B35F
:103C6000192510C411041104110411041925092681
:103C70009D35FFFFFFFFFFFFFFFFFFFFFFFF73AF5C
:103C800000621904190500825B0D9B8E10621105FC
:103C900011041104190410E40085110539C45A8176
:103CA0007B409C22AC43A4039B837282498218C24E
:103CB00000A400C510E4190411041905194711677F
:103CC0005AECFFBEFFFFFFFFFFFFFFFFFFDFDEDB62
:103CD00010C410E41104110518A4C001888300E485
:103CE0001905190408C521448343D523FE42FEE487
:103CF000FF27FF07FEA4FE64FE03FDA3FCE2EC42E7
:103D0000B383622410E508C41904192619A8218771
:103D10009000BCD3FFFFFFFFFFFFFFFFFFDFFFFFB0
:103D20007C100042190511052883D001F84448A3EE
:103D300000E408C55A44ED02FDE2FE02FE66FF748F
:103D4000FFB8FF73F6E7F6A6F645F5A4FCC3FC62E0
:103D5000FCC2FCC2CBE349C411061988018790A4B8
:103D6000F8019AECFFFFFFFFFFFFFFFFFFFFFFFFE0
:103D7000F7BE31E8008309054082C001F823F085D1
:103D800048A300A45A44FD02CC23DCC2FE04FE2852
:103D9000F648F646F624F5E4FD64FCE3FC62FCC25A
:103DA000E402DC02FCE27AA40148016778C4F8244A
:103DB000F802B084E77DFFFFFFFFFFFFFFFFFFFF7B
:103DC000FFFFDEDB192500A338C4E002D822F84447
:103DD000F8A678A400632143728339839B82F5217E
:103DE000FD61FD22FCE2FCA2FC42FC42FC42AB2253
:103DF000418392C352040126192598A4F844F8235C
:103E0000F802D0A4EF9EFFFFFFFFFFFFFFFFFFFFC1
:103E1000FFFFFFFFD69A298700A5B843F822E023C9
:103E2000F865F8E8C9074883004200A300842963C5
:103E30007AA2B362CBA2D362BB028A82398300A486
:103E400000E500E508E560C4D864F844F824F823E8
:103E5000F8028883C6DBFFFFFFFFFFFFFFFFFFFFC6
:103E6000FFFFFFFFFFFFE73D5B503108E823F8430A
:103E7000F044F865F909F9ABD189890648A31842DD
:103E8000000200420061008200620062008320A301
:103E900050C488A5D885F865F844F844F823F82379
:103EA000D003108229C7EF5DFFFFFFFFFFFFFFFF79
:103EB000FFFFFFFFFFFFFFFFFFFF326C38A5D802B7
:103EC000F823F865F866F8A7F94AFA0CFA4DEA4CB7
:103ED000D20BB9A9B168A947B127B907D107E8E75B
:103EE000F8C7F8A7F865F865F844F823F803D00296
:103EF00028A3090508C45AECFFFFFFFFFFFFFFFFDF
:103F0000FFFFFFFFFFFFFFFFDEFB190500C441A716
:103F1000C0E6F803F886F8A7F887F886F8C7F92905
:103F2000F98AF9ABF9ABF98BF96AF929F908F8C7FD
:103F3000F8A6F886F865F864F823F002B10629259A
:103F400000E410E4192519259D14FFFFFFFFFFFF72
:103F5000FFFFFFFFFFFFFFFFAD9600620882953570
:103F6000CEBAA28BD044F825F887F8A7F8C7F8A7EF
:103F7000F887F886F886F886F887F8A7F8A7F8A6ED
:103F8000F885F865F864F024B864930DB6BB63CF88
:103F90000883110410E421663A49EF5DFFFFFFFF3B
:103FA000FFFFFFFFFFFFFFFF94D3004210E4CEBBF3
:103FB000FFFFE7BEB576AACCC107E045F845F84655
:103FC000F866F886F886F886F886F865F845F865A4
:103FD000E865D044A84388019082D73CEFFF95550F
:103FE0000883110411041905194694B3FFFFFFFF5C
:103FF000FFFFFFFFFFFFFFFF94B300412186DF5D5E
:10400000FFFFFFFFFFFFE7DFC67AB4D3B34EC22A3C
:10401000D168E0E6E8A6E8A5E8A5D8E6C988A9063B
:10402000A822A802A000C800D800E5F7E7FFADF875
:1040300010C410E4110410E411054A8BFFFFFFFFC8
:10404000FFFFFFFFFFFFFFFFA555004129A7DF5D31
:10405000F7FFFFFFFFFFFFFFFFFFFFFFEFFFDF7D2A
:10406000CEDBCE59CDF8CDD7C5F7CE79BEFBA2AB0E
:10407000F003F845D042E843F000D472DFFFAE39D8
:1040800010E410E4110410E411052987FFFFFFFF7D
:10409000FFFFFFFFFFFFFFFFCE5908832146D71C1C
:1040A000F7FFFFFFFFFFFFFFFFFFFFFFFFFFFFFF28
:1040B000FFFFFFFFFFFFFFFFFFFFFFFFEFFFBA8BD9
:1040C000F804F845E062F044F800DB8EDFFFA5F865
:1040D00010C410E410E4110410E41925FFFFFFFFE1
:1040E000FFFFFFFFFFFFFFFFF7BE29870883B639F9
:1040F000F7FFF7DFFFFFFFFFFFFFFFFFFFFFFFFF00
:10410000FFFFFFFFFFFFFFFFFFFFFFFFE7BEBA4A12
:10411000F803F845F864F844F800E36ED7FF8CF430
:104120000883110410E410E410E41905FFFFFFFFF9
:10413000FFFFFFFFFFFFFFFFFFFF73EF0000847231
:10414000EFFFEFBEFFDFFFFFFFFFFFFFFFFFFFFF00
:10415000FFFFFFFFFFFFFFFFFFFFFFFFE7DFBA8B60
:10416000F803F845F845F823F800D4D3D7FF5B4EA1
:1041700000213A29A555088310C41925FFFFFFFF28
:10418000FFFFFFFFFFFFFFFFFFFFDEFB08A331E89C
:10419000DF9EE79EEFBFFFFFFFFFFFFFFFFFFFFF79
:1041A000FFFFFFFFFFFFFFFFFFFFFFFFF7FFBC5118
:1041B000E002F803F003E043C2ECCF7EBEFC2146F0
:1041C000002194D3FFFF845100002987FFFFFFFFE8
:1041D000FFFFFFFFFFFFFFFFFFFFFFFF8451000016
:1041E0008CF4EFFFE79EEFBFFFDFFFFFFFFFFFFF56
:1041F000FFFFFFFFFFFFFFFFFFFFFFFFFFFFDF3DB1
:10420000BD55BC52BC72B5B7C75DDFFF6BF0000097
:104210003A09F7BFFFFFFFFF9D14A555FFFFFFFF02
:10422000FFFFFFFFFFFFFFFFFFFFFFFFFFFF4AACA6
:1042300008A4BEBBE7DFE77EEFBEF7DFFFDFFFFFCF
:10424000FFFFFFFFFFFFFFFFFFFFFFFFFFDFF7DFC6
:10425000EFFFDFDFD7BFD79EDFDFA5D808831126AA
:10426000D6DBFFFFFFFFFFFFFFFFFFFFFFFFFFFFAB
:10427000FFFFFFFFFFFFFFFFFFFFFFFFEE79DC8B7C
:10428000312121A9CF3DDFBFDF7EE79EEFBEEFBF2B
:10429000F7DFF7DFF7DFF7DFF7DFEFBFEFBEE79E10
:1042A000DF7ED75ED75EDFDFB69A19260842A3ED20
:1042B000FFBFFFFFFFFFFFFFFFFFFFFFFFFFFFFF4E
:1042C000FFFFFFFFFFFFFFFFFFFFDD74DBC0FE000E
:1042D000EE4242022189B67BDFDFD77EDF7EDF7EC2
:1042E000E79EE79EE79EE79EE79EDF7EDF7ED75D47
:1042F000D75DDF9EE7FFA5F8110718E3C502FD6053
:10430000D3E6EEDBFFFFFFFFFFFFFFFFFFFFFFFF37
:10431000FFFFFFFFFFFFFFFFF79EBA84FCC1FE42D5
:10432000FE82FEA2838121457474C75EDFDFD77EE3
:10433000D75ED75DD75ED75ED75DD75DD75EDF9E90
:10434000E7FFC73D63F108845242E626FF29FE8657
:10435000F3E0C36AFFFFFFFFFFFFFFFFFFFFFFFF69
:10436000FFFFFFFFFFFFFFFFDE18D2C1FDA2FE220D
:10437000FE42FE42FE62D4E26A4142497453A63BC9
:10438000C73ED7BFD7BFD7BFDFBFD7BFC73EA61A6D
:1043900063F229A74182B422FE62FE83FEAAFF0FC8
:1043A000FD67BA63EF3CFFFFFFFFFFFFFFFFFFFF6B
:1043B000FFFFFFFFFFFFFFFFE69AD280FD21FDC256
:1043C000F5E2F5C2F582FD82FD62DC619B216A8423
:1043D0006AE9632C63AF7411636E632C5A895204CB
:1043E0007A81CBC2FCE2FD62FD82FDC2FDC2FDE42A
:1043F000FD24CA62E71CFFFFFFFFFFFFFFFFFFFF77
:10440000FFFFFFFFFFFFFFFFFFFFCCB1D281F3C033
:10441000FCC1FD02FD02FCE2FCC2FCC2FC81FB808F
:10442000C9C081A4AD35CE599C718121DA00FBA1B0
:10443000FC82FCA2FC82FCA2FD02FD22FCE2FC004C
:10444000DA60CC90FFFFFFFFFFFFFFFFFFFFFFFFE2
:10445000FFFFFFFFFFFFFFFFFFFFFFFFDE59C40D60
:10446000CB06D2E4DB03DB03DAE3D2C3C2A4B30995
:10447000BCD2F79EFFFFFFFFFFFFE6FBB40EBAA61C
:10448000D283E2E3EB02EB22E322DB03D2E4C36A52
:10449000D5B6FFFFFFFFFFFFFFFFFFFF000610166F
:1044A00000061016000000000000000001020304D6
:1044B00006070809FFFFFFFFFFFFFFFFFFFF0000E8
:1044C00000000000000000000000000004040404DC
:1044D00004000004000014140A00000000000000A2
:1044E000000000000A0A1F0A0A1F0A0A000000044E
:1044F0000E1505060C14150E0400000012150D15FE
:104500002E2C2A1200000000040A0A36151529165E
:10451000000002020100000000000000000010087E
:10452000080404040404080810000204040808082D
:1045300008080404020000000004150E0E15040013
:10454000000000000008083E08080000000000000D
:104550000000000000000202010000000000003F17
:104560000000000000000000000000000000000249
:1045700000000020101008080404020201000000DE
:104580000E1111111111110E000000000406040497
:104590000404040E000000000E1111080402011FA3
:1045A000000000000E11100C1010110E0000000091
:1045B000080C0C0A091F081C000000001F01010F55
:1045C0001110110E000000000C12010D1311110E3C
:1045D000000000001E10080804040404000000008D
:1045E0000E11110E1111110E000000000E11111903
:1045F000161009060000000000000400000000047E
:10460000000000000000000400000004040000009E
:1046100010080402020408100000000000003F001F
:104620003F0000000000000002040810100804020F
:10463000000000000E111108040400040000000036
:104640001C22292D2D1D221C0000000004040C0A30
:104650000A1E1233000000000F12120E1212120F67
:10466000000000001E1101010101110E00000000F8
:104670000F1212121212120F000000001F120A0E67
:104680000A02121F000000001F120A0E0A0202078F
:10469000000000001C1201013911120C0000000082
:1046A0003312121E12121233000000001F04040401
:1046B0000404041F000000003E0808080808080859
:1046C0000907000037120A060A121237000000001C
:1046D000070202020202223F000000003B1B1B1BDC
:1046E00015151535000000003B1216161A1A121780
:1046F000000000000E1111111111110E0000000038
:104700000F12120E02020207000000000E1111111A
:104710001117190E180000000F12120E0A1212378C
:10472000000000001E1101060810110F000000001B
:104730001F1504040404040E0000000033121212BA
:104740001212120C000000003312120A0A0C0404A8
:1047500000000000151515150E0A0A0A00000000D9
:104760001B0A0A04040A0A1B000000001B0A0A0AAA
:104770000404040E000000001F0908040402121FB4
:1047800000001C0404040404040404041C000002CB
:10479000020404040808081010000E08080808089D
:1047A000080808080E00040A0000000000000000CD
:1047B000000000000000000000000000003F0204B4
:1047C0000000000000000000000000000000000CDD
:1047D000121C123C000000030202020E1212120E02
:1047E000000000000000001C1202120C0000001863
:1047F0001010101C1212123C000000000000000CEF
:10480000121E021C000000182404041E0404041ECE
:10481000000000000000003C120C021C221C0003DF
:104820000202020E121212370000000404000006F9
:104830000404040E000000080800000C0808080822
:10484000080700030202021A0A060A130000000702
:10485000040404040404041F000000000000000F0E
:1048600015151515000000000000000F1212123778
:10487000000000000000000C1212120C00000000EA
:104880000000000F1212120E020700000000001CB0
:104890001212121C103800000000001B0602020752
:1048A000000000000000001E020C101E00000000AE
:1048B0000004041E0404041C000000000000001B8F
:1048C0001212123C000000000000001B0A0A04043F
:1048D0000000000000000015150E0A0A000000008C
:1048E0000000001B0A040A1B000000000000003347
:1048F00012120C08040300000000001E0804041E2D
:10490000000018080808080C08080808180008081B
:104910000808080808080808080806040404040829
:104920000404040406001609000000000000000052
:104930000000000000000000000000000000000077
:1049400000000000000808080808080800001818FF
:10495000000000486C24120000000000000000006D
:1049600000000000002424247F1212127F12121271
:1049700000000000081C2A2A0A0C1828282A2A1CD1
:10498000080800000022251515152A5854545422F1
:1049900000000000000C1212120A76252911916EF7
:1049A00000000006060403000000000000000000F4
:1049B0000000004020101008080808080810102007
:1049C000400000020408081010101010100808041D
:1049D00002000000000008086B1C1C6B08080000A7
:1049E000000000000000080808087F080808080008
:1049F00000000000000000000000000000000606AB
:104A000004030000000000000000FE0000000000A1
:104A1000000000000000000000000000000006068A
:104A2000000000008040402020101008080404020C
:104A3000020000000018244242424242424224182E
:104A40000000000000080E08080808080808083ED2
:104A500000000000003C4242422020100804427E38
:104A600000000000003C4242201820404042221C2E
:104A70000000000000203028242422227E202078FC
:104A800000000000007E0202021A26404042221C62
:104A90000000000000382402021A26424242241874
:104AA00000000000007E22221010080808080808F4
:104AB00000000000003C4242422418244242423C92
:104AC0000000000000182442424264584040241C68
:104AD0000000000000000000181800000000181876
:104AE00000000000000000000008000000000008B6
:104AF00008040000004020100804020408102040B0
:104B000000000000000000007F0000007F000000A7
:104B100000000000000204081020402010080402D9
:104B200000000000003C42424640201010001818CF
:104B300000000000001C225A555555552D42221CDC
:104B400000000000000808181414243C224242E728
:104B500000000000001F2222221E22424242221F89
:104B600000000000007C4242010101010142221CC0
:104B700000000000001F2242424242424242221FE5
:104B800000000000003F4212121E12120242423F79
:104B900000000000003F4212121E12120202020721
:104BA00000000000003C2222010101712122221C90
:104BB0000000000000E7424242427E42424242E799
:104BC00000000000003E0808080808080808083E21
:104BD00000000000007C10101010101010101010B9
:104BE000110F0000007722120A0E0A1212222277F9
:104BF0000000000000070202020202020202427FDD
:104C0000000000000077363636362A2A2A2A2A6B18
:104C10000000000000E346464A4A52525262624790
:104C200000000000001C2241414141414141221C41
:104C300000000000003F424242423E0202020207E0
:104C400000000000001C2241414141414D53321CF3
:104C500060000000003F4242423E1212222242C740
:104C600000000000007C4242020418204042423E04
:104C700000000000007F4908080808080808081C10
:104C80000000000000E74242424242424242423CAF
:104C90000000000000E742422224241414180808EF
:104CA00000000000006B494949495555362222222F
:104CB0000000000000E7422424181818242442E7CA
:104CC0000000000000772222141408080808081CBD
:104CD00000000000007E2120101008040442423F22
:104CE00000000078080808080808080808080808EC
:104CF0007800000002020404080808101020202098
:104D00004040001E10101010101010101010101045
:104D10001E000038440000000000000000000000F9
:104D20000000000000000000000000000000000083
:104D300000FF000608000000000000000000000066
:104D40000000000000000000003C4278444242FCA9
:104D50000000000000030202021A26424242261A04
:104D60000000000000000000003844020202443845
:104D7000000000000060404040784442424264D855
:104D80000000000000000000003C427E0202423CA5
:104D90000000000000F08808087E08080808083EA7
:104DA0000000000000000000007C22221C023C42A7
:104DB000423C000000030202023A4642424242E7FD
:104DC00000000000000C0C00000E08080808083E57
:104DD000000000000030300000382020202020207B
:104DE000221E0000000302020272120A161222772B
:104DF00000000000000E0808080808080808083E1F
:104E00000000000000000000007F9292929292B792
:104E10000000000000000000003B4642424242E722
:104E20000000000000000000003C42424242423CC0
:104E30000000000000000000001B26424242221E2B
:104E4000020700000000000000784442424244781B
:104E500040E000000000000000774C040404041F40
:104E60000000000000000000007C42023C40423E86
:104E70000000000000000008083E0808080808308C
:104E8000000000000000000000634242424262DC79
:104E9000000000000000000000E74224241408087D
:104EA000000000000000000000EB49495555222297
:104EB0000000000000000000007624181818246E7E
:104EC000000000000000000000E74224241418083D
:104ED0000807000000000000007E22100808447E41
:104EE000000000C020202020201020202020202092
:104EF000C000101010101010101010101010101012
:104F00001010000608080808081008080808080813
:104F100006000C32C200000000000000000000008B
:104F20000000000000000000000000000000000081
:104F30000000000000000000000000000000000071
:104F40000000000000000000000000000000000061
:104F50000000000000000000000060006000600031
:104F60006000600060006000400020002000200021
:104F70000000000000006000600060000000000011
:104F80000000000000006006600630039801880001
:104F900044000000000000000000000000000000CD
:104FA0000000000000000000000000000000000001
:104FB00000000000000000000000100210021002BB
:104FC0001002FE07FE070802080108010801080197
:104FD000FE07FE07040104010401040100000000B3
:104FE000000000000000000040004000F0015803F5
:104FF0004C03CC034C0058007000E000C001C0011D
:1050000040034C035C034C034801F00040004000A7
:10501000000000000000000000000E010A019100E5
:1050200091009100510051003A00AE03A0025004DB
:10503000500448044804480484028403000000002B
:105040000000000000000000000038006C006C0050
:105050006C006C006C002C0098071C011A013301D5
:1050600033016301E300C308C6093C0700000000E8
:105070000000000000000C001C00100010000800E0
:10508000040000000000000000000000000000001C
:105090000000000000000000000000000000000010
:1050A00000000000000000040002000180008000F9
:1050B00040004000200020002000200020002000B0
:1050C0002000400040008000800000010002000439
:1050D00000000000000002000400080010001000A2
:1050E0002000200040004000400040004000400000
:1050F0004000200020001000100008000400020002
:10510000000000000000000000000000000040005F
:10511000C0004000460C4E0FD001F0015E0F460C5F
:1051200040004000400000000000000000000000BF
:10513000000000000000000000000000000000006F
:1051400040004000400040004000FE0F4000400092
:10515000400040004000000000000000000000008F
:10516000000000000000000000000000000000003F
:10517000000000000000000000000000000000002F
:105180000000000000000C001C00100010000800CF
:10519000040000000000000000000000000000000B
:1051A00000000000000000000000FE0700000000FA
:1051B00000000000000000000000000000000000EF
:1051C00000000000000000000000000000000000DF
:1051D00000000000000000000000000000000000CF
:1051E0000000000000001C001C001C00000000006B
:1051F000000000000000000400060002000300019F
:10520000000180008000400040006000200020007D
:1052100010001000080008000C0004000600020046
:10522000000000000000000000000000F0009801F5
:105230000C030C0306060606060606060606060608
:10524000060606060C030C039801F000000000009F
:1052500000000000000000000000000040007C0092
:10526000600060006000600060006000600060003E
:1052700060006000600060006000FC03000000004F
:10528000000000000000000000000000F8008401A1
:10529000020306030603000300018001C000600052
:1052A00020001000080204020602FE0300000000B5
:1052B0000000000000000000000000007800C600B0
:1052C0008601860180018001C0007000800100011C
:1052D00000030003060306038601F8000000000037
:1052E00000000000000000000000000080018001BC
:1052F000C001A001A0019001880188018401820100
:10530000FE0F8001800180018001E00700000000A5
:10531000000000000000000000000000FC0304008A
:105320000400040004000400F4008C0104030003E2
:1053300000030603060382018401F8000000000058
:10534000000000000000000000000000E001180361
:105350000C030C0004000600E60116030E06060608
:105360000606060604060C021803F0000000000002
:10537000000000000000000000000000F8070C061C
:105380000402040100010001800080004000400090
:1053900040006000600060006000600000000000ED
:1053A000000000000000000000000000F8010C03F5
:1053B0000606060606060C021C03F000C8010C03D4
:1053C00006060606060606060C03F00100000000AD
:1053D000000000000000000000000000F0000C01D0
:1053E0000C03060206060606060606078C06780665
:1053F0000006000300030C018C017800000000008F
:10540000000000000000000000000000000000009C
:10541000000000000000E000E000E00000000000EC
:10542000000000000000E000E000E00000000000DC
:10543000000000000000000000000000000000006C
:10544000000000000000600060000000000000009C
:10545000000000000000000060006000400020002C
:105460002000000000000000000000040002000115
:105470008000400020001000080004000800100018
:105480002000400080000001000200040000000035
:10549000000000000000000000000000000000000C
:1054A000000000000000FE07000000000000FE07F2
:1054B00000000000000000000000000000000000EC
:1054C00000000000000000000000040008001000C0
:1054D00020004000800000010002000400020001E2
:1054E00080004000200010000800040000000000C0
:1054F000000000000000000000000000E0031806AB
:10550000040C040C0C0C0C0C000780014000400043
:10551000400000000000E000E000E00000000000AB
:1055200000000000000000000000E00018030C0272
:10553000CC0564056605A605B604B604B604B60433
:10554000B602E4010C040C021803F0000000000095
:10555000000000000000000000000000600060008B
:105560005000D00090009000880088010801F801E8
:10557000040304030402020202060F0F00000000ED
:10558000000000000000000000000000FE008C038E
:105590000C030C030C030C038C01FC000C030C0229
:1055A0000C060C060C060C060C03FE0100000000A5
:1055B000000000000000000000000000E0031803ED
:1055C0000C060C0404040600060006000600060093
:1055D000060006040C040C021803F0000000000092
:1055E0000000000000000000000000007F008C01AF
:1055F0000C030C030C060C060C060C060C060C0621
:105600000C060C060C030C038C017F00000000004C
:10561000000000000000000000000000FF0306037F
:1056200006040604060086008600FE00860086004A
:1056300086000600060406040602FF0300000000C0
:10564000000000000000000000000000FF0306034F
:1056500006040604060086008600FE00860086001A
:10566000860006000600060006001F00000000007D
:10567000000000000000000000000000F000180121
:105680000C020C0204020600060006000600C60F0B
:10569000060306030C030C031803F00000000000CF
:1056A0000000000000000000000000000F0F0606D0
:1056B00006060606060606060606FE070606060691
:1056C000060606060606060606060F0F0000000080
:1056D000000000000000000000000000FC0360006B
:1056E00060006000600060006000600060006000BA
:1056F00060006000600060006000FC0300000000CB
:10570000000000000000000000000000F807C000DA
:10571000C000C000C000C000C000C000C000C00089
:10572000C000C000C000C000C000C000C6006600CD
:105730003C0000000000000000000000CF038601D4
:10574000C60046002600160036002E006E004600F9
:10575000C60086008601060106038F0700000000D0
:105760000000000000000000000000001F00060014
:1057700006000600060006000600060006000600F9
:1057800006000600060406040602FF0300000000EF
:105790000000000000000000000000000707860372
:1057A00086038E038E034E034E034A035A035A03A5
:1057B0003A0332033203320312038707000000006A
:1057C0000000000000000000000000008E0F0C022E
:1057D0001C021C0234023402640264024402C40249
:1057E000840284038403040304031F0200000000F6
:1057F000000000000000000000000000F000980120
:105800000C030C0206060606060606060606060633
:10581000060606060C020C039801F00000000000CA
:10582000000000000000000000000000FF00060370
:10583000060606060606060606068603FE0006009F
:10584000060006000600060006001F00000000001B
:10585000000000000000000000000000F0009801BF
:105860000C030C02060606060606060606060606D3
:10587000060676064C02CC039801F0008007000370
:10588000000000000000000000000000FF0106030F
:1058900006060606060606060603FE004600C600C5
:1058A000860086010603060306060F0E00000000B0
:1058B000000000000000000000000000F8020C03DF
:1058C0000602060206000E003C00F800E00380031A
:1058D00000070206020606060C03F00100000000A5
:1058E000000000000000000000000000FE0762044D
:1058F0006108610860006000600060006000600096
:1059000060006000600060006000F80100000000BE
:105910000000000000000000000000001E070C0254
:105920000C020C020C020C020C020C020C020C0207
:105930000C020C020C020C021801F0000000000026
:105940000000000000000000000000000F07060239
:10595000040104010C010C018800880098009800E3
:1059600050005000700030002000200000000000B7
:10597000000000000000000000000000F70E6204BC
:1059800042044604460464026402E402E4029C0207
:105990009C0198019801880188008800000000009F
:1059A0000000000000000000000000009E070C0145
:1059B000080118019000B000600020006000600045
:1059C000D00090008801080104038E070000000049
:1059D0000000000000000000000000000F0F06049F
:1059E00004020C0208011801B800B0007000600049
:1059F00060006000600060006000F80100000000CE
:105A0000000000000000000000000000FC070C0285
:105A100006030201800180004000400020002000B9
:105A20001000180008040C040402FE03000000002B
:105A3000000000000000E003200020002000200003
:105A40002000200020002000200020002000200056
:105A50002000200020002000200020002000E00383
:105A60000000000000000000000004000400080026
:105A7000080010001000100020002000400040002E
:105A8000C00080008000000100010002000200024E
:105A90000004000000007C00400040004000400086
:105AA00040004000400040004000400040004000F6
:105AB00040004000400040004000400040007C00AA
:105AC00000000000600090000801000000000000DD
:105AD00000000000000000000000000000000000C6
