:020000040800F2
:10000000002000109D010008652B000881270008D2
:10001000612B00089D0300087940000800000000E3
:10002000000000000000000000000000E93C0008A3
:10003000AD03000800000000692B0008ED3C00083B
:10004000B7010008B7010008B7010008B7010008B0
:10005000B7010008B7010008B7010008B7010008A0
:10006000B7010008B7010008B7010008B701000890
:10007000B7010008B7010008B7010008A103000894
:10008000B7010008B7010008B7010008B701000870
:10009000B7010008B7010008B7010008B701000860
:1000A000B7010008B7010008B7010008B701000850
:1000B000B53D0008B7010008B7010008B701000806
:1000C000B7010008B7010008B7010008B701000830
:1000D000B7010008B7010008B7010008B701000820
:1000E000B7010008B7010008B7010008B701000810
:1000F000B7010008B7010008B7010008B701000800
:10010000B7010008B7010008B7010008B7010008EF
:10011000B7010008B7010008B7010008B7010008DF
:10012000B7010008B7010008B7010008B7010008CF
:10013000B70100080000000000000000B70100083F
:10014000B7010008B7010008B7010008B7010008AF
:10015000B7010008B7010008B7010008B70100089F
:10016000B7010008B7010008B7010008B70100088F
:10017000B7010008B70100080000000000000000FF
:10018000B7010008B7010008DFF80CD000F0BEF896
:10019000004800473DD7040800200010064880476B
:1001A00006480047FEE7FEE7FEE7FEE7FEE7FEE75C
:1001B000FEE7FEE7FEE7FEE7A13D00088901000833
:1001C0002DE9F05F0546002092469B46884606468C
:1001D000814640241BE0284641464746224600F01F
:1001E00084F853465A46C01A914110D31146184616
:1001F000224600F06BF82D1A67EB01084F462246A5
:100200000120002100F062F817EB00094E41201E8A
:10021000A4F10104DFDC484631462A464346BDE8E6
:10022000F09F2DE9F0410024061B254671F10006E0
:1002300005DA01240027D0EB070067EB0101161E49
:1002400073F1000605DA0027D2EB0702012567EB00
:100250000303FFF7B5FF86460E4617469C46AC42A1
:1002600004D00025D0EB050E65EB010624B100207B
:10027000D2EB000760EB030C704631463A4663460A
:10028000BDE8F08140EA01039B0703D009E008C9FB
:10029000121F08C0042AFAD203E011F8013B00F84B
:1002A000013B521EF9D27047D2B201E000F8012B97
:1002B000491EFBD270470022F6E710B513460A46E6
:1002C00004461946FFF7F0FF204610BD202A04DB44
:1002D000203A00FA02F1002070479140C2F1200359
:1002E00020FA03F3194390407047202A04DB203A98
:1002F00021FA02F00021704721FA02F3D040C2F146
:10030000200291400843194670470000064C074DF3
:1003100006E0E06840F0010394E8070098471034D5
:10032000AC42F6D3FFF734FF3C5506086C5506087F
:1003300010B540F26004C2F20004606818B10020F9
:10034000606003F071FEA068022803D30020A06063
:1003500003F07AFEE0680A2803D30020E06003F08F
:100360003BFE2069322838BF10BD00202061BDE867
:10037000104003F06DBE000040F26000C2F20000C9
:1003800000F1040C9CE80E100430013101320133FD
:100390000CF1010C80E80E1070470000FEE7000031
:1003A00040F2E400C2F2000000F036BC70470000EA
:1003B000EFF3108072B600BFFEE700002DE9F04FAA
:1003C00089B040F6000A40F298010290C4F2020A95
:1003D000C2F200010F2040F2441708704FF00009EC
:1003E000AAF500604FF0100B4FF03008C2F2000782
:1003F0000DF1230606AD04AC039002E0012000F0ED
:100400009DFD9020079043F21240C7F656000690DB
:100410000398102100228DF81490CDF8109000F070
:1004200087FE50461021002200F082FE38463146F9
:1004300001224FF0FF338DF8238001F0DFFB3846B7
:10044000294605224FF0FF3301F0D8FB504610211A
:10045000012200F06DFE012000F070FD50461021D9
:10046000002200F065FE3846314601224FF0FF338E
:100470008DF823B001F0C2FB3846214605224FF02B
:10048000FF3301F0BFFA50461021012200F050FE68
:100490009DF810001228B1D19DF811003428ADD17B
:1004A0009DF812005628A9D19DF813007828A5D1EF
:1004B0009DF814009028A1D103981021002200F08B
:1004C00037FE20208DF8180050461021002200F041
:1004D0002FFE40F244173120C2F200078DF82300AE
:1004E0000DF12301384601224FF0FF3301244FF074
:1004F000FF3501F083FB06A904AA384601230095C5
:1005000001F0A8FC50461021012200F011FE40F23B
:100510005806C2F20006307810218DF818005046B7
:10052000002200F005FEE1208DF823000DF12301EB
:10053000384601224FF0FF3301F060FB06A904AA00
:1005400038460123009501F085FC50461021012218
:1005500000F0EEFD307810218DF818005046002292
:1005600000F0E6FDE2208DF823000DF1230138466E
:1005700001224FF0FF3301F041FB06A904AA3846DF
:100580000123009501F066FC50461021012200F085
:10059000CFFD50461021002200F0CAFD30208DF81A
:1005A000180006A9384601224FF0FF3301F026FB60
:1005B0004BF2C151C0F60501384605224FF0FF331A
:1005C00001F01CFB50461021012200F0B1FD504605
:1005D0001021002200F0ACFD2A208DF8180006A999
:1005E000384601224FF0FF3301F008FB4BF2BC51BB
:1005F000C0F60501384605224FF0FF3301F0FEFA40
:1006000050461021012200F093FD0298102101288C
:1006100012BF8DF818403F208DF818005046002278
:1006200000F086FD40F244142120C2F200048DF84F
:1006300023000DF12301204601224FF0FF3301F08A
:10064000DDFA06A904AA20460123009501F002FC68
:1006500050461021012200F06BFD01208DF818009A
:10066000504610210022002500F062FD40F24416A1
:100670002220C2F200068DF823000DF1230130463E
:1006800001224FF0FF334FF0FF3401F0B7FA06A913
:1006900004AA30460123009401F0DCFB50461021EF
:1006A000012200F045FD1A208DF818005046102157
:1006B000002200F03DFD24208DF823000DF12301E0
:1006C000304601224FF0FF3301F098FA06A904AA40
:1006D00030460123009401F0BDFB50461021012259
:1006E00000F026FD5046102100228DF8185000F031
:1006F0001FFD25208DF823000DF123013046012236
:100700004FF0FF3301F07AFA06A904AA304601231C
:10071000009401F09FFB50461021012200F008FDDB
:100720000F208DF8180050461021002200F000FD27
:1007300026208DF823000DF12301304601224FF0D1
:10074000FF3301F05BFA06A904AA304601230094A6
:1007500001F080FB50461021012200F0E9FC40F23C
:100760009800C2F20000007810218DF81800504661
:10077000002200F0DDFC20208DF823000DF1230184
:10078000304601224FF0FF3301F038FA06A904AADF
:1007900030460123009401F05DFB504610210122F8
:1007A00000F0C6FC03981021012200F0C1FC09B042
:1007B000BDE8F08F70B581B00022009290F83C2027
:1007C000012A03D10221084601B070BDD1F800E032
:1007D0000122BEF10A0F80F83C200BD31FFA8EF2E3
:1007E0005200066812FA8EF2A2F11E0306F10C0204
:1007F00005E000BF06680EEB4E0306F110024FF055
:10080000070C15680CFA03F4A54315608D6814688D
:1008100005FA03F3234313604968062906D801EB60
:100820008101053906F134020AE000BF0C2901EB11
:10083000810187BF413906F12C02233906F13002CC
:100840001F2314688B4024EA030342F2043C136024
:10085000C4F2010C1FFA8EF3146803FA01F1ACF52F
:10086000417321439E4211603ED1BEF1120F07D168
:10087000DCF8001041F48001CCF8001034E000BF37
:100880002EF0010110292FD1DCF80010BEF1100F5D
:1008900041F40001CCF8001026D140F25C01C2F214
:1008A000000109684DF68362C4F21B32A1FB0212FB
:1008B000910C01EB8101490000910099A1B10099CF
:1008C00001390091009979B100990139009100999D
:1008D00051B1009901390091009929B1009901396C
:1008E000009100990029EAD1002180F83C100846C7
:1008F00001B070BD0068C06C70470000002804BFE4
:100900000120704710B50446006C00283ED0206CD2
:10091000C00645D4206C41F202118843023042F2F5
:1009200004312064C4F20101086820F440300860FA
:100930000A6894E809101A43D4F810E00A60416884
:10094000012321F4807141604168C0F6007341EADF
:100950000E214160416821F040714160416841EAE7
:100960000C014160816821F400618160E168826866
:1009700011438160A16A8268994222F070628260AC
:10098000826813D122F0405119E000BF204600F0E8
:1009900065F80020606484F83C00206CC006B9D57E
:1009A0000120002184F83C1010BD00BF114381607C
:1009B000816821F040518160E16A82681143816061
:1009C000816821F0020181608168227E94F82030E4
:1009D00041EA42018160416883B141F400614160B4
:1009E00041684EF2000221F460414160616ACFF635
:1009F000FF72436802EB4131194301E021F40061C9
:100A00004160C16A40F2000C21F47001C162E269E8
:100A10006169CFF6F07CC36A0CEB02521A43C262E2
:100A2000826822F40072826094F83020836843EA7E
:100A300042228260826822F480628260826842EA96
:100A40008121816000206064216C012262F3010138
:100A50002164002184F83C1010BD000080B586B0F0
:100A600042F200010068C4F20101002288420592AE
:100A7000049201D006B080BD43F630000092C4F26B
:100A80000200436943F480734361436903F4807354
:100A90000093009B0092036843F001030360006829
:100AA00000F00100009000980320CDE9010001F55D
:100AB000604001A9039200F055FA06B080BD000025
:100AC00010B581B00021009190F83C10012903D1AC
:100AD000022001B010BD00BF0468012180F83C1065
:100AE000214651F8083FDB0729D10B684DF6836298
:100AF00043F001030B6040F25C03C2F200031B6889
:100B0000C4F21B32A3FB02239A0C02EB42020092B6
:100B1000009AA2B1009A013A0092009A7AB1009A22
:100B2000013A0092009A52B1009A013A0092009A5A
:100B30002AB1009A013A0092009A002AEAD10A6882
:100B4000036CD2070AD143F01001016400F14401A3
:100B500001200A681043086056E000BF40F20172AD
:100B600023EA020202F5807202646268520504D52B
:100B7000026C012363F30D320264026C4FF0000E2D
:100B80000023D20444BF426C22F0060342F2043C2C
:100B9000436480F83CE06FF02200C4F2010C206056
:100BA000DCF80000C0060DD0ACF5417084422BD1BA
:100BB0004FF60450CFF6FF705CF8000010F0405F75
:100BC00022D125E042F20000C4F20100844217D095
:100BD00042F20020C4F2010084420DD042F2001023
:100BE000C4F2010084420FD1DCF80000C00607D037
:100BF000ACF58270844207D1DCF80000C00603D453
:100C0000086810F0405F03D0002001B010BD00BFA5
:100C10004FF080409DE70000F0B581B00446002011
:100C2000009040F25C00C2F200000268D4E9166055
:100C300048F2B51337680821C1F64E338140394276
:100C4000A2FB03250CD0226813685B0708D5136844
:100C500023F004031360B160616D41F0010161652F
:100C600001218140394208D022685269120604D518
:100C7000B160616D41F0020161650421814039423A
:100C800008D022681268920704D5B160616D41F006
:100C90000401616510218140394217D02068026843
:100CA000120713D5B16002680168520308D4C90560
:100CB00008D4016821F008010160216C21B905E028
:100CC00008033FD4216C09B120468847E16D2020FC
:100CD00000FA01F23A4241D020680368DB063DD5B4
:100CE000B26094F835300268052B1BD122F0160251
:100CF0000260426922F080024261226C0AB9A26C51
:100D00001AB1026822F0080202603F208840B060F9
:100D1000012084F83500216D0020002984F834007A
:100D200052D157E00168520310D4C90512D40168AA
:100D300021F010010160012084F83500002084F8C2
:100D4000340007E0A16C0029BED1BFE7080301D43D
:100D5000616C00E0E16B09B120468847606DC8B363
:100D6000606DC0072ED0052084F835002068A90AE0
:100D7000026822F001020260009A01328A42009267
:100D80001AD80268D20717D0009A01328A4200921C
:100D900012D80268D2070FD0009A01328A4200921C
:100DA0000AD80268D20707D0009A01328A4200921C
:100DB00002D80268D207DFD1012084F83500002074
:100DC00084F83400E16C29B1204601B0BDE8F04060
:100DD000084700BF01B0F0BD2DE9F041044600F026
:100DE000ADF9002C4ED00546022084F835000020D5
:100DF000216884F83400086820F001000860086861
:100E0000C00708D000F09AF9401B05286CD821686B
:100E10000868C007F6D1086848F23F02CFF2100216
:100E2000D4E90135024004F10C0E9EE8C1511A4389
:100E30002A4310433043384340EA0800626A40EADC
:100E40000C00042A40EA0E0320D1D4E90A5E206B8C
:100E50004EEA0302104308604869BEF1000F20F01B
:100E6000030040EA050040F0040C15D0B8F5005F1F
:100E700042D0B8F1000F51D1022D52D0012D47D0F0
:100E800055B94EE00120BDE8F08100BF0B60486914
:100E900020F0070040EA020C6FF00F004AF6AB2288
:100EA00050FA81F0CAF6AA22A0FB02231A094BF2DB
:100EB0002C63C0F605039A5C40F2FF335F284FF0C5
:100EC0003F00C1F814C021EA030100FA02F088BF14
:100ED0000431C4E9161288600023012200206365F2
:100EE00084F83520BDE8F0810322202303206365C8
:100EF00084F83520BDE8F081032DCDD801224023B0
:100F00000120DFE805F0030E030500BFE7E700BF9F
:100F1000AEF1C070B0FA80F0400904E0032D04D3B4
:100F2000BAD1CEF300600028B6D0012240230120C0
:100F3000636584F83520BDE8F0810000B0B5044653
:100F400000F0FCF8054640F20000C2F20000007814
:100F5000611C18BF044400BF00F0F0F8401BA04221
:100F6000FAD3B0BD2DE9F04F82B000F13E4241F618
:100F7000004502F1FF77C4F2020508224FEAB726C6
:100F8000A84208BF0722072E38BF4FEAB7224FF00A
:100F9000010E002400274FF00008009208E000BF77
:100FA000023708F10108202F04F1040400F0B48096
:100FB0000E680EFA08F916EA090FF1D0D1F804A06C
:100FC0000AF0030BABF10106012E19D80322866843
:100FD00002FA07FECA6826EA0E06BA403243826069
:100FE0004268CAF3001522EA090205FA08F54FEA39
:100FF000480C6FEA0E064FF0010E2A4342600BE0E8
:101000000322BA40D643BBF1030FBC4604D1BC4611
:101010004FF0030B24E000BFC2688D68324005FA30
:101020000CF52A43BBF1020FC26019D16FF0030225
:1010300002EA5802024404F01C030F25D2F820E013
:1010400005FA03FA0D692EEA0A0E05FA03F343EADC
:101050000E031362D1F804A04FF0010E0AF0030B47
:1010600002680BFA0CF332401A431AF4403F026054
:1010700096D0002243F644030192C4F202031A6898
:1010800043F6004C42F480421A601A68C4F2010C24
:1010900002F480420192019A28F003024FF6084AB6
:1010A0006244CFF6FF7A52F80A3004F00C060F259E
:1010B000B540AB43009D05FA06F6334342F80A30CB
:1010C000DCF800204B6842EA0906DD0358BF22EA3B
:1010D0000906CCF80060DCF804209D0342EA09060A
:1010E00058BF22EA0906CCF80460DCF80820DD02CB
:1010F00042EA090643F60C4558BF22EA0906CCF835
:101100000860C4F201052A689B0242EA090658BF3A
:1011100022EA09062E6043E702B0BDE8F08F000026
:10112000426902EA0103914341EA03418161704748
:10113000002A08BF090481617047000040F2746012
:10114000C2F201000068704740F2000040F2746192
:10115000C2F20000C2F2010100780A68104408607F
:101160007047000080B543F60040C4F202000168F9
:1011700041F400710160016841F48061016001681F
:1011800041F480710160032000F084F8002000F039
:1011900005F800F027F8002080BD000070B540F28F
:1011A0000006C2F2000640F25C013278C2F2000191
:1011B0004FF47A730968B3FBF2F20446B1FBF2F123
:1011C000084600F0D3FF0F2C4FF0010508D838B9BE
:1011D0004FF0FF3021460022002500F02FF8746008
:1011E000284670BD82B0002043F640010190C4F251
:1011F00002014A6842F480424A604A6802F480422E
:101200000192019A0090086840F0805008600868D8
:1012100000F080500090009802B07047002848BF4E
:10122000704700F01F01012202FA01F14EF2001294
:101230004009CEF2000242F82010704710B54EF679
:101240000C5CCEF2000CDCF80030C3F3022E8EF002
:101250000704042C28BF0424BEF103034FF0FF3E13
:101260000EFA04F438BF0023A14399400EFA03F3A9
:101270009A43114300F00F02043A624409010C3210
:1012800000F16043B0F1FF3FC8BF03F56442117045
:1012900010BD00004EF60C51CEF200010A684FF668
:1012A000FF031A4060F30A2242F0806040F0FD70B4
:1012B000086070472DE9F041002800F08B8043F66C
:1012C0000808C4F202080446D8F8F8030D4600F0F6
:1012D0000700884207D288F8F853D8F8F80300F0DE
:1012E0000700A84276D12068810717D5410705D5A8
:1012F000D8F8001041F4E051C8F80010010705D5F6
:10130000D8F8001041F46041C8F80010D8F8001077
:10131000A26821F0F0011143C8F80010C0073FD1C6
:10132000D8F8F80300F00700A84207D988F8F85366
:10133000D8F8F80300F00700A8424BD12068410715
:1013400007D5D8F80010E26821F4E0511143C8F83D
:101350000010000708D5D8F80000216920F460408B
:1013600040EAC100C8F8000000F054F8D8F80010B6
:101370004BF2AC52C1F30311C0F60502515C40F2CE
:101380005C0220FA01F140F20400C2F200000068A1
:10139000C2F200021160FFF701FF0020BDE8F081FA
:1013A0006068811E022907D258F8081C89015CBFB9
:1013B0000120BDE8F08111E0012807D158F8081C90
:1013C00089035CBF0120BDE8F08107E058F8081CE4
:1013D000890703D40120BDE8F08100BFD8F80010D0
:1013E00021F003010843C8F80000FFF7A7FE0646F6
:1013F00041F28837D8F80000616800F00C00B0EBCB
:10140000810F8DD0FFF79AFE801BB842F2D90320DE
:10141000BDE8F08110B543F60404C4F2020460682C
:1014200000F00C0142F200400829C0F2F40007D09D
:10143000042918BF10BD41F20020C0F27A0010BD8F
:10144000216801F03F02216823684902C3F3881133
:1014500006D4A1FB00010023FEF7B2FE07E000BFA7
:1014600041F20020C0F27A004843B0FBF2F021685C
:101470000222C1F3014102EB4101B0FBF1F010BDCA
:101480002DE9F04182B000286AD00446007843F686
:101490000006C007C4F202060BD0B06800F00C00D2
:1014A000042840F0A1803068800302D560680028DD
:1014B00056D0207880071AD5B06810F00C0F09D0EC
:1014C000B06800F00C00082840F0A8807068400266
:1014D00000F1A4803068800702D5E06801283FD180
:1014E0003068216920F0F80040EAC10030602078BF
:1014F000000739D4207840074ED4A5695DB3B068A1
:1015000000F00C00082840F0BD80012D28D0706844
:10151000E16900F480028A4222D1216A00F03F0290
:101520008A421DD147F6C071626A0140B1EB821F49
:1015300016D1A26A0023CFF6FF7303EBC23200F488
:1015400040316FF30F0291420AD1E16A00F07060FE
:10155000B0EB016F04D1002002B0BDE8F08100BF04
:10156000012002B0BDE8F0816069002840F200006F
:10157000C4F2472076D00121C0F8801EFFF7DEFDBF
:10158000054600BF706F8007B4D4FFF7D7FD401B3E
:101590000228F7D9DDE000BF306C10F080580AD186
:1015A00000200190306C40F080503064306C00F0CE
:1015B00080500190019847F20007C4F20007386894
:1015C000C00541D4386840F480703860FFF7B6FD3C
:1015D000054600BF3868C00536D4FFF7AFFD401B95
:1015E0000228F7D9B5E000BFB06800F00C00082869
:1015F00003D1706840023FF556AF6068B0F5803F98
:1016000007D0B0F5A02F40F08D80306840F48020E6
:101610003060306840F4803030608DE0E068002851
:1016200052D00020C4F2472001210160FFF786FD5F
:10163000054600BF306880073FF552AFFFF77EFDDB
:10164000401B0228F6D984E0A068012805D00528AF
:101650004ED1306F40F004003067306F40F0010031
:1016600030674FE00021C0F8801EFFF767FD054698
:10167000706F80077FF53EAFFFF760FD401B0228CB
:10168000F6D966E00027C4F2472700203866FFF746
:1016900055FD022D05460BD1306880015ED5FFF760
:1016A0004DFD401B02284FF00300F5D954E700BF61
:1016B000306880017FF54FAFFFF740FD401B0228E7
:1016C0004FF00300F4D947E70020C4F2472000217F
:1016D0000160FFF733FD0546306880077FF507AFEF
:1016E000FFF72CFD401B02284FF00300F4D933E72D
:1016F000316F002821F001013167316F21F00401C1
:1017000031674DD0FFF71AFD054641F2883700BF1B
:10171000306F800756D4FFF711FD401BB842F7D950
:1017200017E000BF3168002821F480313160316852
:1017300021F4802131604FD0FFF700FD054600BF46
:10174000306880033FF5B5AEFFF7F8FC401B642816
:10175000F6D9032002B0BDE8F08100BF04F11C05FA
:101760002FCD08430021CFF6FF7140EA821001EB34
:10177000C3316FF30F0140EA056008437060012038
:101780003866FFF7DBFC0446306880013FF5E3AEC6
:10179000FFF7D4FC001B02284FF00300F4D9DBE66E
:1017A000FFF7CCFC054641F2883700BF306F800759
:1017B00008D5FFF7C3FC401BB8424FF00300F5D932
:1017C000CAE600BFB8F1000F7FF497AE306C20F08E
:1017D0008050306491E600BFFFF7B0FC054600BFC3
:1017E000306880037FF565AEFFF7A8FC401B6428D6
:1017F0004FF00300F4D9AFE670B538B10446406A43
:1018000030B10020206104F1140007E0012070BD18
:101810006068B0F5827F03D004F11C0000210160F4
:101820000026A66294F8510020B9204684F8506042
:1018300000F03CF8022084F8510094E80F0001F415
:101840008271056802F4044225F0400505601144E8
:1018500003F400622369114403F002026369114436
:1018600003F00102A369E569114403F40072114415
:1018700005F03802256A114405F08002A56A11437B
:1018800005F4005211430160626A042101EA134128
:1018900002F0100211444160C16921F40061C1618C
:1018A0000120666584F85100304670BD2DE9F04F87
:1018B00087B00446006843F60001C4F20001002628
:1018C0008842CDE90566CDE90366029632D043F23F
:1018D0000001C4F20101884240F09080002043F6EC
:1018E00030010190C4F202014A6942F480524A6117
:1018F0004A6902F480520192019A01900A6842F00A
:1019000001020A60096801F0010101910199E021D9
:1019100002910221CDE903100320059005200690D5
:101920000020C4F2020002A9FFF71CFB07B0BDE8CB
:10193000F08F00BF43F630070196C4F20207386902
:1019400040F2000B40F4804038613869C4F2020B69
:1019500000F48040019001980196386802AD40F093
:101960000400386038684FF0020800F0040001906D
:101970000198019638684FF0030940F00200386082
:1019800038684FF0050A00F00200019001980C2021
:1019900002900BF500602946CDE90386CDF814903E
:1019A000CDF818A0FFF7DEFA4FF48060CDE9020809
:1019B00004A880E840060BF580602946FFF7D2FABC
:1019C00040F2E40507F52150C2F20005C5E9000622
:1019D0004FF48060C5E904064FF480304021C5E92A
:1019E00008062846C5E90216C5E90666FFF7F4F9B8
:1019F000002818BFFEF7DCFCA564AC6307B0BDE8A7
:101A0000F08F00002DE9F04381B0044640681D4688
:101A10001746B0F5827F0E4602D1A068002867D035
:101A200094F85000012803D1022001B0BDE8F083F2
:101A30004FF0010984F85090FFF780FB94F85110A3
:101A4000012953D18046002E4FF0010018BF002F0E
:101A500000F0C7800420002184F851006165A6636E
:101A6000A787E7872163A186E186A2682068B2F58F
:101A7000004F2164616449D00168490651D5E1688D
:101A8000002955D0E18F002900F08480691C1AD00C
:101A90008168C90706D1FFF751FBA0EB0800A842F7
:101AA00008D3A7E0C068A16B21F8020BA163E08F07
:101AB0000138E087E08F00286CD020688168C90772
:101AC000E9D0EFE720688168C90703D1FFF736FB4B
:101AD00008E000BFC068A16B21F8020BA163E08F92
:101AE0000138E087E08F0028ECD153E0022078E055
:101AF000042084F851002046314632463B4600958A
:101B000000F0A8F901B0BDE8F08300BF016821F042
:101B100040010160016821F48041016001684906CB
:101B2000ADD4016841F040010160E1680029A9D10C
:101B3000E18F79B3691C1AD08168C90706D1FFF714
:101B4000FDFAA0EB0800A84209D355E0007BA16B89
:101B50000870A06B0130A063E08F0138E087E08F50
:101B6000C0B120688168C907E9D0EFE720688168C3
:101B7000C90703D1FFF7E2FA09E000BF007BA16BC0
:101B80000870A06B0130A063E08F0138E087E08F20
:101B90000028EBD16068B0F5827F0ED1A068B0F567
:101BA000004F02D0B0F5806F0AD12168B0F5806F88
:101BB0000A6822F040020A6002D12046012101E0B9
:101BC000204680212A46434600F0D0FF28B1606DB0
:101BD00040F02000606520206065606D002818BF1F
:101BE0000120002184F8519084F8501001B0BDE824
:101BF000F08300BF0320F4E70320F2E72DE9F04370
:101C000083B0044690F85000012803D1022003B0AD
:101C1000BDE8F0834FF001091D4616460F4684F8D3
:101C20005090FFF78BFA94F85110012972D1804639
:101C3000002F4FF0010018BF002E00F0D6800320C7
:101C4000002184F8510061652763A686E686A163BA
:101C5000A187E187A0682164B0F5004F2068616426
:101C600007D1016821F040010160016841F4804121
:101C700001600168490603D4016841F04001016038
:101C80006168731EE268B1FA81F1B3FA83F349091E
:101C90005B09B2F5006F41EA03013DD131B137F87C
:101CA000021BC1602763E18E0139E186E18E0029C4
:101CB0006CD0691C1BD000BF8168890706D4FFF770
:101CC0003DFAA0EB0800A84208D3C1E0216B31F82F
:101CD000022BC2602163E08E0138E086E08E00288E
:101CE00054D0206881688907E9D5EFE720688168CA
:101CF000890703D4FFF722FA08E000BF216B31F80F
:101D0000022BC2602163E08E0138E086E08E00285D
:101D1000ECD13BE0022068E039B139780173206BE7
:101D200001302063E08E0138E086E08E70B3681CDD
:101D30000BD11BE0216B09780173206B013020630C
:101D4000E08E0138E086E08E00B320688168890764
:101D5000F0D4FFF7F3F9A0EB0800A842F3D3032077
:101D600043E000BFFFF7EAF9E08E78B120688168B0
:101D70008907F7D5216B09780173206B0130206347
:101D8000E08E0138E086E08E0028EFD140F25C0062
:101D9000C2F20000006849F68171C1F25E61A0FBE9
:101DA0000101480D4FF47A71484302906068B0F524
:101DB000827F23D1204680212A46434600F0D6FE6A
:101DC00028B1606D40F02000606520206065A0684B
:101DD00038B9002001902068C168019180680190A5
:101DE0000198606D002818BF0120002184F85190EF
:101DF00084F8501003B0BDE8F08300BF02980028BB
:101E0000E5D0029801380290206880680006DED58F
:101E100002980028DBD00298013802902068806880
:101E20000006D4D502980028D1D00298013802903B
:101E3000206880680006CAD502980028C7D002989A
:101E400001380290206880680006D7D4BFE700BF41
:101E50000320CAE72DE9F04383B0044690F8500010
:101E6000012803D1022003B0BDE8F08301201E4603
:101E700015460F4684F85000FFF760F994F85110AA
:101E80008146012940F09880002F4FF0010018BFD3
:101E9000002D00F09E80002E00F09B8094F85100F1
:101EA000002104281CBF052084F851006165A5634A
:101EB000E687A6872763E6862068A6862164616494
:101EC0000168490603D4016841F04001016061687E
:101ED000731EE268B1FA81F1B3FA83F3DDF828806A
:101EE00049095B09B2F5006F41EA03017AD131B1CA
:101EF00037F8021BC1602763E08E0138E0860125B8
:101F000018F1010031D101E0FFF718F9E08E18B99E
:101F1000E08F002800F0D0802068816889070CD508
:101F2000E18E51B1012D08D1216B002531F8022B32
:101F3000C2602163E18E0139E1868168C907E3D07F
:101F4000E18F0029E0D0C068A16B012521F8020BC8
:101F5000A163E08F0138E087D6E700BFFFF7EEF816
:101F6000A0EB0900404580F0FD80E08E18B9E08FBD
:101F7000002800F0A1802068816889070CD5E18ED7
:101F800051B1012D08D1216B002531F8022BC2601F
:101F90002163E18E0139E1868168C907DED0E18FD6
:101FA0000029DBD0C068A16B012521F8020BA163D9
:101FB000E08F0138E087D1E76068B0F5827F07D114
:101FC000A06800284FF0020008BF042901D15BE798
:101FD0000220012184F85110002184F8501003B030
:101FE000BDE8F08339B139780173206B013020638B
:101FF000E08E0138E086012518F1010033D101E0BF
:10200000FFF79CF8E08E10B9E08F002854D02068CC
:10201000816889070ED5E18E61B1012D0AD1216B4E
:10202000002509780173216B206801312163E18E5D
:102030000139E1868168C907E2D0E18F0029DFD04C
:10204000C068A16B01250870A06B0130A063E08F10
:102050000138E087D4E700BFFFF770F8A0EB090074
:10206000404580F08180E08E08B9E08F20B3206881
:10207000816889070ED5E18E61B1012D0AD1216BEE
:10208000002509780173216B206801312163E18EFD
:102090000139E1868168C907DED0E18F0029DBD0F4
:1020A000C068A16B01250870A06B0130A063E08FB0
:1020B0000138E087D0E700BF40F25C00C2F20000C8
:1020C000006849F68171C1F25E61A0FB0101480D13
:1020D0004FF47A71484302906068B0F5827F0FD167
:1020E0002046802142464B4600F040FD60B3606DC3
:1020F00040F02000606520206065012069E700BF96
:10210000029808B30298013802902068806800069F
:102110001AD50298C0B102980138029020688068F0
:10212000000611D5029878B1029801380290206813
:102130008068000608D5029830B1029801380290F4
:10214000206880680006DBD4A06800284FF00000FB
:102150007FF43FAF01902168CA68019289680191BC
:10216000019936E7032034E7032032E7411E0020BF
:10217000B0EB116F1CBF012070474EF21002CEF27F
:10218000000251604EF62351CEF20001F0230B7095
:102190000721906011607047704700007047000091
:1021A00010B590F83C20012A4FF0020251D080F87F
:1021B0003D200268D2F804E0D2F808C00C682EF086
:1021C0007003234341F2FF74C4F20004A24253603F
:1021D0000EDC40F2FF73C4F200039A4216DCB2F147
:1021E000804F2BD040F20043C4F2000324E000BF34
:1021F00040F2FF33C4F201039A4213DC41F60003BC
:10220000C4F200039A4219D0002313E040F6000301
:10221000C4F200039A4211D040F60043C4F2000316
:102220000AE000BF44F20003C4F201039A4205D061
:1022300040F20043C4F201039A4204D149682CF0F1
:102240008003194391600121002280F83D1080F83D
:102250003C20104610BD0000002804BF012070473C
:1022600010B5044690F83D0028B9002084F83C00E1
:10227000204600F01FF8022084F83D002068211D50
:1022800001F09EFD012084F8460084F83E0084F8A9
:102290003F0084F8400084F8410084F8420084F84C
:1022A000430084F8440084F8450084F83D00002091
:1022B00010BD000080B584B00068B0F1804F1BD025
:1022C00040F20041C4F2000188422FD00021C4F244
:1022D0000101884239D10020039043F64000C4F246
:1022E0000200416841F001014160406800F00100D6
:1022F0000390039804B080BD0020029043F6400094
:10230000C4F202000168002241F00101016000688E
:10231000072100F00100029002981C20FEF78EFFBA
:102320001C2004B0BDE88040FEF778BF002001907B
:1023300043F64000C4F20200016841F0020101606E
:10234000006800F002000190019804B080BD000018
:1023500090F83D1001291CBF01207047022180F830
:102360003D10006841F2FF72C168C4F20002904261
:1023700041F00101C1600DDC40F2FF71C4F20001C7
:10238000884215DCB0F1804F2AD040F20041C4F2FF
:10239000000123E040F2FF31C4F20101884213DC66
:1023A00041F60001C4F20001884219D0002113E077
:1023B00040F60001C4F20001884211D040F600410D
:1023C000C4F200010AE000BF44F20001C4F20101BE
:1023D000884205D040F20041C4F20101884206D192
:1023E000816801F00701062904BF002070470168D9
:1023F00041F00101016000207047000080B590F8B5
:102400003C20012A4FF0020200F0C28080F83D20FB
:10241000D0F800C04FF67772DCF8083023EA0202E9
:10242000CCF808200B684F2B28DC1F2B44DD202B19
:1024300045D0302B43D0402B40F0AC80D1F804E0A5
:10244000C968DCF82030DCF8202022F00102CCF84A
:102450002020DCF8182022F0F00242EA011123F0DB
:102460000A0242EA0E02CCF81810CCF82020DCF860
:10247000081041F0470121F0300180E06F2B27DD8B
:10248000B3F5005F48D0B3F5805F7AD0702B40F091
:102490008180D1E901E3C968DCF8082043EA0E0332
:1024A00022F47F4243EA01211143CCF80810DCF802
:1024B000081041F0770162E00BB1102B6AD1DCF813
:1024C000081021F07001194341F0070157E000BFE7
:1024D000502B35D0602B5DD1D1F804E0C968DCF811
:1024E000203023F01003CCF82030DCF81830DCF872
:1024F000202023F4704322F0A00243EA013142EA93
:102500000E12CCF81810CCF82020DCF8081041F09E
:10251000670121F0100132E0D1E901E3C968DCF87C
:10252000082043EA0E0322F47F4243EA01211143CB
:10253000CCF80810DCF8081041F480411FE000BF1F
:10254000D1F804E0C968DCF82030DCF8202022F063
:102550000102CCF82020DCF8182022F0F00242EA38
:10256000011123F00A0242EA0E02CCF81810CCF84E
:102570002020DCF8081041F0570121F02001CCF8B0
:1025800008100022012180F83D10002180F83C1045
:10259000104680BD0122F5E77047000010B50168C4
:1025A00004460869800744BFC8685FEA807039D470
:1025B0000869400744BFC8685FEA40703ED40869B4
:1025C000000744BFC8685FEA007045D40869C006C8
:1025D00044BFC8685FEAC0604AD40869C0071CBF2E
:1025E000C8685FEAC07051D10869000644BFC86876
:1025F0005FEA006052D40869400644BFC8685FEAD9
:10260000406053D40869800646BFC8685FEA8060AE
:1026100010BD6FF0200220460A61BDE81040FFF7B0
:10262000BDBD00BF6FF002000861012020778869FE
:10263000800743D02046FFF7AFFF45E06FF004006E
:10264000086102202077886910F4407F40D020463E
:10265000FFF7A2FF42E000BF6FF00800086104200E
:102660002077C86980073DD02046FFF795FF3FE0FF
:102670006FF01000086108202077C86910F4407FCF
:102680003AD02046FFF788FF3CE000BF6FF0010022
:102690000861204600F03EF82168A5E76FF0800051
:1026A00008612046FFF778FD2168A4E76FF040003D
:1026B0000861204600F062F82168A3E7204600F098
:1026C00025F8204600F024F82168002020776FE7E5
:1026D000204600F01BF8204600F01AF82168002080
:1026E00020776CE7204600F011F8204600F010F843
:1026F00021680020207769E7204600F007F820468F
:1027000000F006F821680020207766E77047000097
:10271000704700000068B0F1804F08BFFDF72CBE85
:1027200070470000B0B5044690F83C0001284FF017
:10273000020008BFB0BD012584F83C5084F83D007C
:10274000206801F0DBFB00284FF0010006D00021DB
:1027500084F83D5084F83C10B0BD00BF2068C168CB
:1027600021F04001C160C16821F48041C1600020B6
:10277000002184F83D5084F83C10B0BD7047000043
:1027800084B04EF62850CEF20000016803914168F3
:102790000291C16801910069009000BFFEE700004E
:1027A000B0B584B040F29C00C2F2000042F2000CCE
:1027B0004FF040534FF0C0610024C4F2010C4FF4BD
:1027C00080320125C0E90A1302210394057680F8BE
:1027D0002040C16180F83040C0E900C2C0E9024435
:1027E000C0E90455FEF78AF8002818BFFDF7E0FDA0
:1027F00040F29C00C2F200006946CDE90045029417
:10280000FDF7D8FF002818BFFDF7D2FD012000908A
:102810000220019040F29C00C2F200006946FDF7E0
:10282000C9FF002818BFFDF7C3FD04B0B0BD00000C
:1028300080B582B00020019043F63000C4F202005F
:102840000168002241F4001101600068002100F4D9
:102850000010019001980F20FEF7F0FC0F2002B04D
:10286000BDE88040FEF7DABC2DE9F04F87B00024C8
:1028700043F6300006940194C4F20200016840F26D
:10288000000941F0040101600168C4F2020901F08D
:1028900004010191019901940168002241F0800135
:1028A0000160016801F080010191019901940168C2
:1028B00041F001010160016801F0010101910199FC
:1028C0000194016841F00201016000684FF48C71CD
:1028D00000F00200019001984846FEF729FC09F536
:1028E00000652846102100224FF0100AFEF720FC58
:1028F00009F580684046012100220126FEF718FCF8
:10290000082002AFCDE9020648463946CDE9044425
:10291000FEF728FB4FF48870CDE902064FF0030B59
:10292000484639460496CDF814B0FEF71BFB2846FE
:102930003946CDE902A6CDE9044BFEF713FB202072
:10294000CDE90204284639460494FEF70BFB4046C5
:102950003946CDE90266CDE9044BFEF703FB07B02B
:10296000BDE8F08F80B540F2441043F20001C2F29E
:102970000000C4F201014FF48272002380E80E00CF
:1029800000F114014FF4007C4FF0180E81E808505C
:102990000A21C0E90333C0E90833C0E90A31FEF770
:1029A0002BFF002808BF80BDBDE88040FDF700BDBB
:1029B00010B540F29C1043F60001C2F20000C4F2D0
:1029C00000014FF4827200234FF0020C4FF4007E9E
:1029D000182480E80E000A21C0E9033CC0E9053E46
:1029E000C461C0E90833C0E90A31FEF705FF0028D9
:1029F00008BF10BDBDE81040FDF7DABC10B588B0C7
:102A000040F2F41000210024C2F20000C4F20101DF
:102A100040F2E7334FF0800C0794CDE90544CDE94F
:102A20000044A82280E81600C0E90334C0E9054C40
:102A3000FFF712FC002818BFFDF7BAFC40F2F410B3
:102A4000C2F2000003A9CDE90344FFF76BFE0028A2
:102A500018BFFDF7ADFC202000900020019040F24F
:102A6000F410C2F200006946FFF79AFB002818BF75
:102A7000FDF79EFC08B010BD80B586B02020009008
:102A800040F23C200021C2F2000040F2E73C0591F8
:102A9000CDE9031101914FF080425323C0E9021C9C
:102AA00001618021C0E900238161FFF7D5FB002887
:102AB00018BFFDF77DFC4FF48050029040F23C209F
:102AC000C2F2000002A9FFF799FC002818BFFDF729
:102AD0006FFC40F23C20C2F200006946FFF760FB49
:102AE000002818BFFDF764FC06B080BD10B588B0A3
:102AF0002020009040F2842040F200410024C2F2E5
:102B00000000C4F2000140F2E7330794CDE9054428
:102B100001941E2280E81600C0E903348461FFF7A7
:102B20009BFB002818BFFDF743FC40F28420C2F253
:102B3000000003A9CDE90344FFF7F4FD002818BF06
:102B4000FDF736FC40F28420C2F200006946FFF730
:102B500027FB002818BFFDF72BFC08B010BD0000B4
:102B6000FEE70000FEE70000704700002DE9F0419D
:102B700082B01E4690460D460446FEF7DFFA301A34
:102B800000EB0807FEF7DAFA40F25C01C2F200013E
:102B90000968C1F3CB317943019121688A682A40E1
:102BA000AA4227D1064618F101001FD0FEF7C6FA47
:102BB000801BB84222D2019801990028A1F101019D
:102BC00001912168896808BF074601EA0500A8420B
:102BD000ECD00FE088682840A8420BD188682840D4
:102BE000A84207D188682840A84203D188682840B5
:102BF000A842EFD0002002B0BDE8F081D4E9000186
:102C00004268B1F5827F22F0E00242600AD1A168F9
:102C1000B1F5004F02D0B1F5806F03D1016821F00A
:102C200040010160A16AB1F5005F07D1016821F49C
:102C300000510160016841F400510160012084F8F5
:102C40005100002084F85000032002B0BDE8F0815C
:102C50002DE9F04F81B03220FEF770F90024C4F264
:102C6000020404F580652846012101224FF0010A83
:102C7000FEF75EFA3220FEF761F904F50066304691
:102C8000102100220027FEF753FA1920FEF756F90B
:102C9000304610210122FEF74BFA1920FEF74EF9BB
:102CA00036208DF80300204608210022FEF740FA66
:102CB000284601210022FEF73BFA40F29C16C2F2A0
:102CC00000060DF10301304601224FF0FF33FEF7FD
:102CD00095FF204608210122FEF72AFA2046082106
:102CE00000228DF80370FEF723FA28460121012205
:102CF000FEF71EFA0DF10301304601224FF0FF33BB
:102D0000FEF77CFF204608210122FEF711FA3A2047
:102D10008DF80300204608210022FEF709FA284614
:102D200001210022FEF704FA0DF1030130460122D1
:102D30004FF0FF33FEF762FF204608210122FEF725
:102D4000F7F905208DF80300204608210022FEF740
:102D5000EFF9284601210122FEF7EAF90DF10301FE
:102D6000304601224FF0FF33FEF748FF204608218E
:102D70000122FEF7DDF921208DF80300204608210D
:102D80000022FEF7D5F9284601210022FEF7D0F9EE
:102D90000DF10301304601224FF0FF33FEF72EFF05
:102DA000204608210122FEF7C3F92A208DF80300EE
:102DB000204608210022FEF7BBF928460121002207
:102DC000FEF7B6F90DF10301304601224FF0FF3353
:102DD000FEF714FF204608210122FEF7A9F920463C
:102DE000082100228DF80370FEF7A2F92846012180
:102DF0000122FEF79DF90DF10301304601224FF04B
:102E0000FF33FEF7FBFE204608210122FEF790F972
:102E10002046082100228DF80370FEF789F9284624
:102E200001210122FEF784F90DF103013046012250
:102E30004FF0FF33FEF7E2FE204608210122FEF7A5
:102E400077F92046082100228DF803A0FEF770F9DB
:102E5000284601210122FEF76BF90DF103013046EE
:102E600001224FF0FF33FEF7C9FE20460821012260
:102E7000FEF75EF93F208DF803002046082100226E
:102E8000FEF756F9284601210122FEF751F90DF10E
:102E90000301304601224FF0FF33FEF7AFFE20461C
:102EA00008210122FEF744F92B208DF8030020466B
:102EB00008210022FEF73CF9284601210022FEF7F6
:102EC00037F90DF10301304601224FF0FF33FEF7D1
:102ED00095FE204608210122FEF72AF92046082106
:102EE00000228DF80370FEF723F928460121012204
:102EF000FEF71EF90DF10301304601224FF0FF33BA
:102F0000FEF77CFE204608210122FEF711F920463B
:102F1000082100228DF80370FEF70AF928460121E6
:102F20000122FEF705F90DF10301304601224FF0B1
:102F3000FF33FEF763FE204608210122FEF7F8F872
:102F40002046082100228DF80370FEF7F1F828468C
:102F500001210122FEF7ECF80DF1030130460122B8
:102F60004FF0FF33FEF74AFE204608210122FEF70C
:102F7000DFF8EF208DF80300204608210022FEF73D
:102F8000D7F8284601210122FEF7D2F80DF10301FE
:102F9000304601224FF0FF33FEF730FE2046082175
:102FA0000122FEF7C5F8B2208DF803002046082163
:102FB0000022FEF7BDF8284601210022FEF7B8F8EE
:102FC0000DF10301304601224FF0FF33FEF716FEEC
:102FD000204608210122FEF7ABF84FF00C082046EE
:102FE000082100228DF80380FEF7A2F8284601216F
:102FF0000122FEF79DF80DF10301304601224FF04A
:10300000FF33FEF7FBFD204608210122FEF790F872
:103010002046082100228DF80380FEF789F8284613
:1030200001210122FEF784F80DF10301304601224F
:103030004FF0FF33FEF7E2FD204608210122FEF7A4
:1030400077F82046082100228DF80370FEF770F80B
:10305000284601210122FEF76BF80DF103013046ED
:1030600001224FF0FF33FEF7C9FD2046082101225F
:10307000FEF75EF84FF033092046082100228DF854
:103080000390FEF755F8284601210122FEF750F87B
:103090000DF10301304601224FF0FF33FEF7AEFD84
:1030A000204608210122FEF743F82046082100228D
:1030B0008DF80390FEF73CF8284601210122FEF727
:1030C00037F80DF10301304601224FF0FF33FEF7D0
:1030D00095FD204608210122FEF72AF8B727204651
:1030E000082100228DF80370FEF722F828460121FE
:1030F0000022FEF71DF80DF10301304601224FF0CA
:10310000FF33FEF77BFD204608210122FEF710F871
:1031100035208DF80300204608210022FEF708F82C
:10312000284601210122FEF703F80DF10301304684
:1031300001224FF0FF33FEF761FD204608210122F6
:10314000FDF7F6FF2046082100228DF80370FDF7F9
:10315000EFFF284601210022FDF7EAFF0DF10301F0
:10316000304601224FF0FF33FEF748FD204608218C
:103170000122FDF7DDFF1F208DF803002046082106
:103180000022FDF7D5FF284601210122FDF7D0FFDF
:103190000DF10301304601224FF0FF33FEF72EFD03
:1031A000204608210122FDF7C3FFC0208DF803004F
:1031B000204608210022FDF7BBFF284601210022FE
:1031C000FDF7B6FF0DF10301304601224FF0FF334A
:1031D000FEF714FD204608210122FDF7A9FF2C204F
:1031E0008DF80300204608210022FDF7A1FF2846A4
:1031F00001210122FDF79CFF0DF103013046012260
:103200004FF0FF33FEF7FAFC204608210122FDF7BC
:103210008FFFC2208DF80300204608210022FDF711
:1032200087FF284601210022FDF782FF0DF10301EF
:10323000304601224FF0FF33FEF7E0FC2046082124
:103240000122FDF775FF2046082100228DF803A01A
:10325000FDF76EFF284601210122FDF769FF0DF100
:103260000301304601224FF0FF33FEF7C7FC204632
:1032700008210122FDF75CFFC3208DF803002046E2
:1032800008210022FDF754FF284601210022FDF706
:103290004FFF0DF10301304601224FF0FF33FEF7DF
:1032A000ADFC204608210122FDF742FF12208DF8D7
:1032B0000300204608210022FDF73AFF284601219D
:1032C0000122FDF735FF0DF10301304601224FF0D9
:1032D000FF33FEF793FC204608210122FDF728FF6B
:1032E000C4208DF80300204608210022FDF720FFAE
:1032F000284601210022FDF71BFF0DF10301304696
:1033000001224FF0FF33FEF779FC2046082101220D
:10331000FDF70EFF20208DF8030020460821002233
:10332000FDF706FF284601210122FDF701FF0DF1FF
:103330000301304601224FF0FF33FEF75FFC2046C9
:1033400008210122FDF7F4FEC6208DF80300204677
:1033500008210022FDF7ECFE284601210022FDF79E
:10336000E7FE0DF10301304601224FF0FF33FEF777
:1033700045FC204608210122FDF7DAFE0F208DF8DA
:103380000300204608210022FDF7D2FE2846012135
:103390000122FDF7CDFE0DF10301304601224FF071
:1033A000FF33FEF72BFC204608210122FDF7C0FE6B
:1033B0004FF0D00B2046082100228DF803B0FDF716
:1033C000B7FE284601210022FDF7B2FE0DF10301F0
:1033D000304601224FF0FF33FEF710FC2046082153
:1033E0000122FDF7A5FEA4208DF803002046082148
:1033F0000022FDF79DFE284601210122FDF798FEDF
:103400000DF10301304601224FF0FF33FEF7F6FBCA
:10341000204608210122FDF78BFEA1208DF8030034
:10342000204608210022FDF783FE284601210122C3
:10343000FDF77EFE0DF10301304601224FF0FF3310
:10344000FEF7DCFB204608210122FDF771FEE0209B
:103450008DF80300204608210022FDF769FE28466A
:1034600001210022FDF764FE0DF103013046012227
:103470004FF0FF33FEF7C2FB204608210122FDF783
:1034800057FE2046082100228DF803B0FDF750FEBC
:10349000284601210122FDF74BFE0DF103013046C4
:1034A00001224FF0FF33FEF7A9FB2046082101223D
:1034B000FDF73EFE08272046082100228DF8037004
:1034C000FDF736FE284601210122FDF731FE0DF100
:1034D0000301304601224FF0FF33FEF78FFB2046F9
:1034E00008210122FDF724FE11208DF8030020465B
:1034F00008210022FDF71CFE284601210122FDF7CC
:1035000017FE0DF10301304601224FF0FF33FEF7A5
:1035100075FB204608210122FDF70AFE20460821FE
:1035200000228DF803700827FDF702FE28460121CE
:103530000122FDF7FDFD0DF10301304601224FF0A0
:10354000FF33FEF75BFB204608210122FDF7F0FD6B
:103550002046082100228DF80380FDF7E9FD28466A
:1035600001210122FDF7E4FD0DF1030130460122A6
:103570004FF0FF33FEF742FB204608210122FDF702
:10358000D7FD15208DF80300204608210022FDF705
:10359000CFFD284601210122FDF7CAFD0DF10301EF
:1035A000304601224FF0FF33FEF728FB204608216A
:1035B0000122FDF7BDFD4FF0390A20460821002207
:1035C0008DF803A0FDF7B4FD284601210122FDF787
:1035D000AFFD0DF10301304601224FF0FF33FEF73E
:1035E0000DFB204608210122FDF7A2FD20460821FF
:1035F00000228DF80390FDF79BFD28460121012252
:10360000FDF796FD0DF10301304601224FF0FF3327
:10361000FEF7F4FA204608210122FDF789FD50202B
:103620008DF80300204608210022FDF781FD284681
:1036300001210122FDF77CFD0DF10301304601223D
:103640004FF0FF33FEF7DAFA204608210122FDF79A
:103650006FFD36208DF80300204608210022FDF77B
:1036600067FD284601210122FDF762FD0DF10301EE
:10367000304601224FF0FF33FEF7C0FA2046082102
:103680000122FDF755FD13208DF803002046082187
:103690000022FDF74DFD284601210122FDF748FDDE
:1036A0000DF10301304601224FF0FF33FEF7A6FA79
:1036B000204608210122FDF73BFD4FF0140820466B
:1036C000082100228DF80380FDF732FD28460121F4
:1036D0000122FDF72DFD0DF10301304601224FF0CF
:1036E000FF33FEF78BFA204608210122FDF720FD6B
:1036F0004FF029092046082100228DF80390FDF79C
:1037000017FD284601210122FDF712FD0DF10301ED
:10371000304601224FF0FF33FEF770FA20460821B1
:103720000122FDF705FD2D208DF80300204608211C
:103730000022FDF7FDFC284601210122FDF7F8FCDF
:103740000DF10301304601224FF0FF33FEF756FA28
:10375000204608210122FDF7EBFCE1208DF8030053
:10376000204608210022FDF7E3FC28460121002223
:10377000FDF7DEFC0DF10301304601224FF0FF336F
:10378000FEF73CFA204608210122FDF7D1FC204635
:10379000082100228DF803B0FDF7CAFC284601215C
:1037A0000122FDF7C5FC0DF10301304601224FF067
:1037B000FF33FEF723FA204608210122FDF7B8FC6B
:1037C0002046082100228DF80370FDF7B1FC284641
:1037D00001210122FDF7ACFC0DF10301304601226D
:1037E0004FF0FF33FEF70AFA204608210122FDF7C9
:1037F0009FFC10208DF80300204608210022FDF7D1
:1038000097FC284601210122FDF792FC0DF10301EE
:10381000304601224FF0FF33FEF7F0F92046082131
:103820000122FDF785FC2046082100228DF8037057
:10383000FDF77EFC284601210122FDF779FC0DF100
:103840000301304601224FF0FF33FEF7D7F920463F
:1038500008210122FDF76CFC0627204608210022E2
:103860008DF80370FDF764FC284601210122FDF765
:103870005FFC0DF10301304601224FF0FF33FEF7EC
:10388000BDF9204608210122FDF752FC20460821FF
:1038900000228DF80370FDF74BFC28460121012220
:1038A000FDF746FC0DF10301304601224FF0FF33D6
:1038B000FEF7A4F9204608210122FDF739FC204635
:1038C000082100228DF803A0FDF732FC28460121D3
:1038D0000122FDF72DFC0DF10301304601224FF0CE
:1038E000FF33FEF78BF9204608210122FDF720FC6B
:1038F00044208DF80300204608210022FDF718FC23
:10390000284601210122FDF713FC0DF10301304689
:1039100001224FF0FF33FEF771F920460821012202
:10392000FDF706FC51208DF80300204608210022F7
:10393000FDF7FEFB284601210122FDF7F9FB0DF101
:103940000301304601224FF0FF33FEF757F92046BE
:1039500008210122FDF7ECFB0B208DF80300204627
:1039600008210022FDF7E4FB284601210122FDF792
:10397000DFFB0DF10301304601224FF0FF33FEF76C
:103980003DF9204608210122FDF7D2FB16208DF8D3
:103990000300204608210022FDF7CAFB284601212A
:1039A0000122FDF7C5FB0DF10301304601224FF066
:1039B000FF33FEF723F9204608210122FDF7B8FB6B
:1039C0002046082100228DF80380FDF7B1FB284630
:1039D00001210122FDF7ACFB0DF10301304601226C
:1039E0004FF0FF33FEF70AF9204608210122FDF7C8
:1039F0009FFB2F208DF80300204608210022FDF7B1
:103A000097FB284601210122FDF792FB0DF10301EE
:103A1000304601224FF0FF33FEF7F0F82046082130
:103A20000122FDF785FB31208DF803002046082197
:103A30000022FDF77DFB284601210122FDF778FBDE
:103A40000DF10301304601224FF0FF33FEF7D6F8A7
:103A5000204608210122FDF76BFB21208DF8030091
:103A6000204608210022FDF763FB284601210022A1
:103A7000FDF75EFB0DF10301304601224FF0FF33ED
:103A8000FEF7BCF8204608210122FDF751FB11206A
:103A90008DF80300204608210022FDF749FB284647
:103AA00001210022FDF744FB0DF103013046012204
:103AB0004FF0FF33FEF7A2F8204608210122FDF760
:103AC00037FB13208DF80300204608210022FDF764
:103AD0002FFB284601210022FDF72AFB0DF10301EF
:103AE000304601224FF0FF33FEF788F820460821C8
:103AF0000122FDF71DFB2046082100228DF80390CE
:103B0000FDF716FB284601210022FDF711FB0DF100
:103B10000301304601224FF0FF33FEF76FF82046D5
:103B200008210122FDF704FB3220FDF707FA3620B9
:103B30008DF80300204608210022FDF7F9FA2846F7
:103B400001210022FDF7F4FA0DF1030130460122B4
:103B50004FF0FF33FEF752F8204608210122FDF70F
:103B6000E7FA60208DF80300204608210022FDF7C7
:103B7000DFFA284601210122FDF7DAFA0DF10301EF
:103B8000304601224FF0FF33FEF738F82046082177
:103B90000122FDF7CDFA01B0BDE8F08F2DE9F04725
:103BA00084B0002400F114062A20C4F202048A46DC
:103BB00002F114078DF80D002046082100229946D5
:103BC000FDF7B6FA04F58065284601210022FDF7CD
:103BD000AFFA40F29C18C2F200080DF10D01404608
:103BE00001224FF0FF33FEF709F820460821012299
:103BF000FDF79EFA300A8DF80900380A8DF80B009F
:103C00002046082100228DF80A608DF80C70FDF71F
:103C10008FFA284601210122FDF78AFA0DF10901E8
:103C2000404604220A23FDF7E9FF2046082101222D
:103C3000FDF77EFA2B208DF80E0020460821002289
:103C4000FDF776FA284601210022FDF771FA0DF101
:103C50000E01404601224FF0FF33FDF7CFFF204613
:103C600008210122FDF764FA4FEA1A208DF80500B9
:103C70004FEA19208DF807002046082100228DF810
:103C800006A08DF80890FDF753FA2846012101227D
:103C9000FDF74EFA0DF10501404604220A23FDF717
:103CA000ADFF204608210122FDF742FA2C208DF8B5
:103CB0000F00204608210022FDF73AFA284601218C
:103CC0000022FDF735FA0DF10F01404601224FF0B9
:103CD000FF33FDF793FF204608210122FDF728FA64
:103CE00004B0BDE8F087000070470000FDF72CBA73
:103CF000B0B592B0002443F640000B94CDE90944DE
:103D0000CDE907440594CDE90344CDE9014400948D
:103D1000C4F202000168022541F080510160006890
:103D200000F080500090009847F200000094C4F228
:103D30000000016841F480410160006800F48040A7
:103D4000009000980120099010200A9008200E9001
:103D5000A820CDE90F050420119006A80695CDE90D
:103D60000C54FDF78DFB28B1EFF3108072B600BF45
:103D7000FEE700BF0F20CDE901054FF4A0500490ED
:103D80004FF48050059001A805210394FDF792FAA5
:103D900020B1EFF3108072B6FEE700BF12B0B0BDE5
:103DA0004EF68850CEF20000016841F470010160C7
:103DB0007047000040F23C20C2F20000FEF7EEBB6C
:103DC00010B540F6FF3E0368C4F2000E40F2004C0E
:103DD0007045C4F2010C27DCB0F1804F31D040F2C5
:103DE0000042C4F2000290422BD040F60002C4F21E
:103DF0000002904225D041F6FF72C4F200029042C8
:103E000029DC70453CDCB0F1804F5FD040F20042CD
:103E1000C4F20002904259D040F60002C4F20002FF
:103E2000904253D056E000BF40F60042C4F2000278
:103E3000904206D0604504D00022C4F201029042B4
:103E4000D9D14A6823F07003134341F6FF72C4F2DC
:103E500000029042D5DD43F6FF72C4F201029042A7
:103E600022DC42F20002C4F2000290422ED0002274
:103E7000C4F20102904229D0604527D02AE000BF59
:103E800040F60042C4F2000290421FD041F6000208
:103E9000C4F20002904219D041F60042C4F200027E
:103EA000904213D016E000BF44F20002C4F20102B7
:103EB00090420BD044F60002C4F20102904205D0B9
:103EC00044F20042C4F20102904203D1CA6823F4D2
:103ED0004073134323F080024B69D1F800E08C68F3
:103EE0001A430260C46240F48062C0F828E0624570
:103EF00004BF096901630121416110BD80B5826879
:103F0000D1E900E322F0770C23F0070242EA0C0229
:103F100042EA0E0C4FEA3312072AC0F808C009D84B
:103F20004FF0000CDFE802F0040404040A1E344AD7
:103F3000604680BD4FF0010C604680BDBEF1050FAC
:103F400004BF012080BD026A036A23F001030362FB
:103F50008369096923F0F00343EA01118161026278
:103F6000002080BDD1F808C00969036A026A22F006
:103F700001020262826922F0F00242EA011123F09A
:103F80000A0242EA0C0281610262002080BD00BF89
:103F9000D1F808C00969036A23F01003036283693A
:103FA000026A23F4704322F0A00243EA013142EA9C
:103FB0000C1281610262002080BD00BFD1E902C302
:103FC0000969826843EA0C0322F47F4243EA012133
:103FD00011438160002080BD10B540F26004C2F240
:103FE0000004A0690130A061217899B1652808D347
:103FF00040F60040C4F202000421FDF791F80020D1
:10400000A06140F29C00C2F20000FCF773FC60610A
:1040100010BD00BF0120207048F08EF900202070F4
:10402000A0696528EDD3E3E780B50020C4F2020063
:104030004FF48071FDF774F840F29C00C2F200006A
:10404000BDE88040FCF73CBD022048F0C1B800004C
:1040500080B50C2001210A2249F0F4FD40F26000F5
:10406000C2F20000B0F91400022103220623BDE8C9
:10407000804049F061BD0000FEE700002DE9F04FEF
:1040800083B0129F0DF1300C1E46DDE910489CE80C
:1040900008188A46814617F00200154601900292E0
:1040A00048D1B8F1000F0BD0F8070BD017F00C0077
:1040B00018BF012040EA0C00A8EB000802E000BF96
:1040C0004FF00008A34518D2BBF11F0F15D86FEAB7
:1040D0000B012144CBF11F0503EB0B00A94238BFB4
:1040E0000D46691C3022FCF7DFF8DDF838C00C9B68
:1040F00005EB0B00029D00F1010BF8071AD0C34538
:1041000018D2BBF11F0F15D86FEA0B014144CBF158
:104110001F0503EB0B00A94238BF0D46691C302276
:10412000FCF7C2F8DDF838C00C9B0BEB0500029DD4
:1041300000F1010BF80636D50F98790510D4BBF1C4
:10414000000F0DD0A34518BFC34509D1BBF1010134
:104150000A4618BFABF10202102818BF0A46934660
:10416000102807D117F020000CD1BBF1200F09D285
:1041700078200CE002280ED1BBF11F0F0BD8622073
:1041800005E000BF38B1BBF1200F04D2582003F87E
:104190000B000BF1010BBBF11F0F18D8302003F8F7
:1041A0000B000BF1010BBBF11F0F10D8BCF1000F7E
:1041B00002D02D2007E000BF780703D4380706D5CA
:1041C000202000E02B2003F80B000BF1010BB807B7
:1041D0002C460DD1C3452C460AD2A8EB0B072A4624
:1041E000202051463346541CC847013F2246F7D190
:1041F000BBF1000FCDF8008012D00C98A0F101089F
:1042000018F80B00514622463346ABF10105671CF6
:10421000C847002D3C46AB46F2D1019818B917E0CB
:1042200027460198A0B10299DDF80080781A404530
:104230000ED24D42202051463A4633467C1CC84798
:10424000281940452746F5D3204603B0BDE8F08F36
:104250003C46204603B0BDE8F08F00009A4238BFCC
:1042600088547047704700002DE9F04383B04FF049
:104270000006D8B30D46C9B300F1240904464846E8
:10428000294643F007F90646029018B3376961687A
:1042900038460CF0E9F962688046384629463BF01A
:1042A000D3F804F130003AF049FF019040B302A97D
:1042B00004223BF0C9F80298E16A0069042208442C
:1042C000043801A93BF0C0F86268404621460CF072
:1042D000D1F9029E76B1306961680CF0C5F9E16BE5
:1042E000064628468847E1680844E060304603B047
:1042F000BDE8F0830026304603B0BDE8F08300BF80
:104300004846314643F07AF80026304603B0BDE80F
:10431000F083000010B540203BF016F8044620B1B1
:104320002046002140223BF02BFC204610BD00001F
:104330002DE9F04F81B040F2CC25C2F2000595F88E
:10434000A90005F1B00B80F0010085F8A9005846DE
:104350003AF0BAFE002800F0118106464FF000093D
:104360004FF0010A08E000BF584631463AF0D0FE4F
:104370000646002800F00281306D47F0D1FE96F825
:104380005C10C90704D1716B084470631CE000BF66
:10439000706D47F0C5FEB16D4A1C15D0884213D32D
:1043A00096F85C20736B401A02F0FE0186F85C10F0
:1043B0001844706395F8A90002F0FA0141EA800000
:1043C00080F0040086F85C0047F0D8FE85F8A890DD
:1043D00096F85C103065CA07C6D195F8A900C1F3FC
:1043E0008002824268D001F0FB0242EA80000A07A4
:1043F00086F85C001ED4706B00281BD4C80609D454
:10440000B16939B130468847716AF26A0144104493
:104410007162F06230464CF0F1F9F16809B1304652
:10442000884796F85C0040F0080086F85C0030464B
:104430004CF0EAF8746B002C3ED4306BA0468442FA
:10444000C4BF70638046316A30468847B16A88428B
:1044500040D195F8A800A0BB716B414504BF7463BF
:104460002146306B814227DB96F85C70746C17F044
:10447000020204D1631C022B24BF013C7464F36B61
:104480000CB9CBB3C2BB07F0F707091A346C86F836
:104490005C70D8BF4946091B71636BB112B9B16B2F
:1044A0004942716387F0020186F85C10F16A726A12
:1044B0007162C6E90B23F06395F8A80000283FF469
:1044C00053AF58463AF000FE064600287FF454AF3A
:1044D00054E000BF72680746B06212B130683946D6
:1044E000904795F8A8000028EBD1B268002AB0D018
:1044F000304639469047ACE7584631463AF0F2FE2E
:10450000584685F8A8A03AF0DFFD0146D5F8AC0082
:1045100021B138B147F0FCFF1FE000BF80B147F088
:10452000E9FF1AE095F8AA00B8B944F285510020D5
:10453000C0F6000100220EF0D7FB85F8AAA00CE01F
:1045400095F8AA0048B144F285510020C0F6000158
:1045500000220EF0E3FC85F8AA90316909B13046DB
:104560008847716909B130468847304636F0F8FF10
:1045700095F8A8000028A4D1F6E600BF01B0BDE878
:10458000F08F00000020FFF7D3BE0000B0B5044656
:1045900040680D4610B12946FFF7F8FF2268002A4F
:1045A00008BFB0BD20462946BDE8B0401047000016
:1045B00070B50E680C463168054641B196F8220088
:1045C000C00604D5216028462146FFF7F1FF2846A2
:1045D00021462660BDE87040FFF7D8BF09F0F2BB66
:1045E00009F080BCB0B598B00546406C50B36C463D
:1045F000204608F007FE2046294608F0D3FE4EF27A
:104600000521C0F60401204608F0B6FE696C20467C
:1046100008F0A6FE20460021012208F0BDFE4DF262
:10462000ED21C0F60001204608F0A8FE4EF2092157
:10463000C0F60401204608F08BFE204608F0E8FE94
:1046400018B0B0BD284618B0BDE8B04049F080BDF4
:10465000B0B5002948D080290B460BD3B1FA81F2BE
:10466000C2F11A024FF0FF3303FA02F2D243531899
:104670007F2B3BD89A08002300EB8305D5F814C0A4
:104680004FF0FF3505FA02F212EA0C0214D092FA4A
:10469000A2F2B2FA82FE00EBC31202EB8E0454F8CF
:1046A0003C2F0AB3556825F003058D422ED2EFF357
:1046B000108072B6FEE700BF0269013305FA03F30A
:1046C0001A4011D092FAA2F2B2FA82F300EB8302FE
:1046D000D2F814C0BCF1000F6246D8D1EFF31080BD
:1046E00072B600BFFEE700BF0020B0BD0022B2EBF3
:1046F000134F25D1B3FA83F5C5F11A0223FA02F25A
:1047000082F02002C5F11903B6E700BFD568CDB12C
:104710009168E9B1CD60A9602568954210D18142C8
:1047200021600DD1012101FA0EF52CEA050500EBFF
:104730008304656125B90569994025EA0101016194
:104740001046B0BDEFF3108072B600BFFEE700BFA9
:10475000EFF3108072B600BFFEE70000F0B54A68C4
:10476000032A0BD9043A22F0030301F108029B1833
:104770000AD05D68EC070DD10846F0BDEFF310805C
:1047800072B600BFFEE700BFEFF3108072B600BF45
:10479000FEE700BF25F003047F2C35D84FEA950EC5
:1047A0004FF0000CDD68E5B39C68002C3ED0E5605E
:1047B000AC6000EBCC1505EB8E0555F83C6F9E42C6
:1047C00011D184422C600ED100EB8C0501276E695B
:1047D00007FA0EF4A6436E612EB9066907FA0CF7C4
:1047E00026EA070707614868032825D95B68043370
:1047F00023F0030318440328486023D9043820F029
:10480000030081500846F0BDB4FA84FCCCF11A05CF
:1048100024FA05F585F0200ECCF1190CDD68002D89
:10482000C2D1EFF3108072B6FEE700BFEFF3108045
:1048300072B600BFFEE700BFEFF3108072B600BF94
:10484000FEE700BFEFF3108072B600BFFEE7000086
:1048500070B549B152B14B68DD070DD1EFF310804F
:1048600072B600BFFEE700BF002070BDEFF31080FE
:1048700072B600BFFEE700BF23F0030402F110058B
:10488000AC4211D2032B40F29280181F20F0030299
:1048900001F108000244536823F0020353604A68A0
:1048A00022F001024A6070BD01F1080E02EB0E0316
:1048B000DD1D1E1D25F00305AE4205D0EFF310806F
:1048C00072B600BFFEE700BFA3F1040CA31ADCF828
:1048D0000440043B04F003041C430B2BCCF80440BD
:1048E0002CD94B6803F003031A434A60DCF8042018
:1048F000032A29D9043A22F00304A219536844F880
:1049000006C043F002035360DCF8042042F00103C8
:10491000CCF804304B68032B1CD9043B23F0030371
:1049200043F80E1022F0030342F003067F2BCCF86D
:10493000046015D84FEA920E00231AE0EFF31080BE
:1049400072B600BFFEE700BFEFF3108072B600BF83
:10495000FEE700BFEFF3108072B600BFFEE700BFB6
:10496000B3FA83F2C2F11A06F34083F0200EC2F1CB
:10497000190300EBC31202EB8E0252F83C4FDCB17C
:10498000CCE90240C4F80CC00124056904FA03F61E
:104990003543056100EB8300436904FA0EF63343A7
:1049A00043614B68C2F800C0032B3FF66EAFEFF3D4
:1049B000108072B6FEE700BFEFF3108072B600BF42
:1049C000FEE70000B0B582B0044638F069F905464C
:1049D00038F0AEF940B1606C206420463FF076F9C3
:1049E000012002B0B0BD00BFE06A01213EF092FD9F
:1049F00030B1204635F0E2FE012002B0B0BD00BF6C
:104A00002046012140F086FC4FF6FF71E06AA16468
:104A100001213BF083FB20462721002240F092FF3A
:104A2000D4E9100181420BD06064019001AA2046B4
:104A3000232140F087FF0128D3D120463FF046F9DB
:104A4000284638F087F90428D6D120463DF09EFC50
:104A5000002137F02DF9012002B0B0BDC11C0028A3
:104A600018BF21F0030070472DE9F04F81B0914647
:104A700005464078527890422AD11C460F4669B3C9
:104A8000384609F0DFFC002C804647D168780126C3
:104A90000738C2B2032A2AD9002E3FD0B9F8040041
:104AA00080455BD100285FD0B9F8060000285BD0B4
:104AB00099F80110D9F81000CA1FD2B2032A80F069
:104AC000DF804BF29451C0F6050151F82210DCE072
:104AD000EFF3108072B600BFFEE700BFB5F80480A8
:104AE000B4FA84F14E090738C2B2032AD4D828692F
:104AF000D9F81010022A0BD84BF29453C0F60503D4
:104B000053F822203AF0A0FC002EC7D106E000BFE7
:104B10004FF480623AF098FC002EBFD1204609F095
:104B200091FC80451AD1D4F800A0B9F80400824560
:104B30001AD26168B9F80600814215D299F80100CD
:104B4000D9F81020C31FDBB2032B41D24BF294568D
:104B5000C0F6050656F8233040E000BFEFF31080A2
:104B600072B600BFFEE700BF0026CDF80080DFB1BF
:104B7000D7F800B0A888D7F804A0834510D2E888F9
:104B800082450DD268782969C21FD2B2032A39D270
:104B90004BF29453C0F6050353F8222038E000BFCF
:104BA000D7F80C8000244FE0A988E88871B128B3B9
:104BB0006A782969D31FDBB2032B3BD24BF29452A4
:104BC000C0F6050252F8232039E000BF002437E088
:104BD000A0F10A03B3FA83F35B099B02B9F80860FA
:104BE0001A4401FB0626BAF1000FBED00CF0D4FF28
:104BF0000AFB00F006EBD006B7E700BF0020002458
:104C00001EE000BFA0F10A02B2FA82F2520992023B
:104C10002B8911440AFB0314BBF1000F07D00CF0E1
:104C2000BBFF0BFB00F0D7F804A004EBD004D7F8CF
:104C30000C8009E00A3AB2FA82F2520992028C1808
:104C4000A0F101084FF0000A6878B5F808B0B9F88B
:104C500008900CF0A1FFC2450FDC009948430730D3
:104C6000C510A8EB0A00471C204631462A463AF0F8
:104C7000EBFB5C44013F4E44F6D101B0BDE8F08F40
:104C80000A39B1FA81F14909890246186DE7000035
:104C900036F066BC03303AF057BB000010B504464E
:104CA00040680BF0E5FC44F6BD430146C0F6000346
:104CB00020460422BDE8104038F086B970B50E4693
:104CC00009681446054600F1300079B13AF020FA3F
:104CD000306080B1016868680D690BF0C9FC02465C
:104CE000204629463AF0B0FB012070BD3AF0ECF9BD
:104CF00000283060EED1002070BD00002DE9F04F9B
:104D00008BB015466FF040429142044608D12968A5
:104D1000B1F1FF3F50DD08460BB0BDE8F08F00BF9A
:104D200001F0C040B0F1005FF5D121F0C0486FF054
:104D300060408045EFD020463DF0A0FB0546408D09
:104D4000400500F1DF802846002102223EF05EFA95
:104D50006FF04041884240F0D5802046002110226B
:104D60003EF054FA80462046002130223EF04EFAB2
:104D700081462046002134223EF048FA074620466C
:104D8000002111223EF042FA054620460021302241
:104D90003EF03CFA06462046002134223EF036FA28
:104DA00005EB0801BA0748BF4944C00718BF3144A2
:104DB00008460BB0BDE8F08F20463DF063FDA168CA
:104DC000814600291CBF0020486240F2010A2046AB
:104DD00000211022CEF2000A3EF018FA07462046C3
:104DE000002130223EF012FA0646204600213422ED
:104DF0003EF00CFA800720464FF000014FF0110200
:104E000048BF374407973EF001FA83462046002109
:104E100030223EF0FBF980462046002134223EF04D
:104E2000F5F903900020CDE908A008AA2046342116
:104E300040F088FD099F20463DF0F6F800280695D1
:104E4000CDE9048BCDE9019700F0B28040F2010872
:104E500006464FF0000BC0F20408554605E000BFBF
:104E60000BF1010B5E4500F0A480A068414600688C
:104E700050F82B9048463EF055FB0028F0D108F53D
:104E8000003148463EF04EFB50B948463DF0F6FA38
:104E900030B1002116223EF0B9F900041CD100BF48
:104EA000484600210A223EF0B1F910F0FC0F13D061
:104EB0004846002109223EF0A9F92F4688B909F198
:104EC000140009F0AFFA0799182247184846002144
:104ED0003EF09CF9074404E0D9F82000A169401A8B
:104EE000471C4846002119223EF090F9384482457B
:104EF000B6DC4846002119223EF088F900EB070A8B
:104F0000AEE700BF2846002110223EF07FF907904F
:104F10002846002130223EF079F9814628460021BA
:104F200034223EF073F982462846002111223EF0D9
:104F30006DF983462846002130223EF067F9064687
:104F40002846002134223EF061F9074605F114009D
:104F500009F068FA07995FEA8A72594448BF4944E0
:104F6000FA0718BF3144401A6FF07041B8F1805F02
:104F7000A8BFA1EB080848F21F5100FB08F0C5F2DA
:104F8000EB1150FB01F0411101EBD07620460021DE
:104F900018223EF03BF905462046002119223EF03A
:104FA00035F92844311A08460BB0BDE8F08F00BF30
:104FB0005546A1680798029A104411B1019A5242CD
:104FC0004A620399C907DDE9041218BF0A44514631
:104FD0005045C8BF0146AA4508BF0146069811447E
:104FE000016008460BB0BDE8F08F00002DE9F04FDE
:104FF00089B017466FF040429142044608D13968A3
:10500000B1F1FF3F50DD084609B0BDE8F08F00BFA9
:1050100001F0C040B0F1005FF5D121F0C0486FF061
:1050200060408045EFD020463DF028FA0546408D8F
:10503000000500F1FB802846002101223EF0E6F841
:105040006FF04041884240F0F1802046002112225A
:105050003EF0DCF880462046002130223EF0D6F8B3
:1050600081462046002134223EF0D0F807462046F3
:10507000002113223EF0CAF80546204600213022C6
:105080003EF0C4F806462046002134223EF0BEF829
:1050900005EB08017A0748BF4944000748BF31447F
:1050A000084609B0BDE8F08F20463DF0E3FBA1685B
:1050B000804600291CBF0020086240F201092046FA
:1050C00000211322CEF200094FF0000A3EF09EF8B4
:1050D00006462046002130223EF098F8054620463C
:1050E000002134223EF092F8000720464FF00001E4
:1050F0004FF0120248BF2E443EF088F80546204685
:10510000002130223EF082F88346204600213422DE
:105110003EF07CF8400706AA20464FF0340148BF15
:105120005D44CDE906A940F00DFC0698CDE9035693
:105130000590204635443CF077FF8246204600210A
:1051400027223EF063F8C0B2012840F0C580BAF1D2
:10515000000F00F03E810126C0F20406CDE90058A0
:1051600002974F464FF0000906F5003505E000BFF5
:1051700009F10109CA4500F01581A06831460068AF
:1051800050F8298040463EF0CDF90028F0D1404645
:1051900029463EF0C7F948B940463DF06FF928B1BD
:1051A000002116223EF032F800040ED140460021C4
:1051B0000A223EF02BF8C0B208281DD8012101FABE
:1051C00000F040F24911084216D0E069D8F81410F6
:1051D000401A00F1010B404600211A223EF016F859
:1051E00058448742C4DC404600211A223EF00EF8A3
:1051F00000EB0B07BCE700BF4046002108223EF051
:1052000005F840F2010B0028CEF2000BE3D108F1C3
:10521000140009F017F904991A2200EB010B40461B
:1052200000213DF0F3FF8344D5E700BF284600216D
:1052300012223DF0EBFF05902846002130223DF080
:10524000E5FF81462846002134223DF0DFFF8246FB
:105250002846002113223DF0D9FF8346284600212D
:1052600030223DF0D3FF06462846002134223DF08F
:10527000CDFF074605F1140009F0E4F805995FEA4F
:105280004A72594448BF49443A0748BF3144401A1A
:105290006FF07041B8F1805FA8BFA1EB080848F239
:1052A0001F5100FB08F0C5F2EB1150FB01F041115A
:1052B00001EBD076204600211A223DF0A7FF0546DB
:1052C000204600211B223DF0A1FF2844311A084648
:1052D00009B0BDE8F08F00BFBAF1000F79D0CDE979
:1052E000005840F20108C0F204080025CB4608F53A
:1052F0000039029703E000BF0135AA4560D0A068DD
:105300004146006850F8256030463EF00BF9002811
:10531000F2D1304649463EF005F948B930463DF0F5
:10532000ADF828B1002116223DF070FF00040DD128
:10533000304600210A223DF069FFC0B2072819D883
:10534000012101FA00F010F0930F13D0F0696169A8
:10535000401A471C304600211B223DF057FF3844BD
:105360008345C9DC304600211B223DF04FFF00EB96
:10537000070BC1E73046002108223DF047FF012717
:105380000028CEF20007E5D106F1140009F05AF822
:1053900003991B224718304600213DF037FF074490
:1053A000D8E700BF40F20109CEF200094F450EBF19
:1053B000484603983844029F059ADDE900580EE0FC
:1053C00040F20109CEF20009029FDDE90058CB4509
:1053D00002D1484602E000BF04985844059AA168EB
:1053E0002A4400291CBFC8F100030B6211469042F9
:1053F000C8BF0146484508BF11463960084609B094
:10540000BDE8F08F2DE9F04F91B0CDE909230B9065
:105410000C91C8784EF269714EF27572C0F60001B7
:10542000C0F6000210F0010008BF0A464EF24541E6
:1054300002924EF22542C0F60001C0F600020B4671
:1054400008BF13460893002808BF0A4643F2D50157
:10545000C0F60401069243F2E5020B46C0F60402D0
:1054600008BF1346002843F2DD001E9CC0F604006E
:10547000079343F2CD0308BF0A460146C0F6040372
:10548000059208BF1946D4F814E0039108BF0346FB
:10549000049304E01E9C5FEACC7000F0BF80BEF174
:1054A000000F00F0BB80D4E90102D4F81090AEF1F7
:1054B0000103032BA0EB020202D20024002341E0EF
:1054C0002EF0030609F13C070024002307E000BF8B
:1054D000F86903440434A64207F1600732D017F894
:1054E000280CC00714D157F82C0C034417F8100CE3
:1054F000C00714D057F8180C121A387AC00714D005
:105500003868121A97F82000C007E1D013E000BFF6
:1055100057F8300C121A17F8100CC007EAD157F8D8
:10552000140C0344387AC007EAD17868034497F82A
:105530002000C007CCD0B869121A0434A64207F183
:105540006007CCD11EF0030730D004EB440009EB18
:10555000C000067DF60705D100690344012F05D17F
:1055600024E000BFC068121A012F1FD0601C00EB9E
:10557000400009EBC000067DF60705D10069034431
:10558000022F05D112E000BFC068121A022F0DD001
:10559000A01C00EB400009EBC000077DFF0703D112
:1055A0000069034402E000BFC068121A0026002709
:1055B0004FF0000C0CE000BF09EB06000169521B24
:1055C0005B1AC5600137774506F11806BFF462AF74
:1055D00009EB0604207DC507F4D1CBB192FBF3FBA8
:1055E000D4F81080D4E901A508FB0BF1A942B8BF9B
:1055F0000D46AA45C8BF55468D42DDD040F001009A
:1056000020751E984FF0010CD0E9049ED4E700BF2E
:10561000EFF3108072B600BFFEE700BF0B980021C9
:10562000272200263DF0F2FD0C9982460A78E168B7
:10563000D31E022B134638BF02230229A8BF1346EC
:105640005A1E042A0ED86068DDE90958DFE802F026
:10565000040E161E260000BF1C994FF000090E1AFA
:1056600029E000BFDDE9095823E000BF1C994FF095
:105670000009081A00EBD07046101CE01C9A01319A
:10568000101A90FBF1F6B14615E000BF1C9A101AF3
:1056900090FBF1F909EBD97046100CE0022907DB09
:1056A0001C9A0139101A90FBF1F9002603E000BFA3
:1056B00000264FF000090C982946C7780B983CF05B
:1056C00023FC002818BF454502D111B0BDE8F08F7A
:1056D00004461D9809EB000B5FFA8AF0B1460128D9
:1056E0001C9808BFA0EB0909F80708BFB1460126BE
:1056F000C0F20606204631463DF014FF60B10C981A
:10570000C078400700F192810B9801358068018EC6
:105710008D42C0F29181D8E7608D00210A90204629
:105720007E223DF073FD000624D01E984169F1B140
:1057300000694A4200F13003032153F8307CA7424C
:105740001ED05718022F12D053F8186CA64219D049
:10575000012F0CD01E68A64216D047B19F69A74200
:1057600013D004315718032F03F16003E5D100264D
:1057700010E000BF608D20F4406060853BE000BF1A
:10578000033902E0023900E0013901EB410100EB8D
:10579000C100C6680C99608DC97820F44060C907C3
:1057A0004FF4006108BF4FF48061084404F114070E
:1057B000089960853846884786421CD020463EF0CE
:1057C00085FA04F114030FCB0DF1340C8CE80F00B3
:1057D000029A384631469047204631210DAA40F0C2
:1057E000B1F820463CF04AFE2A21224640F0AAF8B1
:1057F00020463EF06BFA608D0A99484010F4406FE5
:1058000002D020463EF0FAFA0C98407801281DD0CC
:10581000022829D11E9806990068013020F001065F
:1058200004F114008847301A059A00EBD076204620
:1058300000219047049A0746204600219047381AD5
:1058400000EBD070401000EB660112E01E98069944
:10585000066804F114008847049A07462046002190
:1058600090473844311A04E0059A204600219047B9
:1058700001460C98CDF804A0C078C0070ED05FFA9E
:105880008AF001280AD10E46089904F11400DA467C
:105890008847A9EB0009CDF8289003E0CDF82890BF
:1058A0000E46DA46204600216C223DF0AFFC07464A
:1058B000204600216D223DF0A9FC834620463DF0A4
:1058C00089FD814620463CF067FD07F0C0413B461C
:1058D000B1F1005F18D123F0C0416FF0604C614519
:1058E0005F4614D06FF07042B1F1805FA8BF511ACB
:1058F00048F21F5201FB09F1C5F2EB1251FB02F114
:105900004A1102EBD17302E06FF0604C5F4607F082
:10591000C041B1F1005FCDF824A013D127F0C04100
:1059200061450FD0B1F1805F6FF07042A8BF511A8E
:10593000484348F21F51C5F2EB1150FB01F04111F1
:1059400001EBD07722460C9852F814AFC178D2F808
:105950000490C807B346009209D0079A2046002158
:105960001E4690470C990A9AC97833468618C8078C
:1059700008D1079A204600219B4690470A995B462A
:1059800000EB010B1A981844A0EB0A0006441B9880
:105990003844A0EB090000EB0B0756EA070016D0CD
:1059A00020463EF093F904F114030FCB04F1140CDC
:1059B0003044324439443B448CE80F0020463EF0EA
:1059C00085F9204631463A4600233EF02BFA0C98E2
:1059D000DDF82890C1780126C807C0F2060609D074
:1059E0000198C0B2012805D1DDF824B0A9EB0B095C
:1059F00017E000BF009808998847079A824620461A
:105A000000219047039A0746204600219047DDF881
:105A100024B00BEB09015144CA190C9902EB00099F
:105A2000C978DDF804A048077FF56EAE012DFFF6BA
:105A30004CAE0B98013D8068006850F82540002C62
:105A40003FF443AE45457FF455AE3EE62DE9F041C7
:105A50000446007D00F00300022818BFBDE8F08175
:105A6000D4F80480B8F1000F26D00025002604E009
:105A7000013501600136B04512D02046314608F0AC
:105A80007FFE07462046294608F07AFE39688A7A62
:105A9000D207EDD0084635F063FD0136B045ECD1B4
:105AA00055B12046294608F0C3FE207D00F0FD00D8
:105AB0002075BDE8F08100BF204608F06BFE207D18
:105AC00000F0FD002075BDE8F08100000120704766
:105AD00070B582B0044635F02DF80546204635F005
