:020000040800F2
:1000000088EE00209D010008812B0008B927000818
:100010007D2B0008D5030008C5640008000000001F
:1000200000000000000000000000000071610008F6
:10003000E503000800000000852B0008756100083A
:10004000B7010008B7010008B7010008B7010008B0
:10005000B7010008B7010008B7010008B7010008A0
:10006000B7010008B7010008B7010008B701000890
:10007000B7010008B7010008B7010008D90300085C
:10008000B7010008B7010008B7010008B701000870
:10009000B7010008B7010008B7010008B701000860
:1000A000B7010008B7010008B7010008B701000850
:1000B0003D620008B7010008B7010008B701000859
:1000C000B7010008B7010008B7010008B701000830
:1000D000B7010008B7010008B7010008B701000820
:1000E000B7010008B7010008B7010008B701000810
:1000F000B7010008B7010008B7010008B701000800
:10010000B7010008B7010008B7010008B7010008EF
:10011000B7010008B7010008B7010008B7010008DF
:10012000B7010008B7010008B7010008B7010008CF
:10013000B70100080000000000000000B70100083F
:10014000B7010008B7010008B7010008B7010008AF
:10015000B7010008B7010008B7010008B70100089F
:10016000B7010008B7010008B7010008B70100088F
:10017000B7010008B70100080000000000000000FF
:10018000B7010008B7010008DFF80CD000F0BEF896
:10019000004800473D3B050888EE002006488047A0
:1001A00006480047FEE7FEE7FEE7FEE7FEE7FEE75C
:1001B000FEE7FEE7FEE7FEE7296200088901000886
:1001C0002DE9F05F0546002092469B46884606468C
:1001D000814640241BE0284641464746224600F01F
:1001E00084F853465A46C01A914110D31146184616
:1001F000224600F06BF82D1A67EB01084F462246A5
:100200000120002100F062F817EB00094E41201E8A
:10021000A4F10104DFDC484631462A464346BDE8E6
:10022000F09F2DE9F0410024061B254671F10006E0
:1002300005DA01240027D0EB070067EB0101161E49
:1002400073F1000605DA0027D2EB0702012567EB00
:100250000303FFF7B5FF86460E4617469C46AC42A1
:1002600004D00025D0EB050E65EB010624B100207B
:10027000D2EB000760EB030C704631463A4663460A
:10028000BDE8F08140EA01039B0703D009E008C9FB
:10029000121F08C0042AFAD203E011F8013B00F84B
:1002A000013B521EF9D27047D2B201E000F8012B97
:1002B000491EFBD270470022F6E710B513460A46E6
:1002C00004461946FFF7F0FF204610BD202A04DB44
:1002D000203A00FA02F1002070479140C2F1200359
:1002E00020FA03F3194390407047202A04DB203A98
:1002F00021FA02F00021704721FA02F3D040C2F146
:10030000200291400843194670470000064C074DF3
:1003100006E0E06840F0010394E8070098471034D5
:10032000AC42F6D3FFF734FF482A0A08682A0A08C5
:1003300070B58C1810F8015B15F0070301D110F8A7
:10034000013B2A1106D110F8012B03E010F8016BD4
:1003500001F8016B5B1EF9D12B0705D40023521E57
:100360000DD401F8013BFAE710F8013BCB1A921CBF
:1003700003E013F8015B01F8015B521EF9D5A142BD
:10038000D8D3002070BD000010B540F27034C2F226
:100390000004206818B10020206006F07FF8606833
:1003A000022824BF00206060A0681E2838BF10BD4E
:1003B0000020A060BDE8104006F052B840F2703056
:1003C000C2F2000090E80E000132013101330EC08C
:1003D00070470000FEE7000040F2AC40C2F20000AF
:1003E00000F036BC70470000EFF3108072B600BF1B
:1003F000FEE700002DE9F04F89B040F6000A40F218
:1004000058410290C4F2020AC2F200010F2040F2E9
:100410000C5708704FF00009AAF500604FF0100B60
:100420004FF03008C2F200070DF1230606AD04AC10
:10043000039002E0012000F09DFD9020079043F220
:100440001240C7F6560006900398102100228DF83E
:100450001490CDF8109000F087FE50461021002235
:1004600000F082FE3846314601224FF0FF338DF80E
:10047000238001F0DFFB3846294605224FF0FF3389
:1004800001F0D8FB50461021012200F06DFE012042
:1004900000F070FD50461021002200F065FE384645
:1004A000314601224FF0FF338DF823B001F0C2FB3B
:1004B0003846214605224FF0FF3301F0BFFA50467F
:1004C0001021012200F050FE9DF810001228B1D139
:1004D0009DF811003428ADD19DF812005628A9D1FD
:1004E0009DF813007828A5D19DF814009028A1D17B
:1004F00003981021002200F037FE20208DF818000C
:1005000050461021002200F02FFE40F20C573120FF
:10051000C2F200078DF823000DF1230138460122B5
:100520004FF0FF3301244FF0FF3501F083FB06A9A4
:1005300004AA38460123009501F0A8FC504610217A
:10054000012200F011FE40F2E026C2F200063078EF
:1005500010218DF818005046002200F005FEE12021
:100560008DF823000DF12301384601224FF0FF33AF
:1005700001F060FB06A904AA38460123009501F0AA
:1005800085FC50461021012200F0EEFD307810214C
:100590008DF818005046002200F0E6FDE2208DF8AC
:1005A00023000DF12301384601224FF0FF3301F003
:1005B00041FB06A904AA38460123009501F066FC18
:1005C00050461021012200F0CFFD5046102100229C
:1005D00000F0CAFD30208DF8180006A93846012227
:1005E0004FF0FF3301F026FB44F2B571C0F606016F
:1005F000384605224FF0FF3301F01CFB5046102116
:10060000012200F0B1FD50461021002200F0ACFDA7
:100610002A208DF8180006A9384601224FF0FF3332
:1006200001F008FB44F2B071C0F60601384605221D
:100630004FF0FF3301F0FEFA50461021012200F086
:1006400093FD02981021012812BF8DF818403F2019
:100650008DF818005046002200F086FD40F20C5440
:100660002120C2F200048DF823000DF12301204661
:1006700001224FF0FF3301F0DDFA06A904AA20465B
:100680000123009501F002FC50461021012200F0E8
:100690006BFD01208DF81800504610210022002526
:1006A00000F062FD40F20C562220C2F200068DF8E6
:1006B00023000DF12301304601224FF0FF334FF0AC
:1006C000FF3401F0B7FA06A904AA304601230094CA
:1006D00001F0DCFB50461021012200F045FD1A20FC
:1006E0008DF8180050461021002200F03DFD242016
:1006F0008DF823000DF12301304601224FF0FF3326
:1007000001F098FA06A904AA30460123009401F0EA
:10071000BDFB50461021012200F026FD504610215D
:1007200000228DF8185000F01FFD25208DF82300C1
:100730000DF12301304601224FF0FF3301F07AFA28
:1007400006A904AA30460123009401F09FFB5046FD
:100750001021012200F008FD0F208DF818005046EE
:100760001021002200F000FD26208DF823000DF15D
:100770002301304601224FF0FF3301F05BFA06A956
:1007800004AA30460123009401F080FB504610215A
:10079000012200F0E9FC40F25840C2F2000000786B
:1007A00010218DF818005046002200F0DDFC2020BA
:1007B0008DF823000DF12301304601224FF0FF3365
:1007C00001F038FA06A904AA30460123009401F08A
:1007D0005DFB50461021012200F0C6FC0398102159
:1007E000012200F0C1FC09B0BDE8F08F70B581B006
:1007F0000022009290F83C20012A03D102210846F1
:1008000001B070BDD1F800E00122BEF10A0F80F8FE
:100810003C200BD31FFA8EF25200066812FA8EF2B9
:10082000A2F11E0306F10C0205E000BF06680EEB04
:100830004E0306F110024FF0070C15680CFA03F492
:10084000A54315608D68146805FA03F3234313600C
:100850004968062906D801EB8101053906F1340201
:100860000AE000BF0C2901EB810187BF413906F185
:100870002C02233906F130021F2314688B4024EA2E
:10088000030342F2043C1360C4F2010C1FFA8EF31E
:10089000146803FA01F1ACF5417321439E421160E3
:1008A0003ED1BEF1120F07D1DCF8001041F48001F7
:1008B000CCF8001034E000BF2EF0010110292FD138
:1008C000DCF80010BEF1100F41F40001CCF800106C
:1008D00026D140F2E421C2F2000109684DF683629C
:1008E000C4F21B32A1FB0212910C01EB8101490001
:1008F00000910099A1B1009901390091009979B155
:10090000009901390091009951B100990139009184
:10091000009929B100990139009100990029EAD183
:10092000002180F83C10084601B070BD0068C06C22
:1009300070470000002804BF0120704710B504462E
:10094000006C00283ED0206CC00645D4206C41F2DB
:1009500002118843023042F204312064C4F20101E2
:10096000086820F4403008600A6894E809101A43C7
:10097000D4F810E00A604168012321F480714160DD
:100980004168C0F6007341EA0E214160416821F0E0
:1009900040714160416841EA0C014160816821F485
:1009A00000618160E168826811438160A16A8268A8
:1009B000994222F070628260826813D122F0405125
:1009C00019E000BF204600F065F80020606484F85C
:1009D0003C00206CC006B9D50120002184F83C10F1
:1009E00010BD00BF11438160816821F040518160DA
:1009F000E16A826811438160816821F002018160AF
:100A00008168227E94F8203041EA42018160416889
:100A100083B141F40061416041684EF2000221F46B
:100A200060414160616ACFF6FF72436802EB413179
:100A3000194301E021F400614160C16A40F2000CF9
:100A400021F47001C162E2696169CFF6F07CC36A8A
:100A50000CEB02521A43C262826822F40072826076
:100A600094F83020836843EA42228260826822F44C
:100A700080628260826842EA812181600020606435
:100A8000216C012262F301012164002184F83C10F1
:100A900010BD000080B586B042F200010068C4F2CB
:100AA0000101002288420592049201D006B080BD67
:100AB00043F630000092C4F20200436943F48073AD
:100AC0004361436903F480730093009B00920368C1
:100AD00043F001030360006800F0010000900098FB
:100AE0000320CDE9010001F5604001A9039200F067
:100AF00055FA06B080BD000010B581B0002100910C
:100B000090F83C10012903D1022001B010BD00BFB4
:100B10000468012180F83C10214651F8083FDB07AA
:100B200029D10B684DF6836243F001030B6040F25C
:100B3000E423C2F200031B68C4F21B32A3FB0223AE
:100B40009A0C02EB42020092009AA2B1009A013A7A
:100B50000092009A7AB1009A013A0092009A52B13A
:100B6000009A013A0092009A2AB1009A013A009242
:100B7000009A002AEAD10A68036CD2070AD143F02E
:100B80001001016400F1440101200A68104308606B
:100B900056E000BF40F2017223EA020202F58072C1
:100BA00002646268520504D5026C012363F30D32BE
:100BB0000264026C4FF0000E0023D20444BF426C6A
:100BC00022F0060342F2043C436480F83CE06FF0FC
:100BD0002200C4F2010C2060DCF80000C0060DD039
:100BE000ACF5417084422BD14FF60450CFF6FF7024
:100BF0005CF8000010F0405F22D125E042F20000D6
:100C0000C4F20100844217D042F20020C4F2010075
:100C100084420DD042F20010C4F2010084420FD190
:100C2000DCF80000C00607D0ACF58270844207D122
:100C3000DCF80000C00603D4086810F0405F03D061
:100C4000002001B010BD00BF4FF080409DE70000C4
:100C5000F0B581B004460020009040F2E420C2F2DA
:100C600000000268D4E9166048F2B513376808211D
:100C7000C1F64E3381403942A2FB03250CD02268D5
:100C800013685B0708D5136823F004031360B16091
:100C9000616D41F00101616501218140394208D057
:100CA00022685269120604D5B160616D41F00201FB
:100CB000616504218140394208D022681268920798
:100CC00004D5B160616D41F004016165102181407E
:100CD000394217D020680268120713D5B160026844
:100CE0000168520308D4C90508D4016821F008013D
:100CF0000160216C21B905E008033FD4216C09B1E2
:100D000020468847E16D202000FA01F23A4241D0A6
:100D100020680368DB063DD5B26094F83530026880
:100D2000052B1BD122F016020260426922F08002DC
:100D30004261226C0AB9A26C1AB1026822F0080260
:100D400002603F208840B060012084F83500216DAA
:100D50000020002984F8340052D157E00168520382
:100D600010D4C90512D4016821F0100101600120DE
:100D700084F83500002084F8340007E0A16C0029D5
:100D8000BED1BFE7080301D4616C00E0E16B09B19B
:100D900020468847606DC8B3606DC0072ED005201F
:100DA00084F835002068A90A026822F00102026076
:100DB000009A01328A4200921AD80268D20717D0EC
:100DC000009A01328A42009212D80268D2070FD0EC
:100DD000009A01328A4200920AD80268D20707D0EC
:100DE000009A01328A42009202D80268D207DFD10B
:100DF000012084F83500002084F83400E16C29B12A
:100E0000204601B0BDE8F040084700BF01B0F0BD8A
:100E10002DE9F041044600F0ADF9002C4ED0054616
:100E2000022084F835000020216884F83400086826
:100E300020F0010008600868C00708D000F09AF9A7
:100E4000401B05286CD821680868C007F6D10868DF
:100E500048F23F02CFF21002D4E90135024004F11A
:100E60000C0E9EE8C1511A432A43104330433843C5
:100E700040EA0800626A40EA0C00042A40EA0E03D5
:100E800020D1D4E90A5E206B4EEA030210430860C9
:100E90004869BEF1000F20F0030040EA050040F071
:100EA000040C15D0B8F5005F42D0B8F1000F51D155
:100EB000022D52D0012D47D055B94EE00120BDE89A
:100EC000F08100BF0B60486920F0070040EA020C87
:100ED0006FF00F004AF6AB2250FA81F0CAF6AA2250
:100EE000A0FB02231A0944F6B403C0F606039A5C79
:100EF00040F2FF335F284FF03F00C1F814C021EAF1
:100F0000030100FA02F088BF0431C4E916128860B8
:100F1000002301220020636584F83520BDE8F081BC
:100F2000032220230320636584F83520BDE8F08187
:100F3000032DCDD8012240230120DFE805F0030E68
:100F4000030500BFE7E700BFAEF1C070B0FA80F064
:100F5000400904E0032D04D3BAD1CEF30060002889
:100F6000B6D0012240230120636584F83520BDE816
:100F7000F0810000B0B5044600F0FCF8054640F2F0
:100F80000000C2F200000078611C18BF044400BFDA
:100F900000F0F0F8401BA042FAD3B0BD2DE9F04FAD
:100FA00082B000F13E4241F6004502F1FF77C4F203
:100FB000020508224FEAB726A84208BF0722072EDB
:100FC00038BF4FEAB7224FF0010E002400274FF040
:100FD0000008009208E000BF023708F10108202F46
:100FE00004F1040400F0B4800E680EFA08F916EA61
:100FF000090FF1D0D1F804A00AF0030BABF1010600
:10100000012E19D80322866802FA07FECA6826EA6A
:101010000E06BA40324382604268CAF3001522EAE3
:10102000090205FA08F54FEA480C6FEA0E064FF080
:10103000010E2A4342600BE00322BA40D643BBF1C3
:10104000030FBC4604D1BC464FF0030B24E000BFA5
:10105000C2688D68324005FA0CF52A43BBF1020FD5
:10106000C26019D16FF0030202EA5802024404F090
:101070001C030F25D2F820E005FA03FA0D692EEAC9
:101080000A0E05FA03F343EA0E031362D1F804A033
:101090004FF0010E0AF0030B02680BFA0CF332401A
:1010A0001A431AF4403F026096D0002243F64403EC
:1010B0000192C4F202031A6843F6004C42F48042E3
:1010C0001A601A68C4F2010C02F480420192019A7B
:1010D00028F003024FF6084A6244CFF6FF7A52F82E
:1010E0000A3004F00C060F25B540AB43009D05FA0D
:1010F00006F6334342F80A30DCF800204B6842EA37
:101100000906DD0358BF22EA0906CCF80060DCF8C6
:1011100004209D0342EA090658BF22EA0906CCF8DA
:101120000460DCF80820DD0242EA090643F60C45BB
:1011300058BF22EA0906CCF80860C4F201052A6803
:101140009B0242EA090658BF22EA09062E6043E7DD
:1011500002B0BDE8F08F0000426902EA010391434A
:1011600041EA034181617047002A08BF0904816197
:10117000704700004DF68060C2F2000000687047C2
:1011800040F200004DF68061C2F20000C2F20001A0
:1011900000780A68104408607047000080B543F684
:1011A0000040C4F20200016841F40071016001686E
:1011B00041F480610160016841F4807101600320A5
:1011C00000F084F8002000F005F800F027F8002077
:1011D00080BD000070B540F20006C2F2000640F289
:1011E000E4213278C2F200014FF47A730968B3FB4C
:1011F000F2F20446B1FBF2F1084600F0D3FF0F2CE7
:101200004FF0010508D838B94FF0FF3021460022D1
:10121000002500F02FF87460284670BD82B00020D1
:1012200043F640010190C4F202014A6842F4804250
:101230004A604A6802F480420192019A009008686C
:1012400040F080500860086800F0805000900098DE
:1012500002B07047002848BF704700F01F0101220C
:1012600002FA01F14EF200124009CEF2000242F8F9
:101270002010704710B54EF60C5CCEF2000CDCF876
:101280000030C3F3022E8EF00704042C28BF042480
:10129000BEF103034FF0FF3E0EFA04F438BF002303
:1012A000A14399400EFA03F39A43114300F00F0251
:1012B000043A624409010C3200F16043B0F1FF3F8F
:1012C000C8BF03F56442117010BD00004EF60C510A
:1012D000CEF200010A684FF6FF031A4060F30A22BB
:1012E00042F0806040F0FD70086070472DE9F041E9
:1012F000002800F08B8043F60808C4F20208044678
:10130000D8F8F8030D4600F00700884207D288F8A5
:10131000F853D8F8F80300F00700A84276D1206807
:10132000810717D5410705D5D8F8001041F4E051E1
:10133000C8F80010010705D5D8F8001041F4604145
:10134000C8F80010D8F80010A26821F0F00111438D
:10135000C8F80010C0073FD1D8F8F80300F0070024
:10136000A84207D988F8F853D8F8F80300F0070026
:10137000A8424BD12068410707D5D8F80010E26891
:1013800021F4E0511143C8F80010000708D5D8F83F
:101390000000216920F4604040EAC100C8F8000064
:1013A00000F054F8D8F8001041F68C72C1F3031124
:1013B000C0F60602515C40F2E42220FA01F140F24C
:1013C0000400C2F200000068C2F200021160FFF7E0
:1013D00001FF0020BDE8F0816068811E022907D26C
:1013E00058F8081C89015CBF0120BDE8F08111E0BC
:1013F000012807D158F8081C89035CBF0120BDE80B
:10140000F08107E058F8081C890703D40120BDE8E3
:10141000F08100BFD8F8001021F003010843C8F89C
:101420000000FFF7A7FE064641F28837D8F8000013
:10143000616800F00C00B0EB810F8DD0FFF79AFED1
:10144000801BB842F2D90320BDE8F08110B543F605
:101450000404C4F20204606800F00C0142F200408F
:101460000829C0F2F40007D0042918BF10BD41F2CA
:101470000020C0F27A0010BD216801F03F0221680F
:1014800023684902C3F3881106D4A1FB000100239D
:10149000FEF796FE07E000BF41F20020C0F27A009E
:1014A0004843B0FBF2F021680222C1F3014102EB94
:1014B0004101B0FBF1F010BD2DE9F04182B00028F0
:1014C0006AD00446007843F60006C007C4F202065C
:1014D0000BD0B06800F00C00042840F0A180306808
:1014E000800302D56068002856D0207880071AD57E
:1014F000B06810F00C0F09D0B06800F00C0008289C
:1015000040F0A8807068400200F1A4803068800735
:1015100002D5E06801283FD13068216920F0F80049
:1015200040EAC10030602078000739D420784007B5
:101530004ED4A5695DB3B06800F00C00082840F0F7
:10154000BD80012D28D07068E16900F480028A42D4
:1015500022D1216A00F03F028A421DD147F6C071B4
:10156000626A0140B1EB821F16D1A26A0023CFF656
:10157000FF7303EBC23200F440316FF30F0291426C
:101580000AD1E16A00F07060B0EB016F04D1002075
:1015900002B0BDE8F08100BF012002B0BDE8F081DB
:1015A0006069002840F20000C4F2472076D0012193
:1015B000C0F8801EFFF7DEFD054600BF706F800794
:1015C000B4D4FFF7D7FD401B0228F7D9DDE000BFF8
:1015D000306C10F080580AD100200190306C40F03F
:1015E00080503064306C00F080500190019847F2D8
:1015F0000007C4F200073868C00541D4386840F4D9
:1016000080703860FFF7B6FD054600BF3868C0053A
:1016100036D4FFF7AFFD401B0228F7D9B5E000BF75
:10162000B06800F00C00082803D1706840023FF554
:1016300056AF6068B0F5803F07D0B0F5A02F40F0FE
:101640008D80306840F480203060306840F4803015
:1016500030608DE0E068002852D00020C4F24720BE
:1016600001210160FFF786FD054600BF3068800755
:101670003FF552AFFFF77EFD401B0228F6D984E00C
:10168000A068012805D005284ED1306F40F0040035
:101690003067306F40F0010030674FE00021C0F844
:1016A000801EFFF767FD0546706F80077FF53EAF30
:1016B000FFF760FD401B0228F6D966E00027C4F260
:1016C000472700203866FFF755FD022D05460BD150
:1016D000306880015ED5FFF74DFD401B02284FF0BA
:1016E0000300F5D954E700BF306880017FF54FAFA4
:1016F000FFF740FD401B02284FF00300F4D947E7F5
:101700000020C4F2472000210160FFF733FD0546A9
:10171000306880077FF507AFFFF72CFD401B0228DC
:101720004FF00300F4D933E7316F002821F00101B5
:101730003167316F21F0040131674DD0FFF71AFD99
:10174000054641F2883700BF306F800756D4FFF757
:1017500011FD401BB842F7D917E000BF31680028DF
:1017600021F480313160316821F4802131604FD023
:10177000FFF700FD054600BF306880033FF5B5AEBA
:10178000FFF7F8FC401B6428F6D9032002B0BDE83F
:10179000F08100BF04F11C052FCD08430021CFF6D6
:1017A000FF7140EA821001EBC3316FF30F0140EA91
:1017B00005600843706001203866FFF7DBFC0446D3
:1017C000306880013FF5E3AEFFF7D4FC001B022830
:1017D0004FF00300F4D9DBE6FFF7CCFC054641F2FD
:1017E000883700BF306F800708D5FFF7C3FC401B68
:1017F000B8424FF00300F5D9CAE600BFB8F1000FB8
:101800007FF497AE306C20F08050306491E600BFDA
:10181000FFF7B0FC054600BF306880037FF565AE7A
:10182000FFF7A8FC401B64284FF00300F4D9AFE693
:1018300070B538B10446406A30B10020206104F12F
:10184000140007E0012070BD6068B0F5827F03D00E
:1018500004F11C00002101600026A66294F85100EA
:1018600020B9204684F8506000F03CF8022084F84B
:10187000510094E80F0001F48271056802F40442FB
:1018800025F040050560114403F40062236911440A
:1018900003F002026369114403F00102A369E569E0
:1018A000114403F40072114405F03802256A114412
:1018B00005F08002A56A114305F40052114301604E
:1018C000626A042101EA134102F0100211444160EE
:1018D000C16921F40061C1610120666584F851008D
:1018E000304670BD2DE9F04F87B00446006843F6DE
:1018F0000001C4F2000100268842CDE90566CDE969
:101900000366029632D043F20001C4F2010188421C
:1019100040F09080002043F630010190C4F20201B3
:101920004A6942F480524A614A6902F48052019243
:10193000019A01900A6842F001020A60096801F008
:10194000010101910199E02102910221CDE90310E9
:1019500003200590052006900020C4F2020002A991
:10196000FFF71CFB07B0BDE8F08F00BF43F6300760
:101970000196C4F20207386940F2000B40F480403F
:1019800038613869C4F2020B00F48040019001987C
:101990000196386802AD40F00400386038684FF0B6
:1019A000020800F0040001900198019638684FF099
:1019B000030940F00200386038684FF0050A00F073
:1019C0000200019001980C2002900BF5006029465E
:1019D000CDE90386CDF81490CDF818A0FFF7DEFA14
:1019E0004FF48060CDE9020804A880E840060BF5BA
:1019F00080602946FFF7D2FA40F2AC4507F5215046
:101A0000C2F20005C5E900064FF48060C5E904068E
:101A10004FF480304021C5E908062846C5E9021682
:101A2000C5E90666FFF7F4F9002818BFFEF7DCFCED
:101A3000A564AC6307B0BDE8F08F00002DE9F0436A
:101A400081B0044640681D461746B0F5827F0E46B9
:101A500002D1A068002867D094F85000012803D173
:101A6000022001B0BDE8F0834FF0010984F85090E6
:101A7000FFF780FB94F85110012953D18046002EC6
:101A80004FF0010018BF002F00F0C7800420002194
:101A900084F851006165A663A787E7872163A18663
:101AA000E186A2682068B2F5004F2164616449D0E4
:101AB0000168490651D5E168002955D0E18F002918
:101AC00000F08480691C1AD08168C90706D1FFF72D
:101AD00051FBA0EB0800A84208D3A7E0C068A16BA7
:101AE00021F8020BA163E08F0138E087E08F002826
:101AF0006CD020688168C907E9D0EFE72068816869
:101B0000C90703D1FFF736FB08E000BFC068A16B2F
:101B100021F8020BA163E08F0138E087E08F0028F5
:101B2000ECD153E0022078E0042084F851002046F4
:101B3000314632463B46009500F0A8F901B0BDE8B9
:101B4000F08300BF016821F040010160016821F4C9
:101B50008041016001684906ADD4016841F040014F
:101B60000160E1680029A9D1E18F79B3691C1AD01D
:101B70008168C90706D1FFF7FDFAA0EB0800A8426B
:101B800009D355E0007BA16B0870A06B0130A06306
:101B9000E08F0138E087E08FC0B120688168C90715
:101BA000E9D0EFE720688168C90703D1FFF7E2FABF
:101BB00009E000BF007BA16B0870A06B0130A0633F
:101BC000E08F0138E087E08F0028EBD16068B0F546
:101BD000827F0ED1A068B0F5004F02D0B0F5806FC3
:101BE0000AD12168B0F5806F0A6822F040020A60CD
:101BF00002D12046012101E0204680212A464346A9
:101C000000F0C2FF28B1606D40F020006065202028
:101C10006065606D002818BF0120002184F8519094
:101C200084F8501001B0BDE8F08300BF0320F4E752
:101C30000320F2E72DE9F04383B0044690F850000A
:101C4000012803D1022003B0BDE8F0834FF0010961
:101C50001D4616460F4684F85090FFF78BFA94F80D
:101C60005110012972D18046002F4FF0010018BF9A
:101C7000002E00F0D6800320002184F85100616519
:101C80002763A686E686A163A187E187A068216411
:101C9000B0F5004F2068616407D1016821F0400170
:101CA0000160016841F4804101600168490603D484
:101CB000016841F0400101606168731EE268B1FA99
:101CC00081F1B3FA83F349095B09B2F5006F41EA88
:101CD00003013DD131B137F8021BC1602763E18EAA
:101CE0000139E186E18E00296CD0691C1BD000BF50
:101CF0008168890706D4FFF73DFAA0EB0800A842E7
:101D000008D3C1E0216B31F8022BC2602163E08E61
:101D10000138E086E08E002854D020688168890769
:101D2000E9D5EFE720688168890703D4FFF722FA35
:101D300008E000BF216B31F8022BC2602163E08E06
:101D40000138E086E08E0028ECD13BE0022068E01C
:101D500039B139780173206B01302063E08E01388E
:101D6000E086E08E70B3681C0BD11BE0216B097814
:101D70000173206B01302063E08E0138E086E08E35
:101D800000B3206881688907F0D4FFF7F3F9A0EB6E
:101D90000800A842F3D3032043E000BFFFF7EAF9AD
:101DA000E08E78B1206881688907F7D5216B0978C2
:101DB0000173206B01302063E08E0138E086E08EF5
:101DC0000028EFD140F2E420C2F20000006849F69A
:101DD0008171C1F25E61A0FB0101480D4FF47A717F
:101DE000484302906068B0F5827F23D1204680216D
:101DF0002A46434600F0C8FE28B1606D40F020003E
:101E0000606520206065A06838B9002001902068D6
:101E1000C1680191806801900198606D002818BF29
:101E20000120002184F8519084F8501003B0BDE8DF
:101E3000F08300BF02980028E5D002980138029094
:101E4000206880680006DED502980028DBD0029862
:101E500001380290206880680006D4D502980028D6
:101E6000D1D0029801380290206880680006CAD557
:101E700002980028C7D00298013802902068806834
:101E80000006D7D4BFE700BF0320CAE72DE9F0431F
:101E900083B0044690F85000012803D1022003B01B
:101EA000BDE8F08301201E4615460F4684F8500019
:101EB000FFF760F994F851108146012940F09880AD
:101EC000002F4FF0010018BF002D00F09E80002E63
:101ED00000F09B8094F85100002104281CBF0520CD
:101EE00084F851006165A563E687A6872763E686C7
:101EF0002068A686216461640168490603D40168EC
:101F000041F0400101606168731EE268B1FA81F13D
:101F1000B3FA83F3DDF8288049095B09B2F5006F55
:101F200041EA03017AD131B137F8021BC16027635E
:101F3000E08E0138E086012518F1010031D101E081
:101F4000FFF718F9E08E18B9E08F002800F0D08074
:101F50002068816889070CD5E18E51B1012D08D127
:101F6000216B002531F8022BC2602163E18E01391B
:101F7000E1868168C907E3D0E18F0029E0D0C0681D
:101F8000A16B012521F8020BA163E08F0138E087E6
:101F9000D6E700BFFFF7EEF8A0EB0900404580F060
:101FA000FD80E08E18B9E08F002800F0A180206845
:101FB000816889070CD5E18E51B1012D08D1216BC3
:101FC000002531F8022BC2602163E18E0139E186E0
:101FD0008168C907DED0E18F0029DBD0C068A16B22
:101FE000012521F8020BA163E08F0138E087D1E7DA
:101FF0006068B0F5827F07D1A06800284FF002002A
:1020000008BF042901D15BE70220012184F85110A7
:10201000002184F8501003B0BDE8F08339B139785D
:102020000173206B01302063E08E0138E0860125CA
:1020300018F1010033D101E0FFF79CF8E08E10B9F0
:10204000E08F002854D02068816889070ED5E18E82
:1020500061B1012D0AD1216B002509780173216B33
:10206000206801312163E18E0139E1868168C90769
:10207000E2D0E18F0029DFD0C068A16B0125087094
:10208000A06B0130A063E08F0138E087D4E700BF88
:10209000FFF770F8A0EB0900404580F08180E08EEA
:1020A00008B9E08F20B32068816889070ED5E18EDA
:1020B00061B1012D0AD1216B002509780173216BD3
:1020C000206801312163E18E0139E1868168C90709
:1020D000DED0E18F0029DBD0C068A16B012508703C
:1020E000A06B0130A063E08F0138E087D0E700BF2C
:1020F00040F2E420C2F20000006849F68171C1F2AA
:102100005E61A0FB0101480D4FF47A7148430290D3
:102110006068B0F5827F0FD12046802142464B4651
:1021200000F032FD60B3606D40F02000606520205B
:102130006065012069E700BF029808B30298013882
:1021400002902068806800061AD50298C0B10298F3
:102150000138029020688068000611D5029878B195
:1021600002980138029020688068000608D502981D
:1021700030B1029801380290206880680006DBD4F4
:10218000A06800284FF000007FF43FAF0190216865
:10219000CA68019289680191019936E7032034E702
:1021A000032032E7411E0020B0EB116F1CBF01205D
:1021B00070474EF21002CEF2000251604EF62351EB
:1021C000CEF20001F0230B70072190601160704780
:1021D000704700007047000010B590F83C20012ABD
:1021E0004FF0020251D080F83D200268D2F804E09E
:1021F000D2F808C00C682EF07003234341F2FF743C
:10220000C4F20004A24253600EDC40F2FF73C4F239
:1022100000039A4216DCB2F1804F2BD040F200430B
:10222000C4F2000324E000BF40F2FF33C4F2010314
:102230009A4213DC41F60003C4F200039A4219D01B
:10224000002313E040F60003C4F200039A4211D0C9
:1022500040F60043C4F200030AE000BF44F200036A
:10226000C4F201039A4205D040F20043C4F20103D4
:102270009A4204D149682CF08003194391600121EE
:10228000002280F83D1080F83C20104610BD000070
:10229000002804BF0120704710B5044690F83D00A7
:1022A00028B9002084F83C00204600F01FF80220E6
:1022B00084F83D002068211D03F0C6FF012084F84A
:1022C000460084F83E0084F83F0084F8400084F81B
:1022D000410084F8420084F8430084F8440084F804
:1022E000450084F83D00002010BD000080B584B09A
:1022F0000068B0F1804F1BD040F20041C4F20001F1
:1023000088422FD00021C4F20101884239D1002037
:10231000039043F64000C4F20200416841F001011D
:102320004160406800F001000390039804B080BD54
:102330000020029043F64000C4F20200016800222F
:1023400041F0010101600068072100F001000290E6
:1023500002981C20FEF78EFF1C2004B0BDE88040D0
:10236000FEF778BF0020019043F64000C4F202005F
:10237000016841F002010160006800F00200019074
:10238000019804B080BD000090F83D1001291CBFE9
:1023900001207047022180F83D10006841F2FF7271
:1023A000C168C4F20002904241F00101C1600DDC3D
:1023B00040F2FF71C4F20001884215DCB0F1804F99
:1023C0002AD040F20041C4F2000123E040F2FF3184
:1023D000C4F20101884213DC41F60001C4F200019D
:1023E000884219D0002113E040F60001C4F2000138
:1023F000884211D040F60041C4F200010AE000BF5B
:1024000044F20001C4F20101884205D040F20041CB
:10241000C4F20101884206D1816801F00701062952
:1024200004BF00207047016841F0010101600020F5
:102430007047000080B590F83C20012A4FF002025E
:1024400000F0C28080F83D20D0F800C04FF67772CF
:10245000DCF8083023EA0202CCF808200B684F2B86
:1024600028DC1F2B44DD202B45D0302B43D0402BC4
:1024700040F0AC80D1F804E0C968DCF82030DCF82A
:10248000202022F00102CCF82020DCF8182022F0D5
:10249000F00242EA011123F00A0242EA0E02CCF8ED
:1024A0001810CCF82020DCF8081041F0470121F08A
:1024B000300180E06F2B27DDB3F5005F48D0B3F526
:1024C000805F7AD0702B40F08180D1E901E3C96848
:1024D000DCF8082043EA0E0322F47F4243EA01219C
:1024E0001143CCF80810DCF8081041F0770162E0E5
:1024F0000BB1102B6AD1DCF8081021F070011943E0
:1025000041F0070157E000BF502B35D0602B5DD163
:10251000D1F804E0C968DCF8203023F01003CCF8CF
:102520002030DCF81830DCF8202023F4704322F04F
:10253000A00243EA013142EA0E12CCF81810CCF89E
:102540002020DCF8081041F0670121F0100132E092
:10255000D1E901E3C968DCF8082043EA0E0322F45C
:102560007F4243EA01211143CCF80810DCF808103F
:1025700041F480411FE000BFD1F804E0C968DCF8F5
:102580002030DCF8202022F00102CCF82020DCF8FA
:10259000182022F0F00242EA011123F00A0242EA76
:1025A0000E02CCF81810CCF82020DCF8081041F00E
:1025B000570121F02001CCF808100022012180F8F9
:1025C0003D10002180F83C10104680BD0122F5E747
:1025D0007047000010B5016804460869800744BFD1
:1025E000C8685FEA807039D40869400744BFC8688A
:1025F0005FEA40703ED40869000744BFC8685FEADC
:10260000007045D40869C00644BFC8685FEAC0606E
:102610004AD40869C0071CBFC8685FEAC07051D1BE
:102620000869000644BFC8685FEA006052D40869C0
:10263000400644BFC8685FEA406053D4086980061A
:1026400046BFC8685FEA806010BD6FF02002204678
:102650000A61BDE81040FFF7BDBD00BF6FF002008A
:102660000861012020778869800743D02046FFF762
:10267000AFFF45E06FF00400086102202077886911
:1026800010F4407F40D02046FFF7A2FF42E000BF99
:102690006FF00800086104202077C86980073DD0EA
:1026A0002046FFF795FF3FE06FF01000086108201B
:1026B0002077C86910F4407F3AD02046FFF788FFA2
:1026C0003CE000BF6FF001000861204600F03EF8DA
:1026D0002168A5E76FF0800008612046FFF778FDCC
:1026E0002168A4E76FF040000861204600F062F81E
:1026F0002168A3E7204600F025F8204600F024F8E2
:102700002168002020776FE7204600F01BF8204664
:1027100000F01AF82168002020776CE7204600F0CE
:1027200011F8204600F010F821680020207769E7B2
:10273000204600F007F8204600F006F82168002047
:10274000207766E770470000704700000068B0F12E
:10275000804F08BFFDF732BE70470000B0B5044699
:1027600090F83C0001284FF0020008BFB0BD0125E1
:1027700084F83C5084F83D00206803F003FE0028F4
:102780004FF0010006D0002184F83D5084F83C1041
:10279000B0BD00BF2068C16821F04001C160C168C0
:1027A00021F48041C1600020002184F83D5084F86C
:1027B0003C10B0BD70470000FEE70000B0B584B02B
:1027C00040F26440C2F2000042F2000C4FF040536D
:1027D0004FF0C0610024C4F2010C4FF48032012597
:1027E000C0E90A1302210394057680F82040C161F4
:1027F00080F83040C0E900C2C0E90244C0E9045595
:10280000FEF798F8002818BFFDF7EEFD40F264408F
:10281000C2F200006946CDE900450294FDF7E6FFEB
:10282000002818BFFDF7E0FD012000900220019074
:1028300040F26440C2F200006946FDF7D7FF00286D
:1028400018BFFDF7D1FD04B0B0BD000080B582B067
:102850000020019043F63000C4F20200016800221B
:1028600041F4001101600068002100F400100190A3
:1028700001980F20FEF7FEFC0F2002B0BDE880405B
:10288000FEF7E8BC2DE9F04F87B0002443F6300096
:1028900006940194C4F20200016840F2000941F07C
:1028A000040101600168C4F2020901F00401019110
:1028B000019901940168002241F0800101600168E2
:1028C00001F08001019101990194016841F0010139
:1028D0000160016801F00101019101990194016811
:1028E00041F00201016000684FF48C7100F00200B9
:1028F000019001984846FEF737FC09F50065284627
:10290000102100224FF0100AFEF72EFC09F5806816
:102910004046012100220126FEF726FC082002AFD6
:10292000CDE9020648463946CDE90444FEF736FBB8
:102930004FF48870CDE902064FF0030B4846394644
:102940000496CDF814B0FEF729FB28463946CDE9A8
:1029500002A6CDE9044BFEF721FB2020CDE90204BD
:10296000284639460494FEF719FB40463946CDE91E
:102970000266CDE9044BFEF711FB07B0BDE8F08F0E
:1029800080B540F20C5043F20001C2F20000C4F2E4
:1029900001014FF48272002380E80E0000F114015F
:1029A0004FF4007C4FF0180E81E808500A21C0E96E
:1029B0000333C0E90833C0E90A31FEF739FF0028C4
:1029C00008BF80BDBDE88040FDF70EBD10B540F2E8
:1029D000645043F60001C2F20000C4F200014FF45B
:1029E000827200234FF0020C4FF4007E182480E81E
:1029F0000E000A21C0E9033CC0E9053EC461C0E9FC
:102A00000833C0E90A31FEF713FF002808BF10BDE4
:102A1000BDE81040FDF7E8BC10B588B040F2BC50EE
:102A200000210024C2F20000C4F2010140F2E733A9
:102A30004FF0800C0794CDE90544CDE90044A8226D
:102A400080E81600C0E90334C0E9054CFFF720FC1C
:102A5000002818BFFDF7C8FC40F2BC50C2F20000CD
:102A600003A9CDE90344FFF779FE002818BFFDF75D
:102A7000BBFC202000900020019040F2BC50C2F22C
:102A800000006946FFF7A8FB002818BFFDF7ACFC63
:102A900008B010BD80B586B02020009040F20460E0
:102AA0000021C2F2000040F2E73C0591CDE903119C
:102AB00001914FF080425323C0E9021C0161802143
:102AC000C0E900238161FFF7E3FB002818BFFDF791
:102AD0008BFC4FF48050029040F20460C2F2000080
:102AE00002A9FFF7A7FC002818BFFDF77DFC40F204
:102AF0000460C2F200006946FFF76EFB002818BFB1
:102B0000FDF772FC06B080BD10B588B020200090A3
:102B100040F24C6040F200410024C2F20000C4F2D6
:102B2000000140F2E7330794CDE9054401941E22E9
:102B300080E81600C0E903348461FFF7A9FB002890
:102B400018BFFDF751FC40F24C60C2F2000003A92F
:102B5000CDE90344FFF702FE002818BFFDF744FC4F
:102B600040F24C60C2F200006946FFF735FB0028D6
:102B700018BFFDF739FC08B010BD0000FEE70000EB
:102B8000FEE70000704700002DE9F04182B01E46CC
:102B900090460D460446FEF7EDFA301A00EB0807A2
:102BA000FEF7E8FA40F2E421C2F200010968C1F33D
:102BB000CB317943019121688A682A40AA4227D102
:102BC000064618F101001FD0FEF7D4FA801BB84268
:102BD00022D2019801990028A1F1010101912168F7
:102BE000896808BF074601EA0500A842ECD00FE05B
:102BF00088682840A8420BD188682840A84207D19D
:102C000088682840A84203D188682840A842EFD0AD
:102C1000002002B0BDE8F081D4E900014268B1F5BE
:102C2000827F22F0E00242600AD1A168B1F5004F34
:102C300002D0B1F5806F03D1016821F0400101603D
:102C4000A16AB1F5005F07D1016821F4005101606C
:102C5000016841F400510160012084F85100002016
:102C600084F85000032002B0BDE8F0812DE9F04F58
:102C700085B08146002015460C46C4F202000821AA
:102C800000221F460026FEF76FFA281981B2484637
:102C90003A4600F0EBF9601B81B248463A4600F034
:102CA000E5F905EB090080B221463A4600F0DEF96D
:102CB000A9EB050080B221463A4600F0D7F9002D75
:102CC0006CD0A6EB4502C5F1010A0123049400BFB4
:102CD0000FFA8AF0B0F1FF3F6FEAE03005EB000831
:102CE0000FFA88F006F1010B02F10201C4BF8A4419
:102CF0000A46039202900FFA8BF0009018B202304D
:102D0000019082440BEB090008EB040186B28DB2FE
:102D1000304629463A4600F0A9F9A9EB0B004C468B
:102D20001FFA80F9484629463A4600F09FF9049870
:102D30003A46A0EB080085B23046294600F096F9E5
:102D4000484629463A46A14600F090F9049908EB16
:102D5000040059448DB286B2304629463A4600F006
:102D600085F9A4EB080084B2204629463A4600F0D3
:102D70007DF904983A46A0EB0B0085B23046009EE0
:102D8000294600F073F920462946029D049C3A46E4
:102D900000F06CF9019B039AAE4299DB0020C4F26B
:102DA00002000821012205B0BDE8F04FFEF7DCB9B2
:102DB0002DE9F04F87B00646002092468B46C4F2BC
:102DC0000200082100221F46FEF7CEF90AEB0B0095
:102DD000B5B281B228463A4600F048F9ABEB0A009A
:102DE00081B228463A4600F041F90AEB06001FFA84
:102DF00080F81FFA8BF4404621463A4600F036F937
:102E0000A6EB0A0085B2284621463A46029600F013
:102E10002DF92846214642462346009700F0C6F881
:102E20000022BAF1010F56DB029CA2EB4A03CAF161
:102E3000010801260FFA88F0B0F1FF3F6FEAE03099
:102E40000AEB00090FFA89F002F1010A03F102010D
:102E5000C4BF88440B46069303900FFA8AF005908E
:102E600030B2023004908044A4EB0A0009EB0B015D
:102E70000AEB040286B295B289B230462A460B4666
:102E8000009700F093F8ABEB090081B22846324678
:102E90000B46009700F08AF809EB04000AEB0B01DF
:102EA000A4EB090289B285B296B2284632460B4697
:102EB000009700F07BF8ABEB0A0081B2DDF80CA0C4
:102EC000284632460B46009700F070F8DDE90462B0
:102ED000069B5245AEDB0020C4F20200082101220D
:102EE00007B0BDE8F04FFEF73FB900002DE9F04F05
:102EF00081B0EF2810D80446C8080E4622280BD807
:102F000002EB040A1746BAF1F00F05D803EB060BE3
:102F10009946BBF58C7F03D901B0BDE8F08F00BFA7
:102F200040F20008C4F202080A9D4046082100222F
:102F3000FEF71AF9AAF10100ABF1010182B28BB2DE
:102F40002046314601F0B6F807FB09F0460040463E
:102F500008210022FEF708F908F58060012101220E
:102F6000FEF702F9A6B140F264544FF6FF79C2F2BF
:102F7000000400BF4FF6FF774E4538BF3746BAB260
:102F8000204629460A23FEF755FEF61B3D44F1D1A3
:102F9000404608210122FEF7E7F8404608210122B9
:102FA00001B0BDE8F04FFEF7DFB800002DE9F04FAB
:102FB00081B0B3EB010C1C4648BFCCF1000C131AD6
:102FC00048BF5B429C4509D916460746A1420BD82B
:102FD0003246A1463E460C4608E000BF264614464F
:102FE0000F460146A142F3D93A468946901B48BF95
:102FF00040424FF0FF3BB24288BF4FF0010BA1456A
:1030000031D3A9EB04011FFA81FA01EBDA31DDF8C3
:10301000288009B2C1F34F079C4505B212D900BF01
:10302000B0B2A1B2424600F021F838B2471B3804D2
:1030300004F10104A0B244BF5E440AFA87F7484590
:10304000EED910E0A0B2B1B2424600F00FF838B2AB
:10305000471B380404F10104A0B244BF5E440AFADD
:1030600087F74845EED901B0BDE8F08F10B582B0C2
:10307000EF2831D81446CA08222A2DD802460B461A
:1030800001F018F860BA0024C4F20204ADF806009A
:10309000204608210022FEF767F82046082100227A
:1030A000FEF762F804F5806001210122FEF75CF86A
:1030B00040F26450C2F200000DF1060102220A2320
:1030C000FEF7B8FD204608210122FEF74DF8204604
:1030D00008210122FEF748F802B010BD2DE9F047A3
:1030E00082B0054640F2000A00200021EF2240F2A3
:1030F0001713C4F2020A00F0DDFF50460821002237
:10310000FEF732F840F2806440F264582F0AC0F2B1
:1031100001040AF58066C2F200080DF1060900BF3D
:103120005046082100228DF806708DF80750FEF7F2
:103130001BF8304601210122FEF716F840464946A9
:1031400002220A23FEF776FD504608210122FEF7EF
:103150000BF8013CE4D1504608210122FEF704F8A7
:1031600002B0BDE8F08700002DE9F04F81B03220B9
:10317000FDF700FF0024C4F2020404F58065284630
:10318000012101224FF0010AFDF7EEFF3220FDF789
:10319000F1FE04F500663046102100220027FDF7FD
:1031A000E3FF1920FDF7E6FE304610210122FDF76E
:1031B000DBFF1920FDF7DEFE36208DF803002046E8
:1031C00008210022FDF7D0FF284601210022FDF74B
:1031D000CBFF40F26456C2F200060DF10301304607
:1031E00001224FF0FF33FEF725FD20460821012282
:1031F000FDF7BAFF2046082100228DF80370FDF785
:10320000B3FF284601210122FDF7AEFF0DF10301B6
:10321000304601224FF0FF33FEF70CFD2046082117
:103220000122FDF7A1FF3A208DF803002046082176
:103230000022FDF799FF284601210022FDF794FFA7
:103240000DF10301304601224FF0FF33FEF7F2FC8F
:10325000204608210122FDF787FF05208DF8030095
:10326000204608210022FDF77FFF28460121012288
:10327000FDF77AFF0DF10301304601224FF0FF33D5
:10328000FEF7D8FC204608210122FDF76DFF212022
:103290008DF80300204608210022FDF765FF28462F
:1032A00001210022FDF760FF0DF1030130460122EC
:1032B0004FF0FF33FEF7BEFC204608210122FDF748
:1032C00053FF2A208DF80300204608210022FDF735
:1032D0004BFF284601210022FDF746FF0DF10301B7
:1032E000304601224FF0FF33FEF7A4FC20460821B0
:1032F0000122FDF739FF2046082100228DF80370D6
:10330000FDF732FF284601210122FDF72DFF0DF1C7
:103310000301304601224FF0FF33FEF78BFC2046BD
:1033200008210122FDF720FF2046082100228DF808
:103330000370FDF719FF284601210122FDF714FF54
:103340000DF10301304601224FF0FF33FEF772FC0E
:10335000204608210122FDF707FF20460821002210
:103360008DF803A0FDF700FF284601210122FDF79B
:10337000FBFE0DF10301304601224FF0FF33FEF753
:1033800059FC204608210122FDF7EEFE3F208DF872
:103390000300204608210022FDF7E6FE2846012111
:1033A0000122FDF7E1FE0DF10301304601224FF04D
:1033B000FF33FEF73FFC204608210122FDF7D4FE33
:1033C0002B208DF80300204608210022FDF7CCFEBB
:1033D000284601210022FDF7C7FE0DF1030130460A
:1033E00001224FF0FF33FEF725FC20460821012281
:1033F000FDF7BAFE2046082100228DF80370FDF784
:10340000B3FE284601210122FDF7AEFE0DF10301B6
:10341000304601224FF0FF33FEF70CFC2046082116
:103420000122FDF7A1FE2046082100228DF803703D
:10343000FDF79AFE284601210122FDF795FE0DF1C8
:103440000301304601224FF0FF33FEF7F3FB204625
:1034500008210122FDF788FE2046082100228DF870
:103460000370FDF781FE284601210122FDF77CFE55
:103470000DF10301304601224FF0FF33FEF7DAFB76
:10348000204608210122FDF76FFEEF208DF8030092
:10349000204608210022FDF767FE2846012101226F
:1034A000FDF762FE0DF10301304601224FF0FF33BC
:1034B000FEF7C0FB204608210122FDF755FEB22091
:1034C0008DF80300204608210022FDF74DFE284616
:1034D00001210022FDF748FE0DF1030130460122D3
:1034E0004FF0FF33FEF7A6FB204608210122FDF72F
:1034F0003BFE4FF00C082046082100228DF8038087
:10350000FDF732FE284601210122FDF72DFE0DF1C7
:103510000301304601224FF0FF33FEF78BFB2046BC
:1035200008210122FDF720FE2046082100228DF807
:103530000380FDF719FE284601210122FDF714FE44
:103540000DF10301304601224FF0FF33FEF772FB0D
:10355000204608210122FDF707FE2046082100220F
:103560008DF80370FDF700FE284601210122FDF7CA
:10357000FBFD0DF10301304601224FF0FF33FEF752
:1035800059FB204608210122FDF7EEFD4FF03309DB
:103590002046082100228DF80390FDF7E5FD28461E
:1035A00001210122FDF7E0FD0DF10301304601226A
:1035B0004FF0FF33FEF73EFB204608210122FDF7C6
:1035C000D3FD2046082100228DF80390FDF7CCFDA5
:1035D000284601210122FDF7C7FD0DF10301304608
:1035E00001224FF0FF33FEF725FB20460821012280
:1035F000FDF7BAFDB7272046082100228DF8037099
:10360000FDF7B2FD284601210022FDF7ADFD0DF1C9
:103610000301304601224FF0FF33FEF70BFB20463B
:1036200008210122FDF7A0FD35208DF8030020467A
:1036300008210022FDF798FD284601210122FDF70F
:1036400093FD0DF10301304601224FF0FF33FEF7E9
:10365000F1FA204608210122FDF786FD20460821C7
:1036600000228DF80370FDF77FFD2846012100221E
:10367000FDF77AFD0DF10301304601224FF0FF33D3
:10368000FEF7D8FA204608210122FDF76DFD1F2024
:103690008DF80300204608210022FDF765FD28462D
:1036A00001210122FDF760FD0DF1030130460122E9
:1036B0004FF0FF33FEF7BEFA204608210122FDF746
:1036C00053FDC0208DF80300204608210022FDF79D
:1036D0004BFD284601210022FDF746FD0DF10301B7
:1036E000304601224FF0FF33FEF7A4FA20460821AE
:1036F0000122FDF739FD2C208DF80300204608211A
:103700000022FDF731FD284601210122FDF72CFDA5
:103710000DF10301304601224FF0FF33FEF78AFA24
:10372000204608210122FDF71FFDC2208DF803006D
:10373000204608210022FDF717FD2846012100221E
:10374000FDF712FD0DF10301304601224FF0FF336A
:10375000FEF770FA204608210122FDF705FD2046FC
:10376000082100228DF803A0FDF7FEFC2846012168
:103770000122FDF7F9FC0DF10301304601224FF063
:10378000FF33FEF757FA204608210122FDF7ECFC33
:10379000C3208DF80300204608210022FDF7E4FC39
:1037A000284601210022FDF7DFFC0DF10301304620
:1037B00001224FF0FF33FEF73DFA20460821012297
:1037C000FDF7D2FC12208DF80300204608210022CC
:1037D000FDF7CAFC284601210122FDF7C5FC0DF1C9
:1037E0000301304601224FF0FF33FEF723FA204653
:1037F00008210122FDF7B8FCC4208DF80300204603
:1038000008210022FDF7B0FC284601210022FDF727
:10381000ABFC0DF10301304601224FF0FF33FEF700
:1038200009FA204608210122FDF79EFC20208DF890
:103830000300204608210022FDF796FC28460121BE
:103840000122FDF791FC0DF10301304601224FF0FA
:10385000FF33FEF7EFF9204608210122FDF784FC33
:10386000C6208DF80300204608210022FDF77CFCCD
:10387000284601210022FDF777FC0DF103013046B7
:1038800001224FF0FF33FEF7D5F92046082101222F
:10389000FDF76AFC0F208DF8030020460821002266
:1038A000FDF762FC284601210122FDF75DFC0DF1C8
:1038B0000301304601224FF0FF33FEF7BBF92046EB
:1038C00008210122FDF750FC4FF0D00B20460821C3
:1038D00000228DF803B0FDF747FC284601210022A5
:1038E000FDF742FC0DF10301304601224FF0FF339A
:1038F000FEF7A0F9204608210122FDF735FCA4209F
:103900008DF80300204608210022FDF72DFC2846F3
:1039100001210122FDF728FC0DF1030130460122AF
:103920004FF0FF33FEF786F9204608210122FDF70C
:103930001BFCA1208DF80300204608210022FDF782
:1039400013FC284601210122FDF70EFC0DF10301B5
:10395000304601224FF0FF33FEF76CF92046082174
:103960000122FDF701FCE0208DF80300204608212C
:103970000022FDF7F9FB284601210022FDF7F4FBA8
:103980000DF10301304601224FF0FF33FEF752F9EB
:10399000204608210122FDF7E7FB204608210022EE
:1039A0008DF803B0FDF7E0FB284601210122FDF769
:1039B000DBFB0DF10301304601224FF0FF33FEF730
:1039C00039F9204608210122FDF7CEFB08272046C1
:1039D000082100228DF80370FDF7C6FB284601215F
:1039E0000122FDF7C1FB0DF10301304601224FF02A
:1039F000FF33FEF71FF9204608210122FDF7B4FB33
:103A000011208DF80300204608210022FDF7ACFBB1
:103A1000284601210122FDF7A7FB0DF103013046E5
:103A200001224FF0FF33FEF705F92046082101225D
:103A3000FDF79AFB2046082100228DF80370082725
:103A4000FDF792FB284601210122FDF78DFB0DF1C8
:103A50000301304601224FF0FF33FEF7EBF820461A
:103A600008210122FDF780FB2046082100228DF865
:103A70000380FDF779FB284601210122FDF774FB45
:103A80000DF10301304601224FF0FF33FEF7D2F86B
:103A9000204608210122FDF767FB15208DF8030061
:103AA000204608210022FDF75FFB28460121012264
:103AB000FDF75AFB0DF10301304601224FF0FF33B1
:103AC000FEF7B8F8204608210122FDF74DFB4FF024
:103AD000390A2046082100228DF803A0FDF744FB97
:103AE000284601210122FDF73FFB0DF1030130467D
:103AF00001224FF0FF33FEF79DF8204608210122F6
:103B0000FDF732FB2046082100228DF80390FDF7D7
:103B10002BFB284601210122FDF726FB0DF10301B5
:103B2000304601224FF0FF33FEF784F8204608218B
:103B30000122FDF719FB50208DF8030020460821D3
:103B40000022FDF711FB284601210122FDF70CFBA5
:103B50000DF10301304601224FF0FF33FEF76AF802
:103B6000204608210122FDF7FFFA36208DF80300D8
:103B7000204608210022FDF7F7FA284601210122FC
:103B8000FDF7F2FA0DF10301304601224FF0FF3349
:103B9000FEF750F8204608210122FDF7E5FA132030
:103BA0008DF80300204608210022FDF7DDFA2846A3
:103BB00001210122FDF7D8FA0DF10301304601225F
:103BC0004FF0FF33FEF736F8204608210122FDF7BB
:103BD000CBFA4FF014082046082100228DF803800C
:103BE000FDF7C2FA284601210122FDF7BDFA0DF1C9
:103BF0000301304601224FF0FF33FEF71BF8204649
:103C000008210122FDF7B0FA4FF0290920460821CA
:103C100000228DF80390FDF7A7FA28460121012222
:103C2000FDF7A2FA0DF10301304601224FF0FF33F8
:103C3000FEF700F8204608210122FDF795FA2D2015
:103C40008DF80300204608210022FDF78DFA284652
:103C500001210122FDF788FA0DF10301304601220E
:103C60004FF0FF33FDF7E6FF204608210122FDF764
:103C70007BFAE1208DF80300204608210022FDF7A1
:103C800073FA284601210022FDF76EFA0DF10301B7
:103C9000304601224FF0FF33FDF7CCFF20460821CC
:103CA0000122FDF761FA2046082100228DF803B0B9
:103CB000FDF75AFA284601210122FDF755FA0DF1C8
:103CC0000301304601224FF0FF33FDF7B3FF2046DA
:103CD00008210122FDF748FA2046082100228DF82C
:103CE0000370FDF741FA284601210122FDF73CFA55
:103CF0000DF10301304601224FF0FF33FDF79AFF2B
:103D0000204608210122FDF72FFA10208DF803002C
:103D1000204608210022FDF727FA2846012101222A
:103D2000FDF722FA0DF10301304601224FF0FF3377
:103D3000FDF780FF204608210122FDF715FA2046F5
:103D4000082100228DF80370FDF70EFA28460121A4
:103D50000122FDF709FA0DF10301304601224FF06F
:103D6000FF33FDF767FF204608210122FDF7FCF92C
:103D700006272046082100228DF80370FDF7F4F98C
:103D8000284601210122FDF7EFF90DF1030130462C
:103D900001224FF0FF33FDF74DFF2046082101229D
:103DA000FDF7E2F92046082100228DF80370FDF7A7
:103DB000DBF9284601210122FDF7D6F90DF10301B7
:103DC000304601224FF0FF33FDF734FF2046082133
:103DD0000122FDF7C9F92046082100228DF803A031
:103DE000FDF7C2F9284601210122FDF7BDF90DF1C9
:103DF0000301304601224FF0FF33FDF71BFF204641
:103E000008210122FDF7B0F944208DF80300204677
:103E100008210022FDF7A8F9284601210122FDF71B
:103E2000A3F90DF10301304601224FF0FF33FDF7F6
:103E300001FF204608210122FDF796F951208DF857
:103E40000300204608210022FDF78EF928460121B3
:103E50000122FDF789F90DF10301304601224FF0EF
:103E6000FF33FDF7E7FE204608210122FDF77CF92C
:103E70000B208DF80300204608210022FDF774F97D
:103E8000284601210122FDF76FF90DF103013046AB
:103E900001224FF0FF33FDF7CDFE2046082101221D
:103EA000FDF762F916208DF8030020460821002254
:103EB000FDF75AF9284601210122FDF755F90DF1C8
:103EC0000301304601224FF0FF33FDF7B3FE2046D9
:103ED00008210122FDF748F92046082100228DF82B
:103EE0000380FDF741F9284601210122FDF73CF945
:103EF0000DF10301304601224FF0FF33FDF79AFE2A
:103F0000204608210122FDF72FF92F208DF803000C
:103F1000204608210022FDF727F928460121012229
:103F2000FDF722F90DF10301304601224FF0FF3376
:103F3000FDF780FE204608210122FDF715F931200A
:103F40008DF80300204608210022FDF70DF92846D0
:103F500001210122FDF708F90DF10301304601228C
:103F60004FF0FF33FDF766FE204608210122FDF7E2
:103F7000FBF821208DF80300204608210022FDF7E0
:103F8000F3F8284601210022FDF7EEF80DF10301B8
:103F9000304601224FF0FF33FDF74CFE204608214A
:103FA0000122FDF7E1F811208DF8030020460821D9
:103FB0000022FDF7D9F8284601210022FDF7D4F8A8
:103FC0000DF10301304601224FF0FF33FDF732FEC1
:103FD000204608210122FDF7C7F813208DF80300C1
:103FE000204608210022FDF7BFF8284601210022C3
:103FF000FDF7BAF80DF10301304601224FF0FF330F
:10400000FDF718FE204608210122FDF7ADF82046F5
:10401000082100228DF80390FDF7A6F8284601211B
:104020000022FDF7A1F80DF10301304601224FF007
:10403000FF33FDF7FFFD204608210122FDF794F82C
:104040003220FCF797FF36208DF803002046082128
:104050000022FDF789F8284601210022FDF784F8A7
:104060000DF10301304601224FF0FF33FDF7E2FD71
:10407000204608210122FDF777F860208DF8030023
:10408000204608210022FDF76FF828460121012271
:10409000FDF76AF80DF10301304601224FF0FF33BE
:1040A000FDF7C8FD204608210122FDF75DF801B0AB
:1040B000BDE8F08F2DE9F04784B0002400F1280618
:1040C0002A20C4F202048A4602F128078DF80D0066
:1040D0002046082100229946FDF746F804F5806540
:1040E000284601210022FDF73FF840F26458C2F251
:1040F00000080DF10D01404601224FF0FF33FDF79E
:1041000099FD204608210122FDF72EF8300A8DF88E
:104110000900380A8DF80B002046082100228DF88E
:104120000A608DF80C70FDF71FF828460121012266
:10413000FDF71AF80DF10901404604220A23FDF7A4
:1041400079FD204608210122FDF70EF82B208DF87D
:104150000E00204608210022FDF706F8284601211E
:104160000022FDF701F80DF10E01404601224FF04B
:10417000FF33FDF75FFD204608210122FCF7F4FF25
:104180004FEA1A208DF805004FEA19208DF8070034
:104190002046082100228DF806A08DF80890FCF733
:1041A000E3FF284601210122FCF7DEFF0DF10501A6
:1041B000404604220A23FDF73DFD20460821012246
:1041C000FCF7D2FF2C208DF80F002046082100229A
:1041D000FCF7CAFF284601210022FCF7C5FF0DF1BC
:1041E0000F01404601224FF0FF33FDF723FD20462B
:1041F00008210122FCF7B8FF04B0BDE8F0870000F9
:104200002DE9F04F85B00026C4F2020636208DF865
:1042100012003046082100224FF6FF79FCF7A4FF78
:1042200006F58064204601210022FCF79DFF40F244
:104230006455C2F200050DF11201284601224FF02B
:10424000FF33FDF7F7FC304608210122FCF78CFF15
:1042500060208DF81300304608210022FCF784FF0F
:10426000204601210122FCF77FFF0DF113012846B2
:1042700001224FF0FF33FDF7DDFC3046082101221B
:10428000FCF772FF4FF6FF70FEF728FF4FF47A70CD
:10429000FCF770FE40F2C820C2F20000D0E900B87E
:1042A000304608210022FCF75FFF5FFA8BF7E62F0C
:1042B000CBF3072A0AD30AF114060AEB0600C0085A
:1042C000222800F2E180002402E000BF0A24142624
:1042D0004FF478452046314653225B46CDE90085B0
:1042E000CDF8089001F0C2FE3C443819F02807D3FD
:1042F00056440AEB0600C008222800F2C5800024BC
:104300002046314670225B46CDE90085CDF8089005
:1043100001F0ACFE3C443819F02807D356440AEBB0
:104320000600C008222800F2AF8000244FF4784530
:104330002046314665225B46CDE90085CDF80890E0
:1043400001F094FE3C443819F02807D356440AEB98
:104350000600C008222800F297800024204631463B
:1043600065225B46CDE90085CDF8089001F07EFE20
:104370003C443819F02807D356440AEB0600C0081D
:10438000222800F2818000244FF4784920463146EB
:1043900064225B464FF6FF75CDE90089029501F076
:1043A00065FEE0193C18F02C0CD356440AEB0600CD
:1043B000C0084FF6FF79222866D800243819F02863
:1043C0000DD213E0314620225B46CDE900894FF63D
:1043D000FF79029501F04AFE3819F02806D35644B9
:1043E0000AEB0600C00822284ED800244FF4784576
:1043F0002046314654225B46CDE90085CDF8089031
:1044000001F034FE3C443819F02806D356440AEB38
:104410000600C008222837D80024204631466522ED
:104420005B46CDE90085CDF8089001F01FFE3C44C5
:104430003819F02806D356441AFA86F0C008222804
:1044400022D800244FF47845B1B2204673225B464F
:10445000CDE90085CDF8089001F008FEE01917FAC3
:1044600080F1F02906D356441AFA86F0C0082228B3
:104470000AD8002080B2B1B274225B46CDE9008533
:10448000CDF8089001F0F2FD0024C4F202042046A9
:1044900008210122FCF768FE4FF47A70FCF76AFDF0
:1044A00047F6FF70FEF71AFE4FF4FA70FCF762FD54
:1044B0004FF47840FEF712FE4FF4FA70FCF75AFD05
:1044C0001F20FEF70BFE4FF4FA70FCF753FD4FF47C
:1044D000FC60FEF703FE4FF4FA70FCF74BFDA9F108
:1044E0001F0080B20390FEF7F9FD4FF4FA70FCF75D
:1044F00041FD4BF64040FEF7F1FD4FF4FA70FCF73A
:1045000039FD40F2CF10FEF7E9FD4FF4FA70FCF7E9
:1045100031FD4FF61F00FEF7E1FD4FF4FA70FCF796
:1045200029FD48F21F40FEF7D9FD4FF4FA70FCF761
:1045300021FD4CF21860FEF7D1FD4FF4FA70FCF744
:1045400019FD42F61230FEF7C9FD4FF4FA70FCF780
:1045500011FD4FF6FF70FEF7C1FD4FF4FA70FCF746
:1045600009FD40F2D020C2F20000D0E900B8204698
:1045700008210022FCF7F8FD5FFA8BF5E62DCBF35E
:10458000072A09D30AF10A070AEB0700C008222804
:1045900000F2E380002401E00A270A2440F2FF76BB
:1045A0002046394646225B46CDE90086CDF8089084
:1045B00001F05CFD2C442819F02807D357440AEB7E
:1045C0000700C008222800F2C8800024204639468F
:1045D0006F225B46CDE90086CDF8089001F046FDDC
:1045E0002C442819F02807D357440AEB0700C008C9
:1045F000222800F2B280002440F2FF76204639469D
:104600006E225B46CDE90086CDF8089001F02EFDC4
:104610002C442819F02807D357440AEB0700C00898
:10462000222800F29A800024CDE9008620463946EF
:1046300074225B464FF6FF76029601F017FD601973
:104640002C18F02C0ED357440AEB0700C0084FF685
:10465000FF79222800F2818000242819F02810D246
:1046600016E000BF40F2FF71CDE9008139462022FB
:104670005B464FF6FF79029601F0F8FC2819F02806
:1046800006D357440AEB0700C008222865D8002447
:1046900040F2FF762046394674225B46CDE900861B
:1046A000CDF8089001F0E2FC2C442819F02806D33C
:1046B00057440AEB0700C00822284ED800242046A1
:1046C000394665225B46CDE90086CDF8089001F0B9
:1046D000CDFC2C442819F02806D357440AEB0700D8
:1046E000C008222839D8002440F2FF7620463946F7
:1046F00073225B46CDE90086CDF8089001F0B6FC48
:104700002C442819F02806D357441AFA87F0C00819
:10471000222822D80024B9B2204674225B46CDE973
:104720000086CDF8089001F0A1FC601915FA80F11F
:10473000F02906D357441AFA87F0C00822280CD86B
:10474000002040F2FF71CDE9008180B2B9B22E2283
:104750005B46CDF8089001F089FC0024C4F2020405
:10476000204608210122FCF7FFFC40F2D820C2F2CB
:104770000000D0E9006A204608210022FCF7F4FC82
:104780005FFA86F8B8F1E60FC6F3072B0AD30BF1F0
:1047900032070BEB0700C008222800F22281002418
:1047A00002E000BF0A2432274FF4784520463946FC
:1047B00048223346CDE900A5CDF8089001F056FC1B
:1047C000444408EB0400F02807D35F440BEB0700D8
:1047D000C008222800F205810024204639466522BF
:1047E0003346CDE900A5CDF8089001F03FFC4444E4
:1047F00008EB0400F02807D35F440BEB0700C00868
:10480000222800F2EE8000244FF4784520463946F5
:104810006C223346CDE900A5CDF8089001F026FCC6
:10482000444408EB0400F02807D35F440BEB070077
:10483000C008222800F2D5800024204639466C2288
:104840003346CDE900A5CDF8089001F00FFC4444B3
:1048500008EB0400F02807D35F440BEB0700C00807
:10486000222800F2BE8000244FF4784520463946C5
:104870006F2233464FF6FF79CDE900A5CDF80890B9
:1048800001F0F4FB04EB080008EB0004F02C0DD35E
:104890005F440BEB0700C008222800F2A28000242E
:1048A00008EB0400F0280ED215E000BF39462022A4
:1048B0003346CDE900A5CDF8089001F0D7FB08EB11
:1048C0000400F02807D35F440BEB0700C008222840
:1048D00000F2878000244FF478492046394653225D
:1048E00033464FF6FF75CDE900A9029501F0BEFBF6
:1048F000444408EB0400F02806D35F440BEB0700A8
:10490000C00822286DD80024204639467422334638
:104910004FF6FF75CDE900A9029501F0A7FB4444CD
:1049200008EB0400F02806D35F441BFA87F0C008A8
:10493000222856D800244FF47849B9B2204665227F
:1049400033464FF6FF75CDE900A9029501F08EFBC5
:10495000444418FA84F0F02806D35F441BFA87F029
:10496000C00822283DD80024A0B2B9B2762233462E
:104970004FF6FF75CDE900A9029501F077FB04EB36
:10498000080518FA85F0F02806D35F441BFA87F073
:10499000C008222825D800254FF47849A8B2B9B21A
:1049A000652233464FF6FF74CDE900A9029401F069
:1049B0005DFB05EB080018FA80F1F02906D35F448F
:1049C0001BFA87F0C00822280BD8002080B2B9B2A9
:1049D000212233464FF6FF77CDE900A9029701F077
:1049E00045FB0024C4F20204204608210122FCF702
:1049F000BBFB40F2C820C2F20000D0E900682046AC
:104A000008210022FCF7B0FBF5B2E62DC6F3072A19
:104A10000ED30AF14B070AEB0700C008DDF80CB013
:104A200022284FF6FF7900F20481002406E000BF3F
:104A3000DDF80CB00A244B274FF6FF7920463946A3
:104A400048223346CDE9008BCDF8089001F00EFBEB
:104A50002C442819F02807D357440AEB0700C00854
:104A6000222800F2E680002420463946652233469B
:104A7000CDE9008BCDF8089001F0F8FA2C44281904
:104A8000F02807D357440AEB0700C008222800F299
:104A9000D0800024204639466C223346CDE9008B75
:104AA000CDF8089001F0E2FA2C442819F02807D339
:104AB00057440AEB0700C008222800F2BA800024FD
:104AC000204639466C223346CDE9008BCDF808905C
:104AD00001F0CCFA2C442819F02807D357440AEBEC
:104AE0000700C008222800F2A4800024204639468E
:104AF0006F223346CDE9008BCDF8089001F0B6FA6D
:104B000060192C18F02C0BD357440AEB0700C0088F
:104B1000222800F28E8000242819F0280CD212E0FE
:104B2000394620223346CDE9008BCDF8089001F0BC
:104B30009DFA2819F02806D357440AEB0700C0084D
:104B4000222876D800242046394653223346CDE920
:104B5000008BCDF8089001F089FA2C442819F02830
:104B600006D357440AEB0700C008222861D8002466
:104B70002046394674223346CDE9008BCDF80890A3
:104B800001F074FA2C442819F02806D357441AFA75
:104B900087F0C00822284CD80024B9B220466522EC
:104BA0003346CDE9008BCDF8089001F05FFA2C4434
:104BB00015FA84F0F02806D357441AFA87F0C00893
:104BC000222836D80024A0B2B9B276223346CDE9E5
:104BD000008BCDF8089001F049FA2C4415FA84F0C6
:104BE000F02806D357441AFA87F0C008222820D8A4
:104BF0000024A0B2B9B265223346CDE9008BCDF8CE
:104C0000089001F033FA601915FA80F1F02906D303
:104C100057441AFA87F0C00822280AD8002080B228
:104C2000B9B221223346CDE9008BCDF8089001F0CE
:104C30001DFA0024C4F20204204608210122FCF7D8
:104C400093FA40F2D020C2F20000D0E9006820467A
:104C500008210022FCF788FAF5B2E62DC6F3072AF0
:104C60000AD30AF164070AEB0700C008222800F201
:104C70001D81002402E000BF0A2464274FF61F00B4
:104C800001902046394648223346CDF800804FF641
:104C90001F0BCDF8089001F0E9F92C442819F028F1
:104CA00007D357440AEB0700C008222800F2FE8011
:104CB00000242046394665223346CDE9008BCDF8E5
:104CC000089001F0D3F92C442819F02807D3574451
:104CD0000AEB0700C008222800F2E88000242046E2
:104CE00039466C223346CDE9008BCDF8089001F0AF
:104CF000BDF92C442819F02807D357440AEB0700C4
:104D0000C008222800F2D28000244FF61F00CDE90F
:104D10000080204639466C223346CDF8089001F0D9
:104D2000A5F92C442819F02807D357440AEB0700AB
:104D3000C008222800F2BA8000244FF61F00CDE9F7
:104D40000080204639466F2233464FF61F0BCDF8C0
:104D5000089001F08BF960192C18F02C0CD35744F3
:104D60000AEB0700C008222800F2A08000242819BE
:104D7000F0280DD214E000BF394620223346CDE999
:104D8000008BCDF8089001F071F92819F02807D3AD
:104D900057440AEB0700C008222800F2878000244D
:104DA0004FF61F0001902046394653223346CDF876
:104DB00000804FF61F0BCDF8089001F057F92C44F6
:104DC0002819F02806D357440AEB0700C008222808
:104DD0006CD800242046394674223346CDE9008B36
:104DE000CDF8089001F042F92C442819F02806D398
:104DF00057441AFA87F0C008222857D800244FF6E3
:104E00001F00CDE90080B9B2204665223346CDF8B7
:104E1000089001F02BF92C4415FA84F0F02806D301
:104E200057441AFA87F0C00822283FD800244FF6CA
:104E30001F000190A0B2B9B276223346CDF80080AF
:104E4000CDF8089001F012F92C4415FA84F0F028FE
:104E500006D357441AFA87F0C008222826D800241F
:104E60004FF61F000190A0B2B9B265223346CDF8CB
:104E70000080CDF8089001F0F9F8601915FA80F17A
:104E8000F02906D357441AFA87F0C00822280DD813
:104E900000204FF61F01019180B2B9B221223346A2
:104EA000CDF80080CDF8089001F0E0F80024C4F2BD
:104EB0000204204608210122FCF756F94FF47A70CB
:104EC000FCF758F81F20FEF709F940F2C821C2F29A
:104ED0000001D1E900982046082100220026FCF7B5
:104EE00043F95FFA89F5E62DC9F3072A0AD30AF1D7
:104EF0000A070AEB0700C008222800F207810024F5
:104F000002E000BF0A270A2403983946CDE9008051
:104F1000204652224B46029601F0A8F82C4428194C
:104F2000F02807D357440AEB0700C008222800F2F4
:104F3000ED80002403984FF0000B01902046394685
:104F400065224B46CDF80080CDF808B001F08EF810
:104F50002C442819F02807D357440AEB0700C0084F
:104F6000222800F2D380002403983946019020467D
:104F700063224B46CDF80080CDF808B001F076F8FA
:104F80002C442819F02807D357440AEB0700C0081F
:104F9000222800F2BB80002403984FF0000B019000
:104FA0002046394674224B46CDF80080CDF808B033
:104FB00001F05CF82C442819F02807D357440AEB79
:104FC0000700C008222800F2A18000240398394677
:104FD000019020462E224B46CDF80080CDF808B037
:104FE00001F044F82C442819F02807D357440AEB61
:104FF0000700C008222800F28980002403984FF09F
:10500000000B0190204639462F224B46CDF80080F8
:10501000CDF808B001F02AF82C442819F02806D35E
:1050200057440AEB0700C00822286FD800240398D1
:105030003946019020464C224B46CDF80080CDF8F1
:1050400008B001F013F82C442819F02806D357446F
:105050000AEB0700C008222858D8002403984FF014
:10506000000B01902046394669224B46CDF800805E
:10507000CDF808B000F0FAFF2C442819F02806D328
:1050800057441AFA87F0C00822283FD80024CDF8E8
:1050900008B0DDF80CB0B9B220466E224B46CDF810
:1050A0000080CDF804B000F0E1FF661915FA86F033
:1050B000F02808D357441AFA87F0C008222825D8C8
:1050C000DDF80CB000260024B0B2B9B265224B4620
:1050D000CDE9008B029400F0C9FF701915FA80F138
:1050E000F02908D357441AFA87F0C00822280DD8AF
:1050F000DDF80CB0002080B2B9B22E224B46CDF8BC
:1051000000800294CDF804B000F0B0FF0026C4F295
:105110000206304608210122FCF726F83046082115
:105120000022FCF721F81E25ACB220461E214FF6C6
:10513000FF72FDF79BFF642C05F10105F4D31E25DA
:10514000ACB21E2021464FF6FF72FDF78FFF642C94
:1051500005F10105F4D31E25ACB2204664214FF6BB
:10516000FF72FDF783FF642C05F10105F4D31E25C2
:10517000ACB2642021464FF6FF72FDF777FF642C36
:1051800005F10105F4D3304608210122FBF7ECFFBD
:105190004FF47A70FBF7EEFE4FF47840FDF79EFF78
:1051A00040F2C821C2F20001D1E9009A304608213C
:1051B00000220026FBF7D8FF5FFA89F5E62DC9F338
:1051C000072809D308F10A0708EB0700C0082228BE
:1051D00000F22181002401E00A270A2403983946BD
:1051E000CDE900A0204646224B46029600F03EFF45
:1051F0002C442819F02807D3474408EB0700C008BF
:10520000222800F20881002403984FF0000B01903F
:105210002046394669224B46CDF800A0CDF808B0AB
:1052200000F024FF2C442819F02807D3474408EB4A
:105230000700C008222800F2EE80002403983946B7
:10524000019020466C224B46CDF800A0CDF808B066
:1052500000F00CFF2C442819F02807D3474408EB32
:105260000700C008222800F2D680002403984FF0DF
:10527000000B0190204639466C224B46CDF800A029
:10528000CDF808B000F0F2FE2C442819F02807D31E
:10529000474408EB0700C008222800F2BC80002425
:1052A000039839460190204665224B46CDF800A070
:1052B000CDF808B000F0DAFE2C442819F02807D306
:1052C000474408EB0700C008222800F2A48000240D
:1052D000039E4FF0000B2046394664224B46CDE931
:1052E00000A6CDF808B000F0C1FE60192C18F02C13
:1052F0000CD3474408EB0700C008222800F28B803B
:1053000000242819F0280DD213E000BF39462022CE
:105310004B46CDE900A6CDF808B000F0A7FE28194D
:10532000F02806D3474408EB0700C008222872D8AB
:10533000002403984FF0000B01902046394652227A
:105340004B46CDF800A0CDF808B000F08FFE2C44FD
:105350002819F02806D3474418FA87F0C0082228F5
:1053600059D80024CDF808B0DDF80CB0B9B2204609
:1053700065224B46CDF800A0CDF804B000F076FED3
:10538000661915FA86F0F02808D3474418FA87F012
:10539000C00822283FD8DDF80CB000260024B0B2A7
:1053A000B9B263224B46CDE900AB029400F05EFE39
:1053B0002E4415FA86F0F02808D3474418FA87F0EF
:1053C000C008222827D8DDF80CB00026B0B2B9B248
:1053D00074224B46CDF800A00294CDF804B000F042
:1053E00045FE701915FA80F1F02908D3474418FAE0
:1053F00087F0C00822280ED8DDF80CB0002000216C
:10540000029180B2B9B22E224B46CDF800A0CDF861
:1054100004B000F02BFE0027C4F202073846082132
:105420000122FBF7A1FE3846082100220025FBF7E8
:105430009BFE00244FF6FF7605F11E0081B21E2070
:1054400050220B460096FDF7B1FD322C04F1010409
:10545000E5B2F1D3384608210122FBF785FE4FF46F
:105460007A70FBF787FD4FF47840FDF737FE40F286
:10547000C820C2F20000D0E90068384608210022A6
:105480004FF00009FBF770FEF5B2E62DC6F3072AD0
:105490000AD30AF10A070AEB0700C008222800F223
:1054A000A080002402E000BF0A270A24039839469E
:1054B000CDE90080204643223346CDF8089000F025
:1054C000D5FD2C442819F02807D357440AEB0700D0
:1054D000C008222800F28580002403984FF0000BBA
:1054E00001902046394669223346CDF80080CDF838
:1054F00008B000F0BBFD2C442819F02806D357440F
:105500000AEB0700C00822286BD80024039839460C
:105510000190204672223346CDF80080CDF808B0C5
:1055200000F0A4FD2C442819F02806D357440AEBB8
:105530000700C008222854D8002403984FF0000B1D
:1055400001902046394663223346CDF80080CDF8DD
:1055500008B000F08BFD2C442819F02806D35744DE
:105560000AEB0700C00822283BD8002403983946DC
:10557000019020466C223346CDF80080CDF808B06B
:1055800000F074FD2C442819F02806D357440AEB88
:105590000700C008222824D8002403984FF0000BED
:1055A00001902046394665223346CDF80080CDF87B
:1055B00008B000F05BFD60192918F02906D35744A4
:1055C0000AEB0700C00822280BD8002003992E22DE
:1055D000019139463346CDF80080CDF808B000F08F
:1055E00045FD0024C4F20204204608210122FBF7F5
:1055F000BBFD3C203C2119224FF6FF73FDF736FB23
:105600004FF47A70FBF7B6FC4FF47840FDF766FD77
:1056100040F2C820C2F20000D0E9009820460821DC
:1056200000220026FBF7A0FD5FFA89F5E62DC9F3FD
:10563000072A09D30AF10A070AEB0700C008222843
:1056400000F20581002401E00A270A240398394664
:10565000CDE90080204646224B46029600F006FD2A
:105660002C442819F02807D357440AEB0700C00838
:10567000222800F2EC80002403984FF0000B0190E8
:105680002046394669224B46CDF80080CDF808B057
:1056900000F0ECFC2C442819F02807D357440AEBFF
:1056A0000700C008222800F2D2800024039839465F
:1056B000019020466C224B46CDF80080CDF808B012
:1056C00000F0D4FC2C442819F02807D357440AEBE7
:1056D0000700C008222800F2BA80002403984FF087
:1056E000000B0190204639466C224B46CDF80080D5
:1056F000CDF808B000F0BAFC2C442819F02807D3E4
:1057000057440AEB0700C008222800F2A0800024BA
:10571000039839460190204665224B46CDF800801B
:10572000CDF808B000F0A2FC2C442819F02807D3CB
:1057300057440AEB0700C008222800F288800024A2
:10574000039E4FF0000B2046394664224B46CDE9BC
:105750000086CDF808B000F089FC60192C18F02CF8
:105760000AD357440AEB0700C00822286FD8002448
:105770002819F0280CD212E0394620224B46CDE9F8
:105780000086CDF808B000F071FC2819F02806D387
:1057900057440AEB0700C008222858D80024039871
:1057A0004FF0000B01902046394643224B46CDF87E
:1057B0000080CDF808B000F059FC2C442819F028DE
:1057C00006D357441AFA87F0C00822283FD800248D
:1057D000CDF808B0DDF80CB0B9B2204669224B46CE
:1057E000CDF80080CDF804B000F040FC661915FA41
:1057F00086F0F02808D357441AFA87F0C008222808
:1058000025D8DDF80CB000260024B0B2B9B272225F
:105810004B46CDE9008B029400F028FC701915FA74
:1058200080F1F02908D357441AFA87F0C0082228DB
:105830000DD8DDF80CB0002080B2B9B22E224B4654
:10584000CDF800800294CDF804B000F00FFC0024E5
:10585000C4F20204204608210122FBF785FC3C200B
:105860003C2119224FF6FF73FDF7A2FA4FF47A702C
:10587000FBF780FB4FF47840FDF730FC40F2C82086
:10588000C2F20000D0E900682046082100224FF053
:105890000009FBF769FCF5B2E62DC6F3072A09D328
:1058A0000AF10A070AEB0700C008222800F2B780B5
:1058B000002401E00A270A2403983946CDE9008034
:1058C000204654223346CDF8089000F0CFFB2C44FC
:1058D0002819F02807D357440AEB0700C0082228EC
:1058E00000F29D80002403984FF0000B01902046A9
:1058F000394672223346CDF80080CDF808B000F06A
:10590000B5FB2C442819F02807D357440AEB0700AD
:10591000C008222800F283800024039839460190B1
:10592000204669223346CDF80080CDF808B000F05B
:105930009DFB2C442819F02806D357440AEB070096
:10594000C00822286BD8002403984FF0000B019068
:105950002046394661223346CDF80080CDF808B0A4
:1059600000F084FB2C442819F02806D357440AEB96
:105970000700C008222852D8002403983946019015
:1059800020466E223346CDF80080CDF808B000F0F6
:105990006DFB2C442819F02806D357440AEB070066
:1059A000C00822283BD8002403984FF0000B019038
:1059B0002046394667223346CDF80080CDF808B03E
:1059C00000F054FB2C442819F02806D357440AEB66
:1059D0000700C008222822D80024039839460190E5
:1059E00020466C223346CDF80080CDF808B000F098
:1059F0003DFB60192918F02906D357440AEB07002C
:105A0000C00822280BD80020002102913946039FAC
:105A100065223346CDF80080019700F027FB40F265
:105A20000009C4F20209484608210122FBF79CFB49
:105A3000484608210022FBF797FB1E201E214FF647
:105A4000FF721E26FDF712FB1E201F214FF6FF726C
:105A5000FDF70CFB1E2020214FF6FF72FDF706FB21
:105A60001E2021214FF6FF72FDF700FB1E20222190
:105A70004FF6FF72FDF7FAFA1E2023214FF6FF7250
:105A8000FDF7F4FA1E2024214FF6FF72FDF7EEFA1F
:105A90001E2025214FF6FF72FDF7E8FA1E20262171
:105AA0004FF6FF72FDF7E2FA1E2027214FF6FF7234
:105AB000FDF7DCFA1E2028214FF6FF72FDF7D6FA1B
:105AC0001E2029214FF6FF72FDF7D0FA1E202A2151
:105AD0004FF6FF72FDF7CAFA1E202B214FF6FF7218
