:020000040800F2
:10000000B8050020A10100080B1E0008331B0008E2
:10001000091E00082504000807240008000000004D
:10002000000000000000000000000000292100087E
:100030002704000800000000D11E00082B21000842
:10004000BB010008BB010008BB010008BB010008A0
:10005000BB010008BB010008BB010008BB01000890
:10006000BB010008BB010008BB010008BB01000880
:10007000BB010008BB010008BB010008BB01000870
:10008000BB010008BB010008BB010008BB01000860
:10009000BB010008BB010008BB010008BB01000850
:1000A000BB010008BB010008BB010008BB01000840
:1000B000D5210008BB010008BB010008BB010008F6
:1000C000BB010008BB010008BB010008BB01000820
:1000D000BB010008BB010008BB010008BB01000810
:1000E000BB010008BB010008BB010008BB01000800
:1000F000BB010008BB010008BB010008BB010008F0
:10010000BB010008BB010008BB010008BB010008DF
:10011000BB010008BB010008BB010008BB010008CF
:10012000BB010008BB010008BB010008BB010008BF
:10013000BB0100080000000000000000BB01000837
:10014000BB010008BB010008BB010008BB0100089F
:10015000BB010008BB010008BB010008BB0100088F
:10016000BB010008BB010008BB010008BB0100087F
:10017000BB010008BB0100080000000000000000F7
:10018000BB010008BB010008DFF810D000F07CF8CC
:100190000048004799240008AFF30080B80500200C
:1001A0000648804706480047FEE7FEE7FEE7FEE711
:1001B000FEE7FEE7FEE7FEE7FEE7FEE7C5210008F3
:1001C000890100082DE9F05F0546002092469B4614
:1001D00088460646814640241BE02846414647465D
:1001E000224600F041F853465A46C01A914110D3B6
:1001F00011461846224600F028F82D1A67EB010830
:100200004F4622460120002100F01FF817EB00099D
:100210004E41201EA4F10104DFDC484631462A4647
:100220004346BDE8F09FD2B201E000F8012B491E21
:10023000FBD270470022F6E710B513460A46044683
:100240001946FFF7F0FF204610BD202A04DB203AB4
:1002500000FA02F1002070479140C2F1200320FA19
:1002600003F3194390407047202A04DB203A21FA17
:1002700002F00021704721FA02F3D040C2F12002BF
:100280009140084319467047064C074D06E0E06868
:1002900040F0010394E8070098471034AC42F6D3CD
:1002A000FFF776FFF424000814250008464910B52E
:1002B0004A6822F440324A604A6843681A434A60F6
:1002C00001684A6822F480724A6001684A680369DA
:1002D00042EA03224A6001684A6822F040724A609A
:1002E00001684A6883681A434A6001688A6822F490
:1002F00000628A6001688A68C3681A438A60816AFA
:100300006FF07062D14201688A6822F070628A6080
:1003100001688A680CD0836A1A438A6001688A6817
:1003200022F040528A6001688A68C36A1A4301E079
:1003300022F040528A6001688A6822F002028A60D4
:1003400001688A68037E42EA43028A6090F82010BE
:10035000002901684A680FD042F400624A600168CF
:100360004A6822F460424A6001684A68174C436A4E
:1003700004EB43331A4301E022F400624A6001684F
:10038000CA6A22F47002CA620168CA6A838B104C7E
:1003900004EB03531A43CA6201688A6822F40072AC
:1003A0008A6001688A6890F8303042EA43228A60A5
:1003B00001688A6822F480628A6001688A684069FC
:1003C00042EA8020886010BD0023014000E0FFFF6A
:1003D0000000F0FF70B50024094D264604EB4400F0
:1003E00005EB800155F820204B689A4203D345F86D
:1003F000206088688047641CE4B2032CEED370BD93
:100400001C0000200649002000EB4002401C51F86F
:100410002230C0B25B1C41F822300328F4D370476D
:100420001C000020FEE7704772B6FEE72DE9FF4191
:1004300005463C4C0F203C4E207000273BA100227B
:10044000D1E90001CDE90201009701971021304662
:1004500000F00BFB052202A9102001F089FD01200C
:1004600000F0ECF905226946102001F05DFD9DF8D1
:10047000000012280FD19DF8010034280BD19DF8FF
:100480000200562807D19DF80300782803D19DF873
:100490000400902803D0012000F0D0F9CEE700221C
:1004A00010213746304600F0E0FA2021112001F0FB
:1004B000ABFF1C4EE120761E317801F0A5FF3178AC
:1004C000E22001F0A1FF05221A49102001F050FDA1
:1004D00018490522491D0A2001F04AFD012D1FD0AF
:1004E0000121012001F090FF0121022001F08CFF89
:1004F0001A21042001F088FF0021052001F084FF6B
:100500000F21062001F080FF2178002001F07CFF00
:1005100004B03846BDE8F0410122102100F0A5BA30
:100520003F21DEE71100002000000240123456781F
:1005300090000000E024000878B50024009490F8B2
:100540003C20012A19D0012280F83C200A680723A8
:100550000568092A13D9EE680A3A02EB4202934071
:100560009E43EE600B788A680A3B03EB43039A4094
:100570000368DD682A43DA6010E0022078BD2E6946
:1005800002EB420293409E432E610B788A6803EB94
:1005900043039A4003681D692A431A614A681F236E
:1005A000072A13D205686E6B521E02EB820293403B
:1005B0009E436E630B790A885B1E92B203EB830342
:1005C0009A4003685D6B2A435A6327E005680D2A49
:1005D00012D22E6BD21F02EB820293409E432E63F7
:1005E0000B790A88DB1F92B203EB83039A400368FE
:1005F0001D6B2A431A6311E0EE6A0D3A02EB820288
:1006000093409E43EE620B790A880D3B92B203EB56
:1006100083039A400368DD6A2A43DA62164B056851
:10062000144A9D4206D10D68122D03D1556845F438
:100630008005556005689D4218D10B68102B01D0CC
:10064000112B13D1536843F4000353600968102938
:100650000CD10A490A4A0968B1FBF2F101EB8101A8
:10066000490000E0491E00910029FBD180F83C4080
:10067000002078BD00230140002001400C00002034
:1006800040420F000068C06C704770B504004FF026
:10069000000503D0206C002610B107E0012070BDDA
:1006A000204600F01DF8666484F83C60206CC006AB
:1006B00010D4206C20F4885040F0020020642046C2
:1006C000FFF7F4FD6664206C20F0020040F00100AA
:1006D000206400E0012584F83C60284670BD0000DD
:1006E00010B586B0044614216846FFF7A3FD1149F2
:1006F000206888421BD110480021026842F48072B1
:100700000260006800F4807005900B48143802689D
:1007100042F001020260006800F001000590032031
:100720000090CDE901016946044800F099F806B04F
:1007300010BD00000020014044380240000002408B
:1007400018B50021009190F83C20012A07D0012221
:1007500080F83C2002689368DB0702D011E0022099
:1007600018BD936843F0010393602E4A2E4B126824
:10077000B2FBF3F202EB420200E0521E0092002AAA
:10078000FBD102689368DB0742D0036C40F201643E
:10079000A34343F48073036453685B0505D5036C7E
:1007A00023F4005343F480530364036CDB0404D547
:1007B000436C23F00603436400E0416480F83C107E
:1007C0001A496FF02203136049680068CA06184985
:1007D00006D0884224D1816811F0405F13D01FE019
:1007E0008842F8D0134A904203D1D1F80423D206AC
:1007F000F1D0114A904213D1D1F8041301F01F0136
:100800001029E8D30CE0816841F08041816007E065
:10081000016C41F010010164416C41F0010141643F
:10082000002018BD0C00002040420F0000230140B2
:1008300000200140002101400022014070B5044623
:1008400000F018F90546601C02D004480078044402
:1008500000F010F9401BA042FAD370BD0000002048
:100860002DE9F84FDFF8BCA1002201250AF1040BA5
:1008700003264FF00F090BF1040E00BF0B6805FAB9
:1008800002F42340A34270D10F7907F00307012F30
:1008900001D0022F16D187684FEA420806FA08FCF9
:1008A00027EA0C07D1F80CC00CFA08FC4CEA070C3C
:1008B000C0F808C04768A7430C79C4F300149440FB
:1008C0003C4344600C79E443A4070AD0C4684FEA6F
:1008D000420C06FA0CF7BC438F6807FA0CF7274363
:1008E000C7600C7904F00304022C12D1D40800EB89
:1008F000840CDCF820405707FF0E09FA07F824EAB9
:100900000804D1F8108008FA07F848EA0408CCF87F
:10091000208004684FEA420C06FA0CF7BC430F79BA
:1009200007F0030707FA0CF7274307604C6814F435
:10093000403F70D03C4C276847F4804727602468CC
:1009400022F0030704F480440094384C07EB040CB5
:10095000DCF8084897074FEA177809FA08F7BC430C
:10096000334FB84202D1002724E054E0314FB8425F
:1009700001D101271EE0304FB84201D1022719E012
:100980002E4FB84201D1032714E02D4FB84201D1B8
:1009900004270FE02B4FB84201D105270AE02A4F68
:1009A000B84201D1062705E0284FB84201D10727F8
:1009B00000E0082707FA08F72743CCF80878DAF8A8
:1009C00000405746D1F804C09C435FEACC3C00D5B8
:1009D0001C433C60DBF800405F46D1F804C09C43F8
:1009E0005FEA8C3C00D51C433C60DEF80040774653
:1009F000D1F804C09C435FEACC2C00D51C433C607A
:100A0000084F0C373C68D1F804C09C435FEA8C2C3B
:100A100000D51C433C60521C102AFFF42FAFBDE8E8
:100A2000F88F0000003C0140443802400030014093
:100A3000000002400004024000080240000C024096
:100A4000001002400014024000180240001C024046
:100A50000069084000D001207047426921EA020382
:100A60000A4043EA0241816170470AB181617047DF
:100A70000904FBE70148806870470000000000207F
:100A800002488168027811448160704700000020AC
:100A90000B4810B5016841F400710160016841F430
:100AA00080610160016841F480710160032000F001
:100AB0006FF8002000F006F800F024F8002010BDC8
:100AC000003C024070B50D4D04464FF47A71287811
:100AD000B1FBF0F00A490968B1FBF0F000F0CDFD80
:100AE00048B9102C07D200222146501E00F030F8E1
:100AF00000206C6070BD012070BD0000000000206F
:100B00000C0000200A4808B5016841F480410160EA
:100B1000006800F4804000900548001F016841F023
:100B200080510160006800F08050009008BD000016
:100B300044380240002809DB00F01F0201219140E7
:100B40004009800000F1E020C0F80011704700006B
:100B5000F0B40E4B1B680C46C3F30223C3F1070528
:100B6000042D00D90425191D072901D2002300E016
:100B7000DB1E012606FA05F1491E214099409E40E0
:100B8000761E16403143F0BC01F066BC0CED00E06F
:100B9000064900F0070208684FF6FF03184040EAD4
:100BA0000220034A10430860704700000CED00E08B
:100BB0000000FA052DE9F0470E46050065D0DFF884
:100BC0001481D8F80000F7B200F00700B04207D255
:100BD00088F80070D8F8000000F00700B04254D147
:100BE00028683D4C810712D5400703D5206840F4A2
:100BF000E05020602878000703D5206840F460406A
:100C000020602068A96820F0F00008432060287860
:100C1000C0072DD0304968680839012812D0022851
:100C200013D0032811D00968890700292DDA21681B
:100C300021F0030101432160FFF71CFF814641F2CF
:100C4000883A0EE009688903EFE709688901ECE753
:100C5000FFF710FFA0EB0901514502D90320BDE8C1
:100C6000F0872068696800F00C00B0EB810FEFD1CD
:100C7000D8F80010404601F00701B14207D90770CB
:100C8000006800F00700B04201D00120E7E72878B3
:100C9000400705D52068E96820F4E050084320604B
:100CA0002878000706D52068296920F4604040EACA
:100CB000C100206000F018F82168084AC1F3031150
:100CC000515CC8400649086006480068FFF7FAFE14
:100CD0000020C4E7003C024008380240D02400084D
:100CE0000C00002004000020154810B5006810F02A
:100CF0000C02144813D04110042A0FD0082A0ED138
:100D00000F4C241F2268236802F03F025B0207D5C4
:100D10002068C0F38810A0FB010106E0084610BD62
:100D20002168C1F38811A1FB00010023FFF74AFAF3
:100D30002168C1F30141491C4900B0FBF1F010BD2D
:100D4000083802400024F4002DE9F84F04006ED06A
:100D50002078DFF84C93C007A9F104054AD009F1C7
:100D600004000168C1F38101012908D00068C0F3C3
:100D7000810002280AD1D9F80000400206D528686F
:100D8000800337D560680028E1D033E06068B0F5B3
:100D9000803F10D0B0F5A02F286810D020F480300C
:100DA0002860286820F4802028606068A8B1FFF7D8
:100DB00061FE06460DE0286840F48030F4E740F418
:100DC00080202860F7E700BFFFF754FE801B6428EF
:100DD00073D828688003F7D50CE0FFF74BFE064672
:100DE00005E000BFFFF746FE801B6428F0D82868A6
:100DF0008003F7D42078DFF8AC8280074FF0000A38
:100E00003ED5A748001D016811F00C0F08D00068FE
:100E1000C0F3810002280BD1D9F80000400207D4AA
:100E20002868800716D5E068012800D112E033E178
:100E3000E068B8B10120C8F80000FFF71BFE0646C5
:100E400005E000BFFFF716FE801B0228C0D8286807
:100E50008007F7D52868216920F0F80040EAC10032
:100E600028600DE0C8F800A0FFF704FE064604E085
:100E7000FFF700FE801B02281FD828688007F7D4E0
:100E80002078000722D5864F87486169703771B195
:100E900001210160FFF7EEFD064604E0FFF7EAFDE1
:100EA000801B022809D838688007F7D50EE0C0F803
:100EB00000A0FFF7DFFD064605E082E0FFF7DAFD60
:100EC000801B02287DD838688007F7D42078400737
:100ED00068D5DFF8CCB100270BF13C0BDBF8000044
:100EE000C0000BD4DBF8001041F08051CBF80010AB
:100EF000DBF80000012700F0805000906B4E306856
:100F0000C00510D4306840F480703060FFF7B2FD47
:100F1000009005E0FFF7AEFD0099401A022850D876
:100F20003068C005F6D55E4EA0686C3601280FD03B
:100F30000528306810D020F001003060306820F0C3
:100F400004003060A068B8B1FFF794FD00900FE096
:100F5000306840F00100F4E740F004003060F7E74B
:100F6000FFF788FD0099411A41F28830814266D826
:100F700030688007F4D50EE0FFF77CFD009007E0B5
:100F8000FFF778FD0099411A41F28830814256D826
:100F900030688007F4D42FB1DBF8001021F08051C5
:100FA000CBF80010A069C8B33D49091D0968C1F319
:100FB000810102294AD00228504607D0C8F86000B3
:100FC00000E03CE0FFF756FD04463BE04746C8F82A
:100FD0006000FFF74FFD064605E000BFFFF74AFD42
:100FE000801B02282BD828688001F7D4D4E9070198
:100FF0000843A16A2E4A490802EB0141626A41EAAC
:101000008211084394F82C1040EA0161C9F80010DD
:1010100001203866FFF72EFD044606E03EE000BFE3
:10102000FFF728FD001B022809D828688001F7D5A2
:1010300034E000BFFFF71EFD001B022802D9032089
:10104000BDE8F88F28688001F4D427E00128F7D0A4
:10105000D9F80000E26900F4800191421CD1226AB3
:1010600000F03F01914217D147F6C071626A01401A
:10107000B1EB821F10D1A26A4FF0FF3300F4403170
:1010800003EB5202B1EB024F06D194F82C1000F0A2
:101090007060B0EB016F01D00120D1E70020CFE7F5
:1010A0000438024000004742800E47420070004072
:1010B0000000FFFF70B5040009D0606A002540B150
:1010C00025616561A56294F8510040B10CE00120F2
:1010D00070BD6068B0F5827FF4D0E561F2E784F816
:1010E0005050204600F044F8022084F85100206857
:1010F000016821F040010160A088218900F482701C
:1011000001F404410843A18901F400610843217CF2
:1011100001F002010843217D01F001010843218B08
:1011200001F400710843217F01F03801084394F86D
:10113000201001F080010843218D01F40051084383
:1011400021680860A069042101EA104094F8241085
:1011500001F010010843216848602068C16921F44A
:101160000061C1616565012084F85100002070BDF7
:1011700010B586B0044614216846FFF75BF81349A2
:101180002068884220D112480021026842F480522F
:101190000260006800F4805005900D481438026821
:1011A00042F001020260006800F001000590E020BA
:1011B00000900220CDE90101032003900520049056
:1011C00069460448FFF74CFB06B010BD00300140F3
:1011D00044380240000002402DE9F84F04464068C0
:1011E0000025984616460F464FF0040BB0F5827F57
:1011F00001D1A06888B194F85000012818D00120CE
:1012000084F85000FFF736FC814694F851004FF007
:10121000000A01280ED0022582E084F851B013465E
:101220000A462046CDF8008000F036F9BDE8F88F78
:101230000220FBE7002F72D0002E70D084F851B04E
:10124000C4F854A0A763A687E687C4F830A0A4F822
:1012500034A0A4F836A0C4F840A0C4F844A0A06804
:10126000B0F5004F09D12068016821F0400101600C
:101270002068016821F48041016020680168490606
:1012800003D4016841F040010160E068D8B139E061
:1012900020688168C90709D0007BA16B0870A06B2A
:1012A000401CA063E08F401EE0870CE0FFF7E2FBEC
:1012B000A0EB0901414503D3B8F1FF3F03D036E06D
:1012C000B8F1000F33D0E08F0028E1D11DE0206895
:1012D0008168C90709D0C068A16B0880A06B801C19
:1012E000A063E08F401EE0870CE0FFF7C3FBA0EB9C
:1012F0000901414503D3B8F1FF3F03D017E0B8F12E
:10130000000F14D0E08F0028E1D14A464146204624
:1013100000F054FE08B120206065606D00B1012529
:10132000012084F8510084F850A028467EE7032568
:10133000F6E72DE9F84F044690F8500000271D46C7
:101340001646894601280DD04FF0010B84F850B0A5
:10135000FFF790FB804694F85100BA46012804D06C
:10136000022793E00220BDE8F88FB9F1000F73D097
:10137000002E71D0032084F85100C4F854A0C4F8A2
:101380003090A686E686C4F838A0A4F83CA0A4F85D
:101390003EA0C4F844A0C4F840A0A068B0F5004F37
:1013A00009D12068016821F04001016020680168CE
:1013B00041F48041016020680168490603D4016856
:1013C00041F040010160E068B0F5006F606803D053
:1013D00030B3012E24D041E008B1012E1CD1206B86
:1013E00021680088C86006E020688168890709D5FF
:1013F000216B0988C160206B801C2063E08E401E39
:10140000E08609E0FFF736FBA0EB0800A84202D314
:10141000681C01D031E07DB3E08E0028E4D120E0EB
:10142000206B21680078087306E0206881688907CE
:1014300009D5216B09780173206B401C2063E08E75
:10144000401EE0860AE0FFF715FBA0EB0800A8426B
:1014500003D3681C02D010E017E06DB1E08E0028C5
:10146000E3D142462946204600F0D6FD08B12020AF
:101470006065A06818B106E0FFE7032706E0206872
:10148000C16880680090606D00B1012784F851B098
:1014900084F850A0384666E72DE9F84F044690F8E6
:1014A000500000270A9E1D4692468B464FF00109C8
:1014B00001280ED0012084F85000FFF7DBFA8046A7
:1014C00094F85100616801280CD0B1F5827F07D1F2
:1014D00002E00220BDE8F88FA16809B9042801D014
:1014E0000227C2E0BBF1000F27D0BAF1000F24D0D1
:1014F0001DB394F85100042802D0052084F851004F
:1015000000206065C4F838A0E587A587C4F830B02E
:10151000E586A5862064606420680168490603D4D6
:10152000016841F040010160E068B0F5006F60685B
:1015300005D0E8B3012D46D07FE0012795E008B142
:10154000012D39D1206B21680088C860206B801C78
:101550002063E08E401EE0862EE0206881688907C7
:101560000FD5E18E69B1B9F1010F0AD1216B09885C
:10157000C160206B801C2063E08E401EE0864FF02F
:10158000000920688168C9070CD0E18F51B1C0689B
:10159000A16B0880A06B801CA063E08F401EE087D9
:1015A0004FF00109FFF766FAA0EB0800B04200E037
:1015B00009E001D3701C50D1E08E0028CDD1E08F1E
:1015C0000028CAD13FE0206B216800780873206BA7
:1015D000401C2063E08E401EE0862EE0206881687B
:1015E00089070FD5E18E69B1B9F1010F0AD1216BDD
:1015F00009780173206B401C2063E08E401EE0865A
:101600004FF0000920688168C9070CD0E18F51B103
:10161000C068A16B0870A06B401CA063E08F401EE7
:10162000E0874FF00109FFF725FAA0EB0800B04270
:1016300002D3701C01D010E07EB1E08E0028CDD125
:10164000E08F0028CAD142463146204600F0E4FC33
:1016500028B101272020606507E0032705E0A06886
:1016600018B92068C16880680090012084F8510092
:10167000002084F8500038462CE710B5401EB0F129
:10168000807F01D3012010BD4FF0E02460610F2165
:10169000601700F0E1FE0020A0610720206100201B
:1016A00010BD70477047000070B590F83C20012ACB
:1016B00032D0012480F83C40022280F83D200368AB
:1016C0005A689D6822F070060A6832435A60134BCC
:1016D00002689A4214D0B2F1804F11D0104B9A4256
:1016E0000ED0104B9A420BD00F4B9A4208D00F4BA2
:1016F0009A4205D00E4B9A4202D00E4B9A4204D128
:10170000496825F080031943916080F83D4000212D
:1017100080F83C10084670BD022070BD00000140FA
:101720000004004000080040000C0040000401409C
:10173000004001400018004010B5040003D094F8A8
:101740003D0010B107E0012010BD002084F83C00EE
:10175000204600F01FF8022084F83D00211D20687B
:1017600000F03EFD012084F8460084F83E0084F835
:101770003F0084F8400084F8410084F8420084F877
:10178000430084F8440084F8450084F83D000020BC
:1017900010BD000008B501681748814208D11748FC
:1017A000016841F001010160006800F001000EE0F5
:1017B0001248001FB1F1804F0BD0114A914207D15E
:1017C000016841F002010160006800F00200009031
:1017D00008BD016841F0010101600068002200F0CD
:1017E0000100009007211C20FFF7B2F9BDE8084076
:1017F0001C20FFF79FB90000000001404438024060
:101800000004004090F83D10012901D001207047EC
:10181000022180F83D100168CA6842F00102CA60E6
:1018200000681149884214D0B0F1804F11D00F499F
:1018300088420ED00E4988420BD00E49884208D00B
:101840000D49884205D00D49884202D00C49884292
:1018500004D1816801F00701062903D0016841F035
:1018600001010160002070470000014000040040B9
:1018700000080040000C004000040140004001400E
:101880000018004070B5044690F83C00002501287F
:1018900017D0012684F83C60022084F83D002068BF
:1018A000826822F0770222F47F4282600868502822
:1018B00038D00DDC20284FD005DC90B3102811D192
:1018C0004AE0022070BD302846D040280AD13BE0D3
:1018D00060282FD070280DD0B0F5805F03D0B0F510
:1018E000005F12D0012584F83D60002084F83C00A0
:1018F000284670BDCB68D1E90121206800F0D4FCF6
:101900002068816841F0770109E0CB68D1E90121C5
:10191000206800F0C9FC2068816841F48041816042
:10192000E1E719E0CA684968206800F015FD502118
:10193000206806E0CA684968206800F01EFD602142
:10194000206800F0BBFCCEE7CA684968206800F058
:1019500003FD40212068F4E7226801461046F0E7C5
:10196000704770B50446006801694FF00005C9432F
:10197000890715D4C168C943890711D4E91E0161DB
:1019800001202077206880698007204602D0FFF779
:10199000E7FF04E000F098F8204600F096F825777D
:1019A00020680169C943490717D4C168C943490779
:1019B00013D46FF004010161022020772068806950
:1019C00010F4407F204602D0FFF7CAFF04E000F089
:1019D0007BF8204600F079F8257720680169C94333
:1019E000090716D4C168C943090712D46FF008016A
:1019F0000161042020772068C0698007204602D05A
:101A0000FFF7AEFF04E000F05FF8204600F05DF85D
:101A1000257720680169C943C90617D4C168C9433D
:101A2000C90613D46FF010010161082020772068E7
:101A3000C06910F4407F204602D0FFF791FF04E018
:101A400000F042F8204600F040F825772068016950
:101A5000C943C90708D1C168C943C90704D1891E50
:101A60000161204600F032F820680169C943090687
:101A700009D4C168C943090605D46FF0800101612A
:101A80002046FFF70EFE20680169C943490609D4C4
:101A9000C168C943490605D46FF040010161204681
:101AA00000F046F820680169C94389060BD4C16873
:101AB000C943890607D46FF0200101612046BDE8C3
:101AC0007040FFF7EFBD70BD704770470068B0F120
:101AD000804F01D1FEF796BC704770B5044690F870
:101AE0003C00012812D0012584F83C50022084F8E3
:101AF0003D00204600F0EAFB01004FF0000007D057
:101B000084F83D5084F83C00012070BD022070BD77
:101B10002168CA6822F04002CA602168CA6822F4BB
:101B20008042CA6084F83D5084F83C00002070BDBB
:101B30007047FEE77FB500241B480094019402948F
:101B400018490394016001254FF480310561C0E913
:101B50000114057680F820404FF04051C162022602
:101B6000C661C910C460816280F830404561FEF7EB
:101B70008CFD08B1FEF758FCCDE9004569460A48DE
:101B80000294FEF7D9FC08B1FEF74EFCCDE90056F1
:101B900069460548FEF7D0FC002801D0FEF744FC5A
:101BA0007FBD000000200140400000202DE9F041F1
:101BB00086B014216846FEF73DFB2E4800240168DC
:101BC00041F004010160016801F004010591016820
:101BD00041F080010160016801F080010591016818
:101BE00041F001010160016801F001010591016806
:101BF00041F00201016000681F4E00F002004FF446
:101C000088750590002229463046FEF72EFF1B4FAF
:101C1000002210213846FEF728FFDFF864800022FA
:101C200001214046FEF721FF00950125CDE9015431
:101C3000694630460394FEF713FE10200090CDE96C
:101C40000154694638460394FEF70AFE2020CDE988
:101C50000004694638460294FEF702FE0095CDE97D
:101C60000154694640460394FEF7FAFD06B0BDE80C
:101C7000F0810000303802400000024000080240BD
:101C800000040240104810B50E4901604FF4827103
:101C9000416000218160C1604FF400720161C0E9C0
:101CA00005121822C0E90721416281620A21C1623E
:101CB000FFF700FA002803D0BDE81040FEF7B4BBE0
:101CC00010BD0000003001408800002010B588B031
:101CD00014216846FEF7AEFA00241648059414490C
:101CE00006940160A821C0E9011440F2E731C0E97F
:101CF00003148021C0E90541FFF71EFD08B1FEF77E
:101D000093FB009469460B480194FFF7E6FE08B187
:101D1000FEF78AFB2020CDE9050405A90548FFF759
:101D2000C3FC002801D0FEF77FFB08B010BD000007
:101D300000000140E000002010B586B000241748E4
:101D4000009401940294039404944FF0804105940C
:101D500001605321C0E9011440F2E731C0E90314E6
:101D600080218161FFF7E8FC08B1FEF75DFB4FF4CD
:101D70008050009069460948FFF784FD08B1FEF7DE
:101D800053FB2020CDE9040404A90448FFF78CFC90
:101D9000002801D0FEF748FB06B010BD2801002046
:101DA00010B588B014216846FEF744FA002415489F
:101DB00005941349069401601E21C0E9011440F204
:101DC000E731C0E903148461FFF7B6FC08B1FEF700
:101DD0002BFB009469460B480194FFF77EFE08B187
:101DE000FEF722FB2020CDE9050405A90548FFF7F1
:101DF0005BFC002801D0FEF717FB08B010BD000007
:101E00000004004070010020FEE7FEE770B5134CAF
:101E10000546002210212046FEF727FE0E21002055
:101E200000F0F2FA012210212046FEF71EFE0120EA
:101E3000FEF704FD284600F015F800221021204688
:101E4000FEF713FE06480178002000F0DDFA204678
:101E5000BDE8704001221021FEF707BE00000240DD
:101E60001100002070B5174D0446002210212846AD
:101E7000FEF7FBFD20222146A02000F079F8012288
:101E800010212846FEF7F1FD0F4C20212046FEF7D9
:101E9000DFFD0128F9D0072000F01CF804460146B8
:101EA000072000F0B1FA0948E10605D50178E120E4
:101EB00000F0AAFA102070BDA10601D5202070BD47
:101EC000007870BD000002400008024010000020B1
:101ED0007047000031B584B00020104D8DF804002B
:101EE000024610212846FEF7C0FD4FF0FF340123C3
:101EF00002AA04A90A480094FFF7CEFA012301AA16
:101F0000084907480094FFF7C7FA01221021284624
:101F1000FEF7ABFD9DF8040005B030BD000802409F
:101F20008800002010000020F8B50F4D16460F461F
:101F30000446002210212846FEF797FD8DF8004048
:101F40004FF0FF342346012269460848FFF7F1F9B4
:101F50002346324639460548FFF73EF90122102153
:101F60002846FEF782FDF8BD0008024088000020E8
:101F7000F8B5104D16460F4604460022102128469B
:101F8000FEF773FD44F020008DF800004FF0FF34A1
:101F90002346012269460848FFF7CBF9234632461B
:101FA00039460548FFF7C5F9012210212846FEF7FA
:101FB0005CFDF8BD0008024088000020F8B504462A
:101FC00040684FF48273984221D1A0684FF4806535
:101FD000B0F5004F01D0A8420AD12068066826F06B
:101FE000400606606068984211D1A068A8420ED0F1
:101FF00000920B4600228021204600F039F800288C
:1020000004D0606D40F0200060650320F8BD0092B0
:102010000B4600220121EFE738B504461248134B66
:102020000068B0FBF3F04FF47A7358430090606897
:10203000B0F5827F0DD10B46009200228021204610
:1020400000F016F870B1606D40F02000606503206C
:1020500038BD009830B1401E009020688068C043B1
:102060000006F6D5002038BD0C00002000366E01B9
:102070002DE9F8431E46914688460446089DFEF722
:10208000F9FC401B351AFEF7F5FC074625480068A9
:10209000C0F3CB30684338E0701C37D0FEF7EAFC61
:1020A000C01BA84203D215B1009860B32CE0206891
:1020B000416821F0E00141606068B0F5827F0BD19A
:1020C000A068B0F5004F02D0B0F5806F04D1206851
:1020D000016821F040010160A06AB0F5005F09D1FC
:1020E0002068016821F4005101602068016841F412
:1020F00000510160012084F85100002084F8500054
:102100000320BDE8F8830025401E00902068816808
:1021100038EA010004D000214945BDD10020F0E794
:102120000121F9E70C0000207047FEF7A9BC000070
:1021300030B593B030216846FEF77CF814210CA826
:10214000FEF778F81D480025016841F080510160D4
:10215000006800F0805011901948016841F48041F6
:1021600001600068022400F4804011900120039077
:1021700010200490009406940820CDE90750A82070
:10218000CDE9090404200B906846FEF7DDFD08B197
:1021900072B6FEE70CA90F2081E831004FF4A05081
:1021A0000F904FF48050109005210CA8FEF702FD0F
:1021B000002801D072B6FEE713B030BD40380240AF
:1021C000007000400248016841F4700101607047EE
:1021D00088ED00E00148FFF7C4BB000028010020A3
:1021E000F0B50268254C264D264E274F274B4FF061
:1021F000804CA04209D0604507D0A84205D0B0422B
:1022000003D0B84201D0984204D122F0700E4A683F
:1022100042EA0E02A0421BD0604519D0A84217D056
:10222000B04215D0B84213D0984211D0184DA842F0
:102230000ED0184DA8420BD0174DA84208D0174D0C
:10224000A84205D0164DA84202D0164DA84203D18F
:1022500022F44075CA682A434D6922F080022A435D
:1022600002608A68C2620A688262A04201D0984213
:1022700001D10969016301214161F0BD0000014004
:102280000004004000080040000C00400004014031
:102290000040014000440140004801400018004057
:1022A000001C00400020004010B5846842EA032270
:1022B00024F47F440A432243826010BD826822F0E6
:1022C00070020A4342F007018160704770B50368ED
:1022D00000249A6822F070054A682A4322F0070514
:1022E0000A682A439A604A6812F00F0F31D112111E
:1022F000082A2ED2DFE802F02E2E2E2E0B212704E4
:102300000B69D1E902210068FFF7CEFF22E00A68DD
:10231000052A10D00268136A156A25F001051562B6
:1023200002689569096925F0F00545EA0111916196
:10233000006803620EE0012070BD0A6989680068C8
:1023400000F00AF806E00A698968006800F015F8EC
:1023500000E00124204670BD10B5036A046A24F031
:1023600001040462846924F0F00444EA021423F0B6
:102370000A020A438461026210BD10B5036A23F0A9
:10238000100303628369046A23F4704343EA023250
:1023900024F0A00343EA01118261016210BD000034
:1023A0001CB50C490C4CD1E90001CDE90001606875
:1023B000401C6060642808D904210848FEF74DFBE2
:1023C0006846FFF723FD002060600548FEF75AF9D4
:1023D00020601CBDEC24000814000020000C02400A
:1023E0004000002010B54FF480710448FEF735FB23
:1023F000BDE810400248FEF7A3B90000000002400B
:10240000400000207047FEE733B5114D044683B00D
:10241000002210212846FEF728FB44F020008DF80A
:1024200004004FF0FF342346012201A90948FEF7BA
:1024300080FF012302AA04A906480094FFF72CF8A4
:10244000012210212846FEF710FB05B030BD000028
:1024500000080240880000200907090E002804DB5C
:1024600000F1E02080F80014704700F00F0000F148
:10247000E02080F8141D704702E008C8121F08C150
:10248000002AFAD170477047002001E001C1121FF5
:10249000002AFBD170470000FEF7FAFAFFF748FE6A
:1024A000FFF784FBFFF7EEFBFFF710FCFFF744FCA0
:1024B000FFF740FBFFF774FC0448FFF7A3F9012086
:1024C000FDF7B4FFFDF786FFFCE7000028010020C0
:1024D00000000000000000000102030406070809D4
:1024E000FFFFFFFFFFFFFFFFFFFF0000112255006E
:1024F000000000001425000800000020400000003B
:1025000078240008542500084000002078050000C9
:1025100088240008010000001000000000000000F6
:102520000024F400FF000000000000000000000094
:102530000000000001000000E5230008000000008A
:102540000200000005240008000000001E0000003A
:04255000A1230008BB
:040000050800018965
:00000001FF
